:10E8B2003D403F3B33281C002C2D3C3D38301A0094
:10AB3D0001C60041F8220041F81F0041F8200641EE
:05AB4D00F82100C10B1E
:1062F000A81474FFFFFEFDFC124751E47B10FAF96D
:10630000F81246C6A804A905AA06AB0722785EE6DD
:10631000FE08E6FFE4FCFD221246C6E47BE87A03B1
:10632000F9F8124751E47B127A02F9F8D30247E3F5
:1063300090F80FE05407900AA5FF75F00312486F1C
:1063400002489D8F0E8F0D8F0C7A00790C7B00D246
:10635000067D037C002290F812E0FF90F819E02FF0
:10636000C313FF752A00752B38752C00752D7075B9
:106370002EFF752FC87530FF7531902290F81BE005
:106380001313543FFF90F814E02FFF752AFF752B6D
:1063900090752C00752D30752E00752F707530009E
:1063A0007531302290F839E0FEA3E0FBAA06E4F94B
:1063B000F822AA06AB07AF407E0012458C7C007D18
:1063C000080245F3785FE62480FF18E63402FEE415
:1063D000FCFDE5132FFFE5123EFEED3511FDEC222D
:1063E0001246C6C3E50F9FFFE50E9EFEE50D9DFD1F
:1063F000E50C9C22ED9FFFEC9EFEE6FD7C00D3EFBA
:106400009DEE9C2290F80FE05418131313541F2292
:106410001247518F0F8E0E8D0D22AE30AF31E4FC3E
:10642000FD0246C6785EE6FE08E62290F80FE054CC
:10643000E0C4135407FF227B007A00790C22124536
:106440008C7C007D7E1245F38F0D2235108F138ECC
:10645000128D1122FF752A00752B38752CFF752DB2
:1064600090752EFF227532107BAF7A007DA67C01DD
:10647000227532147B027AFE7DFF7C0022FC1245DD
:106480008C7C007D400245F390F80FE054E72290A9
:10649000F81CE01313543FFF90F81522AB3AAA3BC7
:1064A000A93C124629FDC3227B1EFAF9F80246C612
:1064B000C308E69FFF18E69E2275F003EF900AB12D
:1064C00022FDFCAB28AA27A926A82522AF35E4FC8B
:1064D000FDFE7B387A1822FFE6FC08E6FDD39FEC30
:1064E0009E22E50D24FFFFE50C34FFFE22FE12453F
:1064F0008CAC06AD07E54522FFA60608A60722AB31
:1065000017AA16A915228B278A28892922E525246E
:07651000F8FFE434FFFE2256
:10E6D1008E3B8F3CE53B5401FB7DFE7F1312D9C27B
:07E6E100AD3C7F1202EA8F3D
:10DF20008E2A8F2BE52B7807CEC313CE13D8F95446
:10DF300002FB7DFD7F1312D9C2AD2B7F1102EA8F48
:10DF40008E3E8F3FE53E540FFB7DF07FB512D9C268
:10DF5000AD3F7FB612EA8F7B047DFB7FB702D9C24B
:10E75900EFC454F0FB7D0F7FB712D9C27B047DFB58
:05E769007FB702D9C2D8
:09EAF1007B207DDF7F5202D9C2B7
:09EAFA007BC07D3F7FD402D9C22C
:10DD6E008F3B78AEE6A2E35018E4FD7FDA12EA8F1D
:10DD7E0012E9CAE53BF4FDE53B4406FB7FDA12D916
:02DD8E00C222AF
:10E49800EFF4FDE4FB7FDA12D9C27D387FDA12E7A8
:0AE4A800E9EF7006FD7FDA12EA8F3B
:01E4B2002247
:01EBE800220A
:087B83008F228B238A2489253F
:107B8B00E522600464017057E522127CC1E5227C7A
:107B9B00017003FD80027D80AB23AA24A925127CF2
:107BAB00D3E522127CCAE5227C017003FD80027DA5
:107BBB0080AB26AA27A928127CD3E52244A0FD7FFF
:107BCB006712EA8FE5227C017003FD80027D80AB9A
:107BDB0029AA2AA92BD2067F6612D68F027CB9E579
:107BEB002264026009E52264036003027CC0E4F5B1
:107BFB002EE4F555F551E52E7014E5225401127C57
:107C0B00C1E5252410F9E435248523528030E52E77
:107C1B00B40114E5225401127CCAE5282410F9E4BE
:107C2B0035278526528017E522540144A0FD7F6736
:107C3B0012EA8FE52B2410F9E4352A852952F553E6
:107C4B008954E4F52FAB527E00E554252FF9EE3520
:107C5B0053FA90FFF0124509FF740C252FF8A60775
:107C6B00052FE52FB410DEE4F52CF52DE5227E0172
:107C7B00B402047F0080027F80C3E52D9FE52C9E1C
:107C8B00502012A820EFC454F0F52F12A820EF4279
:107C9B002FAD2F7F6612EA8F052DE52D70CE052CAB
:107CAB0080CA052EE52EC394035003027BFC7D4056
:057CBB007F6712EA8F53
:107CC000224480FD7F6712EA8F224490FD7F671275
:0B7CD000EA8F22D2067F6612D68F22B8
:10CD84008B228A2389247B807D3F7F6B12D9C2AB9F
:10CD940022AA23A924D2067D187C007F6912D68F8B
:10CDA4007B407D3F7F6B12D9C2AB25AA26A927D22F
:10CDB400067D187C007F6A12D68F7D387F6B02EA6D
:01CDC4008FDF
:10D89E00787AE6540F9008CA126339C003C002C0EA
:10D8AE000175F003EF9008CA12633D8B288A29890F
:0AD8BE002AD001D002D00302D0A945
:10D0A9008B258A2689277DB07F1C12EA8FAB25AA9A
:10D0B90026A92712D0D67DC07F1C12EA8FAB28AAD9
:10D0C90029A92A12D0D6E4FD7F1C02EA8FD2067D57
:09D0D900807C007F1D12D68F221D
:10CA500078AEE65470C4540F701D90F831E0FFD3E7
:10CA600094024006EF24FEFF800590F831E0FF8F2E
:10CA70000E8F0D8F0C800A90F831E0F50EF50DF554
:10CA80000C7D807F6412EA8F1263497F6512D68F16
:07CA9000E4FD7F6402EA8F60
:10C05E00E4FB74352BF582E434F8F583E0FF7E00C3
:10C06E0090F832E0FD7C0012458CEF7807CEC313BA
:10C07E00CE13D8F9FFD394FFEE940040087C007ED7
:10C08E00007FFF80027E00740C2BF8A6070BBB030B
:10C09E00C17D837F6412EA8F1263497F6512D68F4A
:07C0AE00E4FD7F6402EA8F4C
:01EBE9002209
:10D7710090F82AE0F50CA3E0F50DA3E0F50E7D800D
:10D781007FDC12EA8F7D847FDC12EA8F1263497F8E
:0BD79100DD12D68FE4FD7FDC02EA8F82
:10D5A60090F82DE0F50FA3E0F510A3E0F5117D80CE
:10D5B6007FDC12EA8F7D877FDC12EA8F7A00790F93
:0FD5C60012634D7FDD12D68FE4FD7FDC02EA8F0A
:06EBA20012D77102D5A696
:10D311008F228D238B24E4FB7DDF7F6C12D9C27BAE
:10D32100207DDF7F6C12D9C2AD227F6D12EA8FADF5
:10D33100237F6D12EA8FAD247F6D12EA8FE4FB7DAE
:06D34100DF7F6C02D9C27F
:10DBBB008B228A2389247D807F6E12EA8FAB22AA67
:10DBCB0023A924D2067D307C007F6F12D68FE4FD13
:05DBDB007F6E02EA8FDD
:106E25008F261263A490F83FE0FEA3E0FFE4FCFD8B
:106E350012630190832FE493FE740193FFE4FCFD3C
:106E45001246AB1264138C0C786412630FAB0FAA55
:106E55000EA90DA80C1246C6C006C00790F83D1233
:106E650063A7D007D006124751C004126306126308
:106E75000DD0001246C6C006C0071263A4D007D0C5
:106E8500061264108C0C78ADE6FFC37869E69FFFA7
:106E950018E69400FEE4FCFDC004126306126424A7
:106EA500FFE4D0001246C6C004126306786612637A
:106EB5000FD0001246ABC006C00778ACE6240AFF27
:106EC500E433AB07FAE4F9F8D007D0061246B81256
:106ED500644D8C10E52630E0061263C4026F61E54F
:106EE5002630E13D786412630F7B807A02F9F8124F
:106EF50046C6C006C00790F83D1263A7D007D00666
:106F0500124751C00412630612630DD0001246AB3E
:106F1500E5132FFFE5123EFEE5113DFDE5103C8032
:106F2500051263C4351012644DF510D37863E694E9
:106F35009018E69406501612630D1263D212644B34
:106F4500F5107B107DEF7F1912D9C28014E513244B
:106F550080FFE5123402FEE43511FDE412644BF5C1
:106F650010C3E513950FFFE512950EFEE511950D7E
:106F7500FDE510950C126413F50C1264241263AB35
:106F8500AF0FAE0EAC0C1247518F1A126424126368
:106F9500ABAF1AFCFDFE1263E0FCE47B10FAF9F8D6
:106FA5001247518F1BE4FB7DFD7F4312D9C2AD1AF9
:0F6FB5007F4012EA8FAD1B7F4112EA8FAF1A2285
:0875F5008F288E278D268C25BE
:1075FD00E4FF7E041264C11246C67B007AA07905B1
:10760D0078001247518E298F2AD3E52A94FFE52958
:10761D009400401C752B01E52A2402FFE43529FE58
:10762D00EF7802CEC313CE13D8F9F52A8E29801325
:10763D00752B02E52A2401FFE43529C313F529EF43
:10764D0013F52AAE29AF2A7C007D6412458C7C0E81
:10765D007D5312459EEF14F511E4F512E511C39417
:10766D0008400974F82511F511431208E511C3946A
:10767D0004400974FC2511F511431204E511C3945E
:10768D0002400715111511431202E511C394014073
:10769D00051511431201E52A24FEF50CE52BB40165
:1076AD00047F0080027F10EF4406F50DE512448043
:1076BD00F50E750F17126437C2067D047C007FAE80
:1076CD0012D68F7B027DFD7FB212D9C27D807FB134
:1076DD0012E7E9EF24FF50197B407DBF7FB112D92E
:1076ED00C27F027E0012E63FE4FB7DBF7FB112D95F
:1076FD00C2E52B75F002A4AEF01263ABFFFE7D77F1
:10770D007C01124751126304AE29AF2A12641EE4A4
:10771D007B08FAF9F81264108C0C780F1247F412EA
:10772D00644D8C10E47FE87E031264C11263E0FCAB
:10773D00AB13AA12A911A8101247518E298F2A53E3
:10774D00290F7B017DFE7FBB12D9C2AF2AAE290264
:02775D00DF400B
:109E0100786FE6FE08E6787C1264F87871E6FE0861
:109E1100E6787E1264F87873E6FE08E6FF7B007A46
:109E210000792412ADC3C3E5259432E52494005092
:109E310004785E806E126424FF7873E6FC08E6FD08
:109E4100C39FEC9E5034C3ED9FFFEC9ECF2525CFE1
:109E51003524FEC3EF9432EE94005016C3785FE6CA
:109E61009525FF18E69524CF24327881F6E43F1832
:109E7100F6227880A60408A60522785FE62525FF4C
:109E810018E63524FEC3EF9DFDEE9CFCC3ED943234
:109E9100EC9400500CEF24CE7881F6EE34FF18F6E6
:0F9EA100227873E6FE08E6FF7880A60608A6077B
:019EB000228F
:10ADC3008E388F398B3A8A3B893C7862E6FE08E6F7
:10ADD3007803C333CE33CED8F9FF7C007D0A124506
:10ADE3009EC3785F1264B2C313FEEF13FFAB3AAA9C
:10ADF3003BA93CEE8FF012468CE6FE08E6FFD3E556
:10AE0300399FE5389E401412649CE5399FFFE5386D
:10AE13009EFED3EF9DEE95F0400122126424FFD3F2
:10AE2300E5399FE5389E501412649CEF9539FFEE87
:0EAE33009538FED3EF9DEE95F0400122D3221C
:0448EB008E308F314B
:1048EF007F2012DD6E7B007A007936AF31AE301249
:1048FF00ADC34009785EE6F53008E6F531750C0476
:10490F00750D4F750E24750F15126437C2067D0491
:10491F007C007F9812D68F750C1CE4F50D750E3741
:10492F00FB7A00790CC2067D03FC7FA112D68F782B
:10493F005A12630FC004126306126424FFE4D000FE
:10494F001263184013E531AE307802C333CE33CE45
:10495F00D8F9F5318E30800BE53125E0F531E530B2
:10496F0033F53075100075116475350BAF35E4FCF8
:10497F00FDFE7B3E1262FE12641AC004C005C00623
:10498F00C007786A12630F7BC07A031262FFD007E9
:10499F00D006D005D0041247518F34E4FCFDFE122F
:1049AF0064A8C004126306786A12630FD00012461F
:1049BF00C6C004C005C006C0071264CC1262FF1245
:1049CF00641AD003D002D001D0001247518E0C8F41
:1049DF000DD3E50D94A8E50C940C5003024AA07476
:1049EF0080250DF50D74F3350CF50CD3E50D9511F0
:1049FF00E50C9510500C850C10850D118534328502
:104A0F003533E5342401FFE433FEE4FCFD1264A8E2
:104A1F00C004126306786A12630FD0001246C6C034
:104A2F0004C005C006C0071264CC1262FF12641ADC
:104A3F00D003D002D001D0001247518E0E8F0FD36A
:104A4F007480950F740C950E400C7480950FFF7445
:104A5F000C950EFE800AE50F2480FFE50E34F3FE61
:104A6F008E0E8F0FC3E50F9428E50E94005007E5C7
:104A7F003404F532801ED3E50F9511E50E951050D5
:104A8F0018850E10850F11E53404F5328535338006
:104A9F0008853432853533800C0535E535C39430C0
:104AAF00500302497B785A12630FC0041263061237
:104ABF006424FFE4D000126318E530400E13FEE5C6
:104ACF003113FFEEC313F530EF8006C313F530E556
:104ADF003113F53178C6E6134003024C107B007A90
:104AEF0000791AC2067D027FA512D1C3051A051AD5
:104AFF00051B051B7B007A007918C2067D027FA972
:104B0F0012D1C3E518540FFEE5192401F519E43E3F
:104B1F00F518E4FD7F9F12EA8F7D077F9F12EA8FC2
:104B2F00126437D2067D047FA012D1C3AF1BAB072F
:104B3F00E4FAF9F8AF32FCFDFE126301AE18AF19BB
:104B4F0012641E12644D8C10AF33AB07E4FAF9F800
:104B5F00AF1AFCFDFE12630112641A8F178E168DA9
:104B6F00158C141264FFA814AF0FAE0EAD0DAC0C64
:104B7F00124751AB13AA12A911A8101246C61264FC
:104B8F00138C0CAF13AE12AD11AC101264FFA8143E
:104B9F00D31247E3402C1262F0C3E5179513FFE5DC
:104BAF00169512FEE5159511FDE5149510FC1246AC
:104BBF00C6E50F2FFFE50E3EFEE50D3DFDE50C3C76
:104BCF00801E1264FF1262F0C3E5139517FFE51202
:104BDF009516FEE5119515FDE5109514FC1263E091
:104BEF00126413F50C7D207F9F12EA8F7D227F9F29
:104BFF0012EA8F126437D2067D047C007FA012D692
:104C0F008F785A12630FC004126306126424FFE4F4
:104C1F00D000126318E531400C24FFE53034FF5407
:104C2F000F4410800824FFE53034FF540FFB7DE064
:104C3F007FA912D9C2E53114FD7FAA12EA8FE5329E
:104C4F0024FEFD7FA512EA8FE53324FEFD7FA61219
:104C5F00EA8FE53275F004A4FFAEF07C007D0A12F6
:104C6F00459EC3EF9405EE940050087C007E007FB4
:104C7F00008008EF24FBFFEE34FFFE8F11E4F512E6
:104C8F00E511C3943C400974C42511F5114312106A
:104C9F00E511C39428400974D82511F51143120862
:104CAF00E511C39414400974EC2511F51143120456
:104CBF00E511C3940A400974F62511F51143120248
:104CCF00E511C39405400974FB2511F51143120139
:104CDF0005120512AB127DE07FA712D9C278C6E686
:104CEF0013402112E3197D207F9A12EA8F7F011260
:104CFF00CF057F0112CF057D247F9A12EA8F78C6E8
:104D0F00E64401F678C6E61350077D687F9F12EAE6
:104D1F008F7F0412CF057F0412CF05E4FD7F9F1212
:0A4D2F00EA8F12E9CA7F3802DD6E38
:0272E9008F37DD
:1072EB007F3012DD6E53373F12630DFB7A60F9F876
:1072FB001246C6C006C007786AE6FE08E61263AB04
:10730B00D007D006124751E47BA51264AA7B407AC2
:10731B0042790F78001247518E398F3AD3E53A9460
:10732B0040E53994005005C374408003C3748095C5
:10733B003AFFE49539FE8E398F3AAF377E00C3EFB3
:10734B00953AEE95394006EF953AFF8006C3E53A3C
:10735B009537FF8F0CE50CD3940C400AE50C943455
:10736B0050047F0080027F018F387866E6FE08E6C6
:10737B00FFC3787096EE189650191264B0FE78AC75
:10738B001263FA400EED786726FFEC1836786FF62D
:10739B0008A607786FE6FE08E678661264D74015F4
:1073AB0078AC1263F4400E7867E69DFF18E69C7884
:1073BB006FF608A60778ACE6786726FFE41836FE6A
:1073CB00C3EF787096FFEE1896CF240AF50DE43FC5
:1073DB00F50CD3E53A940CE5399400401CE53724C1
:1073EB000CFFE433FEC3EF953AEE9539500512646A
:1073FB00E28020AE0CAF0D801AE53A2434FFE43561
:10740B0039FEC3E5379FE49E50051264E28004AE5B
:10741B000CAF0D8E398F3A7B407DBF7FA912D9C23D
:10742B00785A12630FC004126306126424FFE4D06F
:10743B00001263184007E53725E0FB8002AB377D70
:10744B00807FAC12D9C2AF3AAE3912E6D1E53833F0
:10745B00333354F8FB7DF77F0712D9C212DE391292
:07746B00E9CA7F3802DD6E63
:07EB7F007875E6FF0272E960
:10AD43007F1012DD6E7868E6FE08E6FFC378729620
:10AD5300EE189650191264B0FE78AD1263FA400EE5
:10AD6300ED786926FFEC18367871F608A607787136
:10AD7300E6FE08E678681264D7401578AD1263F4EE
:10AD8300400E7869E69DFF18E69C7871F608A607E1
:10AD93007868E6FE08E6C3787296FFEE1896FE78AA
:10ADA300ADE6C39FFFE49EFE12DF2012DE397F2053
:10ADB30012CF057F1012CF0512E9CA7F3802DD6E6C
:10C7FF00EF540FFEC454F0F50CEDBF070C5407C4F3
:10C80F003354E04410F50D801D5407C454F0FFE578
:10C81F00275401C433333354804FFFEB5403FE25A9
:10C82F00E025E04FF50D126437C2067D027C007FD4
:0BC83F001712D68FE4FD7F1702EA8F6E
:10E671008F23129A78E52390F8017005E054FDF09C
:08E6810022E054FD4402F022E6
:109A7800AD07D3ED648094FE40027D7EC3ED648023
:109A8800948E5009ED6480948040027D0EEDFF3382
:109A980095E0FEEF2401FFE43EA2E713EF1325E073
:109AA800F50C78AEE65470C4540F14600824FA50CC
:109AB800222407704DED13AF0C7E007CFF500A7D09
:109AC800C112643EE4F50E80397DC012643E750E05
:109AD80002802FED13AF0C7E007CFF50047DB88010
:109AE800027DB712643EEF75F002A47C00250CFFDE
:109AF800EC35F0FEC3E49FFFE49EFE7D021245F3C1
:109B08008F0E750F037510327511CE7D807F26126A
:109B1800EA8F126437D2067D067C007F2712D68F23
:079B28007D407F2602EA8F59
:02A9B2008F24F0
:10A9B400E4F525E52464027021F52512AA1C75F03E
:10A9C40003E525900E5012633DD2067D337C0012C0
:10A9D400AA2B940540E57DDF8038E4F52512AA1CF6
:10A9E400E52475F004A47C002525FFEC35F0FE90E9
:10A9F4000E2075F003EF12486FEE75F003A4258363
:10AA0400F58312489DD2067D3312AA2B940440CDBF
:07AA14007DDE7FE012EA8FF6
:10AA1B0022AD257FE112EA8FE4FD7FE212EA8F225D
:0BAA2B007FE312D68F0525E525C3222E
:069D4F008B248A25892601
:109D5500129DE5532AFCAD2A7FE412EA8F7D037F2D
:109D6500E612EA8FE4F52AAB24AA25A926129DF569
:109D75002526F526E43525F525052AE52AC3940982
:109D850040E5129DE5E52A54FC4401F52AFD7FE4F2
:109D950012EA8FE4FD7FE612EA8FE4F52AAB27AAE3
:109DA50028A929129DF52529F529E43528F5280541
:109DB5002AE52AC3941440E57F2012CF0590F80FB9
:109DC500E0FF540764046006EF12640870047D2CFC
:109DD50080027DAC7FE412EA8F7D807FE502EA8F09
:109DE5007B007A00792AD2067D017FE412D1C32255
:0C9DF5001244F0FD7FE712EA8F74012297
:10D79C007B407DBF7F6012D9C27B807D7F7FE01292
:10D7AC00D9C27B807D7F7FE412D9C290F816E0FF4E
:0BD7BC0012DA8B90F817E0FF02DAB1E0
:10D34700126330C003C002C0011264B912633D12F8
:10D357006506D001D002D003129D4FE4FB7DBF7F4D
:10D367006012D9C2E4FB7D7F7FE012D9C2E4FB7D66
:06D377007F7FE402D9C231
:10B36D0012642B64046011BF0514E05407FFBF0481
:10B37D000D90F801E020E006126488F0800612645A
:10B38D00884408F090F80FE05418FF131313541F5E
:10B39D00700280361264046401703590F83BE0FC55
:10B3AD00A3E0FDA3E0F52AA3E0F52BE4FBFAFFFEF5
:10B3BD0012B21290F83BE0FEA3E0FFA3E0FCA3E085
:10B3CD00FD12BE4112642BBF040302D34712D79C5A
:01B3DD00224D
:10B212008E248F258C268D278A288B29E527452683
:10B222006061E52B452A605B7B807D707F6012D96F
:10B23200C2E5245407F50CAD258D0DE5252527E53E
:10B242002435265407F50EED2527F50FE52854077A
:10B25200F510AD298D11E529252BE528352A54074E
:10B26200F512ED252BF5137F2012CF05126437D28C
:10B27200067D087C007F6112D68FE4FB7D707F60C3
:04B2820012D9C222F9
:10BE41008C248D25AB07AA06E4F9F8FFFE7DC07CA2
:10BE51003F124751C006C007AE24AF25AB07AA0663
:10BE6100E4F9F8D007D0061264108C0CE4FB7DFCD9
:10BE71007FE412D9C2E4FD7FE612EA8FE50FFFE508
:10BE81000EFEE50D543FFDE4126413F50CFB7A0040
:0CBE9100790DD2067D03FC7FE702D68FFE
:10DA8B008F24126404FFBF01037524807B867D7095
:10DA9B007F6412D9C2AF241263437F6512D68FE421
:06DAAB00FD7F6402EA8F1A
:10DAB1008F24126404FFBF01037524807B897D706C
:10DAC1007F6412D9C2AF241263437F6512D68FE4FB
:06DAD100FD7F6402EA8FF4
:0484AA008D45A9074C
:1084AE00E9540F14603314605C1470030285401499
:1084BE00700302856A2404600302859EE954F0FF6E
:1084CE00700590F8118074BF100302858EE954F088
:1084DE006420600302859E800EE954F0FF700590C3
:1084EE00F81A8057BF100A90F81AE0FF90F8118022
:1084FE003BE954F06420600302859E90F81AE0FF79
:10850E0090F8138027E954F0FF700590F813802B34
:10851E00BF100A90F81AE0FF90F813800FE954F09C
:10852E006420706C90F81CE0FF90F813E02FC313DA
:10853E00800AE954F0FF700990F81CE07A00FB8085
:10854E004FBF100C90F81CE0C313FF90F813803A45
:10855E00E954F06420703912648F802EE954F07063
:10856E000C90F815E0C313FF90F81E801DE954F02F
:10857E00FFBF100512648F8011E954F0FFBF201069
:10858E0090F811E0C313FF90F81EE02FFBE433FACE
:10859E00EB25E0FBEA33FAC3EB9410EA6480948097
:1085AE00E545401D90E8B193FD7C00EB24F0FFEA19
:1085BE0034FF1264ED7F0025E0FEEF2DFFEC3E80D0
:1085CE001A90E8B993FD7C00C374109BFFE49A12D5
:0F85DE0064ED25E0FEC3E49DFFEE9CFE12648178
:0185ED00226B
:0A78C4008F378C388D398A3A8B3BE0
:1078CE00127A1AE4FD7FE212EA8FE537540F70093F
:1078DE007D03127A007D8C804BE537540FFFBF017C
:1078EE00097D05127A007D88803AE537540FFFBF77
:1078FE0003097D0B127A0D7DC88029E537540FFFE1
:10790E00BF04097D0F127A0D7DCC8018E537540F18
:10791E00FFBF02157D087FE312EA8FE4FD7FE312BD
:10792E00EA8F7DCC7FE312EA8F127A1AE53754F094
:10793E002403FD7FE212EA8F754001AD40AF37128E
:10794E0084AAE539253BFDE538353A12647DAC381D
:10795E00AD391263B2C3EB9FF542EA9EF541AD40DD
:10796E00AF371284AAE53D253FFDE53C353E126456
:10797E007DAC3CAD3D1263B2C3EB9FF544EA9EF580
:10798E0043D3E542947FE54164809480400875417D
:10799E000075427F8013C3E5429480E54164809474
:1079AE007F50067541FF754280D3E544947FE543D1
:1079BE0064809480400875430075447F8013C3E54E
:1079CE00449480E5436480947F50067543FF75446C
:1079DE0080AD427FE312EA8FAD447FE312EA8F055A
:1079EE0040E540C3940950030279497DDF7FE002F0
:0279FE00EA8F0E
:107A00007FE312EA8FE4FD7FE312EA8F227FE31225
:107A1000EA8FE4FD7FE312EA8F22E537540FFD7F02
:057A2000E112EA8F22D3
:06B9B8008F258D828C83B7
:10B9BE00E525C394085024C374089FFFE49400FE49
:10B9CE00AC2AAD2B1263BA8E338F34C3740895250F
:10B9DE00FFE49400FEAC2CAD2D801512650DAC2E3F
:10B9EE00AD2F1263BA8E338F3412650DAC30AD317C
:10B9FE001263BA8E358F36AD82AC838A3C8B3D8511
:0EBA0E00353E85363FAB34AA33AF320278C4E2
:105063008F2412642B64046011BF0514E05407FFFE
:10507300BF040D90F801E020E006126488F080067A
:105083001264884408F0E524703D90F810E012643F
:1050930054752F907530FF7531D0E4F5327BFE7A6D
:1050A300017DFFFC1252D8126465125362753220DF
:1050B3007BFE7A01E4FDFC1253627532117BFE7AAA
:1050C30001E4FDFC0251F7E52464017059126356B3
:1050D3007532217B547A017DAC7CFE12B9B890F80D
:1050E30012E0FF752A00752B38752C00752D70752D
:1050F3002E00752F38126375753202E4FBFA7D02B8
:105103007CFE12B9B81263567532127B547A0112BF
:10511300521D7532227BAC7AFE12521D7532237BEF
:10512300AC7AFE02516EE5246403704690F819E0F0
:10513300FF752A00752B70752CFF752DD012636FC8
:105143007532017BFE7D017CFF1252AD7532111267
:10515300524A7532217B547DAC7CFE1252AD7532BE
:105163002012524A7532127B547A017DAC7CFE02C6
:105173005200E5246404703A90F81BE0FF752AFF9F
:10518300752BC8752C00752D701263977532037DCE
:10519300017CFF12530175321312527A7532237D4B
:1051A300FF7C0012530175322212527A126471028B
:1051B3005200E5246402701812637C753223126472
:1051C3007412532E12B9B812637C12647102520026
:1051D300E5246405702A90F810E0C313FF90F81DCE
:1051E300E02F126454752FC8753000753170126446
:1051F3006512532E1252D875322412646812B9B84C
:1052030090F801E030E00912640460047B808002BE
:10521300E4FB7D7F7FE012D9C2227DAC7CFE12B914
:10522300B890F81BE0FF90F812E02FC313FF752A24
:10523300FF752BC8752C00752D70752E00752F38D2
:105243007530FF753190227BFE7A01E4FDFC12B9C3
:10525300B890F812E0FF90F819E02FC313FF752AF6
:1052630000752B38752C00752D70752EFF752FC8A2
:105273007530FF753190227BAC7AFE7DAC7CFE12DB
:10528300B9B890F81BE01313543FFF90F814E02FC4
:10529300FF752AFF752B90752C00752D30752E0028
:1052A300752F70753000753130227A0112B9B890BC
:1052B300F819E0FF90F810E02FC313FF752A00756B
:1052C3002B70752CFF752DD0752EFF752F907530B3
:1052D300FF7531D02212B9B890F810E0C313FF90D4
:1052E300F81DE02FFF752A00752B38752CFF752DDF
:1052F30090752EFF752FC8753000753170227B02B3
:105303007AFE12B9B890F81BE0FF90F812E02FC3B1
:1053130013FF752AFF752BC8752C00752D70752E1C
:1053230000752F387530FF7531902212B9B890F897
:1053330014E0C313FF90F81DE02FFF752AFF752BB0
:10534300C8752CFF752D90752E00752F387530009C
:105353007531707532047B517AFF7DA67C01221270
:10536300B9B890F819E0FF90F810E02FC313FF7558
:105373002A00752B70752CFF752DD0752EFF752F98
:08538300907530FF7531D02256
:109B2F008F23E523C43354E0FF90F80FE0541F4F09
:109B3F00F0E523B40403029BE2E5236405706B9008
:109B4F00F801E030E022E4FF1250637F011250630E
:109B5F007F021250637F031250637F041250637FA2
:109B6F00051250637B808002E4FB7D7F7FE012D97A
:109B7F00C290F80FE05407FFBF04117D2C7FE41251
:109B8F00EA8F90F801E020E04D029BE212B36D12D4
:109B9F006330C003C002C0011264B912633D126585
:109BAF0006D001D002D003029D4F90F80FE054E091
:109BBF00C413126334C003C002C0011264B912632C
:109BCF003D126506D001D002D003129D4F12642BB7
:079BDF0012A9B212B36D22BE
:10651700785EE6FE08E6FF7873A60608A6077866A3
:10652700E6FE08E6FF786FA60608A6077868E6FE87
:1065370008E67871FFA60608A607227864E6FE0833
:10654700E6FFE4FCFDFB7A0CF9F81246C6E47B0291
:10655700FAF9F8124751AB2AAA29A928A827C30292
:1065670047E3786CA905AA06AB07E6FE08E6FFE451
:1065770022E50C5407F526E50DF5277B007A00790F
:106587000C22742A2FF582E434F8F5832278B2E6D8
:106597002401FF18E43678B9FEC3EF96FFEE18968C
:1065A70022742D2FF582E434F8F58322E6FC08E601
:1065B700FDEC540FFBE7C4F854F0C809E7C4540FC7
:1065C70048547022786AE6FE08E6FBAA06E4F9F862
:1065D70022E47B02FAF9F8124751A804A905AA0692
:1065E700AB0722E4F50FF510F511F512751301FB52
:1065F7007A00790CC2067D08FC7F76221246C6E433
:106607007BE87A03F9F8124751E47B127A02F9F82A
:10661700D30247E378B9E62402FF18E436FEEF54C5
:10662700FCFFEEF608EFF6E52922D3AB0FAA0EA979
:106637000DA80C0247E3C3E5279525FFE52695241A
:10664700FE221896FCE52925E0FFE52833FEC3ED79
:106657009FEC9E2212475178B8EEF608EFF6D394D6
:1066670002EE940022FCE6FA08E62FFFEE3AFED38C
:10667700EF9DEE9C22AB29AA2AA92B0244F07B00AE
:106687007A0079237D012278AEE65470C4540F2234
:10669700FE7867C3EF96EE189622AB32AA31A9307F
:1066A700A82FD30247E3C3E69FFF18E69E22AB2F2E
:1066B700AA2EA92DA82C0247E37B007A007914C2E1
:1066C700067D0322EF26F618EE36F622E6FDD3EF17
:1066D7009D7480F86E9822AB29AA2AA92B1244F040
:1066E700FF22E51454F075F010A4FF2274FFFFFE9B
:0A66F700FDFC22785EE6FE08E622B4
:10A0B7007875E6F523E4FD7F7D12EA8F12E9CA7F02
:10A0C700FA7E0012E63F127CDB8F22E52270361201
:10A0D700538B8F22E52270251260C18F22E5226003
:10A0E7000464FE7013E522B4FE0312A144127CDB64
:10A0F7008F22E5226018800D12A144801112651786
:10A1070012A14E800312652512EB7F12AD43E522A3
:10A117007006E522648060137858E6FF12D3B31205
:10A127009E017858E6FF12D8C8800C12651712A155
:0CA137004E12EB7F12AD4312E9CAAF22BA
:10A14300227875A623AF231272E92208E6FE08E6F9
:05A15300FF1248EB22A1
:10E7AD001268DD8F22E522700512C84A800312D04F
:03E7BD0035AF2253
:01E7C0002236
:10A32F0012E9CA7D037F7A12E7E9BF03047F9680A3
:10A33F00027F328F447545197F017E0012E63F126E
:10A34F006582D2067D017F0312D1C3E50C30E00C8C
:10A35F00E4FD7F0312EA8F75451980021545E54527
:10A36F006006E50C54C060037FFF2212E97178C7C5
:10A37F00E61350037FFF22126582D2067D017F7D97
:10A38F0012D1C3E50C30E003D544AD126582D2067D
:10A39F007D017F0212D1C3E4FD7F0212EA8FE50C2B
:0EA3AF0054637004E54470047FFF80027F0059
:01A3BD00227D
:02C92B008F4437
:10C92D00754519E4FD7F0312EA8F7F017E0012E643
:10C93D003F126582D2067D017F0312D1C3530CC114
:10C94D00E50C30E010E544600CE4FD7F0312EA8F46
:10C95D001544754519E544600C1545E5456006E53A
:07C96D000C54C060C5AF0CC3
:01C9740022A0
:0290AD008F37FB
:1090AF007873E6F53A08E6F53BAE3AFFE4FCFDC00F
:1090BF0004126569D0001246C6C006C0071265CB00
:1090CF00D007D0061247518E388F397B507D0F7FD6
:1090DF001312D9C2E53B2405F53BE4353AF53A7452
:1090EF00E0253BF53B74FF353AF53AE539241BFF94
:1090FF00E43538126697500280047E007F018E3867
:10910F008F39D3E5399420E5389400400CE53924A4
:10911F00E0FFE53834FFFE80047E007F018E388F3C
:10912F00395337FCE53A540FFDE538C4F854F0C80D
:10913F00E5391265C44DF50C85390D853B0E126569
:10914F0082C2067D037C007F7012D68F85370C8517
:10915F00370D85370E1265EA12D68F12A32F8F0C9B
:10916F00E50C6001221266C07F8112D1C31266E93D
:10917F00AEF0EF4515242078B9F6E43E18F6E51465
:10918F00540FFEE516242078B2F6E43E18F67F0061
:01919F0022AD
:027E2F008F3092
:107E31007873E6F53308E6F534AE33FFE4FCFDC0B4
:107E410004126569D0001246C6C006C0071265CB90
:107E5100D007D0061247518E318F327B507D0F7F74
:107E61001312D9C2E5342405F534E43533F53374FE
:107E7100E02534F53474FF3533F533E532241BFF47
:107E8100E43531126697500280047E007F018E3105
:107E91008F32D3E5329420E5319400400CE5322451
:107EA100E0FFE53134FFFE80047E007F018E318FDB
:107EB100325330FCE533540FFDE531C4F854F0C8BA
:107EC100E5321265C44DF50C85320D85340E7860AE
:107ED100E6FC08E6FD2402E43C540FF50F751002A0
:107EE100AF05EF2402F511126582C2067D067C0002
:107EF1007F7012D68F85300C85300D85300E12655E
:107F0100EA12D68F12A32F8F0CE50C6001221266A4
:107F1100C07F7E12D1C31266E9EF45152403FFE449
:107F210035F078B3F6FC08EFF6FDE514540FFEE5E5
:107F3100162403FFE43EFE08F608EFF6C39DFFEEAC
:107F41009C786512659FFE12E86DD3EF9405EE648F
:107F510080948040037FFF2278B6E6184670037F45
:107F61008022E514547FF50C85150D85160E1265DA
:0E7F710082C2067D037C007F7312D68F7F00D4
:017F7F0022DF
:068363008F378D388B39C5
:10836900E4FD7F7D12EA8FE5375403FB7DFC7F7ABC
:1083790012D9C2785A126571FCFDC004785E126583
:108389006BD00012660340160538E53A25E0F53A48
:10839900C3944040097B027DFD7FA812D9C2E5390B
:1083A90014541F33333354F8FFE53854074FFD7F16
:1083B9007B12EA8FE53A543FFD7F7C12EA8FAF3892
:1083C9007401A807088002C333D8FCF538E539855C
:1083D90038F0A4253AF537853A42E4F541F540F5F8
:1083E9003FF53EF5437D7B7F7D12EA8F7F0112C900
:1083F9002B7D037F7A12E7E9BF03047F0380027FA5
:108409000112C92BEF54C060051284998047126587
:1084190082C2067D037F8412D1C3E4F50FAF41AE5A
:1084290040AD3FAC3E126631400F850F41850E408D
:10843900850D3F850C3E854243E5382542F542C30B
:10844900953740AD1284997F0112CF0512A32F8F62
:108459000CE50C60041266F322785A126571FCFD72
:10846900C0041265E3785E126571D000126603409C
:108479000BE54313AB3BAA3CA93D8008AB3BAA3CA7
:0F848900A93DE543124558AF41AE40AD3FAC3E73
:1084980022E4FD7F7D12EA8FE4FB7DFD7FA812D9DF
:0284A800C222EE
:10D7C700EF5403FB7DFC7F7A12D9C27D3B7F7D122C
:10D7D700EA8F12A32F8F0CE50C600122126582C21B
:0BD7E700067D047F8412D1C37F002266
:10538B001266FA787312653BE654FCF618125692C5
:10539B007F40127E2F8F24E5246001227862E6FE87
:1053AB0008E67803C333CE33CED8F9FF7C007D0AF1
:1053BB0012459E785F1266ADC313F528EF13F529DE
:1053CB00E4F52AF52BF52675270A1256886001227B
:1053DB00126594FE78B1F608EFF67862E6FC08E603
:1053EB00FDC3EF9DEE9C505DC3ED78B296FDEC12C4
:1053FB006649400302549BAF05AE04E4FCFDC004B8
:10540B001265E37873126571D0001246C6C006C0F0
:10541B000778621265CDD007D00612665B50030287
:10542B0054CB12661B785F26FDE52818367873126D
:10543B00666C400302549B78B8E6FE08E67874125B
:10544B0066CC0254B0C379B2E7786396FD19E712C4
:10545B0066494002803AAF05AE04E4FCFDC004127D
:10546B0065E37873126571D0001246C6C006C0079B
:10547B0078621265CDD007D00612665B4042126689
:10548B001B787426FDE5281836785E12666C40088A
:10549B00752A00752B01800DC37874E679B997F6E0
:1054AB0018E61997F6E52B452A7015787312569264
:1054BB00E52715277002152614452660030253D5E0
:1054CB00E52745266008E52B6401452A70037F809C
:1054DB002278B1E6FE08E6FFC3786396EE18964095
:1054EB00127974E7785F96FD19E71896FCED640462
:1054FB004C601A786312669A5040C3795FE77874F0
:10550B0096FF19E71896FEEF64044E702D1266FA9B
:10551B00FF7873EEF6FE08EFF6FF1248EB12568893
:10552B0060012278B2E62401FF18E436FEC3EF785F
:10553B00B99679B2F7EE189619F77873E6F52A084B
:10554B00E6F52BC37963E778B29619E718967E00D8
:10555B0040047F0480027F0278741266CBE6FE085B
:10556B00E6FF1248EB7D187F7912EA8F852A268594
:10557B002B27E4F52FF52EF52DF52CF5287529069F
:10558B007F501290AD8F24E524600122126594FEAA
:10559B0078B1F608EFF67863E62402FD18E436FCE2
:1055AB00D3EF9DEE9C400BE4F50FF50EF50DF50CCE
:1055BB008028E4F53AF53B753C00753D257B087D6D
:1055CB00037F031283638F0F8E0E8D0D8C0C12666F
:1055DB00F3C312663270037FFF22AF0FAE0EAD0D19
:1055EB00AC0CC31266B55015850F2F850E2E850D8D
:1055FB002D850C2C7873E6F52608E6F527E529456D
:10560B002870161266FAFFD37874E69F18E69E4050
:10561B002AEEF6FE08EFF6801B74FE2529F5297499
:10562B00FF3528F528787474FE26F61874FF36F6C5
:10563B00E6FE08E6FF1248EB02558BAF2FAE2EAD00
:10564B002DAC2CE47B03FAF9F81247518F2F8E2ED9
:10565B008D2D8C2C7862126571FCFD780A1248072F
:10566B00D31266B54006AE26AF278004AE2AAF2B09
:0C567B007873EEF608EFF61248EB7F00A3
:10568700227F501290AD8F24E52422E6FE08E6FF24
:045697001248EB22A8
:1060C1007F401290AD8F24E5246001227D80126211
:1060D100AA70037FFF22E4FFFEFDFC12655D7003E1
:1060E1007F8022126542501F7D401262AA70037F99
:1060F100FF22E4FFFEFDFC12655D70037F8022122A
:10610100654250037FFE22E52424F8543FF53A7599
:106111003B00753C00753D247B087D017F031283A4
:10612100638F2A8E298D288C271266F312655D7084
:10613100037FFF22E4FFFEFDFC12655D70037F809B
:1061410022E52424FD543FF525FF1272E97F031255
:10615100D7C7EF60037FFF22850F2E850E2D850D9A
:106161002C850C2B1262DE60037FFF22850F3285A6
:106171000E31850D30850C2FE5242403543FF52481
:10618100E4F52AF529F528F5271262DE60037FFF81
:1061910022850F36850E35850D34850C33AF2EAE35
:1061A1002DAD2CAC2B1266A14016E532952EFFE5E4
:1061B10031952DFEE530952CFDE52F952BFC8015B5
:1061C100C3E52E9532FFE52D9531FEE52C9530FD89
:1061D100E52B952FFC1265D8E5362532FFE53535DF
:1061E10031FEE5343530FDE533352FFCEF252EFF4B
:1061F100EE352DFEED352CFDEC352BFC1246B8C0ED
:1062010004C005C006C007AF36AE35AD34AC33129D
:1062110066A14016E5329536FFE5319535FEE5304C
:106221009534FDE52F9533FC8015C3E5369532FF96
:10623100E5359531FEE5349530FDE533952FFC12BA
:1062410065D8D007D006D005D0041246B88F0F8E7E
:106251000E8D0D8C0CAF2AAE29AD28AC27126631FC
:106261004013850F2A850E29850D28850C27E525E4
:1062710014543FF52685322E85312D85302C852FFE
:106281002B85363285353185343085332FE52565CB
:1062910024600302618A7875A626AF261272E97D11
:0862A100407F7912EA8F7F00B3
:1062A900227F7912EA8FE4F53AF53B753C00753D9A
:1062B900247B087D037F031283638F2A8E298D280F
:1062C9008C2774FFFFFEFDFCAB2AAA29A928A82761
:1062D900C31247E322E52504543FF525FF1272E96D
:0762E9007F0312D7C7EF226B
:107CDB007F40127E2FEF6001227F401290ADEF604C
:107CEB000122126582C2067D027F0D12D1C312657D
:107CFB0078C2067D017F1112D1C37B007A00790D0A
:107D0B00C2067D017F1312D1C3E50D5402F524E5A4
:107D1B000CF52578B3E6FE08E6FFC39525F525EEB1
:107D2B009524F52478B61266ADCF2401CF3400FE2E
:107D3B007864E6FC08E6FDC39FF529EC9EF528D395
:107D4B00E5299403E528648094804016EF9DFFEEAF
:107D5B009CFE12E86D7C007D021245F38E288F2964
:107D6B008005E4F528F52912663DC378721266AEDC
:107D7B00FEC3EF786996FFEE1896CFC39529CF9582
:107D8B0028FE12E86D78AD1266D3501DC3E527951A
:107D9B0025CFE5269524CF2529CF3528FEC378722C
:107DAB00E69FF618E69EF6800312653312AD43127A
:107DBB006582C2067D027F0912D1C3126578C206A5
:107DCB007D027F1212D1C3E50D5401F524E50CF5AC
:107DDB0025C378B9E69525FF18E69524CF24FEF543
:107DEB0025EF34FFF52412663DEF787026FFEE1871
:107DFB0036FEC3EF786796FFEE1896FE12E86D78A5
:107E0B00AC1266D3500A12663D78701266CB800EA8
:107E1B007866E6FE08E6FF786FA60608A60712EB63
:037E2B007F7F0056
:017E2E002231
:1068DD00D205E4F527742A252712658C7480F0748F
:1068ED002D25271265AB7480F00527E527B403E548
:1068FD0012EBA27F40127E2F8F23E5236001227FB2
:10690D00401290AD8F23E5236001221266857F0230
:10691D00129903EF60037F8022E523C39460500337
:10692D007F80221266857F01129903EF60037F80BD
:10693D0022E523C3946050037F8022126685E4FF15
:10694D00129903EF60037F8022E523C39460500307
:10695D007F802278B77605126A9A75260220050384
:10696D00026A867527307B007A007924AF2612B82B
:10697D00878F23E523B4800122E523644060737B78
:10698D00007A007925AF2612A2978F23E523B480D4
:10699D00012212668EFFBF060BE5266401600575A8
:1069AD0023808003752302E524B4FA06E5256523CB
:1069BD006040E527D394084030E524D394FB50295B
:1069CD00E524C394F94022E5232401FFE433FED3EB
:1069DD00E5259FEE6480F8748098500DE52314FF33
:1069ED00E525C39F40037527081527E5276003029A
:1069FD006973742A252612658CE0D394F0402678AD
:106A0D00B7E6B40718E526B402057526018047E5FB
:106A1D0026B40105E4F526803DC2058039752602B0
:106A2D0078B7068031742A252612658CE0C3941E32
:106A3D00502C78B7E6B40418E526B4020575260186
:106A4D008014E526B40105E4F526800AC20580060A
:106A5D0075260278B71678B7126A9A02696AE52622
:106A6D00B4020675260102696AE526B40106E4F54D
:106A7D002602696AC20502696A90F82AE06008A3D5
:0C6A8D00E06004A3E070037F80227F0023
:106A990022E6C45430F53B7BCFE4FD7FDC12CEC641
:086AA9007F017E0012E63F228E
:109903008D2E8B2F8A308931BF0304AB078005C3AB
:1099130074029FFB7DF87F7A12D9C2E52E703075F1
:109923000C12750D80F50EF50F78B3E6FE08E6FF11
:10993300D39409EE940040067E007F098008EF244B
:10994300FFFFEE34FFFE8F10E51004F5118022783F
:10995300B179B81265B34BF50C78B9E6F50D8D0EF8
:1099630078B579B31265B34BF50F78B4E6F5108D7E
:1099730011126582C2067D067C007F7012D68FE5C8
:109983002E5401C43354E04401FD7F7D12EA8F124B
:10999300A32F8F0CE50C600122AB2FAA30A931C293
:1099A300067D017F8712D1C3E52E700DAB2FAA3040
:0C99B300A9311244F0F41245587F002244
:08B887008F288B298A2A892BE6
:10B88F007D01129903EF60037F80221266DED3944D
:10B89F00FA4020EF2406F52CE4FBAD2CAF2812CA9A
:10B8AF0097EF6037E4FB7D04AF2812CADDEF602B02
:10B8BF007F40221266DEC394FA5020C374FA9FF5BC
:10B8CF002C7B01FDAF2812CA97EF600F7B017D041F
:0DB8DF00AF2812CADDEF60037F40227F001A
:01B8EC002239
:08A297008F288B298A2A892BEC
:10A29F0012668EFFBF060BE52864016005752D80E1
:10A2AF008003752D02AB29AA2AA92BE4FDAF281232
:10A2BF009903EF60037F802212667CFFD3952D40B8
:10A2CF0016EF952DF52CD3940840047D088004AF2C
:10A2DF002CAD07E4FB804112667CFFC3952D503DEA
:10A2EF00C3E52D9FF52C12668E64067019E5286460
:10A2FF00016013E52CD3940840047D088004AF2C33
:10A30F00AD077B01801212667C7009E52C2404FDD9
:0FA31F007B0180047B01AD2CAF2812CADD7F00CB
:01A32E00220C
:10CA9700E4F52DEB601A126589E0FEC39D742A4008
:10CAA7000912658BC3EE9DF0802612658BE4801C0E
:10CAB700126589E0FEC374FF9DC39E742A40081265
:10CAC700658BE02DF0800912658B74FFF0752D01E1
:05CAD70012D771AF2D24
:01CADC002237
:10CADD00E4F52EEB601A1265A8E0FEC39D742D409F
:10CAED00091265AAC3EE9DF080261265AAE4801C8A
:10CAFD001265A8E0FEC374FF9DC39E742D400812FD
:10CB0D0065AAE02DF080091265AA74FFF0752E015B
:05CB1D0012D5A6AF2EA9
:01CB220022F0
:10B28600C0008004010F8080000000000000323200
:10B29600000A320000000002800200840808080844
:10B2A600080896800008080808080891828A878E90
:10B2B6008E7B808080808081808387817689816E85
:10B2C60080808080808061606367615669614E809E
:10B2D6008080808080808080808080808080808068
:10B2E60080808080FFFFFFFFFFFFFFFFFFFFFFFF64
:04B2F600FFFFFFFF58
:10569B0075F01390002712486FE40893FE74019382
:1056AB00A60608F622F0A3F0A3F0A3F07B017AF88C
:1056BB00799822E6FC08E6FDECA3F0AF05A3EFF02A
:1056CB0008E6FC08E6FDECA3F0AF05A3EFF008E657
:1056DB00FC08E6FDECA3F0AF05A3EFF022748C25DC
:1056EB003DF582E434F8F583E07F0025E025E0FE0C
:1056FB00EF22E52975F007A47B0124FFF974F73538
:10570B00F0FA7E00E92528F9EE3AFA1244F0FF741C
:10571B00982528F582E434F8F58322758300124529
:10572B0009FD748C2537F582E434F8F583E025E028
:10573B0025E022E0FDEEF6ED08F6A3E0FEA3E0FD8A
:10574B00EE08F6ED08F6A3E0FEA3E0FDEE08F6ED9D
:10575B0008F622AB28AA29A92A852E827583001266
:10576B004509FF90F881E0FD75F008A4252EF58220
:10577B00E435F0F583E5822290002775F01312488B
:10578B006FE493FC740193FDEC22FA7879E675F0E3
:10579B0003A4F58285F08302450975F008A4240063
:1057AB00F582E5F03EF583E58224F8F582E5833456
:1057BB003FF583E0547F2274922537F582E434F869
:1057CB00F5832278AEE65470C4540FFF25E025E034
:1057DB0024B7F582E434B2F583E49390F831F0EF1B
:1057EB0025E025E024B8F582E434B2F583E4932276
:1057FB0078767C007D007AB279867BFF7E007F060F
:10580B000244CA7A002FFFEA3EFE74F82FF5827429
:10581B003F3EF583E0222F7A00FFEA3EFE74002F15
:10582B00F58274403EF583EDF02278AEE65470C4F9
:10583B00540F2275F008A42400FFE5F022E536543E
:10584B000375F004A42537F582E435F0F583AB330B
:10585B00AA34A935227486253DF582E434F8F58304
:10586B002224FEF58274433EF58322E6A3F008E67C
:10587B00A3F008E6A3F022E0F6A3E008F6A3E00805
:10588B00F622F090F88202481A78007CF87D017BB2
:10589B00FF7AB279927E007F1F2275F01390002160
:1058AB00227F0790F89974FF22752B01752CF975DF
:1058BB002D007B017AF979802224FFF58274433E17
:1058CB00F5832224FDF58274433EF5832224FCF5F7
:1058DB008274433EF5832224FBF58274433EF583A9
:1058EB0022F582E434F8F58322FD74802EF582E4F0
:1058FB0034F9F583EDF022AB38AA39A93A22E0FE50
:10590B00E53E5407FD7401A8050822E529241D90E6
:10591B00F898F0752801222400F582E583347BF595
:10592B0083E0222480F582E583347BF583E022E556
:10593B003E131313541F2290F89BF0A3EDF075F058
:10594B00132274002EF582E434F9F5832275F013DB
:0E595B0090002522AB2BAA2CA92D852E82228E
:10D7F200907FFFE0641260028005127F8040061273
:10D80200AF3A02945112D97012E2FB12BBA712BCBA
:0BD81200C712DAFD12C40D12C267221B
:1094510078C6E6A2E150277858E6FFC39410501E63
:10946100EF1313543FFF7B007A00790C12B52F786C
:1094710058E6540325E025E0240CF8E6F52312E72D
:10948100C112B0AB12D63312AEBF12EBA812EB036E
:1094910012D03512EAD312CB2312EBE212E6E878AE
:1094A100C6E6A2E150687858E6C394105060787B14
:1094B100E6C3940F4004E4F68003787B06785AE60D
:1094C100F52408E6F52508E6F52608E6F5277832BD
:1094D1007C007D007B007A0079237E007F051244A9
:1094E100CA12CDC5E4786EF6E5231259581256A179
:1094F100E52312569BE5231258A51256A1E408F65E
:10950100787BE6FF12D3B3787BE67858F62278C6EB
:10951100E6A2E1400B7858E6FF9446500312BEF9EB
:019521002227
:10D3B300786EE6FEC433333354804F90F898F00808
:10D3C3001256BE08E6A3F078C6E6A2E1400712565D
:10D3D300B7E4FF800C78C6E6A2E150081256B77F87
:05D3E3000312977B22FC
:02BEF9008F2890
:10BEFB0078C6E6FFA2E14005E4F5298008EFA2E150
:10BF0B0050037529031256B7AD28AF2912B59D50B2
:10BF1B001A90F898E0C41313135401786EF6A3E04B
:10BF2B00FEA30812573EA3E008F622E4786EF6E56E
:10BF3B00281259581256A1E52812569BE52812587B
:07BF4B00A51256A1E408F65F
:01BF520022CC
:10B0AB00E4F5281256B7AD28E4FF12B59D50329047
:10B0BB00F898E528F090002512578690F899F0A3A0
:10B0CB00EDF0E528125783125942E5289000211222
:10B0DB00578990F89DF0A3EDF0E41256B5FF129747
:10B0EB007B0528E528C3944640B9E4F5281256B7EA
:10B0FB00AD287F0312B59D501590F898E528F012F6
:10B10B0058ACF0A3DFFC1256B77F0312977B0528D0
:07B11B00E528C3941040D6A3
:01B12200220A
:10CDC500E535540FFEE4C4F8540FC868FFEEC454AB
:10CDD500F048FEE533540F4EF533EF4534F534781E
:10CDE5007BE690F898F0A3E532F0E533A3F0A3E5F0
:10CDF50034F0A3E536F0A374FF1256B27F02029712
:01CE05007BB1
:08B52F008F328B338A34893519
:10B53700E53225E025E0F536E53275F004A424046C
:10B54700FFE435F0FEC3E5369FEE6480F87480981B
:10B5570050431256B7AD367F0212B59D5020E4F521
:10B567003774992537F582E434F8F583E0FF1258EC
:10B5770048EF12456A0537E537B404E58012E4F56C
:10B587003712584874FF12456A0537E537B404F196
:05B59700053602B53F7E
:01B59C00228C
:10D63300E4F5281256B7AD287F0212B59D50159018
:10D64300F898E528F01258ACF0A3DFFC1256B77F28
:0DD653000212977B0528E528C3941040D6ED
:01D6600022A7
:10D8C80078C6E6FEA2E140057524018008EEA2E1D3
:10D8D800500375240490F898EFF0787C1256BEA394
:0AD8E80074FF1256B6AF2402977BBE
:02C366008F2422
:10C3680078C6E6FFA2E140057525018008EFA2E145
:10C3780050037525041256B7AD24AF2512B59D504C
:10C388000C90F899E0FEA3787C12573E2275F013C2
:10C39800E52490002512486FE4787C1256A675F0C3
:10C3A80013E52412569E75F013E5249000211256C9
:01C3B800A1E3
:01C3B9002261
:10AEBF00E4F5281256B7AD287F0112B59D50359095
:10AECF00F898E528F012595812578990F899F0A37D
:10AEDF00EDF0E528125783125942E5289000211210
:10AEEF00578990F89DF0A3EDF0A374FF1256B67F2B
:10AEFF000112977B0528E528C3944640B6E4F52850
:10AF0F001256B7AD287F0412B59D501590F898E5ED
:10AF1F0028F01258ACF0A3DFFC1256B77F0412973B
:0AAF2F007B0528E528C3941040D6E6
:01AF390022F5
:10E5550090F8987401F0787612587608125876A3D8
:0AE5650074FF1256B67F0502977B83
:10E2FB001256B77D017F0512B59D500E90F8997897
:0EE30B0076125882A308125882221257FB2263
:06EBA8001257FB02E555C7
:10C6CF00E4F529F5291259161256FDEFF00528E564
:10C6DF0028B408F41256B77F0512977B0529E52970
:10C6EF00C3940440E01259161256FDEFF00528E5E9
:10C6FF0028B403F475280312571A74FFF00528E5C0
:0CC70F0028B408F31256B77F0502977B90
:10BBA700E4F522E522241DFD1256B77F0512B59D47
:10BBB700503E752301E522B404047F0380027F0809
:10BBC700E523C39F50307498252312571EE0FDE5E7
:10BBD7002275F007A47B0124FFF974F735F0FA7E8C
:10BBE70000E92523F9EE3AFAED124558052380C5F9
:0FBBF7001258940244CA0522E522C3940540A4C3
:01BC0600221B
:09EB03001258941244CA02C6CF54
:10C84A0012583570047F0280027F0390F898EFF047
:10C85A0090F82AE090F899F090F82BE090F89AF086
:10C86A0090F82CE090F89BF090F82DE090F89CF06E
:10C87A0090F82EE090F89DF090F82FE090F89EF056
:0BC88A0078B7E61256B57F0502977BD9
:10BCC70012583570047D0280027D031256B77F0536
:10BCD70012B59D503890F899E090F82AF090F89AAC
:10BCE700E090F82BF090F89BE090F82CF090F89CFF
:10BCF700E090F82DF090F89DE090F82EF090F89EE7
:10BD0700E090F82FF090F89FE078B7F622782A7C39
:0FBD1700F87D017AB279B112580578B776052216
:10D03500125835F528782A7CF87D017BFF7AB2797C
:10D04500B112580778B7760578AEE6548FF612C850
:10D055004A78AEE6548F4460F612C84AE528C454AF
:09D06500F0FF78AEE6548F4FF69F
:01D06E00229F
:10DAD700125835240490F898F090F831E090F899AE
:10DAE700F090F832E090F89AF0A374FFF0A3125682
:06DAF700B07F0502977BE1
:10DAFD001258352404FD1256B77F0512B59D500EF0
:10DB0D0090F899E090F831F090F89AE08003125770
:06DB1D00CE90F832F02268
:0AEAD3001257CE90F832F002DAD7A5
:10D2A30012583575F005A4FF7879E6540F24092F39
:10D2B30090F898F090F835E090F899F090F836E00F
:10D2C30090F89AF090F837E090F89BF0A374FF126F
:07D2D30056B07F0502977BB6
:10C40D007879E6540F2409FD1256B77F0512B59DB4
:10C41D00501690F899E090F835F090F89AE090F871
:10C42D0036F090F89BE080257BFF7AB279BD787964
:10C43D00E6FF12579990F835F07AB20975F003EFCF
:10C44D0012579C90F836F07AB20912579690F83739
:02C45D00F022CB
:10CB230012583575F00FA4FFAEF024BDF974B23E70
:10CB3300FA7BFF12579690F835F074BE2FF974B252
:10CB43003E12579590F836F078AEE65470FFC45411
:10CB53000F75F00FA424BFF974B235F012579590F6
:06CB6300F837F002D2A336
:10C2670090F881E07002802590F881E0FF541F600C
:10C277003EEFC3942050197420F0752BFF752C8264
:10C28700752DAD7BFF7A82792D12A4DAE4FF802128
:10C2970090F881E0C4135407C43354E0F07F0112CF
:10C2A700BF5390F881E02420F01258B402A4DA7F3B
:05C2B7000112BF53223B
:10BF530090FF207406F0EF701AFEEE90822D93127C
:10BF630058F4EE9082AD93FD12594DEDF00EBE8064
:10BF7300E9802FEF6401702AFE90F881E0FF75F0ED
:10BF830008A42E1257791259221258F475F008EFAB
:10BF9300A42E12577912592EFF12594DEFF00EBEEF
:08BFA30080D790FF207407F025
:01BFAB002273
:03EBE20002C26705
:06A4DA008B288A29892A63
:10A4E000E4F52E12575E1259226F701D12595FF556
:10A4F00083124509FF75F008ED12577612592EB5F3
:10A500000707052EE52EB480DAE52EC39480505659
:10A5100090F881E0C3946040107F1F12E444907F64
:10A52000FF7412F0E490F881F0E4F52E12575E24E7
:10A5300000F582E583347CF583EFF012595F758373
:10A5400000124509FF75F008ED1257762480F58258
:10A55000E583347CF583EFF0052EE52EB480CD90B5
:06A56000F881E02420F068
:01A5660022D2
:06EBAE001258B402A4DAC3
:10AF3A007F1F12E444400122752210AF2212E4441A
:10AF4A004001220522E522C3941640EFE4F522E5EA
:10AF5A00221256F41258C4E522F0EF12586CE4F0AB
:10AF6A001258CEE4F01258D8E4F01258E2E522F072
:10AF7A002486125864E522F0248C1258ECE522F05B
:10AF8A0024921257C6E4F00522E522B406C1907F46
:10AF9A00FF7412F090F8807406F090F88212483E1E
:0AAFAA0000000000E490F881F0D3ED
:01AFB400227A
:10E44400EF33333354F8440190FF39F07BFF7AEA19
:0CE4540079A77F2812E355400122D32253
:107F8000E4F527F526F525F524F52890F882124822
:107F90003E00000000E4F52274862522125864E5B4
:107FA00022F00522E522B406EFE4F523E4F522E50C
:107FB000221256F41258C4E0FD7486252312586428
:107FC000E0FFED6F6003028081E522FB1256F412A0
:107FD00058CEE0FCEF1258D8E06CFCEB1256F612CB
:107FE000586CE06CFFED6FFDE5221256F41258E27A
:107FF000E06D6003028081748C25231258ECE52229
:10800000F0FF12DBE0749225231257C6EFF0E52251
:108010007D0025E025E0FCED24FDF58274433CF570
:1080200083E07B00FAED24FCF58274433CF583E0A9
:108030007E007810C333CE33CED8F9FFEE4AFCEF82
:108040004BFDE5221256F412586CE0FFECFEED4FAA
:10805000FFE48F278E26F525F52412588EAB27AA2C
:1080600026A925A824D31247E34029AF27AE26AD81
:1080700025AC2490F88212483290F880E522F080F6
:1080800013E522B40E02C3220522E522C3940F5049
:1080900003027FAF0523E523C394065003027FACA0
:1080A0007F0F12DBE090F881EFF0E4FFFEFDFCA310
:1080B000124826C31247E390F88070057406F080DA
:0C80C0000AE0FF12D48390F880EFF0D3A8
:0180CC002291
:02DBE000A90793
:10DBE2007D7FE4FCE925E025E0FAED12583E3AFE9D
:10DBF200EC12580EF46003AF05220CBC08E6DDE21D
:02DC02007F00A1
:01DC040022FD
:10D48300E4FEBF0E03FF80010FEEFD3395E0FC7455
:10D493008C2DF58274F83CF583E0B5070ABF0E04C2
:10D4A300E4FF80010F7EFF0EC3EE6480948640D9B3
:01D4B3002256
:10E7C100E490F898F01258ACF0A3DFFC1256B77F32
:04E7D1000502977B2B
:10E6E800E490F898F07F0790F899E4F0A3DFFC1223
:07E6F80056B77F0502977B76
:10D970001256B7E4FD7F0512B59D5019752201744A
:10D9800098252212571EE06002800A0522E522C374
:08D99000940840EB22129451AF
:01D99800226C
:08977B008F378B388A39893AD7
:10978300D20674922F1257C6E004F53BE53BD394FF
:1097930000404912572DFEE53B1257A5FF1259020F
:1097A3001244F0547F6F7028F53C125902853C82B5
:1097B300125726FAE53B12583E3AFEE53C12580E84
:1097C3006D6004C2068015053CE53CB408DC800CE2
:1097D300E53BB40102C206153B02978F20065D12DA
:1097E30057C2E0B47F05AF37026FC4753B0112590E
:1097F30002853B82125726FA1257C2E012583E3AAC
:10980300FEE53B125821053BE53BB408E112590242
:109813001244F012572CFE1257C2E075F008A4242C
:1098230000F582E5F03EF583E5822400F582E583C9
:0C9833003440F583EDF01257C2E004F061
:01983F002206
:0AB59D008F388D398B3A8A3B893CC8
:10B5A70074922F1257C6E004F53DE53DD394004051
:10B5B70050748C2538125731FEE53D1257A5653971
:10B5C7007033F53E748C2538125731FCE53D12581F
:10B5D7003E3CFE7C00EF253EFFEC125813AB3AAA27
:10B5E7003BA93C853E8275830012456A053EE53ED0
:10B5F700B408D1800CE53DB40102C322153D02B564
:02B60700B1D3BD
:01B60900221E
:026FC4008F3DFF
:106FC600754001748C2F1258ECE0F54190F880E082
:106FD6002410FF12E444400122E4F9749829125760
:106FE6001EE0FD90F880E025E025E0FEE924001291
:106FF600582209B908E590F898E0547FF53EE4F583
:107006003F7498253F12571EE4F0053FE53FB4084C
:10701600F012593AFF249812571E1259098002C3DA
:1070260033D8FC4EFE74982F12571EEEF090F8805F
:10703600E0FF748C253D1258ECEFF012D48390F8E3
:1070460080EF12588DEF2401FFE43EFEE43DFDE49F
:107056003CFC90F882124832797FE54125E025E034
:10706600FE75F008E91257A8F53E647F70030270BA
:10707600F412593A249812571EE0FD7C00E53E545E
:1070860007FF74017E00A807088005C333CE33CE00
:10709600D8F9FFEE5CFEEF5D4E7053F53FE54125F6
:1070A600E025E0FCE912583E3CFE7C00EF253FFF60
:1070B600EC125813FD748C253D125731FAE5401237
:1070C600583E3AFEE53F125821053FE53FB408CD4C
:1070D60012593AFF249812571E1259098002C333D7
:1070E600D8FC4EFE74982F12571EEEF0054019E993
:1070F60060030270607492253D1257C6E54012582F
:107106008D78101247F4AB071256E81258D8EB12D6
:10711600588D78081247F4AA071256E81258CEEA94
:1071260012588DAD071256E812586CEDF0125860E1
:10713600E0FC1256E81258C4ECF0EB6A6DFF1258E8
:1071460060E06FFD1256E81258E2EDF0E5412410BA
:08715600FF12E444400122D3C2
:01715E00220E
:1095EF00AE3AAF3B7C007D021245F3EF2BF53BEE1D
:1095FF003AF53AAB2BAA2CA92D0246291246C6E4FE
:10960F007B02FAF9F81246C6AB31AA30A92FA82E61
:10961F0012CC378E3A8F3BD3E53B9400E53A64800A
:10962F0094802290F839E0FEA3E0FBAA06E4F9F853
:10963F00AE36AF3722AB35AA34A933A832AF31AE2D
:10964F0030AD2FAC2E1246B8A80422A804A905AA43
:10965F0006AB07E0FEA3E0FFE4FCFD22AEF0FBE467
:10966F00C39BFF74809EFEE49400FDE49400FC22F3
:10967F007A00790C7B00D2067D0122E53B5401FF75
:10968F00C3E49FFFE49400FAAB072290F839E0FCA3
:10969F00A3E0FDEC22AB05AA04E4F9F8E53722AB11
:0696AF002BAA2CA92D22BC
:10D8F2007876E633501C78AEE6A2E2501512967F97
:10D902007F0212D1C3E50C54037007E50C20E70235
:0AD91200C32278AEE654F7F6D322E4
:066C6D008B2B8A2C892DFF
:106C7300E4FD7F1F12EA8F7D807F4412EA8F129614
:106C830002FFAEF012CC7B5002C322126DFFF53629
:106C9300E50DF537E4FD7F4412EA8F129602FFAE4D
:106CA300F012CC7B5002C322126DFFF538E50DF5CF
:106CB30039129632FCFD1246C6A804A905AA06ABF2
:106CC30007AE38AF39E4FCFD1246AB8F318E308D01
:106CD3002F8C2ED3E5399490E5389401402B1296EE
:106CE3009A13FEED13FFE5392470FBE53834FEFA01
:106CF300D3EB9FEA9E400D1296A42401FFE43536A0
:106D0300FEE48031129632802C12969AC313FEED64
:106D130013FFC374909539FB74019538FAD3EB9F35
:106D2300EA9E400E1296A424FFFFE53634FFFEE4EC
:106D33008003129632FCFD1246C6EF2490FFEE3418
:106D430001FEE43DFDE43C8F358E348D33F5321284
:106D53009644C005C006C00712960212966BD00374
:106D6300D002D00112960B4009E53B54017A00FB97
:106D7300800312968A1295EF126E135002C322E516
:106D83000C606990F83930E114129662E5352FFFF3
:106D9300E5343EFEED3533FDEC35328017E0FEA3DE
:106DA300E0FBC3E5359BFFE5349EFEE5339400FD30
:106DB300E53294008F358E348D33F532129644C00C
:106DC30005C006C00712960212966BD003D002D0FC
:106DD3000112960B4009E53B54017A00FB80031234
:106DE300968A1295EF126E135002C322AB2BAA2C74
:0B6DF300A92DE53A853BF012468CD339
:106DFE00227B007A00790CC2067D027F4412D1C339
:106E0E00E50C540F22AEF0253BF53BEE353AF53A44
:076E1E00AF3BFE12CC7B220A
:10BC07008B2B8A2C892DE4FF12E759900A21E493A4
:10BC1700FF1296AEE48FF01246541296AE124629E2
:10BC2700FFAEF012CC7B50037F0222E50C602E1290
:10BC370096AE30E10D12462924FFFFE5F034FFFEF2
:10BC4700800A1246292401FFE435F0FE12CC7B500E
:10BC5700037F0222E50C540360037F01227F002249
:108BAB00E4F52EF52DF52CF52BFB7DFC7F4712D92B
:108BBB00C27B107DEF7F5012D9C212EAF17BFF7A94
:108BCB00E879D27F3C12E3554003028C9E7B407DBB
:108BDB00BF7F5212D9C2E4FD7F5912EA8FE4F50C24
:108BEB00FB7A00790DD2067D037F5912D1C3850F15
:108BFB002E850E2D850D2C850C2BE4FB7D5F7F5276
:108C0B0012D9C27A0079331296837FAE12D1C30583
:108C1B003305337B007A007934D2067D017FAF12A6
:108C2B00D1C3E5345430C4540FFF7401A807088036
:108C3B0002C333D8FCF534FFE4FCFDFEFBFA7908E4
:108C4B00F81246C690F83912965A1246C6AB2EAA9F
:108C5B002DA92CA82B12475190F83D12965A12466B
:108C6B00C6C007AF33AB07E4FAF9F8D00712475188
:108C7B008F328E318D308C2FC3E49532FF748095FB
:108C8B0031FEE49530FDE4952F8F328E318D30F52A
:108C9B002F800BE47532FF7531FFF530F52FE4FBB8
:0B8CAB007DEF7F5012D9C2AE31AF3216
:018CB600229B
:10CC7B008E3C8F3DE4FB7DFE7F4712D9C212EAF159
:10CC8B00AF3DAE3C12DF40E4FD7F0212EA8F7F081E
:10CC9B0012CF057F0812CF0512A8A75001221296BA
:10CCAB007F7F0212D1C3E50C54606002D322530C78
:03CCBB0003C3228E
:10715F00E4F528FB7A00790CC2067D027FB512D1C7
:10716F00C3E50C540FF523E50DF524E4FB7DFD7FFE
:10717F00BB12D9C2E4FF12E759128BAB8E258F26B3
:10718F0012CC7B50037F0222E50C7053432801E59C
:10719F00262418FFE43525FE12CC7B50037F0222F4
:1071AF00E50C7003432802E52624E8FFE52534FFAC
:1071BF00FE12CC7B50037F0222E50C7003432804A0
:1071CF00E528B40309740C2526F526E4800DE5287F
:1071DF00B4050C74F42526F52674FF3525F525E541
:1071EF002860030272C2AF24AE2312DF40E4F528F9
:1071FF00752718AF24AE2312CC7B50037F0222E5F4
:10720F000C603CE50C30E11AE5287E0030E0047F8D
:10721F000C80027F18C3E5249FF524E5239EF523F8
:10722F008017E5287E0030E1047F0C80027F18EF85
:10723F002524F524EE3523F523850C28D527B4E531
:10724F002770037F0122E528701CE5242418FFE432
:10725F003523FE12CC7B50037F0222E50C6003FF27
:0F726F0080027F018F288523258524267527041B
:10727E00E52830E00BE526240CFFE43525FE800AD8
:10728E00E52624F4FFE52534FFFE8E298F2A12CC45
:10729E007B50037F0222E50C7009852925852A265D
:1072AE00D527CDE5242526FFE5233525C313F52562
:1072BE00EF13F5267B007A007925126C6D40037F63
:1072CE0002227B007A00792512BC078F28E5286000
:0A72DE00012278AEE64408F67F00B6
:0172E8002283
:10E7D50012E4B37827E475F001024884D29012E779
:04E7E500FDC29022BF
:10E7FD00000000000000000000000000000000000C
:03E80D00000022E6
:10E76E00D29012E7FD3090FDD291C29112E7FDC218
:05E77E009012DB2322D4
:0AEADD00C291D29012E7FDD29122FF
:10E87F00D291D29012E7FDA291E433FFC290D291D0
:01E88F002266
:06EBB400C29112E7E1220C
:06EBBA00D29112E7E122F6
:10DB2300E4FEEF335004D2918002C29112E7E1EF99
:10DB330025E0FF0EBE08EB12E87FEF600612EADD78
:05DB43007F00227F01BC
:01DB480022BA
:10E4B300E4FFD291FED29012E7FDEF25E0FFA29197
:0AE4C300E4334FFFC2900EBE08EBD9
:01E4CD00222C
:02DC74008D2AF7
:10DC7600752BFF8F2CAF2C12E76EEF64016005D574
:10DC86002BF3C322AF2A12DB23EF64016002C32207
:01DC9600D3BA
:01DC9700226A
:06C54E008F238A258B26D5
:10C55400E52645257002C322AF2312DC7440012274
:10C56400E5234401FF12E76EEF64016002C322E594
:10C5740026152670021525144525600C12E7D5EF03
:10C5840012455812EBB480E712E7D5EF1245581262
:06C59400EBBA12EADDD350
:01C59A00227E
:08AE41008F238D248A258B2646
:10AE4900E52645257002C322D3E5269400E525941D
:10AE5900004061AD24AF2312DC74400122E5245483
:10AE69000FFFC374109FFDFF7E00D3E5269FE525E4
:10AE79009E401CE5269FF526E5259EF525E524C37C
:10AE890094F0400405230523ED2524F5248007AD1E
:10AE990026E4F525F526AF051DEF6013782712E79F
:10AEA900DA1244F0FF12DB23EF640160E9C32212D6
:05AEB900EADD8094D3E6
:01AEBE002271
:03000B0002B6E258
:10B6E200C0E0C0F0C083C082C0D075D000C000C02E
:10B6F20001C002C003C004C005C006C007D28C75D9
:10B702008A21758CF8D20A78A7E6FE08E6FFF47063
:10B7120002EEF4600AEF4E6006E61618700116E5B6
:10B722005760041557800920090612DCE075570A94
:10B73200D007D006D005D004D003D002D001D0006B
:0BB74200D0D0D082D083D0F0D0E03215
:07EB8600C10000FD54FEFF79
:10AB5200019B1E01A60F02A401D201A100019E00C9
:10AB620001A000019F00019D0001A20001A30001BC
:05AB72009C00015600EB
:1080CD007864E6FA08E6FBFF7C007D64AE0212459B
:1080DD009E7C007D0A12459EED243022FFC3ED9F4C
:1080ED00FFEC9ECF24FCAD26CF34FFFE7C00124565
:1080FD008CE4FD7B64FAF9F8024751E524FD7C0020
:10810D00FFC3E5239FFFE5229400FAA9077BFFD269
:10811D00067F922290832FE493FE74019390833314
:10812D00FFC37401939FFFE4939EFEEF780222F547
:10813D000D7B007A00790CC2067D027C007F9022B7
:10814D00E50C24FDFDE434FFFC7B007A00790FD2B1
:10815D00067F92227C007D0AE6FE08E6FF02459E20
:10816D00E4F52485238285228322FE7C007D641222
:10817D00458CAD03AC0202459EC207D2087F922208
:10818D00E47B0AFAF9F8AF25AE24AD23AC22024701
:10819D00517B007A00790CD20622AB2DAA2EA92F85
:1081AD001244F025E025E02278ACE6C39FFFE49E63
:1081BD00FE22EF2402FFE43EFEE43DFDE43CFCE440
:1081CD007B02222430F52FEF75F00A84E5F022C2F0
:1081DD0007C2087F90227C007D0AAF032290833B6B
:1081ED00E493FE740193227864E6FE08E6FF22FB19
:1081FD007A00790CC206222523F523E43522F522D7
:0B820D0022EF25E0FBEE33FAC3E6226F
:10B8ED00789BEFF678A6A6052401F523E433F5221F
:10B8FD0078A4A60208A6031281DC12E7987FC01275
:10B90D00D4E57F0412D4E512000312818612E79864
:10B91D00AF23E52312D4E5E522C4F854F0C8E5239E
:10B92D00C4540F4854F0FF78A5E6540F4FFF12D4BE
:10B93D00E579A4E7C4F854F0C809E7C4540F48FFEB
:06B94D0012D4E502000324
:10C211008E248F258C268D278B281281DC12E7989E
:10C22100E524540F4528FF12D4E5AF25E52512D4A6
:10C23100E5120003E528B4D00FAE26AF277C007DC0
:10C241000312458C8E268F2712818612E798E527E7
:10C251004526600FAF2912D4E5E527152770EF15A4
:06C261002680EB02000341
:10D11B008F228D23EFFD7C007529807B10E4FFFEB1
:10D12B0012C211E4FF12E8C2E522FD7C00752988CA
:10D13B007B50E4FFFE12C211E522FD7C0085232902
:08D14B007B90E4FFFE02C2111B
:04CCBE008B33AC0701
:10CCC20078A6E6FFED8FF0A4FF789BE62401FBE453
:10CCD20033CB2FFFEB35F0FEAD047C00EF2DF535A5
:10CCE200EC3EF5341281DC12E798E534540F4533FB
:0ECCF200FF12D4E5AF35E53512D4E50200039C
:10E8C2008F2E12818612E798AF2E12D4E502000332
:10DC05008E268F2712818612E7988527828526839F
:10DC1500E493FF600D12D4E50527E52770EC052692
:05DC250080E80200038D
:08D5D5008E228F238D248B258B
:10D5DD0012E962EFC313FEC395244005E4F52480E0
:10D5ED0006C3E5249EF5247B50AD25AF2412CCBE99
:07D5FD00AF23AE2202DC05A2
:08D661008E228F238D248B25FE
:10D6690012E962EFC313C395244005E4F52480064B
:10D67900C3E5249FF5247B50AD25AF2412CCBEAF62
:06D6890023AE2202DC05C5
:04C2BC00AB07AA061C
:10C2C0007C277D1012459EEF2430F5227C037DE80B
:10C2D000AF031280D9F523AF031280D5F524128164
:10C2E000E31280D9F525AE02AF031280DEF52612E7
:10C2F000818612E798AF2212D4E5AF2312D4E5AFBE
:10C300002412D4E5AF2512D4E5AF2612D4E50200FD
:01C310000329
:10C45F00EF75F06484FED394004012EE2430F52E75
:10C46F00EF75F00A841281D51281D08019EF75F023
:10C47F000A84FED39400E44008F52EEE1281D0809A
:10C48F0005F52EF52FEF2430F53012818612E7983F
:10C49F00AF2E12D4E5AF2F12D4E5AF3012D4E50290
:02C4AF00000388
:10CF8200EF540FFEC3940AEE50062430F5238004BA
:10CF92002437F523EFC4540FFEC3940AEE5006243F
:10CFA20030F52280042437F52212818612E798AFE9
:0CCFB2002212D4E5AF2312D4E5020003E4
:10E56F00750C81EF25E025E02403F50DE4F50E127F
:0AE57F0081FC7D03FC7F9002D68F23
:107A25008E228F238C248D258B26E526D3946440C6
:107A350003752632E527D394644003752732E5287C
:107A450030E75C128121CEC313CE13D8F9FDAC0605
:107A5500E522C313FEE523131280E91281BF1281CB
:107A6500028E228F231281EA90833F12812DCEC38D
:107A750013CE13D8F9FDAC06E524C313FEE5251393
:107A8500FFC3ED9FFFEC9ECF24FDAD271280F512BD
:107A950081BF1281028E248F2543287F027B081225
:107AA5008121CEC313CE13D8F9FDAC06E523AE2252
:107AB5007802CEC313CE13D8F91280E9EF2406F568
:107AC50023E43EF5221281EAFFC390833F12812F02
:107AD500CEC313CE13D8F9FDAC06E525AE24780246
:107AE500CEC313CE13D8F9FFC3ED9FFFEC9ECF2471
:107AF500FACF34FFFEAD271280F9EF2404F525E413
:107B05003EF5247B027DF87F9312D9C27D017F6CFF
:107B150012E7E98F0CE50C70047FC080027FE08FCF
:107B25000CE4F50D1281FC7D02FC7F9012D68FE5E9
:107B350024C313E52513F50CE523AE227802CEC345
:107B450013CE13D8F9F50DE5235403C4333354C0CC
:107B5500FFE5255401FEC43354E04F4528F50E12C8
:107B6500819E7D037C007F9212D68F7F2012CF05E8
:0E7B75007F2012CF057B057DF87F9302D9C2D9
:10D516008B30AE05AD07AF06AB3212CCBEE532B4EA
:10D52600D008E53075F003A4F53012818612E7982D
:10D53600E5306009AF3112D4E5153080F3020003FF
:10E260008F258D268B27E5266014852931852A3256
:0FE27000AB28AD27AF2512D5160525D526EC22F4
:10A00D0078627C037DE8128165EF4E6005750F3136
:10A01D008003E4F50F78621280CFF5101281E31200
:10A02D0080D9F5117862E6FE08E6FFBE051ABF5627
:10A03D00177865E6B4001118E6B4030C7C007D0AB0
:10A04D0012459EED24FA80067862128161ED24306E
:10A05D00F5127513207514587515201281F47C03B3
:10A06D007DE812459EEF4E60207516311280CDF5BC
:10A07D00171281E31280D9F5181281F41280DEF5E2
:10A08D0019E4F51A750C0E801B1280CDF516128190
:10A09D00E31280D9F5171281F41280DEF518E4F57C
:0AA0AD0019750C0D12814D02D68FBB
:10D2DA00785C128161EF75F00A8475F00A8485F032
:10D2EA0018EF75F00A8485F017750C07E5182430D5
:10D2FA00F50FE5172430F51075114875125AE4F543
:07D30A001312814D02D68FC2
:10A799007858E675F01390001B12486F1281EDFF8F
:10A7A900E48F258E24F523F5227B64FAF9F81281CA
:10A7B90097E47B0A128102AF038F1912818DE47B22
:10A7C9000A128102AF038F1812818DAF038F17E52B
:10A7D90019C3940A4011E51975F00A8404F51A742D
:10A7E900F62519F5198003E4F51A750C0B851A0F6E
:10A7F900E5192430F510E5182430F51175122EE508
:10A80900172430F51375144B75154875165AE4F568
:07A819001712814D02D68FDA
:048FB9008E228F2352
:108FBD00AA06A9077BFF12814412D68F0290531285
:108FCD008170E49364FC704C12810812D68F12816B
:108FDD006D0493FFD3940340030290ACEF24FCF592
:108FED0025128170740293B4FD14740393FD7C00FB
:108FFD00D205AB257F9212DB95740402908B7B001A
:10900D007A007925D2067D017C007F9212D68F746D
:10901D000202908B128170E49364FD70341281080A
:10902D0012D68F12817074019324FFFDE434FFFC7E
:10903D00E58224FFF582E58334FFF583E493FBD2CB
:10904D00057F9212DB957402128204E4F524028FDF
:10905D00CC128170E49364FE702A12810812D68FAF
:10906D000523E5237002052212816D0493F4602F10
:10907D00AA22A9237BFF12814412D68F7402128279
:10908D0004028FCC128170E493B4FF0612810802A2
:0F909D00D68F0523E523700205220524028FCC10
:0190AC0022A1
:0EE9BC007F2012CF057B017DFE7F6C02D9C249
:09EB0C00E4FB7DFE7F6C02D9C21E
:0C8A93008E258F268C278D288A298B2A9F
:108A9F007D017F6C12E7E98F30E53070047FC18074
:108AAF00027FE18F0C1281A70412813C12D68F7EB8
:108ABF0000E526543F7802C333CE33CED8F9F50CF8
:108ACF00E5255407FEE52654C07806CEC313CE1312
:108ADF00D8F9FFE5285407C43354E04FF50DE528C6
:108AEF00AE277803CEC313CE13D8F9F50E7E00E56B
:108AFF002A543F7802C333CE33CED8F9F50FE52988
:108B0F005407FEE52A54C07806CEC313CE13D8F906
:108B1F00FFE52C5407C43354E04FF510E52CAE2B72
:108B2F007803CEC313CE13D8F9F51112819E7D06AB
:108B3F007C007F9212D68F7F287E0012E63FE4F5ED
:108B4F0031750CC11281A7FFE53175F003A42F1207
:108B5F00813C12D68FE4F530E53175F003A47C002B
:108B6F002530FFEC35F0FEAB2DE52F2FF9E52E3E2E
:108B7F00FA900001124509FF740C2530F8A607057D
:108B8F0030E530B403D212819E7D037C007F9212B8
:0B8B9F00D68F0531E531C3940240A6DB
:018BAA0022A8
:10D153008F228B238A248925750C411281AD2403E8
:10D1630012813C12D68FAB23AA24A9259000051265
:10D17300450954F0FFE522540F4FF50C12819E7DB3
:08D18300017C007F9202D68FAF
:02BDE4008F27A7
:10BDE600E527701912BE277881E640082432FF182D
:10BDF600E436FE222529FF18E63528FE22E52764CB
:10BE060001701D12BE27400C7881E624CEFF18E68D
:10BE160034FFFE22C37881E69529FF18E69528FEB1
:10BE2600227880E6FE08E6FF7B007A00792812ADCC
:0BBE3600C3D3E5299432E528940022D4
:10E4CE00EFC4333354C0F50C750D018D0E7B001265
:0BE4DE0081FD7D037C007F9002D68F43
:04E962008F828E838F
:0AE96600E4FFE49360040FA380F8BF
:01E970002284
:10CE8700E52B601BC3EB9DEA9C4009E52C702FAF97
:10CE970005AE0422EB2401F52EE43AF52D801BD3D1
:10CEA700EB9FEA9E500AE52C700122AE04AF0522E3
:0ECEB700EB24FFF52EEA34FFF52DAE2DAF2E45
:01CEC500224A
:10DB49007F0112BDE48E258F26E4FF12BDE4C3EFE9
:10DB59009526FBEE9525FAC37874E69526FF18E617
:05DB69009525128177F3
:01DB6E002294
:10CD0000C37967E7787D96FF19E71896FE12E86DFC
:10CD10001281B5787CE6FC08E6FDC39FF526EC9E03
:10CD2000F525C37867E69DFF18E69CFE12E86D12B4
:10CD300081B5787012820E9526FF18E6952512812E
:01CD4000777B
:01CD410022CF
:10CB6900C37969E7787F96FF19E71896FE12E86D91
:10CB790078AD1281B7787EE6FC08E6FDC39FF526FD
:10CB8900EC9EF525C37869E69DFF18E69CFE12E840
:10CB99006D78AD1281B7787212820E9526FF18E66C
:05CBA9009525128177C3
:01CBAE002264
:10BA1C007877E6F52290F835E0F519A3E0F51AA34E
:10BA2C00E0F51B12945190F835E519F0A3E51AF0E6
:10BA3C00A3E51BF012C6CF12E55512CA5012C05E18
:10BA4C0012EBE912EBA2E522640160177873E6FEB3
:10BA5C0008E6FF1248EB7875E6FF1272E912EB7FED
:10BA6C0012AD437877A622786E760178C7E6440843
:04BA7C00F602B123FA
:10E589008F221281DC12E7987F4012D4E57F0312B3
:0AE59900D4E5AF2212D4E50200031E
:10E5A300E4FFFEFDFCED1D70011C8D828C83E49362
:09E5B3002FFFE43EFEED4C70EC7C
:01E5BC00223C
:10DE1800E50B450A700712E5A38E0A8F0B7B50E4C9
:10DE2800FD7F0912CCBEE50AFF12CF82AF0B02CFED
:01DE38008267
:10E689001299BF78C7E6A2E1400312D0E278C7E643
:08E69900A2E2400312EA832211
:10C50000E4FFFDFBE55630E71530E0027FFFE5561E
:10C5100030E1027DFFE55630E2197BFF8015E556DC
:10C5200030E0027F7FE55630E1027D7FE55630E264
:10C53000027B7F12D3110556E55630E00790FF616C
:0DC5400074018004E490FF61F090FF60F052
:01C54D0022CB
:10A681007D0112A6F57EF67F0012DC057F2012E81F
:10A69100C27EF67F0712DC057D0212A6F57EF67FEB
:10A6A1001C12DC057D0312A6FD7EF67F2312DC055C
:10A6B1007D0412A6FD7EF67F3512DC057D0512A70D
:10A6C100057EF67F3E12DC057D0612A7057EF67F2C
:10A6D1004912DC057B507D07E4FF12CCBE7EF67F7C
:10A6E1005612DC057B507D08E4FF12CCBE7EF67F5E
:10A6F1006202DC057B50E4FF12CCBE227B50E4FFFA
:0CA7010012CCBE227B50E4FF12CCBE2222
:10D4B40030042A78BCE67028300105C20102EB0C66
:10D4C400D20178C7E64408F612B4C012BC6712DE73
:10D4D4001812A6817BFF7AEB796F02D60412C4B1CD
:01D4E4002225
:10D91C0078BC760812D6EB502078BAE608F612CB13
:10D92C00AF78BAA60712D18B500678BAE6B40B09B9
:0AD93C007876E633500312B2FA22A7
:0FE9710078BAE608F612CBAF78BAA60702D18BB8
:0AEAE70078BDE654FEF654FDF62259
:10D6EB0078BDE6A2E1500B135008E654FDF654FE4C
:10D6FB00F62278BDE6A2E140124402F67BFF7AEBFC
:0DD70B00798D7F027E0012C5E8C322C32283
:07EB8D0078BDE64401F62209
:07EB940078BDE64404F622FF
:10D81D0079BBE778BA665F600578BCA6052278BD4E
:10D82D00E6A2E35015A2E2500418A605227BFF7A6A
:0BD83D00EB79947F327E0012BB462284
:10D18B0078BAE6FF30E02F086630E02A12CBAF7892
:10D19B00BAA6077876E6335002C204C201E4F5085A
:10D1AB00F50920040312E27F78C7E64401F678BD47
:08D1BB00E654F7F6D322C3226B
:10CBAF00E4FF90FF5FE020E0027F0490FF5DE02054
:10CBBF00E00343070890FF5CE020E0034307109079
:10CBCF00FF5AE020E00343070290FF58E020E00304
:10CBDF0043070190FF59E020E00343072020910312
:03CBEF00430740B9
:01CBF2002220
:10E27F007876E633920678BAE624F5600A24FE70C3
:0EE28F000D20060AD20422300604E478BAF606
:01E29D00225E
:10B2FA007876E633920578BAE61248A9B31F02B304
:10B30A002B04B33108B34A0BB33710B33D20B34310
:10B31A00400000B35D78BDE654F7F6E4FD7F028095
:10B32A001C7D017F0480167D027F0880107D037FCB
:10B33A0010800A7D047F2080047D057F4002D81D8D
:10B34A0020051F78BDE654FBF61294517876E65430
:10B35A007FF62278BDE654FBF67BFF7AEB799412EE
:02B36A00D60407
:01B36C0022BE
:10001600020280015E013B02BC0A0A032001C10004
:1000260090003E020280015E017A03520F0F0340E8
:1000360001BD00A0003F0D02D00190013B02BC0AA9
:100046000A038401C100A300230F02D00190017CA2
:1000560003520F0F03A801BE00B4002D0F0280014A
:10006600E0013B02580A0A0320020D009100220F0C
:10007600028001E0015E029A0A0A0360020D00A0F6
:10008600002A0F028001E0017A02D80A0A03400220
:100096000800A9001E0F028001E0017702EE0A0A9D
:1000A600034801F400B900120F028001E001B10318
:1000B600520A0A034001FE0088001C0F0320025862
:1000C600015F02320A0A0400027100C800180F0319
:1000D600200258017A025B0A0A0420027400D90041
:1000E6001A0F0320025801E002D00A0A0410029AED
:1000F60000B9001C0F0320025801D402EE0A0A04BC
:1001060020027100F100170F032002580218035253
:100116000A0A0418027700D8001E0F034002700175
:10012600F102E90A0A0480029B0120002A0B04005E
:10013600030001E302580A0A0540032601280022AB
:100146000B04000300023402BC0A0A053003260130
:100156001800220B04000300025802EE0A0A0520CA
:1001660003200110001E0F0400030002AA03520A16
:100176000A05600328013000270F04000320026CE3
:1001860002E40A0A05300345010800230F040003B0
:100196002002CB03520A0A05280345011800230F43
:1001A60004800360021902580A0A05E8037E012C3E
:1001B600001E0F04800360028202BE0A0A05C00305
:1001C60092012000310F0480036002A302EE0A0AA6
:1001D60006400384018000230F04800360030203AA
:1001E600520A0A0628038B0168002A0F0480036658
:1001F60002AE02EE0A0A05B003930110002A0F04AC
:10020600800384026A02940A0A05F803A9015000D1
:10021600230F0480038402CE02FE050505E003A930
:10022600014000230F050002D001BF02580A0A064A
:100236007802EA015300190F050002D0023402EEDB
:100246000A0A069802EF0154001F04050003000184
:10025600DD02580A0A0684031A0142001A02050042
:10026600030001DB025A0A0A05A0031500730012F7
:100276000405000300023002BC0A0A069C031F01A3
:1002860050001F0405000300025902EE0A0A06AADE
:100296000321015A0021080550030001DD02580A16
:1002A6000A0704031A01700017040500032001F46D
:1002B60002580A0A0690033F0148001C0405000381
:1002C60020024302BC0A0A0684033C00E0001F0425
:1002D60005000320026E02EE0A0A0684033E01446C
:1002E60000210F050003C0025802580A0A07080336
