:10EC2D003D403F3B33281C002C2D3C3D38301A0015
:10AE9B0001C60041F8220041F81F0041F82006418D
:05AEAB00F82100C10BBD
:10666500A81474FFFFFEFDFC124751E47B10FAF9F4
:10667500F81246C6A804A905AA06AB0722785EE665
:10668500FE08E6FFE4FCFD221246C6E47BE87A0339
:10669500F9F8124751E47B127A02F9F8D30247E37D
:1066A50090F80FE05407900AA5FF75F00312486FA4
:1066B50002489D8F0E8F0D8F0C7A00790C7B00D2CE
:1066C500067D037C002290F812E0FF90F819E02F78
:1066D500C313FF752A00752B38752C00752D707541
:1066E5002EFF752FC87530FF7531902290F81BE08D
:1066F5001313543FFF90F814E02FFF752AFF752BF5
:1067050090752C00752D30752E00752F7075300025
:106715007531302290F839E0FEA3E0FBAA06E4F9D2
:10672500F822AA06AB07AF407E0012458C7C007D9F
:10673500080245F3785FE62480FF18E63402FEE49C
:10674500FCFDE5132FFFE5123EFEED3511FDEC22B4
:106755001246C6C3E50F9FFFE50E9EFEE50D9DFDA6
:10676500E50C9C22ED9FFFEC9EFEE6FD7C00D3EF41
:106775009DEE9C2290F80FE05418131313541F221A
:106785001247518F0F8E0E8D0D22AE30AF31E4FCC6
:10679500FD0246C6785EE6FE08E62290F80FE05454
:1067A500E0C4135407FF227B007A00790C221245BE
:1067B5008C7C007D7E1245F38F0D2235108F138E54
:1067C500128D1122FF752A00752B38752CFF752D3A
:1067D50090752EFF227532107BAF7A007DA67C0165
:1067E500227532147B027AFE7DFF7C0022FC124565
:1067F5008C7C007D400245F390F80FE054E7229031
:10680500F81CE01313543FFF90F81522AB3AAA3B4E
:10681500A93C124629FDC3227B1EFAF9F80246C699
:10682500C308E69FFF18E69E2275F003EF900AB1B4
:1068350022FDFCAB29AA28A927A82622AF35E4FC0E
:10684500FDFE7B387A1822FFE6FC08E6FDD39FECB7
:106855009E22E50D24FFFFE50C34FFFE22FE1245C6
:106865008CAC06AD07E54522FFA60608A60722ABB8
:1068750017AA16A915228B278A28892922E52524F6
:07688500F8FFE434FFFE22DE
:10EA4C008E3B8F3CE53B5401FB7DFE7F1312DD3D7D
:07EA5C00AD3C7F1202EE0A3F
:10E29B008E2A8F2BE52B7807CEC313CE13D8F954C8
:10E2AB0002FB7DFD7F1312DD3DAD2B7F1102EE0ACC
:10E2BB008E3E8F3FE53E540FFB7DF07FB512DD3D6B
:10E2CB00AD3F7FB612EE0A7B047DFB7FB702DD3DCF
:10EAD400EFC454F0FB7D0F7FB712DD3D7B047DFB5B
:05EAE4007FB702DD3DDB
:09EE6C007B207DDF7F5202DD3DB9
:09EE75007BC07D3F7FD402DD3D2E
:10E0E9008F3B78AEE6A2E35018E4FD7FDA12EE0A20
:10E0F90012ED45E53BF4FDE53B4406FB7FDA12DD15
:02E109003D22B5
:10E81300EFF4FDE4FB7FDA12DD3D7D387FDA12EBA6
:0AE8230064EF7006FD7FDA12EE0AC2
:01E82D0022C8
:01EF6300228B
:087F01008F228B238A248925BD
:107F0900E522600464017057E52212803FE5227C76
:107F1900017003FD80027D80AB23AA24A92512806C
:107F290051E522128048E5227C017003FD80027D23
:107F390080AB26AA27A928128051E52244A0FD7FFB
:107F49006712EE0AE5227C017003FD80027D80AB99
:107F590029AA2AA92BD2067F6612DA08028037E5F8
:107F69002264026009E5226403600302803EE4F5AD
:107F79002EE4F555F551E52E7014E52254011280D1
:107F89003FE5252410F9E435248523528030E52E78
:107F9900B40114E5225401128048E5282410F9E4BB
:107FA90035278526528017E522540144A0FD7F67B5
:107FB90012EE0AE52B2410F9E4352A852952F553E6
:107FC9008954E4F52FAB527E00E554252FF9EE359F
:107FD90053FA90FFF0124509FF740C252FF8A607F4
:107FE900052FE52FB410DEE4F52CF52DE5227E01F1
:107FF900B402047F0080027F80C3E52D9FE52C9E9B
:10800900502012AC01EFC454F0F52F12AC01EF422D
:108019002FAD2F7F6612EE0A052DE52D70CE052CAA
:1080290080CA052EE52EC394035003027F7A7D4052
:058039007F6712EE0A52
:10803E00224480FD7F6712EE0A224490FD7F671274
:0B804E00EE0A22D2067F6612DA08223A
:10D0CB008B228A2389247B807D3F7F6B12DD3DABD6
:10D0DB0022AA23A924D2067D187C007F6912DA08C4
:10D0EB007B407D3F7F6B12DD3DAB25AA26A927D266
:10D0FB00067D187C007F6A12DA087D387F6B02EEA2
:01D10B000A19
:10DC4200787AE6540F9008CA1266AEC003C002C0CA
:10DC52000175F003EF9008CA1266B28B288A2989EF
:0ADC62002AD001D002D00302D3F053
:10D3F0008B258A2689277DB07F1C12EE0AAB25AAD1
:10D4000026A92712D41D7DC07F1C12EE0AAB28AAC4
:10D4100029A92A12D41DE4FD7F1C02EE0AD2067D42
:09D42000807C007F1D12DA082255
:10CD970078AEE65470C4540F701D90F831E0FFD39D
:10CDA70094024006EF24FEFF800590F831E0FF8FE4
:10CDB7000E8F0D8F0C800A90F831E0F50EF50DF50A
:10CDC7000C7D807F6412EE0A1266BE7F6512DA0858
:07CDD700E4FD7F6402EE0A97
:10C3A500E4FB74352BF582E434F8F583E0FF7E0079
:10C3B50090F832E0FD7C0012458CEF7807CEC31370
:10C3C500CE13D8F9FFD394FFEE940040087C007E8D
:10C3D500007FFF80027E00740C2BF8A6070BBB03C1
:10C3E500C17D837F6412EE0A1266BE7F6512DA088C
:07C3F500E4FD7F6402EE0A83
:01EF6400228A
:10DAEA0090F82AE0F50CA3E0F50DA3E0F50E7D8091
:10DAFA007FDC12EE0A7D847FDC12EE0A1266BE7F9C
:0BDB0A00DD12DA08E4FD7FDC02EE0A09
:10D91F0090F82DE0F50FA3E0F510A3E0F5117D8051
:10D92F007FDC12EE0A7D877FDC12EE0A7A00790F18
:0FD93F001266C27FDD12DA08E4FD7FDC02EE0A19
:06EF1D0012DAEA02D91F1E
:10D658008F228D238B24E4FB7DDF7F6C12DD3D7BE5
:10D66800207DDF7F6C12DD3DAD227F6D12EE0AADAD
:10D67800237F6D12EE0AAD247F6D12EE0AE4FB7D66
:06D68800DF7F6C02DD3DB6
:10DF36008B228A2389247D807F6E12EE0AAB22AA69
:10DF460023A924D2067D307C007F6F12DA08E4FD17
:05DF56007F6E02EE0ADF
:0271A0008F2638
:1071A2007858E6FF12BA968F27126719AF27FCFDAF
:1071B200FE1266769086ADE493FE740193FFE4FCC2
:1071C200FD1246AB1267888C0C7864126684AB0F92
:1071D200AA0EA90DA80C1246C6C006C00790F83D1B
:1071E20012671CD007D006124751C00412667B12E8
:1071F2006682D0001246C6C006C007126719D007C1
:10720200D0061267858C0C78ADE6FFC37869E69FDD
:10721200FF18E69400FEE4FCFDC00412667B1267D0
:1072220099FFE4D0001246C6C00412667B7866124B
:107232006684D0001246ABC006C00778ACE6240ACA
:10724200FFE433AB07FAE4F9F8D007D0061246B8E8
:107252001267C28C10E52630E0061267390272DF2F
:10726200E52630E13D78641266847B807A02F9F883
:107272001246C6C006C00790F83D12671CD007D060
:1072820006124751C00412667B126682D000124673
:10729200ABE5132FFFE5123EFEE5113DFDE5103C87
:1072A200800512673935101267C2F510D37863E68C
:1072B200949018E694065016126682126747126777
:1072C200C0F5107B107DEF7F1912DD3D8014E513B0
:1072D2002480FFE5123402FEE43511FDE41267C09A
:1072E200F510C3E513950FFFE512950EFEE5119516
:1072F2000DFDE510950C126788F50C12679912675F
:1073020020AF0FAE0EAC0C1247518F1A12679912B2
:107312006720AF1AFCFDFE126755FCE47B10FAF9F8
:10732200F81247518F1BE4FB7DFD7F4312DD3DAD1B
:0F7332001A7F4012EE0AAD1B7F4112EE0AAF1A0E
:017341002229
:087973008F298E288D278C2638
:10797B00E4FF7E041268361246C67B007AA07905B6
:10798B0078001247518E2A8F2BD3E52B94FFE52AD3
:10799B009400401C752C01E52B2402FFE4352AFED4
:1079AB00EF7802CEC313CE13D8F9F52B8E2A8013A2
:1079BB00752C02E52B2401FFE4352AC313F52AEFBE
:1079CB0013F52BAE2AAF2B7C007D6412458C7C0EFD
:1079DB007D5312459EEF14F511E4F512E511C39496
:1079EB0008400974F82511F511431208E511C394E9
:1079FB0004400974FC2511F511431204E511C394DD
:107A0B0002400715111511431202E511C3940140F1
:107A1B00051511431201E52B24FEF50CE52CB401E1
:107A2B00047F0080027F10EF4406F50DE5124480C1
:107A3B00F50E750F171267ACC2067D047C007FAE86
:107A4B0012DA087B027DFD7FB212DD3D7D807FB1B6
:107A5B0012EB64EF24FF50197B407DBF7FB112DD29
:107A6B003D7F027E0012E9BAE4FB7DBF7FB112DDE0
:107A7B003DE52C75F002A4AEF0126720FFFE7D777A
:107A8B007C01124751126679AE2AAF2B126793E431
:107A9B007B08FAF9F81267858C0C780F1247F412F1
:107AAB0067C28C10E47FE87E03126836126755FCC0
:107ABB00AB13AA12A911A8101247518E2A8F2B5360
:107ACB002A0F7B017DFE7FBB12DD3DAF2BAE2A0261
:027ADB00E2BB0C
:10A17700786FE6FE08E6787C12686D7871E6FE086F
:10A18700E6787E12686D7873E6FE08E6FF7B007A54
:10A1970000792412B09FC3E5259432E5249400503A
:10A1A70004785E806E126799FF7873E6FC08E6FD17
:10A1B700C39FEC9E5034C3ED9FFFEC9ECF2525CF68
:10A1C7003524FEC3EF9432EE94005016C3785FE651
:10A1D7009525FF18E69524CF24327881F6E43F18B9
:10A1E700F6227880A60408A60522785FE62525FFD3
:10A1F70018E63524FEC3EF9DFDEE9CFCC3ED9432BB
:10A20700EC9400500CEF24CE7881F6EE34FF18F66C
:0FA21700227873E6FE08E6FF7880A60608A60701
:01A226002215
:10B09F008E388F398B3A8A3B893C7862E6FE08E618
:10B0AF007803C333CE33CED8F9FF7C007D0A124527
:10B0BF009EC3785F126827C313FEEF13FFAB3AAA44
:10B0CF003BA93CEE8FF012468CE6FE08E6FFD3E577
:10B0DF00399FE5389E4014126811E5399FFFE53816
:10B0EF009EFED3EF9DEE95F0400122126799FFD39C
:10B0FF00E5399FE5389E5014126811EF9539FFEE30
:0EB10F009538FED3EF9DEE95F0400122D3223D
:044918008E308F311D
:10491C007F2012E0E97B007A007936AF31AE30129D
:10492C00B09F4009785EE6F53008E6F531750C0469
:10493C00750D4F750E24750F151267ACC2067D04EC
:10494C007C007F9812DA08750C1CE4F50D750E3797
:10495C00FB7A00790CC2067D03FC7FA112DA087881
:10496C005A126684C00412667B126799FFE4D00069
:10497C0012668D4013E531AE307802C333CE33CEA0
:10498C00D8F9F5318E30800BE53125E0F531E53085
:10499C0033F53075100075116475350BAF35E4FCCB
:1049AC00FDFE7B3E12667312678FC004C005C00605
:1049BC00C007786A1266847BC07A03126674D007CB
:1049CC00D006D005D0041247518F34E4FCFDFE1202
:1049DC00681DC00412667B786A126684D000124689
:1049EC00C6C004C005C006C0071268411266741226
:1049FC00678FD003D002D001D0001247518E0C8F9C
:104A0C000DD3E50D94A8E50C940C5003024ACD741B
:104A1C0080250DF50D74F3350CF50CD3E50D9511C2
:104A2C00E50C9510500C850C10850D1185343285D4
:104A3C003533E5342401FFE433FEE4FCFD12681D3C
:104A4C00C00412667B786A126684D0001246C6C017
:104A5C0004C005C006C00712684112667412678F45
:104A6C00D003D002D001D0001247518E0E8F0FD33D
:104A7C007480950F740C950E400C7480950FFF7418
:104A8C000C950EFE800AE50F2480FFE50E34F3FE34
:104A9C008E0E8F0FC3E50F9428E50E94005007E59A
:104AAC003404F532801ED3E50F9511E50E951050A8
:104ABC0018850E10850F11E53404F53285353380D9
:104ACC0008853432853533800C0535E535C3943093
:104ADC0050030249A8785A126684C00412667B12ED
:104AEC006799FFE4D00012668DE530400E13FEE5A9
:104AFC003113FFEEC313F530EF8006C313F530E529
:104B0C003113F53178C6E6134003024C3D7B007A35
:104B1C0000791AC2067D027FA512D50A051A051A5C
:104B2C00051B051B7B007A007918C2067D027FA944
:104B3C0012D50AE518540FFEE5192401F519E43EC7
:104B4C00F518E4FD7F9F12EE0A7D077F9F12EE0A97
:104B5C001267ACD2067D047FA012D50AAF1BAB073F
:104B6C00E4FAF9F8AF32FCFDFE126676AE18AF1916
:104B7C001267931267C28C10AF33AB07E4FAF9F8E3
:104B8C00AF1AFCFDFE12667612678F8F178E168D8C
:104B9C00158C14126874A814AF0FAE0EAD0DAC0CBE
:104BAC00124751AB13AA12A911A8101246C61267CC
:104BBC00888C0CAF13AE12AD11AC10126874A81423
:104BCC00D31247E3402C126665C3E5179513FFE536
:104BDC00169512FEE5159511FDE5149510FC12467F
:104BEC00C6E50F2FFFE50E3EFEE50D3DFDE50C3C49
:104BFC00801E126874126665C3E5139517FFE512E3
:104C0C009516FEE5119515FDE5109514FC126755EA
:104C1C00126788F50C7D207F9F12EE0A7D227F9F04
:104C2C0012EE0A1267ACD2067D047C007FA012DA69
:104C3C0008785A126684C00412667B126799FFE4E6
:104C4C00D00012668DE531400C24FFE53034FF5462
:104C5C000F4410800824FFE53034FF540FFB7DE037
:104C6C007FA912DD3DE53114FD7FAA12EE0AE53273
:104C7C0024FEFD7FA512EE0AE53324FEFD7FA6126D
:104C8C00EE0AE53275F004A4FFAEF07C007D0A124A
:104C9C00459EC3EF9405EE940050087C007E007F87
:104CAC00008008EF24FBFFEE34FFFE8F11E4F512B9
:104CBC00E511C3943C400974C42511F5114312103D
:104CCC00E511C39428400974D82511F51143120835
:104CDC00E511C39414400974EC2511F51143120429
:104CEC00E511C3940A400974F62511F5114312021B
:104CFC00E511C39405400974FB2511F5114312010C
:104D0C0005120512AB127DE07FA712DD3D78C6E6D9
:104D1C0013402112E6947D207F9A12EE0A7F011235
:104D2C00D24C7F0112D24C7D247F9A12EE0A78C6A7
:104D3C00E64401F678C6E61350077D687F9F12EEB5
:104D4C000A7F0412D24C7F0412D24CE4FD7F9F12D6
:0A4D5C00EE0A12ED457F3802E0E98F
:027667008F375B
:107669007F3012E0E953373F126682FB7A60F9F8FE
:107679001246C6C006C007786AE6FE08E612672009
:10768900D007D006124751E47BA512681F7B407AC8
:1076990042790F78001247518E398F3AD3E53A94DF
:1076A90040E53994005005C374408003C374809544
:1076B9003AFFE49539FE8E398F3AAF377E00C3EF32
:1076C900953AEE95394006EF953AFF8006C3E53ABB
:1076D9009537FF8F0CE50CD3940C400AE50C9434D4
:1076E90050047F0080027F018F387866E6FE08E645
:1076F900FFC3787096EE18965019126825FE78AC7B
:1077090012676F400EED786726FFEC1836786FF632
:1077190008A607786FE6FE08E6786612684C4015F9
:1077290078AC126769400E7867E69DFF18E69C7889
:107739006FF608A60778ACE6786726FFE41836FEE8
:10774900C3EF787096FFEE1896CF240AF50DE43F43
:10775900F50CD3E53A940CE5399400401CE537243F
:107769000CFFE433FEC3EF953AEE953950051268E4
:10777900578020AE0CAF0D801AE53A2434FFE4356A
:1077890039FEC3E5379FE49E50051268578004AE61
:107799000CAF0D8E398F3A7B407DBF7FA912DD3D3D
:1077A900785A126684C00412667B126799FFE4D086
:1077B9000012668D4007E53725E0FB8002AB377D77
:1077C900807FAC12DD3DAF3AAE3912EA4CE5383371
:1077D900333354F8FB7DF77F0712DD3D12E1B41214
:0777E900ED457F3802E0E9E5
:07EEFA007875E6FF02766760
:10B01F007F1012E0E97868E6FE08E6FFC3787296C3
:10B02F00EE18965019126825FE78AD12676F400E14
:10B03F00ED786926FFEC18367871F608A607787157
:10B04F00E6FE08E6786812684C401578AD1267691D
:10B05F00400E7869E69DFF18E69C7871F608A60702
:10B06F007868E6FE08E6C3787296FFEE1896FE78CB
:10B07F00ADE6C39FFFE49EFE12E29B12E1B47F2078
:10B08F0012D24C7F1012D24C12ED457F3802E0E9FC
:10CB4600EF540FFEC454F0F50CEDBF070C5407C4A8
:10CB56003354E04410F50D801D5407C454F0FFE52E
:10CB6600275401C433333354804FFFEB5403FE255F
:10CB7600E025E04FF50D1267ACC2067D027C007F12
:0BCB86001712DA08E4FD7F1702EE0A28
:10E9EC008F23129D3FE52390F8017005E054FDF054
:08E9FC0022E054FD4402F02268
:109D3F00AD07D3ED648094FE40027D7EC3ED648059
:109D4F00948E5009ED6480948040027D0EEDFF33B8
:109D5F0095E0FEEF2401FFE43EA2E713EF1325E0A9
:109D6F00F50C78AEE65470C4540F14600824FA5002
:109D7F00222407704DED13AF0C7E007CFF500A7D3F
:109D8F00C11267B3E4F50E80397DC01267B3750E4B
:109D9F0002802FED13AF0C7E007CFF50047DB88046
:109DAF00027DB71267B3EF75F002A47C00250CFF9C
:109DBF00EC35F0FEC3E49FFFE49EFE7D021245F3F7
:109DCF008F0E750F037510327511CE7D807F2612A1
:109DDF00EE0A1267ACD2067D067C007F2712DA08E6
:079DEF007D407F2602EE0A11
:02AD93008F240B
:10AD9500E4F525E52464027021F52512ADFD75F075
:10ADA50003E525900E501266B2D2067D337C001263
:10ADB500AE0C940540E57DDF8038E4F52512ADFD48
:10ADC500E52475F004A47C002525FFEC35F0FE9004
:10ADD5000E2075F003EF12486FEE75F003A425837E
:10ADE500F58312489DD2067D3312AE0C940440CDF6
:07ADF5007DDE7FE012EE0A93
:10ADFC0022AD257FE112EE0AE4FD7FE212EE0A227B
:0BAE0C007FE312DA080525E525C322CC
:06A014008B248A25892639
:10A01A0012A0AA532AFCAD2A7FE412EE0A7D037F1E
:10A02A00E612EE0AE4F52AAB24AA25A92612A0BA5A
:10A03A002526F526E43525F525052AE52AC39409BA
:10A04A0040E512A0AAE52A54FC4401F52AFD7FE462
:10A05A0012EE0AE4FD7FE612EE0AE4F52AAB27AA1D
:10A06A0028A92912A0BA2529F529E43528F52805B1
:10A07A002AE52AC3941440E57F2012D24C90F80FA7
:10A08A00E0FF540764046006EF12677D70047D2CBC
:10A09A0080027DAC7FE412EE0A7D807FE502EE0A43
:10A0AA007B007A00792AD2067D017FE412D50A2242
:0CA0BA001244F0FD7FE712EE0A74012250
:10DB15007B407DBF7F6012DD3D7B807D7F7FE01296
:10DB2500DD3D7B807D7F7FE412DD3D90F816E0FFD3
:0BDB350012DE0690F817E0FF02DE2C65
:10D68E001266A5C003C002C00112682E1266B21245
:10D69E00687BD001D002D00312A014E4FB7DBF7FC3
:10D6AE006012DD3DE4FB7D7F7FE012DD3DE4FB7D1E
:06D6BE007F7FE402DD3D68
:10B649001267A064046011BF0514E05407FFBF042A
:10B659000D90F801E020E0061267FDF08006126700
:10B66900FD4408F090F80FE05418FF131313541F0A
:10B67900700280361267796401703590F83BE0FCFE
:10B68900A3E0FDA3E0F52AA3E0F52BE4FBFAFFFE16
:10B6990012B4EE90F83BE0FEA3E0FFA3E0FCA3E0C8
:10B6A900FD12C1881267A0BF040302D68E12DB15F2
:01B6B900226E
:10B4EE008E248F258C268D278A288B29E5274526A5
:10B4FE006061E52B452A605B7B807D707F6012DD8D
:10B50E003DE5245407F50CAD258D0DE5252527E5E4
:10B51E002435265407F50EED2527F50FE52854079B
:10B52E00F510AD298D11E529252BE528352A54076F
:10B53E00F512ED252BF5137F2012D24C1267ACD2EB
:10B54E00067D087C007F6112DA08E4FB7D707F6067
:04B55E0012DD3D229B
:10C188008C248D25AB07AA06E4F9F8FFFE7DC07C58
:10C198003F124751C006C007AE24AF25AB07AA0619
:10C1A800E4F9F8D007D0061267858C0CE4FB7DFC17
:10C1B8007FE412DD3DE4FD7FE612EE0AE50FFFE5C0
:10C1C8000EFEE50D543FFDE4126788F50CFB7A007E
:0CC1D800790DD2067D03FC7FE702DA0837
:10DE06008F24126779FFBF01037524807B867D709E
:10DE16007F6412DD3DAF241266B87F6512DA08E42E
:06DE2600FD7F6402EE0A1C
:10DE2C008F24126779FFBF01037524807B897D7075
:10DE3C007F6412DD3DAF241266B87F6512DA08E408
:06DE4C00FD7F6402EE0AF6
:048828008D45A907CA
:10882C00E9540F14603314605C1470030288BE1496
:10883C0070030288E82404600302891CE954F0FFE9
:10884C00700590F8118074BF100302890CE954F084
:10885C006420600302891C800EE954F0FF700590BF
:10886C00F81A8057BF100A90F81AE0FF90F81180A0
:10887C003BE954F06420600302891C90F81AE0FF75
:10888C0090F8138027E954F0FF700590F813802BB3
:10889C00BF100A90F81AE0FF90F813800FE954F01B
:1088AC006420706C90F81CE0FF90F813E02FC31359
:1088BC00800AE954F0FF700990F81CE07A00FB8004
:1088CC004FBF100C90F81CE0C313FF90F813803AC4
:1088DC00E954F064207039126804802EE954F07069
:1088EC000C90F815E0C313FF90F81E801DE954F0AE
:1088FC00FFBF10051268048011E954F0FFBF20106F
:10890C0090F811E0C313FF90F81EE02FFBE433FA4C
:10891C00EB25E0FBEA33FAC3EB9410EA6480948015
:10892C00E545401D90EC2C93FD7C00EB24F0FFEA18
:10893C0034FF1268627F0025E0FEEF2DFFEC3E80D5
:10894C001A90EC3493FD7C00C374109BFFE49A12D4
:0F895C00686225E0FEC3E49DFFEE9CFE1267F605
:01896B0022E9
:0A7C42008F378C388D398A3A8B3B5E
:107C4C00127D98E4FD7FE212EE0AE537540F7009BD
:107C5C007D03127D7E7D8C804BE537540FFFBF0179
:107C6C00097D05127D7E7D88803AE537540FFFBF74
:107C7C0003097D0B127D8B7DC88029E537540FFFDE
:107C8C00BF04097D0F127D8B7DCC8018E537540F16
:107C9C00FFBF02157D087FE312EE0AE4FD7FE312BD
:107CAC00EE0A7DCC7FE312EE0A127D98E53754F094
:107CBC002403FD7FE212EE0A754001AD40AF37128E
:107CCC008828E539253BFDE538353A1267F2AC38A2
:107CDC00AD39126727C3EB9FF542EA9EF541AD40E3
:107CEC00AF37128828E53D253FFDE53C353E126750
:107CFC00F2AC3CAD3D126727C3EB9FF544EA9EF511
:107D0C0043D3E542947FE5416480948040087541FB
:107D1C000075427F8013C3E5429480E541648094F2
:107D2C007F50067541FF754280D3E544947FE5434F
:107D3C0064809480400875430075447F8013C3E5CC
:107D4C00449480E5436480947F50067543FF7544EA
:107D5C0080AD427FE312EE0AAD447FE312EE0A05DA
:107D6C0040E540C394095003027CC77DDF7FE002ED
:027D7C00EE0A0D
:107D7E007FE312EE0AE4FD7FE312EE0A227FE312A6
:107D8E00EE0AE4FD7FE312EE0A22E537540FFD7F83
:057D9E00E112EE0A22D3
:06BCFF008F258D828C836D
:10BD0500E525C394085024C374089FFFE49400FEFE
:10BD1500AC2AAD2B12672F8E338F34C3740895254B
:10BD2500FFE49400FEAC2CAD2D8015126882AC2E7C
:10BD3500AD2F12672F8E338F34126882AC30AD3140
:10BD450012672F8E358F36AD82AC838A3C8B3D854D
:0EBD5500353E85363FAB34AA33AF32027C4216
:1050BE008F241267A064046011BF0514E05407FF2B
:1050CE00BF040D90F801E020E0061267FDF08006A7
:1050DE001267FD4408F0E524703D90F810E0126769
:1050EE00C9752F907530FF7531D0E4F5327BFE7A9D
:1050FE00017DFFFC1253331267DA1253BD75322055
:10510E007BFE7A01E4FDFC1253BD7532117BFE7AF3
:10511E0001E4FDFC025252E524640170591266CB83
:10512E007532217B547A017DAC7CFE12BCFF90F867
:10513E0012E0FF752A00752B38752C00752D7075D1
:10514E002E00752F381266EA753202E4FBFA7D02E4
:10515E007CFE12BCFF1266CB7532127B547A0112A2
:10516E0052787532227BAC7AFE1252787532237BDE
:10517E00AC7AFE0251C9E5246403704690F819E03A
:10518E00FF752A00752B70752CFF752DD01266E4F5
:10519E007532017BFE7D017CFF12530875321112B0
:1051AE0052A57532217B547DAC7CFE1253087532AC
:1051BE00201252A57532127B547A017DAC7CFE0210
:1051CE00525BE5246404703A90F81BE0FF752AFFE9
:1051DE00752BC8752C00752D7012670C7532037DFA
:1051EE00017CFF12535C7532131252D57532237D3A
:1051FE00FF7C0012535C7532221252D51267E60202
:10520E00525BE524640270181266F1753223126740
:10521E00E912538912BCFF1266F11267E602525B65
:10522E00E5246405702A90F810E0C313FF90F81D72
:10523E00E02F1267C9752FC875300075317012676F
:10524E00DA1253891253337532241267DD12BCFF02
:10525E0090F801E030E00912677960047B808002EB
:10526E00E4FB7D7F7FE012DD3D227DAC7CFE12BC37
:10527E00FF90F81BE0FF90F812E02FC313FF752A82
:10528E00FF752BC8752C00752D70752E00752F3877
:10529E007530FF753190227BFE7A01E4FDFC12BC65
:1052AE00FF90F812E0FF90F819E02FC313FF752A54
:1052BE0000752B38752C00752D70752EFF752FC847
:1052CE007530FF753190227BAC7AFE7DAC7CFE1280
:1052DE00BCFF90F81BE01313543FFF90F814E02F1F
:1052EE00FF752AFF752B90752C00752D30752E00CD
:1052FE00752F70753000753130227A0112BCFF9017
:10530E00F819E0FF90F810E02FC313FF752A00750F
:10531E002B70752CFF752DD0752EFF752F90753057
:10532E00FF7531D02212BCFF90F810E0C313FF902E
:10533E00F81DE02FFF752A00752B38752CFF752D83
:10534E0090752EFF752FC8753000753170227B0257
:10535E007AFE12BCFF90F81BE0FF90F812E02FC30C
:10536E0013FF752AFF752BC8752C00752D70752EC1
:10537E0000752F387530FF7531902212BCFF90F8F2
:10538E0014E0C313FF90F81DE02FFF752AFF752B55
:10539E00C8752CFF752D90752E00752F3875300041
:1053AE007531707532047B517AFF7DA67C01221215
:1053BE00BCFF90F819E0FF90F810E02FC313FF75B3
:1053CE002A00752B70752CFF752DD0752EFF752F3D
:0853DE00907530FF7531D022FB
:109DF6008F23E523C43354E0FF90F80FE0541F4F40
:109E0600F0E523B40403029EA9E5236405706B9074
:109E1600F801E030E022E4FF1250BE7F011250BE8E
:109E26007F021250BE7F031250BE7F041250BE7FC7
:109E3600051250BE7B808002E4FB7D7F7FE012DD51
:109E46003D90F80FE05407FFBF04117D2C7FE4120C
:109E5600EE0A90F801E020E04D029EA912B64912E2
:109E660066A5C003C002C00112682E1266B212684F
:109E76007BD001D002D00302A01490F80FE054E08A
:109E8600C4131266A9C003C002C00112682E12666E
:109E9600B212687BD001D002D00312A0141267A0C0
:079EA60012AD9312B6492230
:106A7C00785EE6FE08E6FF7873A60608A607786639
:106A8C00E6FE08E6FF786FA60608A6077868E6FE1D
:106A9C0008E67871FFA60608A607227864E6FE08C9
:106AAC00E6FFE4FCFDFB7A0CF9F81246C6E47B0227
:106ABC00FAF9F8124751AB2AAA29A928A827C30228
:106ACC0047E3786CA905AA06AB07E6FE08E6FFE4E7
:106ADC0022E50C5407F526E50DF5277B007A0079A5
:106AEC000C22742A2FF582E434F8F5832278B2E66E
:106AFC002401FF18E43678B9FEC3EF96FFEE189622
:106B0C0022742D2FF582E434F8F58322E6FC08E696
:106B1C00FDEC540FFBE7C4F854F0C809E7C4540F5C
:106B2C0048547022786AE6FE08E6FBAA06E4F9F8F7
:106B3C0022E47B02FAF9F8124751A804A905AA0627
:106B4C00AB0722E4F50FF510F511F512751301FBE7
:106B5C007A00790CC2067D08FC7F76221246C6E4C8
:106B6C007BE87A03F9F8124751E47B127A02F9F8C0
:106B7C00D30247E378B9E62402FF18E436FEEF545B
:106B8C00FCFFEEF608EFF6E52922D3AB0FAA0EA90F
:106B9C000DA80C0247E3C3E5279525FFE5269524B0
:106BAC00FE221896FCE52925E0FFE52833FEC3ED0F
:106BBC009FEC9E2212475178B8EEF608EFF6D3946C
:106BCC0002EE940022FCE6FA08E62FFFEE3AFED322
:106BDC00EF9DEE9C22AB29AA2AA92B0244F07B0044
:106BEC007A0079237D012278AEE65470C4540F22CA
:106BFC00FE7867C3EF96EE189622AB32AA31A93015
:106C0C00A82FD30247E3C3E69FFF18E69E22AB2FC3
:106C1C00AA2EA92DA82C0247E37B007A007914C276
:106C2C00067D0322EF26F618EE36F622E6FDD3EFAC
:106C3C009D7480F86E9822AB29AA2AA92B1244F0D5
:106C4C00FF22E51454F075F010A4FF2274FFFFFE30
:0A6C5C00FDFC22785EE6FE08E62249
:10A37F007875E6F523E4FD7F7D12EE0A12ED457F39
:10A38F00FA7E0012E9BA1280598F22E52270361236
:10A39F0057028F22E52270251264368F22E5226044
:10A3AF000464FE7013E522B4FE0312A40C1280594C
:10A3BF008F22E5226018800D12A40C8011126A7C86
:10A3CF0012A4168003126A8A12EEFA12B01FE52247
:10A3DF007006E522648060137858E6FF12D6FA12F1
:10A3EF00A1777858E6FF12DC6C800C126A7C12A4FD
:0CA3FF001612EEFA12B01F12ED45AF224C
:10A40B00227875A623AF231276672208E6FE08E6AC
:05A41B00FF12491822A8
:10EB2800126C668F22E522700512CB91800312D3F6
:03EB38007CAF228D
:01EB3B0022B7
:10A5F70012ED457D037F7A12EB64BF03047F9680DB
:10A60700027F328F447545197F017E0012E9BA1225
:10A617006AE7D2067D017F0312D50AE50C30E00C0C
:10A62700E4FD7F0312EE0A75451980021545E545DD
:10A637006006E50C54C060037FFF2212ECEC78C77C
:10A64700E61350037FFF22126AE7D2067D017F7D62
:10A6570012D50AE50C30E003D544AD126AE7D206FD
:10A667007D017F0212D50AE4FD7F0212EE0AE50C96
:0EA6770054637004E54470047FFF80027F008E
:01A6850022B2
:02CC72008F44ED
:10CC7400754519E4FD7F0312EE0A7F017E0012E977
:10CC8400BA126AE7D2067D017F0312D50A530CC19A
:10CC9400E50C30E010E544600CE4FD7F0312EE0A7D
:10CCA4001544754519E544600C1545E5456006E5F0
:07CCB4000C54C060C5AF0C79
:01CCBB002256
:02942B008F3779
:10942D007873E6F53A08E6F53BAE3AFFE4FCFDC08D
:10943D0004126ACED0001246C6C006C007126B30A9
:10944D00D007D0061247518E388F397B507D0F7F54
:10945D001312DD3DE53B2405F53BE4353AF53A7451
:10946D00E0253BF53B74FF353AF53AE539241BFF12
:10947D00E43538126BFC500280047E007F018E387B
:10948D008F39D3E5399420E5389400400CE5392423
:10949D00E0FFE53834FFFE80047E007F018E388FBB
:1094AD00395337FCE53A540FFDE538C4F854F0C88C
:1094BD00E539126B294DF50C85390D853B0E126A78
:1094CD00E7C2067D037C007F7012DA0885370C85B4
:1094DD00370D85370E126B4F12DA0812A5F78F0C68
:1094ED00E50C600122126C257F8112D50A126C4E9B
:1094FD00AEF0EF4515242078B9F6E43E18F6E514E4
:10950D00540FFEE516242078B2F6E43E18F67F00DF
:01951D00222B
:0281AD008F3011
:1081AF007873E6F53308E6F534AE33FFE4FCFDC033
:1081BF0004126ACED0001246C6C006C007126B303A
:1081CF00D007D0061247518E318F327B507D0F7FF3
:1081DF001312DD3DE5342405F534E43533F53374FE
:1081EF00E02534F53474FF3533F533E532241BFFC6
:1081FF00E43531126BFC500280047E007F018E311A
:10820F008F32D3E5329420E5319400400CE53224CF
:10821F00E0FFE53134FFFE80047E007F018E318F59
:10822F00325330FCE533540FFDE531C4F854F0C838
:10823F00E532126B294DF50C85320D85340E7860C1
:10824F00E6FC08E6FD2402E43C540FF50F7510021E
:10825F00AF05EF2402F511126AE7C2067D067C0016
:10826F007F7012DA0885300C85300D85300E126B59
:10827F004F12DA0812A5F78F0CE50C600122126C71
:10828F00257F7E12D50A126C4EEF45152403FFE4AD
:10829F0035F078B3F6FC08EFF6FDE514540FFEE564
:1082AF00162403FFE43EFE08F608EFF6C39DFFEE2B
:1082BF009C7865126B04FE12EBE8D3EF9405EE6425
:1082CF0080948040037FFF2278B6E6184670037FC4
:1082DF008022E514547FF50C85150D85160E126A54
:0E82EF00E7C2067D037C007F7312DA087F0071
:0182FD00225E
:0686E1008F378D388B3944
:1086E700E4FD7F7D12EE0AE5375403FB7DFC7F7ABC
:1086F70012DD3D785A126AD6FCFDC004785E126A14
:10870700D0D000126B6840160538E53A25E0F53AF7
:10871700C3944040097B027DFD7FA812DD3DE5390A
:1087270014541F33333354F8FFE53854074FFD7F94
:108737007B12EE0AE53A543FFD7F7C12EE0AAF3812
:108747007401A807088002C333D8FCF538E53985DA
:1087570038F0A4253AF537853A42E4F541F540F576
:108767003FF53EF5437D7B7F7D12EE0A7F0112CCFC
:10877700727D037F7A12EB64BF03047F0380027F5D
:108787000112CC72EF54C060051288178047126A35
:10879700E7C2067D037F8412D50AE4F50FAF41AE29
:1087A70040AD3FAC3E126B96400F850F41850E40A2
:1087B700850D3F850C3E854243E5382542F542C38A
:1087C700953740AD1288177F0112D24C12A5F78F4B
:1087D7000CE50C6004126C5822785A126AD6FCFD1C
:1087E700C004126B48785E126AD6D000126B6840DC
:1087F7000BE54313AB3BAA3CA93D8008AB3BAA3C26
:0F880700A93DE543124558AF41AE40AD3FAC3EF1
:1088160022E4FD7F7D12EE0AE4FB7DFD7FA812DDDA
:028826003D22F1
:10DB4000EF5403FB7DFC7F7A12DD3D7D3B7F7D1230
:10DB5000EE0A12A5F78F0CE50C600122126AE7C2EB
:0BDB6000067D047F8412D50A7F00229E
:10570200126C5F7873126AA0E654FCF618125A09FA
:105712007F401281AD8F24E5246001227862E6FE8B
:1057220008E67803C333CE33CED8F9FF7C007D0A76
:1057320012459E785F126C12C313F528EF13F529F8
:10574200E4F52AF52BF52675270A1259FF60012286
:10575200126AF9FE78B1F608EFF67862E6FC08E61E
:10576200FDC3EF9DEE9C505DC3ED78B296FDEC1249
:105772006BAE4003025812AF05AE04E4FCFDC00458
:10578200126B487873126AD6D0001246C6C006C0A1
:10579200077862126B32D007D006126BC050030238
:1057A2005842126B80785F26FDE52818367873120E
:1057B2006BD1400302581278B8E6FE08E6787412FC
:1057C2006C31025827C379B2E7786396FD19E71264
:1057D2006BAE4002803AAF05AE04E4FCFDC0041299
:1057E2006B487873126AD6D0001246C6C006C0074C
:1057F2007862126B32D007D006126BC04042126B35
:1058020080787426FDE5281836785E126BD1400840
:10581200752A00752B01800DC37874E679B997F665
:1058220018E61997F6E52B452A70157873125A096E
:10583200E527152770021526144526600302574CEA
:10584200E52745266008E52B6401452A70037F8021
:105852002278B1E6FE08E6FFC3786396EE1896401A
:10586200127974E7785F96FD19E71896FCED6404E7
:105872004C601A7863126BFF5040C3795FE778740B
:1058820096FF19E71896FEEF64044E702D126C5FB6
:10589200FF7873EEF6FE08EFF6FF1249181259FF71
:1058A20060012278B2E62401FF18E436FEC3EF78E5
:1058B200B99679B2F7EE189619F77873E6F52A08D1
:1058C200E6F52BC37963E778B29619E718967E005E
:1058D20040047F0480027F027874126C30E6FE0876
:1058E200E6FF1249187D187F7912EE0A852A26856D
:1058F2002B27E4F52FF52EF52DF52CF52875290625
:105902007F5012942B8F24E524600122126AF9FE43
:1059120078B1F608EFF67863E62402FD18E436FC67
:10592200D3EF9DEE9C400BE4F50FF50EF50DF50C53
:105932008028E4F53AF53B753C00753D257B087DF2
:10594200037F031286E18F0F8E0E8D0D8C0C126C6D
:1059520058C3126B9770037FFF22AF0FAE0EAD0DCF
:10596200AC0CC3126C1A5015850F2F850E2E850DA7
:105972002D850C2C7873E6F52608E6F527E52945F2
:10598200287016126C5FFFD37874E69F18E69E406B
:105992002AEEF6FE08EFF6801B74FE2529F529741F
:1059A200FF3528F528787474FE26F61874FF36F64B
:1059B200E6FE08E6FF124918025902AF2FAE2EADDD
:1059C2002DAC2CE47B03FAF9F81247518F2F8E2E5F
:1059D2008D2D8C2C7862126AD6FCFD780A1248074B
:1059E200D3126C1A4006AE26AF278004AE2AAF2B24
:0C59F2007873EEF608EFF61249187F00FB
:1059FE00227F5012942B8F24E52422E6FE08E6FF28
:045A0E0012491822FF
:106436007F4012942B8F24E5246001227D80126612
:106446001F70037FFF22E4FFFEFDFC126AC2700389
:106456007F8022126AA7501F7D4012661F70037F3D
:10646600FF22E4FFFEFDFC126AC270037F80221247
:106476006AA750037FFE22E52424F8543FF53A75B7
:106486003B00753C00753D247B087D017F03128629
:10649600E18F2A8E298D288C27126C58126AC270B9
:1064A600037FFF22E4FFFEFDFC126AC270037F80B9
:1064B60022E52424FD543FF525FF1276677F03125B
:1064C600DB40EF60037FFF22850F2E850E2D850DA5
:1064D6002C850C2B12665360037FFF22850F3285B5
:1064E6000E31850D30850C2FE5242403543FF52409
:1064F600E4F52AF529F528F52712665360037FFF90
:1065060022850F36850E35850D34850C33AF2EAEBC
:106516002DAD2CAC2B126C064016E532952EFFE500
:1065260031952DFEE530952CFDE52F952BFC80153C
:10653600C3E52E9532FFE52D9531FEE52C9530FD10
:10654600E52B952FFC126B3DE5362532FFE53535FB
:1065560031FEE5343530FDE533352FFCEF252EFFD2
:10656600EE352DFEED352CFDEC352BFC1246B8C074
:1065760004C005C006C007AF36AE35AD34AC331225
:106586006C064016E5329536FFE5319535FEE53069
:106596009534FDE52F9533FC8015C3E5369532FF1E
:1065A600E5359531FEE5349530FDE533952FFC1242
:1065B6006B3DD007D006D005D0041246B88F0F8E9B
:1065C6000E8D0D8C0CAF2AAE29AD28AC27126B961A
:1065D6004013850F2A850E29850D28850C27E5256C
:1065E60014543FF52685322E85312D85302C852F86
:1065F6002B85363285353185343085332FE5256553
:106606002460030264FF7875A626AF261276677D9E
:08661600407F7912EE0A7F00BB
:10661E00227F7912EE0AE4F53AF53B753C00753DA2
:10662E00247B087D037F031286E18F2A8E298D2815
:10663E008C2774FFFFFEFDFCAB2AAA29A928A827E8
:10664E00C31247E322E52504543FF525FF12766772
:07665E007F0312DB40EF2275
:108059007F401281ADEF6001227F4012942BEF60C7
:108069000122126AE7C2067D027F0D12D50A126A41
:10807900DDC2067D017F1112D50A7B007A00790DD8
:10808900C2067D017F1312D50AE50D5402F524E5D8
:108099000CF52578B3E6FE08E6FFC39525F525EE30
:1080A9009524F52478B6126C12CF2401CF3400FE42
:1080B9007864E6FC08E6FDC39FF529EC9EF528D314
:1080C900E5299403E528648094804016EF9DFFEE2E
:1080D9009CFE12EBE87C007D021245F38E288F2965
:1080E9008005E4F528F529126BA2C37872126C1386
:1080F900FEC3EF786996FFEE1896CFC39529CF9501
:1081090028FE12EBE878AD126C38501DC3E52795AF
:1081190025CFE5269524CF2529CF3528FEC37872AA
:10812900E69FF618E69EF68003126A9812B01F12AF
:108139006AE7C2067D027F0912D50A126ADDC20604
:108149007D027F1212D50AE50D5401F524E50CF5DF
:1081590025C378B9E69525FF18E69524CF24FEF5C1
:1081690025EF34FFF524126BA2EF787026FFEE1885
:1081790036FEC3EF786796FFEE1896FE12EBE878A5
:10818900AC126C38500A126BA27870126C30800EE7
:108199007866E6FE08E6FF786FA60608A60712EEDF
:0381A900FA7F005A
:0181AC0022B0
:106C6600D205E4F527742A2527126AF17480F07498
:106C76002D2527126B107480F00527E527B403E550
:106C860012EF1D7F401281AD8F23E5236001227F25
:106C96004012942B8F23E523600122126BEA7F02B8
:106CA600129C83EF60037F8022E523C39460500328
:106CB6007F8022126BEA7F01129C83EF60037F8044
:106CC60022E523C3946050037F8022126BEAE4FF1F
:106CD600129C83EF60037F8022E523C394605003F8
:106CE6007F802278B77605126E237526022005036B
:106CF600026E0F7527307B007A007924AF2612BB0F
:106D0600CE8F23E523B4800122E523644060737BA4
:106D1600007A007925AF2612A55F8F23E523B4807C
:106D26000122126BF3FFBF060BE5266401600575B1
:106D360023808003752302E524B4FA06E52565233E
:106D46006040E527D394084030E524D394FB5029CE
:106D5600E524C394F94022E5232401FFE433FED35E
:106D6600E5259FEE6480F8748098500DE52314FFA6
:106D7600E525C39F40037527081527E5276003020D
:106D86006CFC742A2526126AF1E0D394F04026782A
:106D9600B7E6B40718E526B402057526018047E56F
:106DA60026B40105E4F526803DC205803975260224
:106DB60078B7068031742A2526126AF1E0C3941E3C
:106DC600502C78B7E6B40418E526B40205752601FA
:106DD6008014E526B40105E4F526800AC20580067E
:106DE60075260278B71678B7126E23026CF3E5267D
:106DF600B40206752601026CF3E526B40106E4F535
:106E060026026CF3C205026CF390F82AE06008A330
:0C6E1600E06004A3E070037F80227F0096
:106E220022E6C45430F53B7BCFE4FD7FDC12D20D69
:086E32007F017E0012E9BA2283
:109C83008D2E8B2F8A308931BF0304AB078005C328
:109C930074029FFB7DF87F7A12DD3DE52E703075EF
:109CA3000C12750D80F50EF50F78B3E6FE08E6FF8E
:109CB300D39409EE940040067E007F098008EF24C8
:109CC300FFFFEE34FFFE8F10E51004F511802278BC
:109CD300B179B8126B184BF50C78B9E6F50D8D0E0A
:109CE30078B579B3126B184BF50F78B4E6F5108D90
:109CF30011126AE7C2067D067C007F7012DA08E55E
:109D03002E5401C43354E04401FD7F7D12EE0A1248
:109D1300A5F78F0CE50C600122AB2FAA30A931C245
:109D2300067D017F8712D50AE52E700DAB2FAA3071
:0C9D3300A9311244F0F41245587F0022C0
:08BBCE008F288B298A2A892B9C
:10BBD6007D01129C83EF60037F8022126C43D39415
:10BBE600FA4020EF2406F52CE4FBAD2CAF2812CD4D
:10BBF600DEEF6037E4FB7D04AF2812CE24EF602B26
:10BC06007F4022126C43C394FA5020C374FA9FF506
:10BC16002C7B01FDAF2812CDDEEF600F7B017D048A
:0DBC2600AF2812CE24EF60037F40227F0084
:01BC330022EE
:08A55F008F288B298A2A892B21
:10A56700126BF3FFBF060BE52864016005752D80AC
:10A577008003752D02AB29AA2AA92BE4FDAF281267
:10A587009C83EF60037F8022126BE1FFD3952D4000
:10A5970016EF952DF52CD3940840047D088004AF61
:10A5A7002CAD07E4FB8041126BE1FFC3952D503DB5
:10A5B700C3E52D9FF52C126BF364067019E528642B
:10A5C700016013E52CD3940840047D088004AF2C68
:10A5D700AD077B018012126BE17009E52C2404FDA5
:0FA5E7007B0180047B01AD2CAF2812CE247F00B6
:01A5F6002242
:10CDDE00E4F52DEB601A126AEEE0FEC39D742A4054
:10CDEE0009126AF0C3EE9DF08026126AF0E4801CF0
:10CDFE00126AEEE0FEC374FF9DC39E742A400812B1
:10CE0E006AF0E02DF08009126AF074FFF0752D01C2
:05CE1E0012DAEAAF2D5D
:01CE230022EC
:10CE2400E4F52EEB601A126B0DE0FEC39D742D40E9
:10CE340009126B0FC3EE9DF08026126B0FE4801C69
:10CE4400126B0DE0FEC374FF9DC39E742D40081247
:10CE54006B0FE02DF08009126B0F74FFF0752E013B
:05CE640012D91FAF2EE2
:01CE690022A6
:10B56200C0008004010F8080000000000000323221
:10B57200000A320000000002800200840808080865
:10B58200080896800008080808080891828A878EB1
:10B592008E7B808080808081808387817689816EA6
:10B5A20080808080808061606367615669614E80BF
:10B5B2008080808080808080808080808080808089
:10B5C20080808080FFFFFFFFFFFFFFFFFFFFFFFF85
:04B5D200FFFFFFFF79
:105A120075F01390002712486FE40893FE74019307
:105A2200A60608F622F0A3F0A3F0A3F07B017AF811
:105A3200799822E6FC08E6FDECA3F0AF05A3EFF0AF
:105A420008E6FC08E6FDECA3F0AF05A3EFF008E6DC
:105A5200FC08E6FDECA3F0AF05A3EFF022748C2561
:105A62003DF582E434F8F583E07F0025E025E0FE91
:105A7200EF22E52975F007A47B0124FFF974F735BD
:105A8200F0FA7E00E92528F9EE3AFA1244F0FF74A2
:105A9200982528F582E434F8F583227583001245AF
:105AA20009FD748C2537F582E434F8F583E025E0AE
:105AB20025E022E0FDEEF6ED08F6A3E0FEA3E0FD10
:105AC200EE08F6ED08F6A3E0FEA3E0FDEE08F6ED23
:105AD20008F622AB28AA29A92A852E8275830012EC
:105AE2004509FF90F881E0FD75F008A4252EF582A6
:105AF200E435F0F583E5822290002775F013124811
:105B02006FE493FC740193FDEC22FA7879E675F068
:105B120003A4F58285F08302450975F008A42400E8
:105B2200F582E5F03EF583E58224F8F582E58334DB
:105B32003FF583E0547F2274922537F582E434F8EE
:105B4200F5832278AEE65470C4540FFF25E025E0B9
:105B52002493F582E434B5F583E49390F831F0EFC1
:105B620025E025E02494F582E434B5F583E493221C
:105B720078767C007D007AB579627BFF7E007F06B5
:105B82000244CA7A002FFFEA3EFE74F82FF58274AF
:105B92003F3EF583E0222F7A00FFEA3EFE74002F9B
:105BA200F58274403EF583EDF02278AEE65470C47F
:105BB200540F2275F008A42400FFE5F022E53654C4
:105BC2000375F004A42537F582E435F0F583AB3391
:105BD200AA34A935227486253DF582E434F8F5838A
:105BE2002224FEF58274433EF58322E6A3F008E602
:105BF200A3F008E6A3F022E0F6A3E008F6A3E0088B
:105C0200F622F090F88202481A78007CF87D017B37
:105C1200FF7AB5796E7E007F1F2275F01390002106
:105C2200227F0790F89974FF22752B01752CF97564
:105C32002D007B017AF979802224FFF58274433E9C
:105C4200F5832224FDF58274433EF5832224FCF57C
:105C52008274433EF5832224FBF58274433EF5832E
:105C620022F582E434F8F58322FD74802EF582E475
:105C720034F9F583EDF022AB38AA39A93A22E0FED5
:105C8200E53E5407FD7401A8050822E529241D906C
:105C9200F898F0752801222400F582E583347BF51B
:105CA20083E0222480F582E583347BF583E022E5DC
:105CB2003E131313541F2290F89BF0A3EDF075F0DE
:105CC200132274002EF582E434F9F5832275F01361
:0E5CD20090002522AB2BAA2CA92D852E822214
:10DB6B00907FFFE06412600280051282FE40061275
:10DB7B00B2160297D112DD1412E67612BEEE12C067
:0BDB8B000E12DE7812C75412C5AE2245
:1097D10078C6E6A2E150277858E6FFC39410501EE0
:1097E100EF1313543FFF7B007A00790C12B87A789B
:1097F10058E6540325E025E0240CF8E6F52312EBA6
:109801003C12B38712D9AC12B19B12EF2312EE7E38
:1098110012D37C12EE4E12CE6A12EF5D12EA637819
:10982100C6E6A2E150687858E6C394105060787B90
:10983100E6C3940F4004E4F68003787B06785AE689
:10984100F52408E6F52508E6F52608E6F527783239
:109851007C007D007B007A0079237E007F05124425
:10986100CA12D10CE4786EF6E523125CCF125A18B5
:10987100E523125A12E523125C1C125A18E408F669
:10988100787BE6FF12D6FA787BE67858F62278C61E
:10989100E6A2E1400B7858E6FF9446500312C2401D
:0198A10022A4
:10D6FA00786EE6FEC433333354804F90F898F008BE
:10D70A00125A3508E6A3F078C6E6A2E14007125A93
:10D71A002EE4FF800C78C6E6A2E15008125A2E7F4A
:05D72A0003129AFB222E
:02C240008F2845
:10C2420078C6E6FFA2E14005E4F5298008EFA2E105
:10C252005003752903125A2EAD28AF2912B8E8509F
:10C262001A90F898E0C41313135401786EF6A3E001
:10C27200FEA308125AB5A3E008F622E4786EF6E5AA
:10C2820028125CCF125A18E528125A12E528125CBD
:07C292001C125A18E408F623
:01C299002282
:10B38700E4F528125A2EAD28E4FF12B8E85032909F
:10B39700F898E528F0900025125AFD90F899F0A347
:10B3A700EDF0E528125AFA125CB9E528900021124F
:10B3B7005B0090F89DF0A3EDF0E4125A2CFF129A6F
:10B3C700FB0528E528C3944640B9E4F528125A2E10
:10B3D700AD287F0312B8E8501590F898E528F012C9
:10B3E7005C23F0A3DFFC125A2E7F03129AFB052879
:07B3F700E528C3941040D6C5
:01B3FE00222C
:10D10C00E535540FFEE4C4F8540FC868FFEEC45460
:10D11C00F048FEE533540F4EF533EF4534F53478D3
:10D12C007BE690F898F0A3E532F0E533A3F0A3E5A5
:10D13C0034F0A3E536F0A374FF125A297F02029A49
:01D14C00FBE7
:08B87A008F328B338A348935CB
:10B88200E53225E025E0F536E53275F004A424041E
:10B89200FFE435F0FEC3E5369FEE6480F8748098CD
:10B8A2005043125A2EAD367F0212B8E85020E4F50A
:10B8B2003774992537F582E434F8F583E0FF125B9B
:10B8C200BFEF12456A0537E537B404E58012E4F5A7
:10B8D20037125BBF74FF12456A0537E537B404F1CE
:05B8E200053602B88AE2
:01B8E700223E
:10D9AC00E4F528125A2EAD287F0212B8E8501590D3
:10D9BC00F898E528F0125C23F0A3DFFC125A2E7FB6
:0DD9CC0002129AFB0528E528C3941040D6EE
:01D9D900222B
:10DC6C0078C6E6FEA2E140057524018008EEA2E12B
:10DC7C00500375240490F898EFF0787C125A35A371
:0ADC8C0074FF125A2DAF24029AFB18
:02C6AD008F24D8
:10C6AF0078C6E6FFA2E140057525018008EFA2E1FB
:10C6BF005003752504125A2EAD24AF2512B8E85039
:10C6CF000C90F899E0FEA3787C125AB52275F013FE
:10C6DF00E52490002512486FE4787C125A1D75F0FE
:10C6EF0013E524125A1575F013E524900021125A00
:01C6FF001822
:01C700002216
:10B19B00E4F528125A2EAD287F0112B8E8503590ED
:10B1AB00F898E528F0125CCF125B0090F899F0A3A9
:10B1BB00EDF0E528125AFA125CB9E528900021123D
:10B1CB005B0090F89DF0A3EDF0A374FF125A2D7F56
:10B1DB0001129AFB0528E528C3944640B6E4F528EE
:10B1EB00125A2EAD287F0412B8E8501590F898E546
:10B1FB0028F0125C23F0A3DFFC125A2E7F04129A64
:0AB20B00FB0528E528C3941040D687
:01B215002216
:10E8D00090F8987401F07876125BED08125BEDA366
:0AE8E00074FF125A2D7F05029AFB07
:10E67600125A2E7D017F0512B8E8500E90F899784F
:0EE6860076125BF9A308125BF922125B722276
:06EF2300125B7202E8D04F
:10CA1600E4F529F529125C8D125A74EFF00528E524
:10CA260028B408F4125A2E7F05129AFB0529E52927
:10CA3600C3940440E0125C8D125A74EFF00528E5A9
:10CA460028B403F4752803125A9174FFF00528E5FB
:0CCA560028B408F3125A2E7F05029AFB48
:10BEEE00E4F522E522241DFD125A2E7F0512B8E834
:10BEFE00503E752301E522B404047F0380027F08BF
:10BF0E00E523C39F503074982523125A95E0FDE522
:10BF1E002275F007A47B0124FFF974F735F0FA7E41
:10BF2E0000E92523F9EE3AFAED124558052380C5AE
:0FBF3E00125C0B0244CA0522E522C3940540A4FD
:01BF4D0022D1
:09EE7E00125C0B1244CA02CA1610
:10CB9100125BAC70047F0280027F0390F898EFF083
:10CBA10090F82AE090F899F090F82BE090F89AF03C
:10CBB10090F82CE090F89BF090F82DE090F89CF024
:10CBC10090F82EE090F89DF090F82FE090F89EF00C
:0BCBD10078B7E6125A2C7F05029AFB91
:10C00E00125BAC70047D0280027D03125A2E7F05F6
:10C01E0012B8E8503890F899E090F82AF090F89A13
:10C02E00E090F82BF090F89BE090F82CF090F89CB4
:10C03E00E090F82DF090F89DE090F82EF090F89E9C
:10C04E00E090F82FF090F89FE078B7F622782A7CEF
:0FC05E00F87D017AB5798D125B7C78B776052273
:10D37C00125BACF528782A7CF87D017BFF7AB579B5
:10D38C008D125B7E78B7760578AEE6548FF612CBAD
:10D39C009178AEE6548F4460F612CB91E528C454D4
:09D3AC00F0FF78AEE6548F4FF655
:01D3B5002255
:10DE5200125BAC240490F898F090F831E090F899B5
:10DE6200F090F832E090F89AF0A374FFF0A3125AFF
:06DE7200277F05029AFB68
:10DE7800125BAC2404FD125A2E7F0512B8E8500E2E
:10DE880090F899E090F831F090F89AE08003125BEE
:06DE98004590F832F02273
:0AEE4E00125B4590F832F002DE522C
:10D5EA00125BAC75F005A4FF7879E6540F24092F75
:10D5FA0090F898F090F835E090F899F090F836E0C5
:10D60A0090F89AF090F837E090F89BF0A374FF1224
:07D61A005A277F05029AFB6D
:10C754007879E6540F2409FD125A2E7F0512B8E8A1
:10C76400501690F899E090F835F090F89AE090F827
:10C7740036F090F89BE080257BFF7AB5799978793B
:10C78400E6FF125B1090F835F07AB50975F003EF07
:10C79400125B1390F836F07AB509125B0D90F837F6
:02C7A400F02281
:10CE6A00125BAC75F00FA4FFAEF02499F974B53ECD
:10CE7A00FA7BFF125B0D90F835F0749A2FF974B5AE
:10CE8A003E125B0C90F836F078AEE65470FFC4544C
:10CE9A000F75F00FA4249BF974B535F0125B0C9052
:06CEAA00F837F002D5EAA2
:10C5AE0090F881E07002802590F881E0FF541F60C2
:10C5BE003EEFC3942050197420F0752BFF752C8616
:10C5CE00752D2B7BFF7A8579AB12A7A2E4FF802114
:10C5DE0090F881E0C4135407C43354E0F07F011285
:10C5EE00C29A90F881E02420F0125C2B02A7A27F61
:05C5FE000112C29A22A7
:10C29A0090FF207406F0EF701AFEEE9085AB9312B1
:10C2AA005C6BEE90862B93FD125CC4EDF00EBE80A3
:10C2BA00E9802FEF6401702AFE90F881E0FF75F0A3
:10C2CA0008A42E125AF0125C99125C6B75F008EFF2
:10C2DA00A42E125AF0125CA5FF125CC4EFF00EBE37
:08C2EA0080D790FF207407F0DB
:01C2F2002229
:03EF5D0002C5AE3C
:06A7A2008B288A29892A98
:10A7A800E4F52E125AD5125C996F701D125CD6F51D
:10A7B80083124509FF75F008ED125AED125CA5B534
:10A7C8000707052EE52EB480DAE52EC3948050568F
:10A7D80090F881E0C3946040107F1F12E7BF907F1C
:10A7E800FF7412F0E490F881F0E4F52E125AD524A3
:10A7F80000F582E583347CF583EFF0125CD675832F
:10A8080000124509FF75F008ED125AED2480F58213
:10A81800E583347CF583EFF0052EE52EB480CD90EA
:06A82800F881E02420F09D
:01A82E002207
:06EF2900125C2B02A7A2FE
:10B216007F1F12E7BF400122752210AF2212E7BF3F
:10B226004001220522E522C3941640EFE4F522E50B
:10B2360022125A6B125C3BE522F0EF125BE3E4F05C
:10B24600125C45E4F0125C4FE4F0125C59E522F022
:10B256002486125BDBE522F0248C125C63E522F087
:10B266002492125B3DE4F00522E522B406C1907FEC
:10B27600FF7412F090F8807406F090F88212483E3F
:0AB2860000000000E490F881F0D30E
:01B29000229B
:10E7BF00EF33333354F8440190FF39F07BFF7AEE97
:0CE7CF0079227F2812E6D0400122D322DC
:1082FE00E4F527F526F525F524F52890F8821248A1
:10830E003E00000000E4F52274862522125BDBE5B8
:10831E0022F00522E522B406EFE4F523E4F522E58A
:10832E0022125A6B125C3BE0FD74862523125BDB36
:10833E00E0FFED6F60030283FFE522FB125A6B1222
:10834E005C45E0FCEF125C4FE06CFCEB125A6D12D8
:10835E005BE3E06CFFED6FFDE522125A6B125C5988
:10836E00E06D60030283FF748C2523125C63E522AB
:10837E00F0FF12DF5B74922523125B3DEFF0E522D6
:10838E007D0025E025E0FCED24FDF58274433CF5EF
:10839E0083E07B00FAED24FCF58274433CF583E028
:1083AE007E007810C333CE33CED8F9FFEE4AFCEF01
:1083BE004BFDE522125A6B125BE3E0FFECFEED4F34
:1083CE00FFE48F278E26F525F524125C05AB27AA30
:1083DE0026A925A824D31247E34029AF27AE26AD00
:1083EE0025AC2490F88212483290F880E522F08075
:1083FE0013E522B40E02C3220522E522C3940F50C8
:10840E000302832D0523E523C39406500302832A1A
:10841E007F0F12DF5B90F881EFF0E4FFFEFDFCA30F
:10842E00124826C31247E390F88070057406F08058
:0C843E000AE0FF12D7FC90F880EFF0D3AA
:01844A00220F
:02DF5B00A90714
:10DF5D007D7FE4FCE925E025E0FAED125BB53AFEA4
:10DF6D00EC125B85F46003AF05220CBC08E6DDE224
:02DF7D007F0023
:01DF7F00227F
:10D7FC00E4FEBF0E03FF80010FEEFD3395E0FC74D9
:10D80C008C2DF58274F83CF583E0B5070ABF0E0445
:10D81C00E4FF80010F7EFF0EC3EE6480948640D936
:01D82C0022D9
:10EB3C00E490F898F0125C23F0A3DFFC125A2E7FBD
:04EB4C0005029AFB29
:10EA6300E490F898F07F0790F899E4F0A3DFFC12A4
:07EA73005A2E7F05029AFBF9
:10DD1400125A2EE4FD7F0512B8E8501975220174D9
:10DD2400982522125A95E06002800A0522E522C352
:08DD3400940840EB221297D184
:01DD3C0022C4
:089AFB008F378B388A39893A54
:109B0300D20674922F125B3DE004F53BE53BD39400
:109B1300004049125AA4FEE53B125B1CFF125C791C
:109B23001244F0547F6F7028F53C125C79853C82B7
:109B3300125A9DFAE53B125BB53AFEE53C125B8592
:109B43006D6004C2068015053CE53CB408DC800C5E
:109B5300E53BB40102C206153B029B0F20065D12D2
:109B63005B39E0B47F05AF37027342753B01125C8A
:109B730079853B82125A9DFA125B39E0125BB53A42
:109B8300FEE53B125B98053BE53BB408E1125C79CB
:109B93001244F0125AA3FE125B39E075F008A424B4
:109BA30000F582E5F03EF583E5822400F582E58346
:0C9BB3003440F583EDF0125B39E004F063
:019BBF002283
:0AB8E8008F388D398B3A8A3B893C7A
:10B8F20074922F125B3DE004F53DE53DD394004088
:10B9020050748C2538125AA8FEE53D125B1C65392D
:10B912007033F53E748C2538125AA8FCE53D125B53
:10B92200B53CFE7C00EF253EFFEC125B8AAB3AAAE7
:10B932003BA93C853E8275830012456A053EE53E81
:10B94200B408D1800CE53DB40102C322153D02B812
:02B95200FCD324
:01B9540022D0
:027342008F3D7D
:10734400754001748C2F125C63E0F54190F880E085
:107354002410FF12E7BF400122E4F9749829125A5D
:1073640095E0FD90F880E025E025E0FEE924001298
:107374005B9909B908E590F898E0547FF53EE4F587
:107384003F7498253F125A95E4F0053FE53FB40851
:10739400F0125CB1FF2498125A95125C808002C3EB
:1073A40033D8FC4EFE74982F125A95EEF090F88064
:1073B400E0FF748C253D125C63EFF012D7FC90F86B
:1073C40080EF125C04EF2401FFE43EFEE43DFDE4A3
:1073D4003CFC90F882124832797FE54125E025E0B3
:1073E400FE75F008E9125B1FF53E647F70030274BA
:1073F40072125CB12498125A95E0FD7C00E53E546B
:1074040007FF74017E00A807088005C333CE33CE7E
:10741400D8F9FFEE5CFEEF5D4E7053F53FE5412574
:10742400E025E0FCE9125BB53CFE7C00EF253FFF64
:10743400EC125B8AFD748C253D125AA8FAE54012C1
:107444005BB53AFEE53F125B98053FE53FB408CDD6
:10745400125CB1FF2498125A95125C808002C333E7
:10746400D8FC4EFE74982F125A95EEF0054019E997
:1074740060030273DE7492253D125B3DE540125CAD
:107484000478101247F4AB07125A5F125C4FEB12E8
:107494005C0478081247F4AA07125A5F125C45EAA2
:1074A400125C04AD07125A5F125BE3EDF0125BD776
:1074B400E0FC125A5F125C3BECF0EB6A6DFF125B6E
:1074C400D7E06FFD125A5F125C59EDF0E5412410CC
:0874D400FF12E7BF400122D3C3
:0174DC00228D
:10996F00AE3AAF3B7C007D021245F3EF2BF53BEE99
:10997F003AF53AAB2BAA2CA92D0246291246C6E47A
:10998F007B02FAF9F81246C6AB31AA30A92FA82EDE
:10999F0012CF7E8E3A8F3BD3E53B9400E53A64803D
:1099AF0094802290F839E0FEA3E0FBAA06E4F9F8D0
:1099BF00AE36AF3722AB35AA34A933A832AF31AEAA
:1099CF0030AD2FAC2E1246B8A80422A804A905AAC0
:1099DF0006AB07E0FEA3E0FFE4FCFD22AEF0FBE4E4
:1099EF00C39BFF74809EFEE49400FDE49400FC2270
:1099FF007A00790C7B00D2067D0122E53B5401FFF2
:109A0F00C3E49FFFE49400FAAB072290F839E0FC1F
:109A1F00A3E0FDEC22AB05AA04E4F9F8E53722AB8D
:069A2F002BAA2CA92D2238
:10DC96007876E633501C78AEE6A2E250151299FF6C
:10DCA6007F0212D50AE50C54037007E50C20E70243
:0ADCB600C32278AEE654F7F6D3223D
:066E3A008B2B8A2C892D30
:106E4000E4FD7F1F12EE0A7D807F4412EE0A129944
:106E500082FFAEF012CFC25002C322126FCCF536C1
:106E6000E50DF537E4FD7F4412EE0A129982FFAE7C
:106E7000F012CFC25002C322126FCCF538E50DF5E7
:106E8000391299B2FCFD1246C6A804A905AA06ABA0
:106E900007AE38AF39E4FCFD1246AB8F318E308D32
:106EA0002F8C2ED3E5399490E5389401402B129A1B
:106EB0001A13FEED13FFE5392470FBE53834FEFAB2
:106EC000D3EB9FEA9E400D129A242401FFE435364D
:106ED000FEE480311299B2802C129A1AC313FEED8F
:106EE00013FFC374909539FB74019538FAD3EB9F67
:106EF000EA9E400E129A2424FFFFE53634FFFEE49A
:106F000080031299B2FCFD1246C6EF2490FFEE34C6
:106F100001FEE43DFDE43C8F358E348D33F53212B5
:106F200099C4C005C006C0071299821299EBD0031C
:106F3000D002D00112998B4009E53B54017A00FB45
:106F40008003129A0A12996F126FE05002C322E571
:106F50000C606990F83930E1141299E2E5352FFFA1
:106F6000E5343EFEED3533FDEC35328017E0FEA30F
:106F7000E0FBC3E5359BFFE5349EFEE5339400FD61
:106F8000E53294008F358E348D33F5321299C4C0BA
:106F900005C006C0071299821299EBD003D002D027
:106FA0000112998B4009E53B54017A00FB800312E2
:106FB0009A0A12996F126FE05002C322AB2BAA2CCF
:0B6FC000A92DE53A853BF012468CD36A
:106FCB00227B007A00790CC2067D027F4412D50A1F
:106FDB00E50C540F22AEF0253BF53BEE353AF53A76
:076FEB00AF3BFE12CFC222F2
:10BF4E008B2B8A2C892DE4FF12EAD4900A21E493DC
:10BF5E00FF129A2EE48FF0124654129A2E12462990
:10BF6E00FFAEF012CFC250037F0222E50C602E12FC
:10BF7E009A2E30E10D12462924FFFFE5F034FFFE24
:10BF8E00800A1246292401FFE435F0FE12CFC2507A
:10BF9E00037F0222E50C540360037F01227F0022FF
:108F2900E4F52EF52DF52CF52BFB7DFC7F4712DDA5
:108F39003D7B107DEF7F5012DD3D12EE6C7BFF7A99
:108F4900EC794D7F3C12E6D0400302901C7B407DBA
:108F5900BF7F5212DD3DE4FD7F5912EE0AE4F50CA4
:108F6900FB7A00790DD2067D037F5912D50A850F48
:108F79002E850E2D850D2C850C2BE4FB7D5F7F52F4
:108F890012DD3D7A007933129A037FAE12D50A05B4
:108F99003305337B007A007934D2067D017FAF1225
:108FA900D50AE5345430C4540FFF7401A80708806A
:108FB90002C333D8FCF534FFE4FCFDFEFBFA790863
:108FC900F81246C690F8391299DA1246C6AB2EAA9B
:108FD9002DA92CA82B12475190F83D1299DA124667
:108FE900C6C007AF33AB07E4FAF9F8D00712475107
:108FF9008F328E318D308C2FC3E49532FF7480957A
:1090090031FEE49530FDE4952F8F328E318D30F5A8
:109019002F800BE47532FF7531FFF530F52FE4FB36
:0B9029007DEF7F5012DD3DAE31AF3215
:019034002219
:10CFC2008E3C8F3DE4FB7DFE7F4712DD3D12EE6C11
:10CFD200AF3DAE3C12E2BBE4FD7F0212EE0A7F08D7
:10CFE20012D24C7F0812D24C12AC885001221299F4
:10CFF200FF7F0212D50AE50C54606002D322530C63
:03D0020003C32243
:1074DD00E4F528FB7A00790CC2067D027FB512D542
:1074ED000AE50C540FF523E50DF524E4FB7DFD7F36
:1074FD00BB12DD3DE4FF12EAD4128F298E258F26B3
:10750D0012CFC250037F0222E50C7053432801E5D0
:10751D00262418FFE43525FE12CFC250037F022228
:10752D00E50C7003432802E52624E8FFE52534FF2A
:10753D00FE12CFC250037F0222E50C7003432804D4
:10754D00E528B40309740C2526F526E4800DE528FD
:10755D00B4050C74F42526F52674FF3525F525E5BF
:10756D00286003027640AF24AE2312E2BBE4F52877
:10757D00752718AF24AE2312CFC250037F0222E528
:10758D000C603CE50C30E11AE5287E0030E0047F0C
:10759D000C80027F18C3E5249FF524E5239EF52377
:1075AD008017E5287E0030E1047F0C80027F18EF04
:1075BD002524F524EE3523F523850C28D527B4E5B0
:1075CD002770037F0122E528701CE5242418FFE4B1
:1075DD003523FE12CFC250037F0222E50C6003FF5C
:0F75ED0080027F018F288523258524267527049A
:1075FC00E52830E00BE526240CFFE43525FE800A57
:10760C00E52624F4FFE52534FFFE8E298F2A12CFC0
:10761C00C250037F0222E50C7009852925852A2694
:10762C00D527CDE5242526FFE5233525C313F525E0
:10763C00EF13F5267B007A007925126E3A40037F12
:10764C0002227B007A00792512BF4E8F28E5286034
:0A765C00012278AEE64408F67F0034
:017666002201
:10EB500012E82E7827E475F001024884D29012EB77
:04EB600078C29022C5
:10EB7800000000000000000000000000000000008D
:03EB880000002268
:10EAE900D29012EB783090FDD291C29112EB78C29C
:05EAF9009012DE9E22D8
:0AEE5800C291D29012EB78D2912201
:10EBFA00D291D29012EB78A291E433FFC290D291D3
:01EC0A0022E7
:06EF2F00C29112EB5C220E
:06EF3500D29112EB5C22F8
:10DE9E00E4FEEF335004D2918002C29112EB5CEF9C
:10DEAE0025E0FF0EBE08EB12EBFAEF600612EE58FD
:05DEBE007F00227F013E
:01DEC300223C
:10E82E00E4FFD291FED29012EB78EF25E0FFA29199
:0AE83E00E4334FFFC2900EBE08EB5A
:01E8480022AD
:02DFEF008D2A79
:10DFF100752BFF8F2CAF2C12EAE9EF64016005D578
:10E001002BF3C322AF2A12DE9EEF64016002C3220A
:01E01100D33B
:01E0120022EB
:06C895008F238A258B268B
:10C89B00E52645257002C322AF2312DFEF400122AC
:10C8AB00E5234401FF12EAE9EF64016002C322E5CC
:10C8BB0026152670021525144525600C12EB50EF3A
:10C8CB0012455812EF2F80E712EB50EF124558121A
:06C8DB00EF3512EE58D308
:01C8E1002234
:08B11D008F238D248A258B2667
:10B12500E52645257002C322D3E5269400E525943E
:10B13500004061AD24AF2312DFEF400122E5245426
:10B145000FFFC374109FFDFF7E00D3E5269FE52505
:10B155009E401CE5269FF526E5259EF525E524C39D
:10B1650094F0400405230523ED2524F5248007AD3F
:10B1750026E4F525F526AF051DEF6013782712EBBC
:10B18500551244F0FF12DE9EEF640160E9C32212FE
:05B19500EE588094D388
:01B19A002292
:03000B0002B9C176
:10B9C100C0E0C0F0C083C082C0D075D000C000C04C
:10B9D10001C002C003C004C005C006C007D28C75F7
:10B9E1008A21758CF8D20A78A7E6FE08E6FFF47082
:10B9F10002EEF4600AEF4E6006E61618700116E5D5
:10BA01005760041557800920090612E05B75570A33
:10BA1100D007D006D005D004D003D002D001D00089
:0BBA2100D0D0D082D083D0F0D0E03233
:07EF0100C10000FD54FEFFFA
:10AEB000019B1E01A60F02A401D201A100019E0068
:10AEC00001A000019F00019D0001A20001A300015B
:05AED0009C000156008A
:10844B007864E6FA08E6FBFF7C007D64AE02124519
:10845B009E7C007D0A12459EED243022FFC3ED9FCA
:10846B00FFEC9ECF24FCAD26CF34FFFE7C001245E3
:10847B008CE4FD7B64FAF9F8024751E524FD7C009E
:10848B00FFC3E5239FFFE5229400FAA9077BFFD2E8
:10849B00067F92229086ADE493FE7401939086B191
:1084AB00FFC37401939FFFE4939EFEEF780222F5C6
:1084BB000D7B007A00790CC2067D027C007F902236
:1084CB00E50C24FDFDE434FFFC7B007A00790FD230
:1084DB00067F92227C007D0AE6FE08E6FF02459E9F
:1084EB00E4F52485238285228322FE7C007D6412A1
:1084FB00458CAD03AC0202459EC207D2087F922287
:10850B00E47B0AFAF9F8AF25AE24AD23AC2202477F
:10851B00517B007A00790CD20622AB2DAA2EA92F03
:10852B001244F025E025E02278ACE6C39FFFE49EE1
:10853B00FE22EF2402FFE43EFEE43DFDE43CFCE4BE
:10854B007B02222430F52FEF75F00A84E5F022C26E
:10855B0007C2087F90227C007D0AAF03229086B968
:10856B00E493FE740193227864E6FE08E6FF22FB97
:10857B007A00790CC206222523F523E43522F52255
:0B858B0022EF25E0FBEE33FAC3E622EE
:10BC3400789BEFF678A6A6052401F523E433F522D4
:10BC440078A4A60208A60312855A12EB137FC01229
:10BC5400D85E7F0412D85E12000312850412EB131F
:10BC6400AF23E52312D85EE522C4F854F0C8E523D7
:10BC7400C4540F4854F0FF78A5E6540F4FFF12D870
:10BC84005E79A4E7C4F854F0C809E7C4540F48FF28
:06BC940012D85E0200035D
:10C558008E248F258C268D278B2812855A12EB1353
:10C56800E524540F4528FF12D85EAF25E52512D8DB
:10C578005E120003E528B4D00FAE26AF277C007DFD
:10C588000312458C8E268F2712850412EB13E5279C
:10C598004526600FAF2912D85EE527152770EF15DD
:06C5A8002680EB020003F7
:10D462008F228D23EFFD7C007529807B10E4FFFE67
:10D4720012C558E4FF12EC3DE522FD7C00752988B7
:10D482007B50E4FFFE12C558E522FD7C008523296E
:08D492007B90E4FFFE02C55887
:04D005008B33AC07B6
:10D0090078A6E6FFED8FF0A4FF789BE62401FBE408
:10D0190033CB2FFFEB35F0FEAD047C00EF2DF5355A
:10D02900EC3EF53412855A12EB13E534540F4533AF
:0ED03900FF12D85EAF35E53512D85E02000357
:10EC3D008F2E12850412EB13AF2E12D85E02000335
:10DF80008E268F2712850412EB1385278285268320
:10DF9000E493FF600D12D85E0527E52770EC052697
:05DFA00080E80200030F
:08D94E008E228F238D248B250E
:10D9560012ECDDEFC313FEC395244005E4F52480E5
:10D9660006C3E5249EF5247B50AD25AF2412D005D1
:07D97600AF23AE2202DF80A7
:08D9DA008E228F238D248B2582
:10D9E20012ECDDEFC313C395244005E4F524800651
:10D9F200C3E5249FF5247B50AD25AF2412D005AF9B
:06DA020023AE2202DF80CA
:04C60300AB07AA06D1
:10C607007C277D1012459EEF2430F5227C037DE8C0
:10C61700AF03128457F523AF03128453F524128511
:10C6270061128457F525AE02AF0312845CF526121A
:10C63700850412EB13AF2212D85EAF2312D85EAF78
:10C647002412D85EAF2512D85EAF2612D85E02003C
:01C6570003DF
:10C7A600EF75F06484FED394004012EE2430F52E2B
:10C7B600EF75F00A8412855312854E8019EF75F0D5
:10C7C6000A84FED39400E44008F52EEE12854E80CE
:10C7D60005F52EF52FEF2430F53012850412EB13F4
:10C7E600AF2E12D85EAF2F12D85EAF3012D85E02CF
:02C7F60000033E
:10D2C900EF540FFEC3940AEE50062430F523800470
:10D2D9002437F523EFC4540FFEC3940AEE500624F5
:10D2E90030F52280042437F52212850412EB13AF9E
:0CD2F9002212D85EAF2312D85E020003A0
:10E8EA00750C81EF25E025E02403F50DE4F50E1201
:0AE8FA00857A7D03FC7F9002DA08A6
:107DA3008E228F238C248D258B26E526D394644045
:107DB30003752632E527D394644003752732E528FB
:107DC30030E75C12849FCEC313CE13D8F9FDAC0603
:107DD300E522C313FEE5231312846712853D128443
:107DE300808E228F231285689086BD1284ABCEC30A
:107DF30013CE13D8F9FDAC06E524C313FEE5251312
:107E0300FFC3ED9FFFEC9ECF24FDAD2712847312B9
:107E1300853D1284808E248F2543287F027E86121F
:107E2300849FCEC313CE13D8F9FDAC06E523AE224F
:107E33007802CEC313CE13D8F9128467EF2406F564
:107E430023E43EF522128568FFC39086BD1284ADFC
:107E5300CEC313CE13D8F9FDAC06E525AE247802C4
:107E6300CEC313CE13D8F9FFC3ED9FFFEC9ECF24EF
:107E7300FACF34FFFEAD27128477EF2404F525E40F
:107E83003EF5247B027DF87F9312DD3D7D017F6CFF
:107E930012EB648F0CE50C70047FC080027FE08FCF
:107EA3000CE4F50D12857A7D02FC7F9012DA08E569
:107EB30024C313E52513F50CE523AE227802CEC3C4
:107EC30013CE13D8F9F50DE5235403C4333354C04B
:107ED300FFE5255401FEC43354E04F4528F50E1247
:107EE300851C7D037C007F9212DA087F2012D24C1E
:0E7EF3007F2012D24C7B057DF87F9302DD3D8F
:10D88F008B30AE05AD07AF06AB3212D005E532B423
:10D89F00D008E53075F003A4F53012850412EB13B0
:10D8AF00E5306009AF3112D85E153080F302000306
:10E5DB008F258D268B27E5266014852931852A32D8
:0FE5EB00AB28AD27AF2512D88F0525D526EC22FA
:10A2D50078627C037DE81284E3EF4E6005750F31EB
:10A2E5008003E4F50F786212844DF5101285611232
:10A2F5008457F5117862E6FE08E6FFBE051ABF56DB
:10A30500177865E6B4001118E6B4030C7C007D0AE5
:10A3150012459EED24FA800678621284DFED243022
:10A32500F5127513207514587515201285727C0366
:10A335007DE812459EEF4E602075163112844BF56F
:10A3450017128561128457F51812857212845CF50F
:10A3550019E4F51A750C0E801B12844BF51612853F
:10A3650061128457F51712857212845CF518E4F5AD
:0AA3750019750C0D1284CB02DA08F2
:10D62100785C1284DFEF75F00A8475F00A8485F066
:10D6310018EF75F00A8485F017750C07E51824308A
:10D64100F50FE5172430F51075114875125AE4F5F8
:07D65100131284CB02DA087A
:10AB7A007858E675F01390001B12486F12856BFF28
:10AB8A00E48F258E24F523F5227B64FAF9F81285E1
:10AB9A0015E47B0A128480AF038F1912850BE47BBC
:10ABAA000A128480AF038F1812850BAF038F17E543
:10ABBA0019C3940A4011E51975F00A8404F51A7448
:10ABCA00F62519F5198003E4F51A750C0B851A0F89
:10ABDA00E5192430F510E5182430F51175122EE523
:10ABEA00172430F51375144B75154875165AE4F584
:07ABFA00171284CB02DA08F8
:049337008E228F23D0
:10933B00AA06A9077BFF1284C212DA080293D11284
:10934B0084EEE49364FC704C12848612DA08128467
:10935B00EB0493FFD39403400302942AEF24FCF510
:10936B00251284EE740293B4FD14740393FD7C00F8
:10937B00D205AB257F9212DF1074040294097B0097
:10938B007A007925D2067D017C007F9212DA08746F
:10939B00020294091284EEE49364FD703412848605
:1093AB0012DA081284EE74019324FFFDE434FFFCFF
:1093BB00E58224FFF582E58334FFF583E493FBD24A
:1093CB00057F9212DF107402128582E4F52402935A
:1093DB004A1284EEE49364FE702A12848612DA0831
:1093EB000523E523700205221284EB0493F4602F0E
:1093FB00AA22A9237BFF1284C212DA0874021285F7
:10940B008202934A1284EEE493B4FF06128486021E
:0F941B00DA080523E52370020522052402934A8F
:01942A00221F
:0EED37007F2012D24C7B017DFE7F6C02DD3D01
:09EE8700E4FB7DFE7F6C02DD3D21
:0C8E11008E258F268C278D288A298B2A1D
:108E1D007D017F6C12EB648F30E53070047FC18073
:108E2D00027FE18F0C128525041284BA12DA087EB6
:108E3D0000E526543F7802C333CE33CED8F9F50C76
:108E4D00E5255407FEE52654C07806CEC313CE1390
:108E5D00D8F9FFE5285407C43354E04FF50DE52844
:108E6D00AE277803CEC313CE13D8F9F50E7E00E5E9
:108E7D002A543F7802C333CE33CED8F9F50FE52906
:108E8D005407FEE52A54C07806CEC313CE13D8F985
:108E9D00FFE52C5407C43354E04FF510E52CAE2BF1
:108EAD007803CEC313CE13D8F9F51112851C7D06A8
:108EBD007C007F9212DA087F287E0012E9BAE4F571
:108ECD0031750CC1128525FFE53175F003A42F1204
:108EDD0084BA12DA08E4F530E53175F003A47C00AC
:108EED002530FFEC35F0FEAB2DE52F2FF9E52E3EAD
:108EFD00FA900001124509FF740C2530F8A60705FC
:108F0D0030E530B403D212851C7D037C007F9212B4
:0B8F1D00DA080531E531C3940240A6DC
:018F28002226
:10D49A008F228B238A248925750C4112852B24031C
:10D4AA001284BA12DA08AB23AA24A925900005121D
:10D4BA00450954F0FFE522540F4FF50C12851C7DE7
:08D4CA00017C007F9202DA08E8
:02C12B008F275C
:10C12D00E527701912C16E7881E640082432FF1898
:10C13D00E436FE222529FF18E63528FE22E5276480
:10C14D0001701D12C16E400C7881E624CEFF18E6F9
:10C15D0034FFFE22C37881E69529FF18E69528FE67
:10C16D00227880E6FE08E6FF7B007A00792812B07F
:0BC17D009FD3E5299432E528940022AE
:10E84900EFC4333354C0F50C750D018D0E7B0012E6
:0BE85900857B7D037C007F9002DA08C5
:04ECDD008F828E8311
:0AECE100E4FFE49360040FA380F841
:01ECEB002206
:10D1CE00E52B601BC3EB9DEA9C4009E52C702FAF4D
:10D1DE0005AE0422EB2401F52EE43AF52D801BD387
:10D1EE00EB9FEA9E500AE52C700122AE04AF052299
:0ED1FE00EB24FFF52EEA34FFF52DAE2DAF2EFB
:01D20C0022FF
:10DEC4007F0112C12B8E258F26E4FF12C12BC3EFD5
:10DED4009526FBEE9525FAC37874E69526FF18E699
:05DEE40095251284F5F4
:01DEE9002216
:10D04700C37967E7787D96FF19E71896FE12EBE834
:10D05700128533787CE6FC08E6FDC39FF526EC9E37
:10D06700F525C37867E69DFF18E69CFE12EBE812EC
:10D077008533787012858C9526FF18E695251284DE
:01D08700F5B3
:01D088002285
:10CEB000C37969E7787F96FF19E71896FE12EBE8C9
:10CEC00078AD128535787EE6FC08E6FDC39FF52631
:10CED000EC9EF525C37869E69DFF18E69CFE12EBF3
:10CEE000E878AD128535787212858C9526FF18E6A4
:05CEF00095251284F5F8
:01CEF500221A
:10BD63007877E6F52290F835E0F519A3E0F51AA304
:10BD7300E0F51B1297D190F835E519F0A3E51AF019
:10BD8300A3E51BF012CA1612E8D012CD9712C3A571
:10BD930012EF6412EF1DE522640160177873E6FE6B
:10BDA30008E6FF1249187875E6FF12766712EEFA75
:10BDB30012B01F7877A622786E760178C7E644081A
:04BDC300F602B3FFD2
:10E904008F2212855A12EB137F4012D85E7F0312B6
:0AE91400D85EAF2212D85E020003A5
:10E91E00E4FFFEFDFCED1D70011C8D828C83E493E3
:09E92E002FFFE43EFEED4C70ECFD
:01E9370022BD
:10E19300E50B450A700712E91E8E0A8F0B7B50E4CC
:10E1A300FD7F0912D005E50AFF12D2C9AF0B02D2D7
:01E1B300C9A2
:10EA0400129F6178C7E6A2E1400312D42978C7E6D1
:08EA1400A2E2400312EDFE2214
:10C84700E4FFFDFBE55630E71530E0027FFFE556D4
:10C8570030E1027DFFE55630E2197BFF8015E55692
:10C8670030E0027F7FE55630E1027D7FE55630E21A
:10C87700027B7F12D6580556E55630E00790FF61D8
:0DC8870074018004E490FF61F090FF60F008
:01C894002281
:10A9D6007D0112AA4A7EF67F0012DF807F2012ECEC
:10A9E6003D7EF67F0712DF807D0212AA4A7EF67F41
:10A9F6001C12DF807D0312AA527EF67F2312DF80AF
:10AA06007D0412AA527EF67F3512DF807D0512AADA
:10AA16005A7EF67F3E12DF807D0612AA5A7EF67FA8
:10AA26004912DF807B507D07E4FF12D0057EF67F5A
:10AA36005212DF807B507D08E4FF12D0057EF67F40
:10AA46005B02DF807B50E4FF12D005227B50E4FFDF
:0CAA560012D005227B50E4FF12D0052234
:10D82D0030042A78BCE67028300105C20102EE876B
:10D83D00D20178C7E64408F612B80B12BFAE12E15A
:10D84D009312A9D67BFF7AEE79EA02D97D12C7F839
:01D85D0022A8
:10DCC00078BC760812DA64502078BAE608F612CEEC
:10DCD000F678BAA60712D4D2500678BAE6B40B0981
:0ADCE0007876E633500312B5D62221
:0FECEC0078BAE608F612CEF678BAA60702D4D2A6
:0AEE620078BDE654FEF654FDF622DA
:10DA640078BDE6A2E1500B135008E654FDF654FECF
:10DA7400F62278BDE6A2E140124402F67BFF7AEF7B
:0DDA840079087F027E0012C92FC322C32241
:07EF080078BDE64401F6228A
:07EF0F0078BDE64404F62280
:10DB960079BBE778BA665F600578BCA6052278BDD2
:10DBA600E6A2E35015A2E2500418A605227BFF7AEE
:0BDBB600EF790F7F327E0012BE8D223F
:10D4D20078BAE6FF30E02F086630E02A12CEF678FE
:10D4E200BAA6077876E6335002C204C201E4F50810
:10D4F200F50920040312E5FA78C7E64401F678BD7F
:08D50200E654F7F6D322C32220
:10CEF600E4FF90FF5FE020E0027F0490FF5DE0200A
:10CF0600E00343070890FF5CE020E003430710902E
:10CF1600FF5AE020E00343070290FF58E020E003B9
:10CF260043070190FF59E020E003430720209103C7
:03CF36004307406E
:01CF390022D5
:10E5FA007876E633920678BAE624F5600A24FE7045
:0EE60A000D20060AD20422300604E478BAF687
:01E6180022DF
:10B5D6007876E633920578BAE61248A9B5FB02B644
:10B5E6000704B60D08B6260BB61310B61920B61FFB
:10B5F600400000B63978BDE654F7F6E4FD7F0280D8
:10B606001C7D017F0480167D027F0880107D037FEC
:10B6160010800A7D047F2080047D057F4002DB9632
:10B6260020051F78BDE654FBF61297D17876E654CE
:10B636007FF62278BDE654FBF67BFF7AEF790F1290
:02B64600D97DAC
:01B6480022DF
:10001600020280015E013B02BC0A0A032001C10004
:1000260090003E020280015E017A03520F0F0340E8
:1000360001BD00A0003F0D02D00190013B02BC0AA9
:100046000A038401C100A300230F02D00190017CA2
:1000560003520F0F03A801BE00B4002D0F0280014A
:10006600E0013B02580A0A0320020D009100220F0C
:10007600028001E0015E029A0A0A0360020D00A0F6
:10008600002A0F028001E0017A02D80A0A03400220
:100096000800A9001E0F028001E0017702EE0A0A9D
:1000A600034801F400B900120F028001E001B10318
:1000B600520A0A034001FE0088001C0F0320025862
:1000C600015F02320A0A0400027100C800180F0319
:1000D600200258017A025B0A0A0420027400D90041
:1000E6001A0F0320025801E002D00A0A0410029AED
:1000F60000B9001C0F0320025801D402EE0A0A04BC
:1001060020027100F100170F032002580218035253
:100116000A0A0418027700D8001E0F034002700175
:10012600F102E90A0A0480029B0120002A0B04005E
:10013600030001E302580A0A0540032601280022AB
:100146000B04000300023402BC0A0A053003260130
:100156001800220B04000300025802EE0A0A0520CA
:1001660003200110001E0F0400030002AA03520A16
:100176000A05600328013000270F04000320026CE3
:1001860002E40A0A05300345010800230F040003B0
:100196002002CB03520A0A05280345011800230F43
:1001A60004800360021902580A0A05E8037E012C3E
:1001B600001E0F04800360028202BE0A0A05C00305
:1001C60092012000310F0480036002A302EE0A0AA6
:1001D60006400384018000230F04800360030203AA
:1001E600520A0A0628038B0168002A0F0480036658
:1001F60002AE02EE0A0A05B003930110002A0F04AC
:10020600800384026A02940A0A05F803A9015000D1
:10021600230F0480038402CE02FE050505E003A930
:10022600014000230F050002D001BF02580A0A064A
:100236007802EA015300190F050002D0023402EEDB
:100246000A0A069802EF0154001F04050003000184
:10025600DD02580A0A0684031A0142001A02050042
:10026600030001DB025A0A0A05A0031500730012F7
:100276000405000300023002BC0A0A069C031F01A3
:1002860050001F0405000300025902EE0A0A06AADE
:100296000321015A0021080550030001DD02580A16
:1002A6000A0704031A01700017040500032001F46D
:1002B60002580A0A0690033F0148001C0405000381
:1002C60020024302BC0A0A0684033C00E0001F0425
:1002D60005000320026E02EE0A0A0684033E01446C
