:10E8FB003D403F3B33281C002C2D3C3D38301A004B
:10AC060001C60041F8220041F81F0041F820064124
:05AC1600F82100C10B54
:1062E200A81474FFFFFEFDFC124751E47B10FAF97B
:1062F200F81246C6A804A905AA06AB0722785EE6EC
:10630200FE08E6FFE4FCFD221246C6E47BE87A03BF
:10631200F9F8124751E47B127A02F9F8D30247E303
:1063220090F80FE05407900AA5FF75F00312486F2A
:1063320002489D8F0E8F0D8F0C7A00790C7B00D254
:10634200067D037C002290F812E0FF90F819E02FFE
:10635200C313FF752A00752B38752C00752D7075C7
:106362002EFF752FC87530FF7531902290F81BE013
:106372001313543FFF90F814E02FFF752AFF752B7B
:1063820090752C00752D30752E00752F70753000AC
:106392007531302290F839E0FEA3E0FBAA06E4F959
:1063A200F822AA06AB07AF407E0012458C7C007D26
:1063B200080245F3785FE62480FF18E63402FEE423
:1063C200FCFDE5132FFFE5123EFEED3511FDEC223B
:1063D2001246C6C3E50F9FFFE50E9EFEE50D9DFD2D
:1063E200E50C9C22ED9FFFEC9EFEE6FD7C00D3EFC8
:1063F2009DEE9C2290F80FE05418131313541F22A1
:106402001247518F0F8E0E8D0D22AE30AF31E4FC4C
:10641200FD0246C6785EE6FE08E62290F80FE054DA
:10642200E0C4135407FF227B007A00790C22124544
:106432008C7C007D7E1245F38F0D2235108F138EDA
:10644200128D1122FF752A00752B38752CFF752DC0
:1064520090752EFF227532107BAF7A007DA67C01EB
:10646200227532147B027AFE7DFF7C0022FC1245EB
:106472008C7C007D400245F390F80FE054E72290B7
:10648200F81CE01313543FFF90F81522AB3AAA3BD5
:10649200A93C124629FDC3227B1EFAF9F80246C620
:1064A200C308E69FFF18E69E2275F003EF900AB13B
:1064B20022FDFCAB28AA27A926A82522AF35E4FC99
:1064C200FDFE7B387A1822FFE6FC08E6FDD39FEC3E
:1064D2009E22E50D24FFFFE50C34FFFE22FE12454D
:1064E2008CAC06AD07E54522FFA60608A60722AB3F
:1064F20017AA16A915228B278A28892922E525247D
:07650200F8FFE434FFFE2264
:10E71A008E3B8F3CE53B5401FB7DFE7F1312DA0BE7
:07E72A00AD3C7F1202EAD8AA
:10DF69008E2A8F2BE52B7807CEC313CE13D8F954FD
:10DF790002FB7DFD7F1312DA0BAD2B7F1102EAD86C
:10DF89008E3E8F3FE53E540FFB7DF07FB512DA0BD5
:10DF9900AD3F7FB612EAD87B047DFB7FB702DA0B6F
:10E7A200EFC454F0FB7D0F7FB712DA0B7B047DFBC5
:05E7B2007FB702DA0B45
:09EB3A007B207DDF7F5202DA0B23
:09EB43007BC07D3F7FD402DA0B98
:10DDB7008F3B78AEE6A2E35018E4FD7FDA12EAD88B
:10DDC70012EA13E53BF4FDE53B4406FB7FDA12DA82
:02DDD7000B221D
:10E4E100EFF4FDE4FB7FDA12DA0B7D387FDA12E814
:0AE4F10032EF7006FD7FDA12EAD860
:01E4FB0022FE
:01EC310022C0
:087B7D008F228B238A24892545
:107B8500E522600464017057E522127CBBE5227C86
:107B9500017003FD80027D80AB23AA24A925127CF8
:107BA500CDE522127CC4E5227C017003FD80027DB7
:107BB50080AB26AA27A928127CCDE52244A0FD7F0B
:107BC5006712EAD8E5227C017003FD80027D80AB57
:107BD50029AA2AA92BD2067F6612D6D6027CB3E53E
:107BE5002264026009E52264036003027CBAE4F5BD
:107BF5002EE4F555F551E52E7014E5225401127C5D
:107C0500BBE5252410F9E435248523528030E52E83
:107C1500B40114E5225401127CC4E5282410F9E4CA
:107C250035278526528017E522540144A0FD7F673C
:107C350012EAD8E52B2410F9E4352A852952F553A3
:107C45008954E4F52FAB527E00E554252FF9EE3526
:107C550053FA90FFF0124509FF740C252FF8A6077B
:107C6500052FE52FB410DEE4F52CF52DE5227E0178
:107C7500B402047F0080027F80C3E52D9FE52C9E22
:107C8500502012A96CEFC454F0F52F12A96CEF42E5
:107C95002FAD2F7F6612EAD8052DE52D70CE052C68
:107CA50080CA052EE52EC394035003027BF67D4062
:057CB5007F6712EAD810
:107CBA00224480FD7F6712EAD8224490FD7F671232
:0B7CCA00EAD822D2067F6612D6D6222E
:10CDCB008B228A2389247B807D3F7F6B12DA0BAB0E
:10CDDB0022AA23A924D2067D187C007F6912D6D6FD
:10CDEB007B407D3F7F6B12DA0BAB25AA26A927D29E
:10CDFB00067D187C007F6A12D6D67D387F6B02EADF
:01CE0B00D84E
:10D91000787AE6540F9008CA12632BC003C002C085
:10D920000175F003EF9008CA12632F8B288A2989AA
:0AD930002AD001D002D00302D0F08B
:10D0F0008B258A2689277DB07F1C12EAD8AB25AA0A
:10D1000026A92712D11D7DC07F1C12EAD8AB28AA00
:10D1100029A92A12D11DE4FD7F1C02EAD8D2067D7E
:09D12000807C007F1D12D6D6228E
:10CA970078AEE65470C4540F701D90F831E0FFD3A0
:10CAA70094024006EF24FEFF800590F831E0FF8FE7
:10CAB7000E8F0D8F0C800A90F831E0F50EF50DF50D
:10CAC7000C7D807F6412EAD812633B7F6512D6D64D
:07CAD700E4FD7F6402EAD8D0
:10C0A500E4FB74352BF582E434F8F583E0FF7E007C
:10C0B50090F832E0FD7C0012458CEF7807CEC31373
:10C0C500CE13D8F9FFD394FFEE940040087C007E90
:10C0D500007FFF80027E00740C2BF8A6070BBB03C4
:10C0E500C17D837F6412EAD812633B7F6512D6D681
:07C0F500E4FD7F6402EAD8BC
:01EC320022BF
:10D7B80090F82AE0F50CA3E0F50DA3E0F50E7D80C6
:10D7C8007FDC12EAD87D847FDC12EAD812633B7FC3
:0BD7D800DD12D6D6E4FD7FDC02EAD8AB
:10D5ED0090F82DE0F50FA3E0F510A3E0F5117D8087
:10D5FD007FDC12EAD87D877FDC12EAD87A00790FBA
:0FD60D0012633F7FDD12D6D6E4FD7FDC02EAD840
:06EBEB0012D7B802D5EDBF
:10D358008F228D238B24E4FB7DDF7F6C12DA0B7B1D
:10D36800207DDF7F6C12DA0BAD227F6D12EAD8AD1B
:10D37800237F6D12EAD8AD247F6D12EAD8E4FB7DD5
:06D38800DF7F6C02DA0BEE
:10DC04008B228A2389247D807F6E12EAD8AB22AAD4
:10DC140023A924D2067D307C007F6F12D6D6E4FD82
:05DC24007F6E02EAD84A
:106E1F008F2612639690F83FE0FEA3E0FFE4FCFD9F
:106E2F001262F3908329E493FE740193FFE4FCFD57
:106E3F001246AB1264058C0C7864126301AB0FAA77
:106E4F000EA90DA80C1246C6C006C00790F83D1239
:106E5F006399D007D006124751C0041262F812622C
:106E6F00FFD0001246C6C006C007126396D007D0E7
:106E7F00061264028C0C78ADE6FFC37869E69FFFBB
:106E8F0018E69400FEE4FCFDC0041262F8126416CA
:106E9F00FFE4D0001246C6C0041262F8786612638F
:106EAF0001D0001246ABC006C00778ACE6240AFF3B
:106EBF00E433AB07FAE4F9F8D007D0061246B8125C
:106ECF00643F8C10E52630E0061263B6026F5BE577
:106EDF002630E13D78641263017B807A02F9F81263
:106EEF0046C6C006C00790F83D126399D007D0067A
:106EFF00124751C0041262F81262FFD0001246AB63
:106F0F00E5132FFFE5123EFEE5113DFDE5103C8038
:106F1F00051263B6351012643FF510D37863E6940B
:106F2F009018E6940650161262FF1263C412643D65
:106F3F00F5107B107DEF7F1912DA0B8014E5132407
:106F4F0080FFE5123402FEE43511FDE412643DF5D5
:106F5F0010C3E513950FFFE512950EFEE511950D84
:106F6F00FDE510950C126405F50C12641612639D65
:106F7F00AF0FAE0EAC0C1247518F1A12641612637C
:106F8F009DAF1AFCFDFE1263D2FCE47B10FAF9F8F8
:106F9F001247518F1BE4FB7DFD7F4312DA0BAD1AB5
:0F6FAF007F4012EAD8AD1B7F4112EAD8AF1A22F9
:0875EF008F288E278D268C25C4
:1075F700E4FF7E041264B31246C67B007AA07905C5
:1076070078001247518E298F2AD3E52A94FFE5295E
:107617009400401C752B01E52A2402FFE43529FE5E
:10762700EF7802CEC313CE13D8F9F52A8E2980132B
:10763700752B02E52A2401FFE43529C313F529EF49
:1076470013F52AAE29AF2A7C007D6412458C7C0E87
:107657007D5312459EEF14F511E4F512E511C3941D
:1076670008400974F82511F511431208E511C39470
:1076770004400974FC2511F511431204E511C39464
:1076870002400715111511431202E511C394014079
:10769700051511431201E52A24FEF50CE52BB4016B
:1076A700047F0080027F10EF4406F50DE512448049
:1076B700F50E750F17126429C2067D047C007FAE94
:1076C70012D6D67B027DFD7FB212DA0B7D807FB1A9
:1076D70012E832EF24FF50197B407DBF7FB112DAE9
:1076E7000B7F027E0012E688E4FB7DBF7FB112DAD2
:1076F7000BE52B75F002A4AEF012639DFFFE7D77BC
:107707007C011247511262F6AE29AF2A126410E4C7
:107717007B08FAF9F81264028C0C780F1247F412FE
:10772700643F8C10E47FE87E031264B31263D2FCDB
:10773700AB13AA12A911A8101247518E298F2A53E9
:10774700290F7B017DFE7FBB12DA0BAF2AAE290220
:02775700DF89C8
:109E3400786FE6FE08E6787C1264EA7871E6FE083C
:109E4400E6787E1264EA7873E6FE08E6FF7B007A21
:109E540000792412AE0AC3E5259432E52494005017
:109E640004785E806E126416FF7873E6FC08E6FDE3
:109E7400C39FEC9E5034C3ED9FFFEC9ECF2525CFAE
:109E84003524FEC3EF9432EE94005016C3785FE697
:109E94009525FF18E69524CF24327881F6E43F18FF
:109EA400F6227880A60408A60522785FE62525FF19
:109EB40018E63524FEC3EF9DFDEE9CFCC3ED943201
:109EC400EC9400500CEF24CE7881F6EE34FF18F6B3
:0F9ED400227873E6FE08E6FF7880A60608A60748
:019EE300225C
:10AE0A008E388F398B3A8A3B893C7862E6FE08E6AF
:10AE1A007803C333CE33CED8F9FF7C007D0A1245BE
:10AE2A009EC3785F1264A4C313FEEF13FFAB3AAA62
:10AE3A003BA93CEE8FF012468CE6FE08E6FFD3E50E
:10AE4A00399FE5389E401412648EE5399FFFE53834
:10AE5A009EFED3EF9DEE95F0400122126416FFD3B9
:10AE6A00E5399FE5389E501412648EEF9539FFEE4E
:0EAE7A009538FED3EF9DEE95F0400122D322D5
:0448EB008E308F314B
:1048EF007F2012DDB77B007A007936AF31AE301200
:1048FF00AE0A4009785EE6F53008E6F531750C042E
:10490F00750D4F750E24750F15126429C2067D049F
:10491F007C007F9812D6D6750C1CE4F50D750E37FA
:10492F00FB7A00790CC2067D03FC7FA112D6D678E4
:10493F005A126301C0041262F8126416FFE4D00029
:10494F0012630A4013E531AE307802C333CE33CE53
:10495F00D8F9F5318E30800BE53125E0F531E530B2
:10496F0033F53075100075116475350BAF35E4FCF8
:10497F00FDFE7B3E1262F012640CC004C005C0063F
:10498F00C007786A1263017BC07A031262F1D00705
:10499F00D006D005D0041247518F34E4FCFDFE122F
:1049AF00649AC0041262F8786A126301D00012464A
:1049BF00C6C004C005C006C0071264BE1262F11261
:1049CF00640CD003D002D001D0001247518E0C8F4F
:1049DF000DD3E50D94A8E50C940C5003024AA07476
:1049EF0080250DF50D74F3350CF50CD3E50D9511F0
:1049FF00E50C9510500C850C10850D118534328502
:104A0F003533E5342401FFE433FEE4FCFD12649AF0
:104A1F00C0041262F8786A126301D0001246C6C051
:104A2F0004C005C006C0071264BE1262F112640C06
:104A3F00D003D002D001D0001247518E0E8F0FD36A
:104A4F007480950F740C950E400C7480950FFF7445
:104A5F000C950EFE800AE50F2480FFE50E34F3FE61
:104A6F008E0E8F0FC3E50F9428E50E94005007E5C7
:104A7F003404F532801ED3E50F9511E50E951050D5
:104A8F0018850E10850F11E53404F5328535338006
:104A9F0008853432853533800C0535E535C39430C0
:104AAF00500302497B785A126301C0041262F81254
:104ABF006416FFE4D00012630AE530400E13FEE5E2
:104ACF003113FFEEC313F530EF8006C313F530E556
:104ADF003113F53178C6E6134003024C107B007A90
:104AEF0000791AC2067D027FA512D20A051A051A8D
:104AFF00051B051B7B007A007918C2067D027FA972
:104B0F0012D20AE518540FFEE5192401F519E43EF7
:104B1F00F518E4FD7F9F12EAD87D077F9F12EAD830
:104B2F00126429D2067D047FA012D20AAF1BAB07F5
:104B3F00E4FAF9F8AF32FCFDFE1262F3AE18AF19CA
:104B4F0012641012643F8C10AF33AB07E4FAF9F81C
:104B5F00AF1AFCFDFE1262F312640C8F178E168DC6
:104B6F00158C141264F1A814AF0FAE0EAD0DAC0C72
:104B7F00124751AB13AA12A911A8101246C61264FC
:104B8F00058C0CAF13AE12AD11AC101264F1A8145A
:104B9F00D31247E3402C1262E2C3E5179513FFE5EA
:104BAF00169512FEE5159511FDE5149510FC1246AC
:104BBF00C6E50F2FFFE50E3EFEE50D3DFDE50C3C76
:104BCF00801E1264F11262E2C3E5139517FFE5121E
:104BDF009516FEE5119515FDE5109514FC1263D29F
:104BEF00126405F50C7D207F9F12EAD87D227F9FEE
:104BFF0012EAD8126429D2067D047C007FA012D657
:104C0F00D6785A126301C0041262F8126416FFE4D8
:104C1F00D00012630AE531400C24FFE53034FF5415
:104C2F000F4410800824FFE53034FF540FFB7DE064
:104C3F007FA912DA0BE53114FD7FAA12EAD8E5320B
:104C4F0024FEFD7FA512EAD8E53324FEFD7FA612D0
:104C5F00EAD8E53275F004A4FFAEF07C007D0A12AD
:104C6F00459EC3EF9405EE940050087C007E007FB4
:104C7F00008008EF24FBFFEE34FFFE8F11E4F512E6
:104C8F00E511C3943C400974C42511F5114312106A
:104C9F00E511C39428400974D82511F51143120862
:104CAF00E511C39414400974EC2511F51143120456
:104CBF00E511C3940A400974F62511F51143120248
:104CCF00E511C39405400974FB2511F51143120139
:104CDF0005120512AB127DE07FA712DA0B78C6E63C
:104CEF0013402112E3627D207F9A12EAD87F0112CE
:104CFF00CF4C7F0112CF4C7D247F9A12EAD878C611
:104D0F00E64401F678C6E61350077D687F9F12EAE6
:104D1F00D87F0412CF4C7F0412CF4CE4FD7F9F123B
:0A4D2F00EAD812EA137F3802DDB75C
:0272E3008F37E3
:1072E5007F3012DDB753373F1262FFFB7A60F9F842
:1072F5001246C6C006C007786AE6FE08E612639D18
:10730500D007D006124751E47BA512649C7B407AD6
:1073150042790F78001247518E398F3AD3E53A9466
:1073250040E53994005005C374408003C3748095CB
:107335003AFFE49539FE8E398F3AAF377E00C3EFB9
:10734500953AEE95394006EF953AFF8006C3E53A42
:107355009537FF8F0CE50CD3940C400AE50C94345B
:1073650050047F0080027F018F387866E6FE08E6CC
:10737500FFC3787096EE189650191264A2FE78AC89
:107385001263EC400EED786726FFEC1836786FF641
:1073950008A607786FE6FE08E678661264C9401508
:1073A50078AC1263E6400E7867E69DFF18E69C7898
:1073B5006FF608A60778ACE6786726FFE41836FE70
:1073C500C3EF787096FFEE1896CF240AF50DE43FCB
:1073D500F50CD3E53A940CE5399400401CE53724C7
:1073E5000CFFE433FEC3EF953AEE95395005126470
:1073F500D48020AE0CAF0D801AE53A2434FFE43575
:1074050039FEC3E5379FE49E50051264D48004AE6F
:107415000CAF0D8E398F3A7B407DBF7FA912DA0BF9
:10742500785A126301C0041262F8126416FFE4D0A0
:107435000012630A4007E53725E0FB8002AB377D84
:10744500807FAC12DA0BAF3AAE3912E71AE5383362
:10745500333354F8FB7DF77F0712DA0B12DE821205
:07746500EA137F3802DDB7D6
:07EBC8007875E6FF0272E31D
:10AD8A007F1012DDB77868E6FE08E6FFC378729690
:10AD9A00EE189650191264A2FE78AD1263EC400EBA
:10ADAA00ED786926FFEC18367871F608A6077871EF
:10ADBA00E6FE08E678681264C9401578AD1263E6C3
:10ADCA00400E7869E69DFF18E69C7871F608A6079A
:10ADDA007868E6FE08E6C3787296FFEE1896FE7863
:10ADEA00ADE6C39FFFE49EFE12DF6912DE827F207A
:10ADFA0012CF4C7F1012CF4C12EA137F3802DDB704
:10C84600EF540FFEC454F0F50CEDBF070C5407C4AB
:10C856003354E04410F50D801D5407C454F0FFE531
:10C86600275401C433333354804FFFEB5403FE2562
:10C87600E025E04FF50D126429C2067D027C007F9B
:0BC886001712D6D6E4FD7F1702EAD897
:10E6BA008F23129B60E52390F8017005E054FDF06A
:08E6CA0022E054FD4402F0229D
:109B6000AD07D3ED648094FE40027D7EC3ED64803A
:109B7000948E5009ED6480948040027D0EEDFF3399
:109B800095E0FEEF2401FFE43EA2E713EF1325E08A
:109B9000F50C78AEE65470C4540F14600824FA50E3
:109BA000222407704DED13AF0C7E007CFF500A7D20
:109BB000C1126430E4F50E80397DC0126430750E38
:109BC00002802FED13AF0C7E007CFF50047DB88027
:109BD000027DB7126430EF75F002A47C00250CFF03
:109BE000EC35F0FEC3E49FFFE49EFE7D021245F3D8
:109BF0008F0E750F037510327511CE7D807F261282
:109C0000EAD8126429D2067D067C007F2712D6D6B8
:079C10007D407F2602EAD827
:02AAFE008F24A3
:10AB0000E4F525E52464027021F52512AB6875F0A3
:10AB100003E525900E5012632FD2067D337C001280
:10AB2000AB77940540E57DDF8038E4F52512AB680E
:10AB3000E52475F004A47C002525FFEC35F0FE909B
:10AB40000E2075F003EF12486FEE75F003A4258315
:10AB5000F58312489DD2067D3312AB77940440CD25
:07AB60007DDE7FE012EAD860
:10AB670022AD257FE112EAD8E4FD7FE212EAD8227E
:0BAB77007FE312D6D60525E525C3229A
:069D82008B248A258926CE
:109D8800129E18532AFCAD2A7FE412EAD87D037F7D
:109D9800E612EAD8E4F52AAB24AA25A926129E28B9
:109DA8002526F526E43525F525052AE52AC394094F
:109DB80040E5129E18E52A54FC4401F52AFD7FE48B
:109DC80012EAD8E4FD7FE612EAD8E4F52AAB27AA1E
:109DD80028A929129E282529F529E43528F52805DA
:109DE8002AE52AC3941440E57F2012CF4C90F80F3F
:109DF800E0FF540764046006EF1263FA70047D2CD8
:109E080080027DAC7FE412EAD87D807FE502EAD843
:109E18007B007A00792AD2067D017FE412D20A22D9
:0C9E28001244F0FD7FE712EAD87401221A
:10D7E3007B407DBF7F6012DA0B7B807D7F7FE01201
:10D7F300DA0B7B807D7F7FE412DA0B90F816E0FF73
:0BD8030012DAD490F817E0FF02DAFA06
:10D38E00126322C003C002C0011264AB12632F12DB
:10D39E0064F8D001D002D003129D82E4FB7DBF7FE2
:10D3AE006012DA0BE4FB7D7F7FE012DA0BE4FB7D8B
:06D3BE007F7FE402DA0BA0
:10B3B40012641D64046011BF0514E05407FFBF0448
:10B3C4000D90F801E020E00612647AF08006126421
:10B3D4007A4408F090F80FE05418FF131313541F25
:10B3E400700280361263F66401703590F83BE0FC1D
:10B3F400A3E0FDA3E0F52AA3E0F52BE4FBFAFFFEAE
:10B4040012B25990F83BE0FEA3E0FFA3E0FCA3E0F6
:10B41400FD12BE8812641DBF040302D38E12D7E34B
:01B424002205
:10B259008E248F258C268D278A288B29E52745263C
:10B269006061E52B452A605B7B807D707F6012DA27
:10B279000BE5245407F50CAD258D0DE5252527E5AE
:10B289002435265407F50EED2527F50FE528540733
:10B29900F510AD298D11E529252BE528352A540707
:10B2A900F512ED252BF5137F2012CF4C126429D20C
:10B2B900067D087C007F6112D6D6E4FB7D707F6035
:04B2C90012DA0B2268
:10BE88008C248D25AB07AA06E4F9F8FFFE7DC07C5B
:10BE98003F124751C006C007AE24AF25AB07AA061C
:10BEA800E4F9F8D007D0061264028C0CE4FB7DFCA0
:10BEB8007FE412DA0BE4FD7FE612EAD8E50FFFE52E
:10BEC8000EFEE50D543FFDE4126405F50CFB7A0007
:0CBED800790DD2067D03FC7FE702D6D670
:10DAD4008F241263F6FFBF01037524807B867D705B
:10DAE4007F6412DA0BAF241263357F6512D6D6E455
:06DAF400FD7F6402EAD888
:10DAFA008F241263F6FFBF01037524807B897D7032
:10DB0A007F6412DA0BAF241263357F6512D6D6E42E
:06DB1A00FD7F6402EAD861
:0484A4008D45A90752
:1084A800E9540F14603314605C14700302853A14A5
:1084B800700302856424046003028598E954F0FF80
:1084C800700590F8118074BF1003028588E954F094
:1084D80064206003028598800EE954F0FF700590CF
:1084E800F81A8057BF100A90F81AE0FF90F8118028
:1084F8003BE954F06420600302859890F81AE0FF85
:1085080090F8138027E954F0FF700590F813802B3A
:10851800BF100A90F81AE0FF90F813800FE954F0A2
:108528006420706C90F81CE0FF90F813E02FC313E0
:10853800800AE954F0FF700990F81CE07A00FB808B
:108548004FBF100C90F81CE0C313FF90F813803A4B
:10855800E954F064207039126481802EE954F07077
:108568000C90F815E0C313FF90F81E801DE954F035
:10857800FFBF10051264818011E954F0FFBF20107D
:1085880090F811E0C313FF90F81EE02FFBE433FAD4
:10859800EB25E0FBEA33FAC3EB9410EA648094809D
:1085A800E545401D90E8FA93FD7C00EB24F0FFEAD6
:1085B80034FF1264DF7F0025E0FEEF2DFFEC3E80E4
:1085C8001A90E90293FD7C00C374109BFFE49A1291
:0F85D80064DF25E0FEC3E49DFFEE9CFE1264739A
:0185E7002271
:0A78BE008F378C388D398A3A8B3BE6
:1078C800127A14E4FD7FE212EAD8E537540F700902
:1078D8007D031279FA7D8C804BE537540FFFBF0189
:1078E800097D051279FA7D88803AE537540FFFBF84
:1078F80003097D0B127A077DC88029E537540FFFED
:10790800BF04097D0F127A077DCC8018E537540F24
:10791800FFBF02157D087FE312EAD8E4FD7FE3127A
:10792800EAD87DCC7FE312EAD8127A14E53754F00E
:107938002403FD7FE212EAD8754001AD40AF37124B
:1079480084A4E539253BFDE538353A12646FAC3837
:10795800AD391263A4C3EB9FF542EA9EF541AD40F1
:10796800AF371284A4E53D253FFDE53C353E126462
:107978006FAC3CAD3D1263A4C3EB9FF544EA9EF5A2
:1079880043D3E542947FE541648094804008754183
:107998000075427F8013C3E5429480E5416480947A
:1079A8007F50067541FF754280D3E544947FE543D7
:1079B80064809480400875430075447F8013C3E554
:1079C800449480E5436480947F50067543FF754472
:1079D80080AD427FE312EAD8AD447FE312EAD805CE
:1079E80040E540C3940950030279437DDF7FE002FC
:0279F800EAD8CB
:1079FA007FE312EAD8E4FD7FE312EAD8227FE3129A
:107A0A00EAD8E4FD7FE312EAD822E537540FFD7F76
:057A1A00E112EAD82290
:06B9FF008F258D828C8370
:10BA0500E525C394085024C374089FFFE49400FE01
:10BA1500AC2AAD2B1263AC8E338F34C374089525D5
:10BA2500FFE49400FEAC2CAD2D80151264FFAC2E06
:10BA3500AD2F1263AC8E338F341264FFAC30AD3151
:10BA45001263AC8E358F36AD82AC838A3C8B3D85D7
:0EBA5500353E85363FAB34AA33AF320278BEA1
:104D39008F2412641D64046011BF0514E05407FF39
:104D4900BF040D90F801E020E00612647AF08006B5
:104D590012647A4408F0E524703D90F810E012647A
:104D690046752F907530FF7531D0E4F5327BFE7AA8
:104D7900017DFFFC124FAE12645712503875322074
:104D89007BFE7A01E4FDFC1250387532117BFE7A04
:104D990001E4FDFC024ECDE524640170591263481B
:104DA9007532217B547A017DAC7CFE12B9FF90F8F3
:104DB90012E0FF752A00752B38752C00752D70755A
:104DC9002E00752F38126367753202E4FBFA7D02F3
:104DD9007CFE12B9FF1263487532127B547A0112B4
:104DE9004EF37532227BAC7AFE124EF37532237B79
:104DF900AC7AFE024E44E5246403704690F819E04B
:104E0900FF752A00752B70752CFF752DD012636103
:104E19007532017BFE7D017CFF124F8375321112C1
:104E29004F207532217B547DAC7CFE124F83753245
:104E390020124F207532127B547A017DAC7CFE0220
:104E49004ED6E5246404703A90F81BE0FF752AFFFA
:104E5900752BC8752C00752D701263897532037D09
:104E6900017CFF124FD7753213124F507532237DD3
:104E7900FF7C00124FD7753222124F501264630221
:104E89004ED6E5246402701812636E7532231264DB
:104E99006612500412B9FF12636E126463024ED691
:104EA900E5246405702A90F810E0C313FF90F81DFB
:104EB900E02F126446752FC8753000753170126481
:104EC90057125004124FAE75322412645A12B9FFA8
:104ED90090F801E030E0091263F660047B808002FB
:104EE900E4FB7D7F7FE012DA0B227DAC7CFE12B9F8
:104EF900FF90F81BE0FF90F812E02FC313FF752A0B
:104F0900FF752BC8752C00752D70752E00752F38FF
:104F19007530FF753190227BFE7A01E4FDFC12B9F0
:104F2900FF90F812E0FF90F819E02FC313FF752ADC
:104F390000752B38752C00752D70752EFF752FC8CF
:104F49007530FF753190227BAC7AFE7DAC7CFE1208
:104F5900B9FF90F81BE01313543FFF90F814E02FAA
:104F6900FF752AFF752B90752C00752D30752E0055
:104F7900752F70753000753130227A0112B9FF90A2
:104F8900F819E0FF90F810E02FC313FF752A007598
:104F99002B70752CFF752DD0752EFF752F907530E0
:104FA900FF7531D02212B9FF90F810E0C313FF90BA
:104FB900F81DE02FFF752A00752B38752CFF752D0C
:104FC90090752EFF752FC8753000753170227B02E0
:104FD9007AFE12B9FF90F81BE0FF90F812E02FC398
:104FE90013FF752AFF752BC8752C00752D70752E4A
:104FF90000752F387530FF7531902212B9FF90F87E
:1050090014E0C313FF90F81DE02FFF752AFF752BDD
:10501900C8752CFF752D90752E00752F38753000C9
:105029007531707532047B517AFF7DA67C0122129D
:10503900B9FF90F819E0FF90F810E02FC313FF753E
:105049002A00752B70752CFF752DD0752EFF752FC5
:08505900907530FF7531D02283
:109C17008F23E523C43354E0FF90F80FE0541F4F20
:109C2700F0E523B40403029CCAE5236405706B9036
:109C3700F801E030E022E4FF124D397F01124D397F
:109C47007F02124D397F03124D397F04124D397F40
:109C570005124D397B808002E4FB7D7F7FE012DABD
:109C67000B90F80FE05407FFBF04117D2C7FE4121F
:109C7700EAD890F801E020E04D029CCA12B3B41272
:109C87006322C003C002C0011264AB12632F1264C7
:109C9700F8D001D002D003029D8290F80FE054E083
:109CA700C413126326C003C002C0011264AB12635F
:109CB7002F1264F8D001D002D003129D8212641DC6
:079CC70012AAFE12B3B42241
:10650900785EE6FE08E6FF7873A60608A6077866B1
:10651900E6FE08E6FF786FA60608A6077868E6FE95
:1065290008E67871FFA60608A607227864E6FE0841
:10653900E6FFE4FCFDFB7A0CF9F81246C6E47B029F
:10654900FAF9F8124751AB2AAA29A928A827C302A0
:1065590047E3786CA905AA06AB07E6FE08E6FFE45F
:1065690022E50C5407F526E50DF5277B007A00791D
:106579000C22742A2FF582E434F8F5832278B2E6E6
:106589002401FF18E43678B9FEC3EF96FFEE18969A
:1065990022742D2FF582E434F8F58322E6FC08E60F
:1065A900FDEC540FFBE7C4F854F0C809E7C4540FD5
:1065B90048547022786AE6FE08E6FBAA06E4F9F870
:1065C90022E47B02FAF9F8124751A804A905AA06A0
:1065D900AB0722E4F50FF510F511F512751301FB60
:1065E9007A00790CC2067D08FC7F76221246C6E441
:1065F9007BE87A03F9F8124751E47B127A02F9F839
:10660900D30247E378B9E62402FF18E436FEEF54D3
:10661900FCFFEEF608EFF6E52922D3AB0FAA0EA987
:106629000DA80C0247E3C3E5279525FFE526952428
:10663900FE221896FCE52925E0FFE52833FEC3ED87
:106649009FEC9E2212475178B8EEF608EFF6D394E4
:1066590002EE940022FCE6FA08E62FFFEE3AFED39A
:10666900EF9DEE9C22AB29AA2AA92B0244F07B00BC
:106679007A0079237D012278AEE65470C4540F2242
:10668900FE7867C3EF96EE189622AB32AA31A9308D
:10669900A82FD30247E3C3E69FFF18E69E22AB2F3C
:1066A900AA2EA92DA82C0247E37B007A007914C2EF
:1066B900067D0322EF26F618EE36F622E6FDD3EF25
:1066C9009D7480F86E9822AB29AA2AA92B1244F04E
:1066D900FF22E51454F075F010A4FF2274FFFFFEA9
:0A66E900FDFC22785EE6FE08E622C2
:10A0EA007875E6F523E4FD7F7D12EAD812EA137F3C
:10A0FA00FA7E0012E688127CD58F22E5227036128B
:10A10A00537D8F22E52270251260B38F22E52260EB
:10A11A000464FE7013E522B4FE0312A177127CD503
:10A12A008F22E5226018800D12A17780111265092D
:10A13A0012A181800312651712EBC812AD8AE522BB
:10A14A007006E522648060137858E6FF12D3FA128B
:10A15A009E347858E6FF12D93A800C12650912A18A
:0CA16A008112EBC812AD8A12EA13AF227A
:10A17600227875A623AF231272E32208E6FE08E6CC
:05A18600FF1248EB226E
:10E7F6001268CF8F22E522700512C891800312D0CD
:03E806007CAF22C2
:01E8090022EC
:10A3620012EA137D037F7A12E832BF03047F9680DC
:10A37200027F328F447545197F017E0012E68812F2
:10A382006574D2067D017F0312D20AE50C30E00C1F
:10A39200E4FD7F0312EAD875451980021545E545AB
:10A3A2006006E50C54C060037FFF2212E9BA78C749
:10A3B200E61350037FFF22126574D2067D017F7D72
:10A3C20012D20AE50C30E003D544AD126574D20610
:10A3D2007D017F0212D20AE4FD7F0212EAD8E50C67
:0EA3E20054637004E54470047FFF80027F0026
:01A3F000224A
:02C972008F44F0
:10C97400754519E4FD7F0312EAD87F017E0012E6B3
:10C9840088126574D2067D017F0312D20A530CC14A
:10C99400E50C30E010E544600CE4FD7F0312EAD8B6
:10C9A4001544754519E544600C1545E5456006E5F3
:07C9B4000C54C060C5AF0C7C
:01C9BB002259
:0290A7008F3701
:1090A9007873E6F53A08E6F53BAE3AFFE4FCFDC015
:1090B9000412655BD0001246C6C006C0071265BD22
:1090C900D007D0061247518E388F397B507D0F7FDC
:1090D9001312DA0BE53B2405F53BE4353AF53A740E
:1090E900E0253BF53B74FF353AF53AE539241BFF9A
:1090F900E43538126689500280047E007F018E387B
:109109008F39D3E5399420E5389400400CE53924AA
:10911900E0FFE53834FFFE80047E007F018E388F42
:10912900395337FCE53A540FFDE538C4F854F0C813
:10913900E5391265B64DF50C85390D853B0E12657D
:1091490074C2067D037C007F7012D6D685370C85E4
:10915900370D85370E1265DC12D6D612A3628F0C35
:10916900E50C6001221266B27F8112D20A1266DB17
:10917900AEF0EF4515242078B9F6E43E18F6E5146B
:10918900540FFEE516242078B2F6E43E18F67F0067
:0191990022B3
:027E29008F3098
:107E2B007873E6F53308E6F534AE33FFE4FCFDC0BA
:107E3B000412655BD0001246C6C006C0071265BDB2
:107E4B00D007D0061247518E318F327B507D0F7F7A
:107E5B001312DA0BE5342405F534E43533F53374BA
:107E6B00E02534F53474FF3533F533E532241BFF4D
:107E7B00E43531126689500280047E007F018E3119
:107E8B008F32D3E5329420E5319400400CE5322457
:107E9B00E0FFE53134FFFE80047E007F018E318FE1
:107EAB00325330FCE533540FFDE531C4F854F0C8C0
:107EBB00E5321265B64DF50C85320D85340E7860C2
:107ECB00E6FC08E6FD2402E43C540FF50F751002A6
:107EDB00AF05EF2402F511126574C2067D067C0016
:107EEB007F7012D6D685300C85300D85300E12651D
:107EFB00DC12D6D612A3628F0CE50C60012212663F
:107F0B00B27F7E12D20A1266DBEF45152403FFE423
:107F1B0035F078B3F6FC08EFF6FDE514540FFEE5EB
:107F2B00162403FFE43EFE08F608EFF6C39DFFEEB2
:107F3B009C7865126591FE12E8B6D3EF9405EE645A
:107F4B0080948040037FFF2278B6E6184670037F4B
:107F5B008022E514547FF50C85150D85160E1265E0
:0E7F6B0074C2067D037C007F7312D6D67F00A1
:017F790022E5
:06835D008F378D388B39CB
:10836300E4FD7F7D12EAD8E5375403FB7DFC7F7A79
:1083730012DA0B785A126563FCFDC004785E12654D
:108383005DD0001265F540160538E53A25E0F53A6B
:10839300C3944040097B027DFD7FA812DA0BE539C7
:1083A30014541F33333354F8FFE53854074FFD7F1C
:1083B3007B12EAD8E53A543FFD7F7C12EAD8AF3806
:1083C3007401A807088002C333D8FCF538E5398562
:1083D30038F0A4253AF537853A42E4F541F540F5FE
:1083E3003FF53EF5437D7B7F7D12EAD87F0112C9BD
:1083F300727D037F7A12E832BF03047F0380027F1A
:108403000112C972EF54C06005128493804712654C
:1084130074C2067D037F8412D20AE4F50FAF41AE26
:1084230040AD3FAC3E126623400F850F41850E40A1
:10843300850D3F850C3E854243E5382542F542C311
:10844300953740AD1284937F0112CF4C12A3628FF4
:108453000CE50C60041266E522785A126563FCFD94
:10846300C0041265D5785E126563D0001265F540CD
:108473000BE54313AB3BAA3CA93D8008AB3BAA3CAD
:0F848300A93DE543124558AF41AE40AD3FAC3E79
:1084920022E4FD7F7D12EAD8E4FB7DFD7FA812DA9B
:0284A2000B22AB
:10D80E00EF5403FB7DFC7F7A12DA0B7D3B7F7D129A
:10D81E00EAD812A3628F0CE50C600122126574C265
:0BD82E00067D047F8412D20A7F0022D6
:10537D001266EC787312652DE654FCF618125684FD
:10538D007F40127E298F24E5246001227862E6FE9B
:10539D0008E67803C333CE33CED8F9FF7C007D0AFF
:1053AD0012459E785F12669FC313F528EF13F529FA
:1053BD00E4F52AF52BF52675270A12567A60012297
:1053CD00126586FE78B1F608EFF67862E6FC08E61F
:1053DD00FDC3EF9DEE9C505DC3ED78B296FDEC12D2
:1053ED00663B400302548DAF05AE04E4FCFDC004E2
:1053FD001265D57873126563D0001246C6C006C01B
:10540D000778621265BFD007D00612664D500302B1
:10541D0054BD12660D785F26FDE528183678731297
:10542D00665E400302548D78B8E6FE08E678741285
:10543D0066BE0254A2C379B2E7786396FD19E712EE
:10544D00663B4002803AAF05AE04E4FCFDC0041299
:10545D0065D57873126563D0001246C6C006C007C5
:10546D0078621265BFD007D00612664D40421266B3
:10547D000D787426FDE5281836785E12665E4008B4
:10548D00752A00752B01800DC37874E679B997F6EE
:10549D0018E61997F6E52B452A7015787312568480
:1054AD00E52715277002152614452660030253C7FC
:1054BD00E52745266008E52B6401452A70037F80AA
:1054CD002278B1E6FE08E6FFC3786396EE189640A3
:1054DD00127974E7785F96FD19E71896FCED640470
:1054ED004C601A786312668C5040C3795FE778740C
:1054FD0096FF19E71896FEEF64044E702D1266ECB8
:10550D00FF7873EEF6FE08EFF6FF1248EB12567AAF
:10551D0060012278B2E62401FF18E436FEC3EF786D
:10552D00B99679B2F7EE189619F77873E6F52A0859
:10553D00E6F52BC37963E778B29619E718967E00E6
:10554D0040047F0480027F0278741266BDE6FE0877
:10555D00E6FF1248EB7D187F7912EAD8852A268559
:10556D002B27E4F52FF52EF52DF52CF528752906AD
:10557D007F501290A78F24E524600122126586FECC
:10558D0078B1F608EFF67863E62402FD18E436FCF0
:10559D00D3EF9DEE9C400BE4F50FF50EF50DF50CDC
:1055AD008028E4F53AF53B753C00753D257B087D7B
:1055BD00037F0312835D8F0F8E0E8D0D8C0C126683
:1055CD00E5C312662470037FFF22AF0FAE0EAD0D43
:1055DD00AC0CC31266A75015850F2F850E2E850DA9
:1055ED002D850C2C7873E6F52608E6F527E529457B
:1055FD002870161266ECFFD37874E69F18E69E406D
:10560D002AEEF6FE08EFF6801B74FE2529F52974A7
:10561D00FF3528F528787474FE26F61874FF36F6D3
:10562D00E6FE08E6FF1248EB02557DAF2FAE2EAD1C
:10563D002DAC2CE47B03FAF9F81247518F2F8E2EE7
:10564D008D2D8C2C7862126563FCFD780A1248074B
:10565D00D31266A74006AE26AF278004AE2AAF2B25
:0C566D007873EEF608EFF61248EB7F00B1
:10567900227F501290A78F24E52422E6FE08E6FF38
:045689001248EB22B6
:1060B3007F401290A78F24E5246001227D80126225
:1060C3009C70037FFF22E4FFFEFDFC12654F70030B
:1060D3007F8022126534501F7D4012629C70037FC3
:1060E300FF22E4FFFEFDFC12654F70037F80221246
:1060F300653450037FFE22E52424F8543FF53A75B6
:106103003B00753C00753D247B087D017F031283B2
:106113005D8F2A8E298D288C271266E512654F70B4
:10612300037FFF22E4FFFEFDFC12654F70037F80B7
:1061330022E52424FD543FF525FF1272E37F031269
:10614300D80EEF60037FFF22850F2E850E2D850D60
:106153002C850C2B1262D060037FFF22850F3285C2
:106163000E31850D30850C2FE5242403543FF5248F
:10617300E4F52AF529F528F5271262D060037FFF9D
:1061830022850F36850E35850D34850C33AF2EAE43
:106193002DAD2CAC2B1266934016E532952EFFE500
:1061A30031952DFEE530952CFDE52F952BFC8015C3
:1061B300C3E52E9532FFE52D9531FEE52C9530FD97
:1061C300E52B952FFC1265CAE5362532FFE53535FB
:1061D30031FEE5343530FDE533352FFCEF252EFF59
:1061E300EE352DFEED352CFDEC352BFC1246B8C0FB
:1061F30004C005C006C007AF36AE35AD34AC3312AC
:1062030066934016E5329536FFE5319535FEE53068
:106213009534FDE52F9533FC8015C3E5369532FFA4
:10622300E5359531FEE5349530FDE533952FFC12C8
:1062330065CAD007D006D005D0041246B88F0F8E9A
:106243000E8D0D8C0CAF2AAE29AD28AC2712662318
:106253004013850F2A850E29850D28850C27E525F2
:1062630014543FF52685322E85312D85302C852F0C
:106273002B85363285353185343085332FE52565D9
:1062830024600302617C7875A626AF261272E37D33
:08629300407F7912EAD87F0078
:10629B00227F7912EAD8E4F53AF53B753C00753D5F
:1062AB00247B087D037F0312835D8F2A8E298D2823
:1062BB008C2774FFFFFEFDFCAB2AAA29A928A8276F
:1062CB00C31247E322E52504543FF525FF1272E381
:0762DB007F0312D80EEF2231
:107CD5007F40127E29EF6001227F401290A7EF605E
:107CE5000122126574C2067D027F0D12D20A126549
:107CF5006AC2067D017F1112D20A7B007A00790DD6
:107D0500C2067D017F1312D20AE50D5402F524E562
:107D15000CF52578B3E6FE08E6FFC39525F525EEB7
:107D25009524F52478B612669FCF2401CF3400FE42
:107D35007864E6FC08E6FDC39FF529EC9EF528D39B
:107D4500E5299403E528648094804016EF9DFFEEB5
:107D55009CFE12E8B67C007D021245F38E288F2921
:107D65008005E4F528F52912662FC378721266A0FE
:107D7500FEC3EF786996FFEE1896CFC39529CF9588
:107D850028FE12E8B678AD1266C5501DC3E52795E5
:107D950025CFE5269524CF2529CF3528FEC3787232
:107DA500E69FF618E69EF6800312652512AD8A1247
:107DB5006574C2067D027F0912D20A12656AC2067F
:107DC5007D027F1212D20AE50D5401F524E50CF56A
:107DD50025C378B9E69525FF18E69524CF24FEF549
:107DE50025EF34FFF52412662FEF787026FFEE1885
:107DF50036FEC3EF786796FFEE1896FE12E8B67862
:107E0500AC1266C5500A12662F78701266BD800ED8
:107E15007866E6FE08E6FF786FA60608A60712EB69
:037E2500C87F0013
:017E28002237
:1068CF00D205E4F527742A252712657E7480F074AB
:1068DF002D252712659D7480F00527E527B403E564
:1068EF0012EBEB7F40127E298F23E5236001227F7D
:1068FF00401290A78F23E5236001221266777F0253
:10690F001299EBEF60037F8022E523C3946050035D
:10691F007F80221266777F011299EBEF60037F80F1
:10692F0022E523C3946050037F8022126677E4FF31
:10693F001299EBEF60037F8022E523C3946050032D
:10694F007F802278B77605126A8C752602200503A0
:10695F00026A787527307B007A007924AF2612B847
:10696F00CE8F23E523B4800122E523644060737B3F
:10697F00007A007925AF2612A2CA8F23E523B480AF
:10698F000122126680FFBF060BE5266401600575C4
:10699F0023808003752302E524B4FA06E5256523D9
:1069AF006040E527D394084030E524D394FB502969
:1069BF00E524C394F94022E5232401FFE433FED3F9
:1069CF00E5259FEE6480F8748098500DE52314FF41
:1069DF00E525C39F40037527081527E527600302A8
:1069EF006965742A252612657EE0D394F0402678D7
:1069FF00B7E6B40718E526B402057526018047E50A
:106A0F0026B40105E4F526803DC2058039752602BE
:106A1F0078B7068031742A252612657EE0C3941E4E
:106A2F00502C78B7E6B40418E526B4020575260194
:106A3F008014E526B40105E4F526800AC205800618
:106A4F0075260278B71678B7126A8C02695CE5264C
:106A5F00B4020675260102695CE526B40106E4F569
:106A6F002602695CC20502695C90F82AE06008A3FF
:0C6A7F00E06004A3E070037F80227F0031
:106A8B0022E6C45430F53B7BCFE4FD7FDC12CF0D07
:086A9B007F017E0012E6882253
:1099EB008D2E8B2F8A308931BF0304AB078005C3C3
:1099FB0074029FFB7DF87F7A12DA0BE52E703075BF
:109A0B000C12750D80F50EF50F78B3E6FE08E6FF28
:109A1B00D39409EE940040067E007F098008EF2462
:109A2B00FFFFEE34FFFE8F10E51004F51180227856
:109A3B00B179B81265A54BF50C78B9E6F50D8D0E1D
:109A4B0078B579B31265A54BF50F78B4E6F5108DA3
:109A5B0011126574C2067D067C007F7012D6D6E5A6
:109A6B002E5401C43354E04401FD7F7D12EAD81219
:109A7B00A3628F0CE50C600122AB2FAA30A931C277
:109A8B00067D017F8712D20AE52E700DAB2FAA300F
:0C9A9B00A9311244F0F41245587F00225B
:08B8CE008F288B298A2A892B9F
:10B8D6007D011299EBEF60037F80221266D0D3942C
:10B8E600FA4020EF2406F52CE4FBAD2CAF2812CA53
:10B8F600DEEF6037E4FB7D04AF2812CB24EF602B2C
:10B906007F40221266D0C394FA5020C374FA9FF582
:10B916002C7B01FDAF2812CADEEF600F7B017D0490
:0DB92600AF2812CB24EF60037F40227F008A
:01B9330022F1
:08A2CA008F288B298A2A892BB9
:10A2D200126680FFBF060BE52864016005752D80BC
:10A2E2008003752D02AB29AA2AA92BE4FDAF2812FF
:10A2F20099EBEF60037F802212666EFFD3952D40AB
:10A3020016EF952DF52CD3940840047D088004AFF8
:10A312002CAD07E4FB804112666EFFC3952D503DC4
:10A32200C3E52D9FF52C12668064067019E528643A
:10A33200016013E52CD3940840047D088004AF2CFF
:10A34200AD077B01801212666E7009E52C2404FDB4
:0FA352007B0180047B01AD2CAF2812CB247F0050
:01A3610022D9
:10CADE00E4F52DEB601A12657BE0FEC39D742A40CF
:10CAEE000912657DC3EE9DF0802612657DE4801CE3
:10CAFE0012657BE0FEC374FF9DC39E742A4008122C
:10CB0E00657DE02DF0800912657D74FFF0752D01B5
:05CB1E0012D7B8AF2D95
:01CB230022EF
:10CB2400E4F52EEB601A12659AE0FEC39D742D4065
:10CB34000912659CC3EE9DF0802612659CE4801C5E
:10CB440012659AE0FEC374FF9DC39E742D400812C3
:10CB5400659CE02DF0800912659C74FFF0752E0130
:05CB640012D5EDAF2E1B
:01CB690022A9
:10B2CD00C0008004010F80800000000000003232B9
:10B2DD00000A3200000000028002008408080808FD
:10B2ED00080896800008080808080891828A878E49
:10B2FD008E7B808080808081808387817689816E3E
:10B30D00808080CCCCCC61606367615669614E8072
:10B31D008080808080808080808080808080808020
:10B32D0080808080FFFFFFFFFFFFFFFFFFFFFFFF1C
:04B33D00FFFFFFFF10
:10568D0075F01390002712486FE40893FE74019390
:10569D00A60608F622F0A3F0A3F0A3F07B017AF89A
:1056AD00799822E6FC08E6FDECA3F0AF05A3EFF038
:1056BD0008E6FC08E6FDECA3F0AF05A3EFF008E665
:1056CD00FC08E6FDECA3F0AF05A3EFF022748C25EA
:1056DD003DF582E434F8F583E07F0025E025E0FE1A
:1056ED00EF22E52975F007A47B0124FFF974F73546
:1056FD00F0FA7E00E92528F9EE3AFA1244F0FF742B
:10570D00982528F582E434F8F58322758300124537
:10571D0009FD748C2537F582E434F8F583E025E036
:10572D0025E022E0FDEEF6ED08F6A3E0FEA3E0FD98
:10573D00EE08F6ED08F6A3E0FEA3E0FDEE08F6EDAB
:10574D0008F622AB28AA29A92A852E827583001274
:10575D004509FF90F881E0FD75F008A4252EF5822E
:10576D00E435F0F583E5822290002775F013124899
:10577D006FE493FC740193FDEC22FA7879E675F0F1
:10578D0003A4F58285F08302450975F008A4240071
:10579D00F582E5F03EF583E58224F8F582E5833464
:1057AD003FF583E0547F2274922537F582E434F877
:1057BD00F5832278AEE65470C4540FFF25E025E042
:1057CD0024FEF582E434B2F583E49390F831F0EFE2
:1057DD0025E025E024FFF582E434B2F583E493223D
:1057ED0078767C007D007AB279CD7BFF7E007F06D6
:1057FD000244CA7A002FFFEA3EFE74F82FF5827438
:10580D003F3EF583E0222F7A00FFEA3EFE74002F23
:10581D00F58274403EF583EDF02278AEE65470C407
:10582D00540F2275F008A42400FFE5F022E536544C
:10583D000375F004A42537F582E435F0F583AB3319
:10584D00AA34A935227486253DF582E434F8F58312
:10585D002224FEF58274433EF58322E6A3F008E68A
:10586D00A3F008E6A3F022E0F6A3E008F6A3E00813
:10587D00F622F090F88202481A78007CF87D017BC0
:10588D00FF7AB279D97E007F1F2275F01390002127
:10589D00227F0790F89974FF22752B01752CF975ED
:1058AD002D007B017AF979802224FFF58274433E25
:1058BD00F5832224FDF58274433EF5832224FCF505
:1058CD008274433EF5832224FBF58274433EF583B7
:1058DD0022F582E434F8F58322FD74802EF582E4FE
:1058ED0034F9F583EDF022AB38AA39A93A22E0FE5E
:1058FD00E53E5407FD7401A8050822E529241D90F5
:10590D00F898F0752801222400F582E583347BF5A3
:10591D0083E0222480F582E583347BF583E022E564
:10592D003E131313541F2290F89BF0A3EDF075F066
:10593D00132274002EF582E434F9F5832275F013E9
:0E594D0090002522AB2BAA2CA92D852E82229C
:10D83900907FFFE0641260028005127F7A40061231
:10D84900AF8102953912D9E212E34412BBEE12BD3F
:0BD859000E12DB4612C45412C2AE22B5
:1095390078C6E6A2E150277858E6FFC39410501E7A
:10954900EF1313543FFF7B007A00790C12B576783C
:1095590058E6540325E025E0240CF8E6F52312E843
:109569000A12B0F212D67A12AF0612EBF112EB4CD4
:1095790012D07C12EB1C12CB6A12EC2B12E7317859
:10958900C6E6A2E150687858E6C394105060787B2B
:10959900E6C3940F4004E4F68003787B06785AE624
:1095A900F52408E6F52508E6F52608E6F5277832D4
:1095B9007C007D007B007A0079237E007F051244C0
:1095C900CA12CE0CE4786EF6E52312594A12569364
:1095D900E52312568DE523125897125693E408F69F
:1095E900787BE6FF12D3FA787BE67858F62278C6BC
:1095F900E6A2E1400B7858E6FF9446500312BF40BB
:01960900223E
:10D3FA00786EE6FEC433333354804F90F898F008C1
:10D40A001256B008E6A3F078C6E6A2E14007125623
:10D41A00A9E4FF800C78C6E6A2E150081256A97F5B
:05D42A000312986322CB
:02BF40008F2848
:10BF420078C6E6FFA2E14005E4F5298008EFA2E108
:10BF520050037529031256A9AD28AF2912B5E45032
:10BF62001A90F898E0C41313135401786EF6A3E004
:10BF7200FEA308125730A3E008F622E4786EF6E535
:10BF82002812594A125693E52812568DE52812585E
:07BF920097125693E408F634
:01BF99002285
:10B0F200E4F5281256A9AD28E4FF12B5E4503290C7
:10B10200F898E528F090002512577890F899F0A366
:10B11200EDF0E528125775125934E52890002112F6
:10B12200577B90F89DF0A3EDF0E41256A7FF12981A
:10B13200630528E528C3944640B9E4F5281256A9C8
:10B14200AD287F0312B5E4501590F898E528F01267
:10B15200589EF0A3DFFC1256A97F031298630528BC
:07B16200E528C3941040D65C
:01B1690022C3
:10CE0C00E535540FFEE4C4F8540FC868FFEEC45463
:10CE1C00F048FEE533540F4EF533EF4534F53478D6
:10CE2C007BE690F898F0A3E532F0E533A3F0A3E5A8
:10CE3C0034F0A3E536F0A374FF1256A47F020298D7
:01CE4C006382
:08B576008F328B338A348935D2
:10B57E00E53225E025E0F536E53275F004A4240425
:10B58E00FFE435F0FEC3E5369FEE6480F8748098D4
:10B59E0050431256A9AD367F0212B5E45020E4F5A1
:10B5AE003774992537F582E434F8F583E0FF1258A5
:10B5BE003AEF12456A0537E537B404E58012E4F533
:10B5CE003712583A74FF12456A0537E537B404F15D
:05B5DE00053602B586F0
:01B5E3002245
:10D67A00E4F5281256A9AD287F0212B5E450159098
:10D68A00F898E528F012589EF0A3DFFC1256A97FFD
:0DD69A00021298630528E528C3941040D6BD
:01D6A7002260
:10D93A0078C6E6FEA2E140057524018008EEA2E160
:10D94A00500375240490F898EFF0787C1256B0A32F
:0AD95A0074FF1256A8AF2402986370
:02C3AD008F24DB
:10C3AF0078C6E6FFA2E140057525018008EFA2E1FE
:10C3BF0050037525041256A9AD24AF2512B5E450CC
:10C3CF000C90F899E0FEA3787C1257302275F01389
:10C3DF00E52490002512486FE4787C12569875F08A
:10C3EF0013E52412569075F013E524900021125690
:01C3FF0093AA
:01C400002219
:10AF0600E4F5281256A9AD287F0112B5E450359014
:10AF1600F898E528F012594A12577B90F899F0A351
:10AF2600EDF0E528125775125934E52890002112E4
:10AF3600577B90F89DF0A3EDF0A374FF1256A87FFF
:10AF4600011298630528E528C3944640B6E4F5281F
:10AF56001256A9AD287F0412B5E4501590F898E56D
:10AF660028F012589EF0A3DFFC1256A97F0412980F
:0AAF7600630528E528C3941040D6B7
:01AF800022AE
:10E59E0090F8987401F0787612586808125868A3AB
:0AE5AE0074FF1256A87F050298635F
:10E344001256A97D017F0512B5E4500E90F8997814
:0EE3540076125874A308125874221257ED2244
:06EBF1001257ED02E59E43
:10C71600E4F529F5291259081256EFEFF00528E538
:10C7260028B408F41256A97F051298630529E5294D
:10C73600C3940440E01259081256EFEFF00528E5BD
:10C7460028B403F475280312570C74FFF00528E586
:0CC7560028B408F31256A97F050298636E
:10BBEE00E4F522E522241DFD1256A97F0512B5E4C7
:10BBFE00503E752301E522B404047F0380027F08C2
:10BC0E00E523C39F503074982523125710E0FDE5AD
:10BC1E002275F007A47B0124FFF974F735F0FA7E44
:10BC2E0000E92523F9EE3AFAED124558052380C5B1
:0FBC3E001258860244CA0522E522C3940540A489
:01BC4D0022D4
:09EB4C001258861244CA02C716D1
:10C8910012582770047F0280027F0390F898EFF00E
:10C8A10090F82AE090F899F090F82BE090F89AF03F
:10C8B10090F82CE090F89BF090F82DE090F89CF027
:10C8C10090F82EE090F89DF090F82FE090F89EF00F
:0BC8D10078B7E61256A77F05029863B7
:10BD0E0012582770047D0280027D031256A97F050A
:10BD1E0012B5E4503890F899E090F82AF090F89A1D
:10BD2E00E090F82BF090F89BE090F82CF090F89CB7
:10BD3E00E090F82DF090F89DE090F82EF090F89E9F
:10BD4E00E090F82FF090F89FE078B7F622782A7CF2
:0FBD5E00F87D017AB279F81257F778B776052297
:10D07C00125827F528782A7CF87D017BFF7AB27943
:10D08C00F81257F978B7760578AEE6548FF612C8D1
:10D09C009178AEE6548F4460F612C891E528C454DA
:09D0AC00F0FF78AEE6548F4FF658
:01D0B5002258
:10DB2000125827240490F898F090F831E090F89972
:10DB3000F090F832E090F89AF0A374FFF0A3125638
:06DB4000A27F05029863BC
:10DB46001258272404FD1256A97F0512B5E4500E7B
:10DB560090F899E090F831F090F89AE08003125727
:06DB6600C090F832F0222D
:0AEB1C001257C090F832F002DB201F
:10D2EA0012582775F005A4FF7879E6540F24092F00
:10D2FA0090F898F090F835E090F899F090F836E0C8
:10D30A0090F89AF090F837E090F89BF0A374FF1227
:07D31A0056A27F0502986393
:10C454007879E6540F2409FD1256A97F0512B5E434
:10C46400501690F899E090F835F090F89AE090F82A
:10C4740036F090F89BE080257BFF7AB379047879D5
:10C48400E6FF12578B90F835F07AB30975F003EF95
:10C4940012578E90F836F07AB30912578890F8370D
:02C4A400F02284
:10CB6A0012582775F00FA4FFAEF02404F974B33EEF
:10CB7A00FA7BFF12578890F835F074052FF974B3D1
:10CB8A003E12578790F836F078AEE65470FFC454D8
:10CB9A000F75F00FA42406F974B335F01257879075
:06CBAA00F837F002D2EAA8
:10C2AE0090F881E07002802590F881E0FF541F60C5
:10C2BE003EEFC3942050197420F0752BFF752C821D
:10C2CE00752DA77BFF7A82792712A50DE4FF8021B9
:10C2DE0090F881E0C4135407C43354E0F07F011288
:10C2EE00BF9A90F881E02420F01258A602A50D7F87
:05C2FE000112BF9A22AD
:10BF9A0090FF207406F0EF701AFEEE90822793123B
:10BFAA0058E6EE9082A793FD12593FEDF00EBE803F
:10BFBA00E9802FEF6401702AFE90F881E0FF75F0A6
:10BFCA0008A42E12576B1259141258E675F008EF8E
:10BFDA00A42E12576B125920FF12593FEFF00EBED2
:08BFEA0080D790FF207407F0DE
:01BFF200222C
:03EC2B0002C2AE74
:06A50D008B288A29892A2F
:10A51300E4F52E1257501259146F701D125951F54C
:10A5230083124509FF75F008ED125768125920B5DB
:10A533000707052EE52EB480DAE52EC39480505626
:10A5430090F881E0C3946040107F1F12E48D907FE8
:10A55300FF7412F0E490F881F0E4F52E12575024C2
:10A5630000F582E583347CF583EFF012595175834E
:10A5730000124509FF75F008ED1257682480F58233
:10A58300E583347CF583EFF0052EE52EB480CD9082
:06A59300F881E02420F035
:01A59900229F
:06EBF7001258A602A50D54
:10AF81007F1F12E48D400122752210AF2212E48D41
:10AF91004001220522E522C3941640EFE4F522E5A3
:10AFA100221256E61258B6E522F0EF12585EE4F08E
:10AFB1001258C0E4F01258CAE4F01258D4E522F055
:10AFC1002486125856E522F0248C1258DEE522F030
:10AFD10024921257B8E4F00522E522B406C1907F0D
:10AFE100FF7412F090F8807406F090F88212483ED7
:0AAFF10000000000E490F881F0D3A6
:01AFFB002233
:10E48D00EF33333354F8440190FF39F07BFF7AEAD0
:0CE49D0079F07F2812E39E400122D32278
:107F7A00E4F527F526F525F524F52890F882124828
:107F8A003E00000000E4F52274862522125856E5C8
:107F9A0022F00522E522B406EFE4F523E4F522E512
:107FAA00221256E61258B6E0FD7486252312585658
:107FBA00E0FFED6F600302807BE522FB1256E612BA
:107FCA0058C0E0FCEF1258CAE06CFCEB1256E812FB
:107FDA00585EE06CFFED6FFDE5221256E61258D4AA
:107FEA00E06D600302807B748C25231258DEE52243
:107FFA00F0FF12DC29749225231257B8EFF0E5221C
:10800A007D0025E025E0FCED24FDF58274433CF576
:10801A0083E07B00FAED24FCF58274433CF583E0AF
:10802A007E007810C333CE33CED8F9FFEE4AFCEF88
:10803A004BFDE5221256E612585EE0FFECFEED4FCC
:10804A00FFE48F278E26F525F524125880AB27AA40
:10805A0026A925A824D31247E34029AF27AE26AD87
:10806A0025AC2490F88212483290F880E522F080FC
:10807A0013E522B40E02C3220522E522C3940F504F
:10808A0003027FA90523E523C394065003027FA6B2
:10809A007F0F12DC2990F881EFF0E4FFFEFDFCA3CC
:1080AA00124826C31247E390F88070057406F080E0
:0C80BA000AE0FF12D4CA90F880EFF0D367
:0180C6002297
:02DC2900A90749
:10DC2B007D7FE4FCE925E025E0FAED1258303AFE61
:10DC3B00EC125800F46003AF05220CBC08E6DDE2E1
:02DC4B007F0058
:01DC4D0022B4
:10D4CA00E4FEBF0E03FF80010FEEFD3395E0FC740E
:10D4DA008C2DF58274F83CF583E0B5070ABF0E047B
:10D4EA00E4FF80010F7EFF0EC3EE6480948640D96C
:01D4FA00220F
:10E80A00E490F898F012589EF0A3DFFC1256A97F04
:04E81A0005029863F8
:10E73100E490F898F07F0790F899E4F0A3DFFC12D9
:07E7410056A97F0502986351
:10D9E2001256A9E4FD7F0512B5E45019752201749F
:10D9F200982522125710E06002800A0522E522C310
:08DA0200940840EB2212953953
:01DA0A0022F9
:089863008F378B388A39893AEE
:10986B00D20674922F1257B8E004F53BE53BD39424
:10987B0000404912571FFEE53B125797FF1258F451
:10988B001244F0547F6F7028F53C1258F4853C82DB
:10989B00125718FAE53B1258303AFEE53C125800C5
:1098AB006D6004C2068015053CE53CB408DC800CF9
:1098BB00E53BB40102C206153B02987720065D1208
:1098CB0057B4E0B47F05AF37026FBE753B0112583A
:1098DB00F4853B82125718FA1257B4E01258303AFB
:1098EB00FEE53B125813053BE53BB408E11258F477
:1098FB001244F012571EFE1257B4E075F008A42460
:10990B0000F582E5F03EF583E5822400F582E583E0
:0C991B003440F583EDF01257B4E004F086
:01992700221D
:0AB5E4008F388D398B3A8A3B893C81
:10B5EE0074922F1257B8E004F53DE53DD394004018
:10B5FE0050748C2538125723FEE53D125797653946
:10B60E007033F53E748C2538125723FCE53D1258E5
:10B61E00303CFE7C00EF253EFFEC125805AB3AAAFB
:10B62E003BA93C853E8275830012456A053EE53E88
:10B63E00B408D1800CE53DB40102C322153D02B51C
:02B64E00F8D32F
:01B6500022D7
:026FBE008F3D05
:106FC000754001748C2F1258DEE0F54190F880E096
:106FD0002410FF12E48D400122E4F974982912571D
:106FE00010E0FD90F880E025E025E0FEE9240012A5
:106FF000581409B908E590F898E0547FF53EE4F597
:107000003F7498253F125710E4F0053FE53FB40860
:10701000F012592CFF24981257101258FB8002C30B
:1070200033D8FC4EFE74982F125710EEF090F88073
:10703000E0FF748C253D1258DEEFF012D4CA90F8B0
:1070400080EF12587FEF2401FFE43EFEE43DFDE4B3
:107050003CFC90F882124832797FE54125E025E03A
:10706000FE75F008E912579AF53E647F70030270CE
:10707000EE12592C2498125710E0FD7C00E53E5486
:1070800007FF74017E00A807088005C333CE33CE06
:10709000D8F9FFEE5CFEEF5D4E7053F53FE54125FC
:1070A000E025E0FCE91258303CFE7C00EF253FFF74
:1070B000EC125805FD748C253D125723FAE5401259
:1070C00058303AFEE53F125813053FE53FB408CD6E
:1070D00012592CFF24981257101258FB8002C33308
:1070E000D8FC4EFE74982F125710EEF0054019E9A7
:1070F000600302705A7492253D1257B8E540125849
:107100007F78101247F4AB071256DA1258CAEB1206
:10711000587F78081247F4AA071256DA1258C0EAC4
:1071200012587FAD071256DA12585EEDF01258521F
:10713000E0FC1256DA1258B6ECF0EB6A6DFF12580A
:1071400052E06FFD1256DA1258D4EDF0E5412410EA
:08715000FF12E48D400122D37F
:017158002214
:1096D700AE3AAF3B7C007D021245F3EF2BF53BEE34
:1096E7003AF53AAB2BAA2CA92D0246291246C6E415
:1096F7007B02FAF9F81246C6AB31AA30A92FA82E79
:1097070012CC7E8E3A8F3BD3E53B9400E53A6480DA
:1097170094802290F839E0FEA3E0FBAA06E4F9F86A
:10972700AE36AF3722AB35AA34A933A832AF31AE44
:1097370030AD2FAC2E1246B8A80422A804A905AA5A
:1097470006AB07E0FEA3E0FFE4FCFD22AEF0FBE47E
:10975700C39BFF74809EFEE49400FDE49400FC220A
:109767007A00790C7B00D2067D0122E53B5401FF8C
:10977700C3E49FFFE49400FAAB072290F839E0FCBA
:10978700A3E0FDEC22AB05AA04E4F9F8E53722AB28
:069797002BAA2CA92D22D3
:10D964007876E633501C78AEE6A2E250151297673B
:10D974007F0212D20AE50C54037007E50C20E7027B
:0AD98400C32278AEE654F7F6D32272
:066C67008B2B8A2C892D05
:106C6D00E4FD7F1F12EAD87D807F4412EAD8129688
:106C7D00EAFFAEF012CCC25002C322126DF9F53606
:106C8D00E50DF537E4FD7F4412EAD81296EAFFAE22
:106C9D00F012CCC25002C322126DF9F538E50DF594
:106CAD003912971AFCFD1246C6A804A905AA06AB0F
:106CBD0007AE38AF39E4FCFD1246AB8F318E308D07
:106CCD002F8C2ED3E5399490E5389401402B1297F3
:106CDD008213FEED13FFE5392470FBE53834FEFA1F
:106CED00D3EB9FEA9E400D12978C2401FFE43536BD
:106CFD00FEE4803112971A802C129782C313FEED99
:106D0D0013FFC374909539FB74019538FAD3EB9F3B
:106D1D00EA9E400E12978C24FFFFE53634FFFEE409
:106D2D00800312971AFCFD1246C6EF2490FFEE3435
:106D3D0001FEE43DFDE43C8F358E348D33F532128A
:106D4D00972CC005C006C0071296EA129753D003C0
:106D5D00D002D0011296F34009E53B54017A00FBB5
:106D6D0080031297721296D7126E0D5002C322E550
:106D7D000C606990F83930E11412974AE5352FFF10
:106D8D00E5343EFEED3533FDEC35328017E0FEA3E4
:106D9D00E0FBC3E5359BFFE5349EFEE5339400FD36
:106DAD00E53294008F358E348D33F53212972CC029
:106DBD0005C006C0071296EA129753D003D002D031
:106DCD00011296F34009E53B54017A00FB80031252
:106DDD0097721296D7126E0D5002C322AB2BAA2CAE
:0B6DED00A92DE53A853BF012468CD33F
:106DF800227B007A00790CC2067D027F4412D20AF7
:106E0800E50C540F22AEF0253BF53BEE353AF53A4A
:076E1800AF3BFE12CCC222C9
:10BC4E008B2B8A2C892DE4FF12E7A2900A21E49314
:10BC5E00FF129796E48FF0124654129796124629C9
:10BC6E00FFAEF012CCC250037F0222E50C602E1202
:10BC7E00979630E10D12462924FFFFE5F034FFFEC2
:10BC8E00800A1246292401FFE435F0FE12CCC25080
:10BC9E00037F0222E50C540360037F01227F002202
:108BA500E4F52EF52DF52CF52BFB7DFC7F4712DA30
:108BB5000B7B107DEF7F5012DA0B12EB3A7BFF7ABD
:108BC500E9791B7F3C12E39E4003028C987B407D34
:108BD500BF7F5212DA0BE4FD7F5912EAD8E4F50C97
:108BE500FB7A00790DD2067D037F5912D20A850FD3
:108BF5002E850E2D850D2C850C2BE4FB7D5F7F527C
:108C050012DA0B7A00793312976B7FAE12D20A050E
:108C15003305337B007A007934D2067D017FAF12AC
:108C2500D20AE5345430C4540FFF7401A8070880F4
:108C350002C333D8FCF534FFE4FCFDFEFBFA7908EA
:108C4500F81246C690F8391297421246C6AB2EAABC
:108C55002DA92CA82B12475190F83D129742124688
:108C6500C6C007AF33AB07E4FAF9F8D0071247518E
:108C75008F328E318D308C2FC3E49532FF74809501
:108C850031FEE49530FDE4952F8F328E318D30F530
:108C95002F800BE47532FF7531FFF530F52FE4FBBE
:0B8CA5007DEF7F5012DA0BAE31AF32D2
:018CB00022A1
:10CCC2008E3C8F3DE4FB7DFE7F4712DA0B12EB3A7E
:10CCD200AF3DAE3C12DF89E4FD7F0212EAD87F0845
:10CCE20012CF4C7F0812CF4C12A9F3500122129797
:10CCF200677F0212D20AE50C54606002D322530C01
:03CD020003C32246
:10715900E4F528FB7A00790CC2067D027FB512D2CC
:107169000AE50C540FF523E50DF524E4FB7DFD7FBD
:10717900BB12DA0BE4FF12E7A2128BA58E258F262C
:1071890012CCC250037F0222E50C7053432801E55B
:10719900262418FFE43525FE12CCC250037F0222B3
:1071A900E50C7003432802E52624E8FFE52534FFB2
:1071B900FE12CCC250037F0222E50C70034328045F
:1071C900E528B40309740C2526F526E4800DE52885
:1071D900B4050C74F42526F52674FF3525F525E547
:1071E9002860030272BCAF24AE2312DF89E4F528BC
:1071F900752718AF24AE2312CCC250037F0222E5B3
:107209000C603CE50C30E11AE5287E0030E0047F93
:107219000C80027F18C3E5249FF524E5239EF523FE
:107229008017E5287E0030E1047F0C80027F18EF8B
:107239002524F524EE3523F523850C28D527B4E537
:107249002770037F0122E528701CE5242418FFE438
:107259003523FE12CCC250037F0222E50C6003FFE6
:0F72690080027F018F2885232585242675270421
:10727800E52830E00BE526240CFFE43525FE800ADE
:10728800E52624F4FFE52534FFFE8E298F2A12CC4B
:10729800C250037F0222E50C7009852925852A261C
:1072A800D527CDE5242526FFE5233525C313F52568
:1072B800EF13F5267B007A007925126C6740037F6F
:1072C80002227B007A00792512BC4E8F28E52860BF
:0A72D800012278AEE64408F67F00BC
:0172E2002289
:10E81E0012E4FC7827E475F001024884D29012E8E5
:04E82E0046C290222C
:10E8460000000000000000000000000000000000C2
:03E856000000229D
:10E7B700D29012E8463090FDD291C29112E846C23B
:05E7C7009012DB6C2242
:0AEB2600C291D29012E846D291226B
:10E8C800D291D29012E846A291E433FFC290D2913D
:01E8D800221D
:06EBFD00C29112E82A2279
:06EC0300D29112E82A2262
:10DB6C00E4FEEF335004D2918002C29112E82AEF06
:10DB7C0025E0FF0EBE08EB12E8C8EF600612EB269C
:05DB8C007F00227F0173
:01DB91002271
:10E4FC00E4FFD291FED29012E846EF25E0FFA29104
:0AE50C00E4334FFFC2900EBE08EB8F
:01E5160022E2
:02DCBD008D2AAE
:10DCBF00752BFF8F2CAF2C12E7B7EF64016005D5E2
:10DCCF002BF3C322AF2A12DB6CEF64016002C32275
:01DCDF00D371
:01DCE0002221
:06C595008F238A258B268E
:10C59B00E52645257002C322AF2312DCBD400122E4
:10C5AB00E5234401FF12E7B7EF64016002C322E504
:10C5BB0026152670021525144525600C12E81EEF72
:10C5CB0012455812EBFD80E712E81EEF1245581288
:06C5DB00EC0312EB26D375
:01C5E1002237
:08AE88008F238D248A258B26FF
:10AE9000E52645257002C322D3E5269400E52594D6
:10AEA000004061AD24AF2312DCBD400122E52454F3
:10AEB0000FFFC374109FFDFF7E00D3E5269FE5259D
:10AEC0009E401CE5269FF526E5259EF525E524C335
:10AED00094F0400405230523ED2524F5248007ADD7
:10AEE00026E4F525F526AF051DEF6013782712E857
:10AEF000231244F0FF12DB6CEF640160E9C32212FD
:05AF0000EB268094D354
:01AF05002229
:03000B0002B72910
:10B72900C0E0C0F0C083C082C0D075D000C000C0E6
:10B7390001C002C003C004C005C006C007D28C7591
:10B749008A21758CF8D20A78A7E6FE08E6FFF4701C
:10B7590002EEF4600AEF4E6006E61618700116E56F
:10B769005760041557800920090612DD2975570A03
:10B77900D007D006D005D004D003D002D001D00024
:0BB78900D0D0D082D083D0F0D0E032CE
:07EBCF00C10000FD54FEFF30
:10AC1B00019B1E01A60F02A401D201A100019E00FF
:10AC2B0001A000019F00019D0001A20001A30001F2
:05AC3B009C0001560021
:1080C7007864E6FA08E6FBFF7C007D64AE021245A1
:1080D7009E7C007D0A12459EED243022FFC3ED9F52
:1080E700FFEC9ECF24FCAD26CF34FFFE7C0012456B
:1080F7008CE4FD7B64FAF9F8024751E524FD7C0026
:10810700FFC3E5239FFFE5229400FAA9077BFFD26F
:10811700067F9222908329E493FE74019390832D26
:10812700FFC37401939FFFE4939EFEEF780222F54D
:108137000D7B007A00790CC2067D027C007F9022BD
:10814700E50C24FDFDE434FFFC7B007A00790FD2B7
:10815700067F92227C007D0AE6FE08E6FF02459E26
:10816700E4F52485238285228322FE7C007D641228
:10817700458CAD03AC0202459EC207D2087F92220E
:10818700E47B0AFAF9F8AF25AE24AD23AC22024707
:10819700517B007A00790CD20622AB2DAA2EA92F8B
:1081A7001244F025E025E02278ACE6C39FFFE49E69
:1081B700FE22EF2402FFE43EFEE43DFDE43CFCE446
:1081C7007B02222430F52FEF75F00A84E5F022C2F6
:1081D70007C2087F90227C007D0AAF032290833577
:1081E700E493FE740193227864E6FE08E6FF22FB1F
:1081F7007A00790CC206222523F523E43522F522DD
:0B82070022EF25E0FBEE33FAC3E62275
:10B93400789BEFF678A6A6052401F523E433F522D7
:10B9440078A4A60208A6031281D612E7E17FC012EA
:10B95400D52C7F0412D52C12000312818012E7E14A
:10B96400AF23E52312D52CE522C4F854F0C8E5230F
:10B97400C4540F4854F0FF78A5E6540F4FFF12D576
:10B984002C79A4E7C4F854F0C809E7C4540F48FF5D
:06B9940012D52C02000395
:10C258008E248F258C268D278B281281D612E7E114
:10C26800E524540F4528FF12D52CAF25E52512D516
:10C278002C120003E528B4D00FAE26AF277C007D32
:10C288000312458C8E268F2712818012E7E1E5275D
:10C298004526600FAF2912D52CE527152770EF1515
:06C2A8002680EB020003FA
:10D162008F228D23EFFD7C007529807B10E4FFFE6A
:10D1720012C258E4FF12E90BE522FD7C00752988F2
:10D182007B50E4FFFE12C258E522FD7C0085232974
:08D192007B90E4FFFE02C2588D
:04CD05008B33AC07B9
:10CD090078A6E6FFED8FF0A4FF789BE62401FBE40B
:10CD190033CB2FFFEB35F0FEAD047C00EF2DF5355D
:10CD2900EC3EF5341281D612E7E1E534540F453370
:0ECD3900FF12D52CAF35E53512D52C020003C4
:10E90B008F2E12818012E7E1AF2E12D52C0200035D
:10DC4E008E268F2712818012E7E185278285268313
:10DC5E00E493FF600D12D52C0527E52770EC052601
:05DC6E0080E802000344
:08D61C008E228F238D248B2543
:10D6240012E9ABEFC313FEC395244005E4F524804F
:10D6340006C3E5249EF5247B50AD25AF2412CD0509
:07D64400AF23AE2202DC4E11
:08D6A8008E228F238D248B25B7
:10D6B00012E9ABEFC313C395244005E4F5248006BB
:10D6C000C3E5249FF5247B50AD25AF2412CD05AFD3
:06D6D00023AE2202DC4E35
:04C30300AB07AA06D4
:10C307007C277D1012459EEF2430F5227C037DE8C3
:10C31700AF031280D3F523AF031280CFF524128128
:10C32700DD1280D3F525AE02AF031280D8F52612B1
:10C33700818012E7E1AF2212D52CAF2312D52CAFA3
:10C347002412D52CAF2512D52CAF2612D52C0200DE
:01C3570003E2
:10C4A600EF75F06484FED394004012EE2430F52E2E
:10C4B600EF75F00A841281CF1281CA8019EF75F0E8
:10C4C6000A84FED39400E44008F52EEE1281CA8059
:10C4D60005F52EF52FEF2430F53012818012E7E1B5
:10C4E600AF2E12D52CAF2F12D52CAF3012D52C0271
:02C4F600000341
:10CFC900EF540FFEC3940AEE50062430F523800473
:10CFD9002437F523EFC4540FFEC3940AEE500624F8
:10CFE90030F52280042437F52212818012E7E1AF5F
:0CCFF9002212D52CAF2312D52C0200030D
:10E5B800750C81EF25E025E02403F50DE4F50E1236
:0AE5C80081F67D03FC7F9002D6D699
:107A1F008E228F238C248D258B26E526D3946440CC
:107A2F0003752632E527D394644003752732E52882
:107A3F0030E75C12811BCEC313CE13D8F9FDAC0611
:107A4F00E522C313FEE523131280E31281B91280DE
:107A5F00FC8E228F231281E4908339128127CEC3AB
:107A6F0013CE13D8F9FDAC06E524C313FEE5251399
:107A7F00FFC3ED9FFFEC9ECF24FDAD271280EF12C9
:107A8F0081B91280FC8E248F2543287F027B02123E
:107A9F00811BCEC313CE13D8F9FDAC06E523AE225E
:107AAF007802CEC313CE13D8F91280E3EF2406F574
:107ABF0023E43EF5221281E4FFC39083391281291A
:107ACF00CEC313CE13D8F9FDAC06E525AE2478024C
:107ADF00CEC313CE13D8F9FFC3ED9FFFEC9ECF2477
:107AEF00FACF34FFFEAD271280F3EF2404F525E41F
:107AFF003EF5247B027DF87F9312DA0B7D017F6CBC
:107B0F0012E8328F0CE50C70047FC080027FE08F8B
:107B1F000CE4F50D1281F67D02FC7F9012D6D6E5AE
:107B2F0024C313E52513F50CE523AE227802CEC34B
:107B3F0013CE13D8F9F50DE5235403C4333354C0D2
:107B4F00FFE5255401FEC43354E04F4528F50E12CE
:107B5F0081987D037C007F9212D6D67F2012CF4C66
:0E7B6F007F2012CF4C7B057DF87F9302DA0B4E
:10D55D008B30AE05AD07AF06AB3212CD05E532B45B
:10D56D00D008E53075F003A4F53012818012E7E1A3
:10D57D00E5306009AF3112D52C153080F302000370
:10E2A9008F258D268B27E5266014852931852A320D
:0FE2B900AB28AD27AF2512D55D0525D526EC2264
:10A0400078627C037DE812815FEF4E6005750F3109
:10A050008003E4F50F78621280C9F5101281DD12D9
:10A0600080D3F5117862E6FE08E6FFBE051ABF56FA
:10A07000177865E6B4001118E6B4030C7C007D0A7D
:10A0800012459EED24FA8006786212815BED243041
:10A09000F5127513207514587515201281EE7C0386
:10A0A0007DE812459EEF4E60207516311280C7F58F
:10A0B000171281DD1280D3F5181281EE1280D8F5C7
:10A0C00019E4F51A750C0E801B1280C7F516128163
:10A0D000DD1280D3F5171281EE1280D8F518E4F561
:0AA0E00019750C0D12814702D6D647
:10D32100785C12815BEF75F00A8475F00A8485F0F0
:10D3310018EF75F00A8485F017750C07E51824308D
:10D34100F50FE5172430F51075114875125AE4F5FB
:07D351001312814702D6D63A
:10A8E5007858E675F01390001B12486F1281E7FF48
:10A8F500E48F258E24F523F5227B64FAF9F812817D
:10A9050091E47B0A1280FCAF038F19128187E47BE7
:10A915000A1280FCAF038F18128187AF038F17E5EA
:10A9250019C3940A4011E51975F00A8404F51A74DF
:10A93500F62519F5198003E4F51A750C0B851A0F20
:10A94500E5192430F510E5182430F51175122EE5BA
:10A95500172430F51375144B75154875165AE4F51B
:07A965001712814702D6D64C
:048FB3008E228F2358
:108FB700AA06A9077BFF12813E12D6D602904D1250
:108FC700816AE49364FC704C12810212D6D6128136
:108FD700670493FFD3940340030290A6EF24FCF5A4
:108FE7002512816A740293B4FD14740393FD7C0007
:108FF700D205AB257F9212DBDE74040290857B00DD
:109007007A007925D2067D017C007F9212D6D6742C
:109017000202908512816AE49364FD703412810222
:1090270012D6D612816A74019324FFFDE434FFFC43
:10903700E58224FFF582E58334FFF583E493FBD2D1
:10904700057F9212DBDE74021281FEE4F524028FA3
:10905700C612816AE49364FE702A12810212D6D680
:109067000523E523700205221281670493F4602F1C
:10907700AA22A9237BFF12813E12D6D6740212813F
:10908700FE028FC612816AE493B4FF0612810202C0
:0F909700D6D60523E523700205220524028FC6D5
:0190A60022A7
:0EEA05007F2012CF4C7B017DFE7F6C02DA0B6E
:09EB5500E4FB7DFE7F6C02DA0B8B
:0C8A8D008E258F268C278D288A298B2AA5
:108A99007D017F6C12E8328F30E53070047FC18030
:108AA900027FE18F0C1281A10412813612D6D67E83
:108AB90000E526543F7802C333CE33CED8F9F50CFE
:108AC900E5255407FEE52654C07806CEC313CE1318
:108AD900D8F9FFE5285407C43354E04FF50DE528CC
:108AE900AE277803CEC313CE13D8F9F50E7E00E571
:108AF9002A543F7802C333CE33CED8F9F50FE5298E
:108B09005407FEE52A54C07806CEC313CE13D8F90C
:108B1900FFE52C5407C43354E04FF510E52CAE2B78
:108B29007803CEC313CE13D8F9F5111281987D06B7
:108B39007C007F9212D6D67F287E0012E688E4F563
:108B490031750CC11281A1FFE53175F003A42F1213
:108B5900813612D6D6E4F530E53175F003A47C00F0
:108B69002530FFEC35F0FEAB2DE52F2FF9E52E3E34
:108B7900FA900001124509FF740C2530F8A6070583
:108B890030E530B403D21281987D037C007F9212C4
:0B8B9900D6D60531E531C3940240A69A
:018BA40022AE
:10D19A008F228B238A248925750C411281A72403A7
:10D1AA0012813612D6D6AB23AA24A92590000512DD
:10D1BA00450954F0FFE522540F4FF50C1281987D72
:08D1CA00017C007F9202D6D621
:02BE2B008F275F
:10BE2D00E527701912BE6E7881E640082432FF189E
:10BE3D00E436FE222529FF18E63528FE22E5276483
:10BE4D0001701D12BE6E400C7881E624CEFF18E6FF
:10BE5D0034FFFE22C37881E69529FF18E69528FE6A
:10BE6D00227880E6FE08E6FF7B007A00792812AE84
:0BBE7D000AD3E5299432E52894002246
:10E51700EFC4333354C0F50C750D018D0E7B00121B
:0BE5270081F77D037C007F9002D6D6B8
:04E9AB008F828E8346
:0AE9AF00E4FFE49360040FA380F876
:01E9B900223B
:10CECE00E52B601BC3EB9DEA9C4009E52C702FAF50
:10CEDE0005AE0422EB2401F52EE43AF52D801BD38A
:10CEEE00EB9FEA9E500AE52C700122AE04AF05229C
:0ECEFE00EB24FFF52EEA34FFF52DAE2DAF2EFE
:01CF0C002202
:10DB92007F0112BE2B8E258F26E4FF12BE2BC3EF10
:10DBA2009526FBEE9525FAC37874E69526FF18E6CE
:05DBB2009525128171B0
:01DBB700224B
:10CD4700C37967E7787D96FF19E71896FE12E8B66C
:10CD57001281AF787CE6FC08E6FDC39FF526EC9EC2
:10CD6700F525C37867E69DFF18E69CFE12E8B61224
:10CD770081AF78701282089526FF18E695251281F3
:01CD8700713A
:01CD88002288
:10CBB000C37969E7787F96FF19E71896FE12E8B601
:10CBC00078AD1281B1787EE6FC08E6FDC39FF526BC
:10CBD000EC9EF525C37869E69DFF18E69CFE12E8F9
:10CBE000B678AD1281B178721282089526FF18E6E8
:05CBF000952512817182
:01CBF500221D
:10BA63007877E6F52290F835E0F519A3E0F51AA307
:10BA7300E0F51B12953990F835E519F0A3E51AF0B6
:10BA8300A3E51BF012C71612E59E12CA9712C0A5B2
:10BA930012EC3212EBEBE522640160177873E6FED9
:10BAA30008E6FF1248EB7875E6FF1272E312EBC863
:10BAB30012AD8A7877A622786E760178C7E64408B5
:04BAC300F602B16A6C
:10E5D2008F221281D612E7E17F4012D52C7F0312DF
:0AE5E200D52CAF2212D52C02000345
:10E5EC00E4FFFEFDFCED1D70011C8D828C83E49319
:09E5FC002FFFE43EFEED4C70EC33
:01E6050022F2
:10DE6100E50B450A700712E5EC8E0A8F0B7B50E437
:10DE7100FD7F0912CD05E50AFF12CFC9AF0B02CF15
:01DE8100C9D7
:10E6D200129AA778C7E6A2E1400312D12978C7E6C9
:08E6E200A2E2400312EACC227F
:10C54700E4FFFDFBE55630E71530E0027FFFE556D7
:10C5570030E1027DFFE55630E2197BFF8015E55695
:10C5670030E0027F7FE55630E1027D7FE55630E21D
:10C57700027B7F12D3580556E55630E00790FF61DE
:0DC5870074018004E490FF61F090FF60F00B
:01C594002284
:10A741007D0112A7B57EF67F0012DC4E7F2012E953
:10A751000B7EF67F0712DC4E7D0212A7B57EF67FD7
:10A761001C12DC4E7D0312A7BD7EF67F2312DC4E48
:10A771007D0412A7BD7EF67F3512DC4E7D0512A742
:10A78100C57EF67F3E12DC4E7D0612A7C57EF67FA2
:10A791004912DC4E7B507D07E4FF12CD057EF67F2A
:10A7A1005512DC4E7B507D08E4FF12CD057EF67F0D
:10A7B1006102DC4E7B50E4FF12CD05227B50E4FFA9
:0CA7C10012CD05227B50E4FF12CD0522D2
:10D4FB0030042A78BCE67028300105C20102EB55D6
:10D50B00D20178C7E64408F612B50712BCAE12DE9C
:10D51B006112A7417BFF7AEB79B802D64B12C4F8A4
:01D52B0022DD
:10D98E0078BC760812D732502078BAE608F612CB59
:10D99E00F678BAA60712D1D2500678BAE6B40B09B9
:0AD9AE007876E633500312B34122ED
:0FE9BA0078BAE608F612CBF678BAA60702D1D2E1
:0AEB300078BDE654FEF654FDF6220F
:10D7320078BDE6A2E1500B135008E654FDF654FE04
:10D74200F62278BDE6A2E140124402F67BFF7AEBB4
:0DD7520079D67F027E0012C62FC322C322AB
:07EBD60078BDE64401F622C0
:07EBDD0078BDE64404F622B6
:10D8640079BBE778BA665F600578BCA6052278BD07
:10D87400E6A2E35015A2E2500418A605227BFF7A23
:0BD88400EB79DD7F327E0012BB8D22AD
:10D1D20078BAE6FF30E02F086630E02A12CBF67804
:10D1E200BAA6077876E6335002C204C201E4F50813
:10D1F200F50920040312E2C878C7E64401F678BDB7
:08D20200E654F7F6D322C32223
:10CBF600E4FF90FF5FE020E0027F0490FF5DE0200D
:10CC0600E00343070890FF5CE020E0034307109031
:10CC1600FF5AE020E00343070290FF58E020E003BC
:10CC260043070190FF59E020E003430720209103CA
:03CC360043074071
:01CC390022D8
:10E2C8007876E633920678BAE624F5600A24FE707A
:0EE2D8000D20060AD20422300604E478BAF6BD
:01E2E6002215
:10B341007876E633920578BAE61248A9B36602B375
:10B351007204B37808B3910BB37E10B38420B38A1F
:10B36100400000B3A478BDE654F7F6E4FD7F028007
:10B371001C7D017F0480167D027F0880107D037F84
:10B3810010800A7D047F2080047D057F4002D864FF
:10B3910020051F78BDE654FBF61295397876E65400
:10B3A1007FF62278BDE654FBF67BFF7AEB79DD125E
:02B3B100D64B79
:01B3B3002277
:10001600020280015E013B02BC0A0A032001C10004
:1000260090003E020280015E017A03520F0F0340E8
:1000360001BD00A0003F0D02D001A4013B02BC0A95
:100046000A038401C100A200250F02D00190017CA1
:1000560003520F0F03A801BE00B4002D0F0280014A
:10006600E0013B02580A0A0320020D009100220F0C
:10007600028001E0015E029A0A0A0360020D00A0F6
:10008600002A0F028001E0017A02D80A0A03400220
:100096000800A9001E0F028001E0017702EE0A0A9D
:1000A600034801F400B900120F028001E001B10318
:1000B600520A0A034001FE0088001C0F0320025862
:1000C600015F02320A0A0400027100C800180F0319
:1000D600200258017A025B0A0A0420027400D90041
:1000E6001A0F0320025801E002D00A0A0410029AED
:1000F60000B9001C0F0320025801D402EE0A0A04BC
:1001060020027100F100170F032002580218035253
:100116000A0A0418027700D8001E0F034002700175
:10012600F102E90A0A0480029B0120002A0B04005E
:10013600030001E302580A0A0540032601280022AB
:100146000B04000300023402BC0A0A053003260130
:100156001800220B04000300025802EE0A0A0520CA
:1001660003200110001E0F0400030002AA03520A16
:100176000A05600328013000270F04000320026CE3
:1001860002E40A0A05300345010800230F040003B0
:100196002002CB03520A0A05280345011800230F43
:1001A60004800360021902580A0A05E8037E012C3E
:1001B600001E0F04800360028202BE0A0A05C00305
:1001C60092012000310F0480036002A302EE0A0AA6
:1001D60006400384018000230F04800360030203AA
:1001E600520A0A0628038B0168002A0F0480036658
:1001F60002AE02EE0A0A05B003930110002A0F04AC
:10020600800384026A02940A0A05F803A9015000D1
:10021600230F0480038402CE02FE050505E003A930
:10022600014000230F050002D001BF02580A0A064A
:100236007802EA015300190F050002D0023402EEDB
:100246000A0A069802EF0154001F04050003000184
:10025600DD02580A0A0684031A0142001A02050042
:10026600030001DB025A0A0A05A0031500730012F7
:100276000405000300023002BC0A0A069C031F01A3
:1002860050001F0405000300025902EE0A0A06AADE
:100296000321015A0021080550030001DD02580A16
:1002A6000A0704031A01700017040500032001F46D
:1002B60002580A0A0690033F0148001C0405000381
:1002C60020024302BC0A0A0684033C00E0001F0425
:1002D60005000320026E02EE0A0A0684033E01446C
:1002E60000210F050003C0025802580A0A07080336
