:10E93D003D403F3B33281C002C2D3C3D38301A0008
:10ABC60001C60041F8220041F81F0041F820064165
:05ABD600F82100C10B95
:1062F000A81474FFFFFEFDFC124751E47B10FAF96D
:10630000F81246C6A804A905AA06AB0722785EE6DD
:10631000FE08E6FFE4FCFD221246C6E47BE87A03B1
:10632000F9F8124751E47B127A02F9F8D30247E3F5
:1063300090F80FE05407900AA5FF75F00312486F1C
:1063400002489D8F0E8F0D8F0C7A00790C7B00D246
:10635000067D037C002290F812E0FF90F819E02FF0
:10636000C313FF752A00752B38752C00752D7075B9
:106370002EFF752FC87530FF7531902290F81BE005
:106380001313543FFF90F814E02FFF752AFF752B6D
:1063900090752C00752D30752E00752F707530009E
:1063A0007531302290F839E0FEA3E0FBAA06E4F94B
:1063B000F822AA06AB07AF407E0012458C7C007D18
:1063C000080245F3785FE62480FF18E63402FEE415
:1063D000FCFDE5132FFFE5123EFEED3511FDEC222D
:1063E0001246C6C3E50F9FFFE50E9EFEE50D9DFD1F
:1063F000E50C9C22ED9FFFEC9EFEE6FD7C00D3EFBA
:106400009DEE9C2290F80FE05418131313541F2292
:106410001247518F0F8E0E8D0D22AE30AF31E4FC3E
:10642000FD0246C6785EE6FE08E62290F80FE054CC
:10643000E0C4135407FF227B007A00790C22124536
:106440008C7C007D7E1245F38F0D2235108F138ECC
:10645000128D1122FF752A00752B38752CFF752DB2
:1064600090752EFF227532107BAF7A007DA67C01DD
:10647000227532147B027AFE7DFF7C0022FC1245DD
:106480008C7C007D400245F390F80FE054E72290A9
:10649000F81CE01313543FFF90F81522AB3AAA3BC7
:1064A000A93C124629FDC3227B1EFAF9F80246C612
:1064B000C308E69FFF18E69E2275F003EF900AB12D
:1064C00022FDFCAB28AA27A926A82522AF35E4FC8B
:1064D000FDFE7B387A1822FFE6FC08E6FDD39FEC30
:1064E0009E22E50D24FFFFE50C34FFFE22FE12453F
:1064F0008CAC06AD07E54522FFA60608A60722AB31
:1065000017AA16A915228B278A28892922E525246E
:07651000F8FFE434FFFE2256
:10E75C008E3B8F3CE53B5401FB7DFE7F1312DA4D63
:07E76C00AD3C7F1202EB1A25
:10DFAB008E2A8F2BE52B7807CEC313CE13D8F954BB
:10DFBB0002FB7DFD7F1312DA4DAD2B7F1102EB1AA5
:10DFCB008E3E8F3FE53E540FFB7DF07FB512DA4D51
:10DFDB00AD3F7FB612EB1A7B047DFB7FB702DA4DA8
:10E7E400EFC454F0FB7D0F7FB712DA4D7B047DFB41
:05E7F4007FB702DA4DC1
:09EB7C007B207DDF7F5202DA4D9F
:09EB85007BC07D3F7FD402DA4D14
:10DDF9008F3B78AEE6A2E35018E4FD7FDA12EB1A06
:10DE090012EA55E53BF4FDE53B4406FB7FDA12DAFD
:02DE19004D2298
:10E52300EFF4FDE4FB7FDA12DA4D7D387FDA12E88F
:0AE5330074EF7006FD7FDA12EB1A98
:01E53D0022BB
:01EC7300227E
:087B80008F228B238A24892542
:107B8800E522600464017057E522127CBEE5227C80
:107B9800017003FD80027D80AB23AA24A925127CF5
:107BA800D0E522127CC7E5227C017003FD80027DAE
:107BB80080AB26AA27A928127CD0E52244A0FD7F05
:107BC8006712EB1AE5227C017003FD80027D80AB11
:107BD80029AA2AA92BD2067F6612D718027CB6E5F5
:107BE8002264026009E52264036003027CBDE4F5B7
:107BF8002EE4F555F551E52E7014E5225401127C5A
:107C0800BEE5252410F9E435248523528030E52E7D
:107C1800B40114E5225401127CC7E5282410F9E4C4
:107C280035278526528017E522540144A0FD7F6739
:107C380012EB1AE52B2410F9E4352A852952F5535D
:107C48008954E4F52FAB527E00E554252FF9EE3523
:107C580053FA90FFF0124509FF740C252FF8A60778
:107C6800052FE52FB410DEE4F52CF52DE5227E0175
:107C7800B402047F0080027F80C3E52D9FE52C9E1F
:107C8800502012A8A9EFC454F0F52F12A8A9EF426A
:107C98002FAD2F7F6612EB1A052DE52D70CE052C22
:107CA80080CA052EE52EC394035003027BF97D405C
:057CB8007F6712EB1ACA
:107CBD00224480FD7F6712EB1A224490FD7F6712EC
:0B7CCD00EB1A22D2067F6612D71822A5
:10CE0D008B228A2389247B807D3F7F6B12DA4DAB89
:10CE1D0022AA23A924D2067D187C007F6912D71877
:10CE2D007B407D3F7F6B12DA4DAB25AA26A927D219
:10CE3D00067D187C007F6A12D7187D387F6B02EB58
:01CE4D001ACA
:10D95200787AE6540F9008CA126339C003C002C035
:10D962000175F003EF9008CA12633D8B288A29895A
:0AD972002AD001D002D00302D13206
:10D132008B258A2689277DB07F1C12EB1AAB25AA84
:10D1420026A92712D15F7DC07F1C12EB1AAB28AA39
:10D1520029A92A12D15FE4FD7F1C02EB1AD2067DB7
:09D16200807C007F1D12D7182209
:10CAD90078AEE65470C4540F701D90F831E0FFD35E
:10CAE90094024006EF24FEFF800590F831E0FF8FA5
:10CAF9000E8F0D8F0C800A90F831E0F50EF50DF5CB
:10CB09000C7D807F6412EB1A1263497F6512D71876
:07CB1900E4FD7F6402EB1A4A
:10C0E700E4FB74352BF582E434F8F583E0FF7E003A
:10C0F70090F832E0FD7C0012458CEF7807CEC31331
:10C10700CE13D8F9FFD394FFEE940040087C007E4D
:10C11700007FFF80027E00740C2BF8A6070BBB0381
:10C12700C17D837F6412EB1A1263497F6512D718AA
:07C13700E4FD7F6402EB1A36
:01EC7400227D
:10D7FA0090F82AE0F50CA3E0F50DA3E0F50E7D8084
:10D80A007FDC12EB1A7D847FDC12EB1A1263497FEC
:0BD81A00DD12D718E4FD7FDC02EB1AE2
:10D62F0090F82DE0F50FA3E0F510A3E0F5117D8044
:10D63F007FDC12EB1A7D877FDC12EB1A7A00790FF1
:0FD64F0012634D7FDD12D718E4FD7FDC02EB1A6A
:06EC2D0012D7FA02D62FF7
:10D39A008F228D238B24E4FB7DDF7F6C12DA4D7B99
:10D3AA00207DDF7F6C12DA4DAD227F6D12EB1AAD54
:10D3BA00237F6D12EB1AAD247F6D12EB1AE4FB7D0D
:06D3CA00DF7F6C02DA4D6A
:10DC46008B228A2389247D807F6E12EB1AAB22AA4F
:10DC560023A924D2067D307C007F6F12D718E4FDFD
:05DC66007F6E02EB1AC5
:106E22008F261263A490F83FE0FEA3E0FFE4FCFD8E
:106E320012630190832CE493FE740193FFE4FCFD42
:106E42001246AB1264138C0C786412630FAB0FAA58
:106E52000EA90DA80C1246C6C006C00790F83D1236
:106E620063A7D007D006124751C00412630612630B
:106E72000DD0001246C6C006C0071263A4D007D0C8
:106E8200061264108C0C78ADE6FFC37869E69FFFAA
:106E920018E69400FEE4FCFDC004126306126424AA
:106EA200FFE4D0001246C6C004126306786612637D
:106EB2000FD0001246ABC006C00778ACE6240AFF2A
:106EC200E433AB07FAE4F9F8D007D0061246B81259
:106ED200644D8C10E52630E0061263C4026F5EE555
:106EE2002630E13D786412630F7B807A02F9F81252
:106EF20046C6C006C00790F83D1263A7D007D00669
:106F0200124751C00412630612630DD0001246AB41
:106F1200E5132FFFE5123EFEE5113DFDE5103C8035
:106F2200051263C4351012644DF510D37863E694EC
:106F32009018E69406501612630D1263D212644B37
:106F4200F5107B107DEF7F1912DA4D8014E51324C2
:106F520080FFE5123402FEE43511FDE412644BF5C4
:106F620010C3E513950FFFE512950EFEE511950D81
:106F7200FDE510950C126413F50C1264241263AB38
:106F8200AF0FAE0EAC0C1247518F1A12642412636B
:106F9200ABAF1AFCFDFE1263E0FCE47B10FAF9F8D9
:106FA2001247518F1BE4FB7DFD7F4312DA4DAD1A70
:0F6FB2007F4012EB1AAD1B7F4112EB1AAF1A2270
:0875F2008F288E278D268C25C1
:1075FA00E4FF7E041264C11246C67B007AA07905B4
:10760A0078001247518E298F2AD3E52A94FFE5295B
:10761A009400401C752B01E52A2402FFE43529FE5B
:10762A00EF7802CEC313CE13D8F9F52A8E29801328
:10763A00752B02E52A2401FFE43529C313F529EF46
:10764A0013F52AAE29AF2A7C007D6412458C7C0E84
:10765A007D5312459EEF14F511E4F512E511C3941A
:10766A0008400974F82511F511431208E511C3946D
:10767A0004400974FC2511F511431204E511C39461
:10768A0002400715111511431202E511C394014076
:10769A00051511431201E52A24FEF50CE52BB40168
:1076AA00047F0080027F10EF4406F50DE512448046
:1076BA00F50E750F17126437C2067D047C007FAE83
:1076CA0012D7187B027DFD7FB212DA4D7D807FB121
:1076DA0012E874EF24FF50197B407DBF7FB112DAA4
:1076EA004D7F027E0012E6CAE4FB7DBF7FB112DA4B
:1076FA004DE52B75F002A4AEF01263ABFFFE7D7769
:10770A007C01124751126304AE29AF2A12641EE4A7
:10771A007B08FAF9F81264108C0C780F1247F412ED
:10772A00644D8C10E47FE87E031264C11263E0FCAE
:10773A00AB13AA12A911A8101247518E298F2A53E6
:10774A00290F7B017DFE7FBB12DA4DAF2AAE2902DB
:02775A00DFCB83
:109E8A00786FE6FE08E6787C1264F87871E6FE08D8
:109E9A00E6787E1264F87873E6FE08E6FF7B007ABD
:109EAA0000792412AE4CC3E5259432E5249400507F
:109EBA0004785E806E126424FF7873E6FC08E6FD7F
:109ECA00C39FEC9E5034C3ED9FFFEC9ECF2525CF58
:109EDA003524FEC3EF9432EE94005016C3785FE641
:109EEA009525FF18E69524CF24327881F6E43F18A9
:109EFA00F6227880A60408A60522785FE62525FFC3
:109F0A0018E63524FEC3EF9DFDEE9CFCC3ED9432AA
:109F1A00EC9400500CEF24CE7881F6EE34FF18F65C
:0F9F2A00227873E6FE08E6FF7880A60608A607F1
:019F39002205
:10AE4C008E388F398B3A8A3B893C7862E6FE08E66D
:10AE5C007803C333CE33CED8F9FF7C007D0A12457C
:10AE6C009EC3785F1264B2C313FEEF13FFAB3AAA12
:10AE7C003BA93CEE8FF012468CE6FE08E6FFD3E5CC
:10AE8C00399FE5389E401412649CE5399FFFE538E4
:10AE9C009EFED3EF9DEE95F0400122126424FFD369
:10AEAC00E5399FE5389E501412649CEF9539FFEEFE
:0EAEBC009538FED3EF9DEE95F0400122D32293
:0448EB008E308F314B
:1048EF007F2012DDF97B007A007936AF31AE3012BE
:1048FF00AE4C4009785EE6F53008E6F531750C04EC
:10490F00750D4F750E24750F15126437C2067D0491
:10491F007C007F9812D718750C1CE4F50D750E37B7
:10492F00FB7A00790CC2067D03FC7FA112D71878A1
:10493F005A12630FC004126306126424FFE4D000FE
:10494F001263184013E531AE307802C333CE33CE45
:10495F00D8F9F5318E30800BE53125E0F531E530B2
:10496F0033F53075100075116475350BAF35E4FCF8
:10497F00FDFE7B3E1262FE12641AC004C005C00623
:10498F00C007786A12630F7BC07A031262FFD007E9
:10499F00D006D005D0041247518F34E4FCFDFE122F
:1049AF0064A8C004126306786A12630FD00012461F
:1049BF00C6C004C005C006C0071264CC1262FF1245
:1049CF00641AD003D002D001D0001247518E0C8F41
:1049DF000DD3E50D94A8E50C940C5003024AA07476
:1049EF0080250DF50D74F3350CF50CD3E50D9511F0
:1049FF00E50C9510500C850C10850D118534328502
:104A0F003533E5342401FFE433FEE4FCFD1264A8E2
:104A1F00C004126306786A12630FD0001246C6C034
:104A2F0004C005C006C0071264CC1262FF12641ADC
:104A3F00D003D002D001D0001247518E0E8F0FD36A
:104A4F007480950F740C950E400C7480950FFF7445
:104A5F000C950EFE800AE50F2480FFE50E34F3FE61
:104A6F008E0E8F0FC3E50F9428E50E94005007E5C7
:104A7F003404F532801ED3E50F9511E50E951050D5
:104A8F0018850E10850F11E53404F5328535338006
:104A9F0008853432853533800C0535E535C39430C0
:104AAF00500302497B785A12630FC0041263061237
:104ABF006424FFE4D000126318E530400E13FEE5C6
:104ACF003113FFEEC313F530EF8006C313F530E556
:104ADF003113F53178C6E6134003024C107B007A90
:104AEF0000791AC2067D027FA512D24C051A051A4B
:104AFF00051B051B7B007A007918C2067D027FA972
:104B0F0012D24CE518540FFEE5192401F519E43EB5
:104B1F00F518E4FD7F9F12EB1A7D077F9F12EB1AAA
:104B2F00126437D2067D047FA012D24CAF1BAB07A5
:104B3F00E4FAF9F8AF32FCFDFE126301AE18AF19BB
:104B4F0012641E12644D8C10AF33AB07E4FAF9F800
:104B5F00AF1AFCFDFE12630112641A8F178E168DA9
:104B6F00158C141264FFA814AF0FAE0EAD0DAC0C64
:104B7F00124751AB13AA12A911A8101246C61264FC
:104B8F00138C0CAF13AE12AD11AC101264FFA8143E
:104B9F00D31247E3402C1262F0C3E5179513FFE5DC
:104BAF00169512FEE5159511FDE5149510FC1246AC
:104BBF00C6E50F2FFFE50E3EFEE50D3DFDE50C3C76
:104BCF00801E1264FF1262F0C3E5139517FFE51202
:104BDF009516FEE5119515FDE5109514FC1263E091
:104BEF00126413F50C7D207F9F12EB1A7D227F9F9D
:104BFF0012EB1A126437D2067D047C007FA012D705
:104C0F0018785A12630FC004126306126424FFE46B
:104C1F00D000126318E531400C24FFE53034FF5407
:104C2F000F4410800824FFE53034FF540FFB7DE064
:104C3F007FA912DA4DE53114FD7FAA12EB1AE53286
:104C4F0024FEFD7FA512EB1AE53324FEFD7FA6128D
:104C5F00EB1AE53275F004A4FFAEF07C007D0A126A
:104C6F00459EC3EF9405EE940050087C007E007FB4
:104C7F00008008EF24FBFFEE34FFFE8F11E4F512E6
:104C8F00E511C3943C400974C42511F5114312106A
:104C9F00E511C39428400974D82511F51143120862
:104CAF00E511C39414400974EC2511F51143120456
:104CBF00E511C3940A400974F62511F51143120248
:104CCF00E511C39405400974FB2511F51143120139
:104CDF0005120512AB127DE07FA712DA4D78C6E6FA
:104CEF0013402112E3A47D207F9A12EB1A7F011249
:104CFF00CF8E7F0112CF8E7D247F9A12EB1A78C64A
:104D0F00E64401F678C6E61350077D687F9F12EBE5
:104D1F001A7F0412CF8E7F0412CF8EE4FD7F9F1275
:0A4D2F00EB1A12EA557F3802DDF995
:0272E6008F37E0
:1072E8007F3012DDF953373F12630DFB7A60F9F8EE
:1072F8001246C6C006C007786AE6FE08E61263AB07
:10730800D007D006124751E47BA51264AA7B407AC5
:1073180042790F78001247518E398F3AD3E53A9463
:1073280040E53994005005C374408003C3748095C8
:107338003AFFE49539FE8E398F3AAF377E00C3EFB6
:10734800953AEE95394006EF953AFF8006C3E53A3F
:107358009537FF8F0CE50CD3940C400AE50C943458
:1073680050047F0080027F018F387866E6FE08E6C9
:10737800FFC3787096EE189650191264B0FE78AC78
:107388001263FA400EED786726FFEC1836786FF630
:1073980008A607786FE6FE08E678661264D74015F7
:1073A80078AC1263F4400E7867E69DFF18E69C7887
:1073B8006FF608A60778ACE6786726FFE41836FE6D
:1073C800C3EF787096FFEE1896CF240AF50DE43FC8
:1073D800F50CD3E53A940CE5399400401CE53724C4
:1073E8000CFFE433FEC3EF953AEE9539500512646D
:1073F800E28020AE0CAF0D801AE53A2434FFE43564
:1074080039FEC3E5379FE49E50051264E28004AE5E
:107418000CAF0D8E398F3A7B407DBF7FA912DA4DB4
:10742800785A12630FC004126306126424FFE4D072
:10743800001263184007E53725E0FB8002AB377D73
:10744800807FAC12DA4DAF3AAE3912E75CE53833DB
:10745800333354F8FB7DF77F0712DA4D12DEC4127E
:07746800EA557F3802DDF94F
:07EC0A007875E6FF0272E6D7
:10ADCC007F1012DDF97868E6FE08E6FFC37872960C
:10ADDC00EE189650191264B0FE78AD1263FA400E5C
:10ADEC00ED786926FFEC18367871F608A6077871AD
:10ADFC00E6FE08E678681264D7401578AD1263F465
:10AE0C00400E7869E69DFF18E69C7871F608A60757
:10AE1C007868E6FE08E6C3787296FFEE1896FE7820
:10AE2C00ADE6C39FFFE49EFE12DFAB12DEC47F20B3
:10AE3C0012CF8E7F1012CF8E12EA557F3802DDF9B9
:10C88800EF540FFEC454F0F50CEDBF070C5407C469
:10C898003354E04410F50D801D5407C454F0FFE5EF
:10C8A800275401C433333354804FFFEB5403FE2520
:10C8B800E025E04FF50D126437C2067D027C007F4B
:0BC8C8001712D718E4FD7F1702EB1ACF
:10E6FC008F23129BB6E52390F8017005E054FDF0D2
:08E70C0022E054FD4402F0225A
:109BB600AD07D3ED648094FE40027D7EC3ED6480E4
:109BC600948E5009ED6480948040027D0EEDFF3343
:109BD60095E0FEEF2401FFE43EA2E713EF1325E034
:109BE600F50C78AEE65470C4540F14600824FA508D
:109BF600222407704DED13AF0C7E007CFF500A7DCA
:109C0600C112643EE4F50E80397DC012643E750EC5
:109C160002802FED13AF0C7E007CFF50047DB880D0
:109C2600027DB712643EEF75F002A47C00250CFF9E
:109C3600EC35F0FEC3E49FFFE49EFE7D021245F381
:109C46008F0E750F037510327511CE7D807F26122B
:109C5600EB1A126437D2067D067C007F2712D718CE
:079C66007D407F2602EB1A8E
:02AA3B008F2466
:10AA3D00E4F525E52464027021F52512AAA575F02B
:10AA4D0003E525900E5012633DD2067D337C001236
:10AA5D00AAB4940540E57DDF8038E4F52512AAA55A
:10AA6D00E52475F004A47C002525FFEC35F0FE905F
:10AA7D000E2075F003EF12486FEE75F003A42583D9
:10AA8D00F58312489DD2067D3312AAB4940440CDAD
:07AA9D007DDE7FE012EB1AE1
:10AAA40022AD257FE112EB1AE4FD7FE212EB1A22BC
:0BAAB4007FE312D7180525E525C3221B
:069DD8008B248A25892678
:109DDE00129E6E532AFCAD2A7FE412EB1A7D037F8E
:109DEE00E612EB1AE4F52AAB24AA25A926129E7ECA
:109DFE002526F526E43525F525052AE52AC39409F9
:109E0E0040E5129E6EE52A54FC4401F52AFD7FE4DE
:109E1E0012EB1AE4FD7FE612EB1AE4F52AAB27AA41
:109E2E0028A929129E7E2529F529E43528F528052D
:109E3E002AE52AC3941440E57F2012CF8E90F80FA6
:109E4E00E0FF540764046006EF12640870047D2C72
:109E5E0080027DAC7FE412EB1A7D807FE502EB1A67
:109E6E007B007A00792AD2067D017FE412D24C2241
:0C9E7E001244F0FD7FE712EB1A74012281
:10D825007B407DBF7F6012DA4D7B807D7F7FE0127C
:10D83500DA4D7B807D7F7FE412DA4D90F816E0FFAC
:0BD8450012DB1690F817E0FF02DB3C3E
:10D3D000126330C003C002C0011264B912633D126F
:10D3E0006506D001D002D003129DD8E4FB7DBF7F3B
:10D3F0006012DA4DE4FB7D7F7FE012DA4DE4FB7DC5
:06D400007F7FE402DA4D1B
:10B3F60012642B64046011BF0514E05407FFBF04F8
:10B406000D90F801E020E006126488F080061264D0
:10B41600884408F090F80FE05418FF131313541FD4
:10B42600700280361264046401703590F83BE0FCCB
:10B43600A3E0FDA3E0F52AA3E0F52BE4FBFAFFFE6B
:10B4460012B29B90F83BE0FEA3E0FFA3E0FCA3E072
:10B45600FD12BECA12642BBF040302D3D012D82534
:01B4660022C3
:10B29B008E248F258C268D278A288B29E5274526FA
:10B2AB006061E52B452A605B7B807D707F6012DAE5
:10B2BB004DE5245407F50CAD258D0DE5252527E52A
:10B2CB002435265407F50EED2527F50FE5285407F1
:10B2DB00F510AD298D11E529252BE528352A5407C5
:10B2EB00F512ED252BF5137F2012CF8E126437D27A
:10B2FB00067D087C007F6112D718E4FB7D707F60B0
:04B30B0012DA4D22E3
:10BECA008C248D25AB07AA06E4F9F8FFFE7DC07C19
:10BEDA003F124751C006C007AE24AF25AB07AA06DA
:10BEEA00E4F9F8D007D0061264108C0CE4FB7DFC50
:10BEFA007FE412DA4DE4FD7FE612EB1AE50FFFE567
:10BF0A000EFEE50D543FFDE4126413F50CFB7A00B6
:0CBF1A00790DD2067D03FC7FE702D718EA
:10DB16008F24126404FFBF01037524807B867D7009
:10DB26007F6412DA4DAF241263437F6512D718E47F
:06DB3600FD7F6402EB1A02
:10DB3C008F24126404FFBF01037524807B897D70E0
:10DB4C007F6412DA4DAF241263437F6512D718E459
:06DB5C00FD7F6402EB1ADC
:0484A7008D45A9074F
:1084AB00E9540F14603314605C14700302853D149F
:1084BB0070030285672404600302859BE954F0FF77
:1084CB00700590F8118074BF100302858BE954F08E
:1084DB006420600302859B800EE954F0FF700590C9
:1084EB00F81A8057BF100A90F81AE0FF90F8118025
:1084FB003BE954F06420600302859B90F81AE0FF7F
:10850B0090F8138027E954F0FF700590F813802B37
:10851B00BF100A90F81AE0FF90F813800FE954F09F
:10852B006420706C90F81CE0FF90F813E02FC313DD
:10853B00800AE954F0FF700990F81CE07A00FB8088
:10854B004FBF100C90F81CE0C313FF90F813803A48
:10855B00E954F06420703912648F802EE954F07066
:10856B000C90F815E0C313FF90F81E801DE954F032
:10857B00FFBF100512648F8011E954F0FFBF20106C
:10858B0090F811E0C313FF90F81EE02FFBE433FAD1
:10859B00EB25E0FBEA33FAC3EB9410EA648094809A
:1085AB00E545401D90E93C93FD7C00EB24F0FFEA90
:1085BB0034FF1264ED7F0025E0FEEF2DFFEC3E80D3
:1085CB001A90E94493FD7C00C374109BFFE49A124C
:0F85DB0064ED25E0FEC3E49DFFEE9CFE1264817B
:0185EA00226E
:0A78C1008F378C388D398A3A8B3BE3
:1078CB00127A17E4FD7FE212EB1AE537540F7009B9
:1078DB007D031279FD7D8C804BE537540FFFBF0183
:1078EB00097D051279FD7D88803AE537540FFFBF7E
:1078FB0003097D0B127A0A7DC88029E537540FFFE7
:10790B00BF04097D0F127A0A7DCC8018E537540F1E
:10791B00FFBF02157D087FE312EB1AE4FD7FE31234
:10792B00EB1A7DCC7FE312EB1A127A17E53754F082
:10793B002403FD7FE212EB1A754001AD40AF371205
:10794B0084A7E539253BFDE538353A12647DAC3823
:10795B00AD391263B2C3EB9FF542EA9EF541AD40E0
:10796B00AF371284A7E53D253FFDE53C353E12645C
:10797B007DAC3CAD3D1263B2C3EB9FF544EA9EF583
:10798B0043D3E542947FE541648094804008754180
:10799B000075427F8013C3E5429480E54164809477
:1079AB007F50067541FF754280D3E544947FE543D4
:1079BB0064809480400875430075447F8013C3E551
:1079CB00449480E5436480947F50067543FF75446F
:1079DB0080AD427FE312EB1AAD447FE312EB1A0545
:1079EB0040E540C3940950030279467DDF7FE002F6
:0279FB00EB1A85
:1079FD007FE312EB1AE4FD7FE312EB1A227FE31211
:107A0D00EB1AE4FD7FE312EB1A22E537540FFD7FED
:057A1D00E112EB1A224A
:06BA41008F258D828C832D
:10BA4700E525C394085024C374089FFFE49400FEBF
:10BA5700AC2AAD2B1263BA8E338F34C37408952585
:10BA6700FFE49400FEAC2CAD2D801512650DAC2EB5
:10BA7700AD2F1263BA8E338F3412650DAC30AD31F2
:10BA87001263BA8E358F36AD82AC838A3C8B3D8587
:0EBA9700353E85363FAB34AA33AF320278C15C
:105063008F2412642B64046011BF0514E05407FFFE
:10507300BF040D90F801E020E006126488F080067A
:105083001264884408F0E524703D90F810E012643F
:1050930054752F907530FF7531D0E4F5327BFE7A6D
:1050A300017DFFFC1252D8126465125362753220DF
:1050B3007BFE7A01E4FDFC1253627532117BFE7AAA
:1050C30001E4FDFC0251F7E52464017059126356B3
:1050D3007532217B547A017DAC7CFE12BA4190F883
:1050E30012E0FF752A00752B38752C00752D70752D
:1050F3002E00752F38126375753202E4FBFA7D02B8
:105103007CFE12BA411263567532127B547A011235
:10511300521D7532227BAC7AFE12521D7532237BEF
:10512300AC7AFE02516EE5246403704690F819E0F0
:10513300FF752A00752B70752CFF752DD012636FC8
:105143007532017BFE7D017CFF1252AD7532111267
:10515300524A7532217B547DAC7CFE1252AD7532BE
:105163002012524A7532127B547A017DAC7CFE02C6
:105173005200E5246404703A90F81BE0FF752AFF9F
:10518300752BC8752C00752D701263977532037DCE
:10519300017CFF12530175321312527A7532237D4B
:1051A300FF7C0012530175322212527A126471028B
:1051B3005200E5246402701812637C753223126472
:1051C3007412532E12BA4112637C1264710252009C
:1051D300E5246405702A90F810E0C313FF90F81DCE
:1051E300E02F126454752FC8753000753170126446
:1051F3006512532E1252D875322412646812BA41C2
:1052030090F801E030E00912640460047B808002BE
:10521300E4FB7D7F7FE012DA4D227DAC7CFE12BA87
:105223004190F81BE0FF90F812E02FC313FF752A9B
:10523300FF752BC8752C00752D70752E00752F38D2
:105243007530FF753190227BFE7A01E4FDFC12BAC2
:105253004190F812E0FF90F819E02FC313FF752A6D
:1052630000752B38752C00752D70752EFF752FC8A2
:105273007530FF753190227BAC7AFE7DAC7CFE12DB
:10528300BA4190F81BE01313543FFF90F814E02F3A
:10529300FF752AFF752B90752C00752D30752E0028
:1052A300752F70753000753130227A0112BA419032
:1052B300F819E0FF90F810E02FC313FF752A00756B
:1052C3002B70752CFF752DD0752EFF752F907530B3
:1052D300FF7531D02212BA4190F810E0C313FF904A
:1052E300F81DE02FFF752A00752B38752CFF752DDF
:1052F30090752EFF752FC8753000753170227B02B3
:105303007AFE12BA4190F81BE0FF90F812E02FC327
:1053130013FF752AFF752BC8752C00752D70752E1C
:1053230000752F387530FF7531902212BA4190F80D
:1053330014E0C313FF90F81DE02FFF752AFF752BB0
:10534300C8752CFF752D90752E00752F387530009C
:105353007531707532047B517AFF7DA67C01221270
:10536300BA4190F819E0FF90F810E02FC313FF75CE
:105373002A00752B70752CFF752DD0752EFF752F98
:08538300907530FF7531D02256
:109C6D008F23E523C43354E0FF90F80FE0541F4FCA
:109C7D00F0E523B40403029D20E5236405706B9089
:109C8D00F801E030E022E4FF1250637F01125063CF
:109C9D007F021250637F031250637F041250637F63
:109CAD00051250637B808002E4FB7D7F7FE012DA3A
:109CBD004D90F80FE05407FFBF04117D2C7FE41287
:109CCD00EB1A90F801E020E04D029D2012B3F61240
:109CDD006330C003C002C0011264B912633D126546
:109CED0006D001D002D003029DD890F80FE054E0C9
:109CFD00C413126334C003C002C0011264B91263ED
:109D0D003D126506D001D002D003129DD812642BEE
:079D1D0012AA3B12B3F6226B
:10651700785EE6FE08E6FF7873A60608A6077866A3
:10652700E6FE08E6FF786FA60608A6077868E6FE87
:1065370008E67871FFA60608A607227864E6FE0833
:10654700E6FFE4FCFDFB7A0CF9F81246C6E47B0291
:10655700FAF9F8124751AB2AAA29A928A827C30292
:1065670047E3786CA905AA06AB07E6FE08E6FFE451
:1065770022E50C5407F526E50DF5277B007A00790F
:106587000C22742A2FF582E434F8F5832278B2E6D8
:106597002401FF18E43678B9FEC3EF96FFEE18968C
:1065A70022742D2FF582E434F8F58322E6FC08E601
:1065B700FDEC540FFBE7C4F854F0C809E7C4540FC7
:1065C70048547022786AE6FE08E6FBAA06E4F9F862
:1065D70022E47B02FAF9F8124751A804A905AA0692
:1065E700AB0722E4F50FF510F511F512751301FB52
:1065F7007A00790CC2067D08FC7F76221246C6E433
:106607007BE87A03F9F8124751E47B127A02F9F82A
:10661700D30247E378B9E62402FF18E436FEEF54C5
:10662700FCFFEEF608EFF6E52922D3AB0FAA0EA979
:106637000DA80C0247E3C3E5279525FFE52695241A
:10664700FE221896FCE52925E0FFE52833FEC3ED79
:106657009FEC9E2212475178B8EEF608EFF6D394D6
:1066670002EE940022FCE6FA08E62FFFEE3AFED38C
:10667700EF9DEE9C22AB29AA2AA92B0244F07B00AE
:106687007A0079237D012278AEE65470C4540F2234
:10669700FE7867C3EF96EE189622AB32AA31A9307F
:1066A700A82FD30247E3C3E69FFF18E69E22AB2F2E
:1066B700AA2EA92DA82C0247E37B007A007914C2E1
:1066C700067D0322EF26F618EE36F622E6FDD3EF17
:1066D7009D7480F86E9822AB29AA2AA92B1244F040
:1066E700FF22E51454F075F010A4FF2274FFFFFE9B
:0A66F700FDFC22785EE6FE08E622B4
:10A140007875E6F523E4FD7F7D12EB1A12EA557F60
:10A15000FA7E0012E6CA127CD88F22E522703612EF
:10A16000538B8F22E52270251260C18F22E5226079
:10A170000464FE7013E522B4FE0312A1CD127CD854
:10A180008F22E5226018800D12A1CD801112651773
:10A1900012A1D7800312652512EC0A12ADCCE5227C
:10A1A0007006E522648060137858E6FF12D43C12F2
:10A1B0009E8A7858E6FF12D97C800C12651712A18E
:0CA1C000D712EC0A12ADCC12EA55AF2207
:10A1CC00227875A623AF231272E62208E6FE08E673
:05A1DC00FF1248EB2218
:10E838001268DD8F22E522700512C8D3800312D03A
:03E84800BEAF223E
:01E84B0022AA
:10A3B80012EA557D037F7A12E874BF03047F968002
:10A3C800027F328F447545197F017E0012E6CA125A
:10A3D8006582D2067D017F0312D24CE50C30E00C79
:10A3E800E4FD7F0312EB1A75451980021545E54512
:10A3F8006006E50C54C060037FFF2212E9FC78C7B1
:10A40800E61350037FFF22126582D2067D017F7D0D
:10A4180012D24CE50C30E003D544AD126582D20669
:10A428007D017F0212D24CE4FD7F0212EB1AE50C8B
:0EA4380054637004E54470047FFF80027F00CF
:01A4460022F3
:02C9B4008F44AE
:10C9B600754519E4FD7F0312EB1A7F017E0012E62E
:10C9C600CA126582D2067D017F0312D24C530CC176
:10C9D600E50C30E010E544600CE4FD7F0312EB1A31
:10C9E6001544754519E544600C1545E5456006E5B1
:07C9F6000C54C060C5AF0C3A
:01C9FD002217
:0291D9008F37CE
:1091DB007873E6F53A08E6F53BAE3AFFE4FCFDC0E2
:1091EB0004126569D0001246C6C006C0071265CBD3
:1091FB00D007D0061247518E388F397B507D0F7FA9
:10920B001312DA4DE53B2405F53BE4353AF53A7498
:10921B00E0253BF53B74FF353AF53AE539241BFF66
:10922B00E43538126697500280047E007F018E3839
:10923B008F39D3E5399420E5389400400CE5392477
:10924B00E0FFE53834FFFE80047E007F018E388F0F
:10925B00395337FCE53A540FFDE538C4F854F0C8E0
:10926B00E5391265C44DF50C85390D853B0E12653C
:10927B0082C2067D037C007F7012D71885370C8560
:10928B00370D85370E1265EA12D71812A3B88F0C5B
:10929B00E50C6001221266C07F8112D24C1266E986
:1092AB00AEF0EF4515242078B9F6E43E18F6E51438
:1092BB00540FFEE516242078B2F6E43E18F67F0034
:0192CB002280
:027E2C008F3095
:107E2E007873E6F53308E6F534AE33FFE4FCFDC0B7
:107E3E0004126569D0001246C6C006C0071265CB93
:107E4E00D007D0061247518E318F327B507D0F7F77
:107E5E001312DA4DE5342405F534E43533F5337475
:107E6E00E02534F53474FF3533F533E532241BFF4A
:107E7E00E43531126697500280047E007F018E3108
:107E8E008F32D3E5329420E5319400400CE5322454
:107E9E00E0FFE53134FFFE80047E007F018E318FDE
:107EAE00325330FCE533540FFDE531C4F854F0C8BD
:107EBE00E5321265C44DF50C85320D85340E7860B1
:107ECE00E6FC08E6FD2402E43C540FF50F751002A3
:107EDE00AF05EF2402F511126582C2067D067C0005
:107EEE007F7012D71885300C85300D85300E1265D7
:107EFE00EA12D71812A3B88F0CE50C600122126695
:107F0E00C07F7E12D24C1266E9EF45152403FFE4C2
:107F1E0035F078B3F6FC08EFF6FDE514540FFEE5E8
:107F2E00162403FFE43EFE08F608EFF6C39DFFEEAF
:107F3E009C786512659FFE12E8F8D3EF9405EE6407
:107F4E0080948040037FFF2278B6E6184670037F48
:107F5E008022E514547FF50C85150D85160E1265DD
:0E7F6E0082C2067D037C007F7312D7187F004D
:017F7C0022E2
:068360008F378D388B39C8
:10836600E4FD7F7D12EB1AE5375403FB7DFC7F7A33
:1083760012DA4D785A126571FCFDC004785E1265FA
:108386006BD00012660340160538E53A25E0F53A4B
:10839600C3944040097B027DFD7FA812DA4DE53982
:1083A60014541F33333354F8FFE53854074FFD7F19
:1083B6007B12EB1AE53A543FFD7F7C12EB1AAF387D
:1083C6007401A807088002C333D8FCF538E539855F
:1083D60038F0A4253AF537853A42E4F541F540F5FB
:1083E6003FF53EF5437D7B7F7D12EB1A7F0112C977
:1083F600B47D037F7A12E874BF03047F0380027F93
:108406000112C9B4EF54C060051284968047126504
:1084160082C2067D037F8412D24CE4F50FAF41AED3
:1084260040AD3FAC3E126631400F850F41850E4090
:10843600850D3F850C3E854243E5382542F542C30E
:10844600953740AD1284967F0112CF8E12A3B88F56
:108456000CE50C60041266F322785A126571FCFD75
:10846600C0041265E3785E126571D000126603409F
:108476000BE54313AB3BAA3CA93D8008AB3BAA3CAA
:0F848600A93DE543124558AF41AE40AD3FAC3E76
:1084950022E4FD7F7D12EB1AE4FB7DFD7FA812DA55
:0284A5004D2266
:10D85000EF5403FB7DFC7F7A12DA4D7D3B7F7D1216
:10D86000EB1A12A3B88F0CE50C600122126582C27C
:0BD87000067D047F8412D24C7F002252
:10538B001266FA787312653BE654FCF618125692C5
:10539B007F40127E2C8F24E5246001227862E6FE8A
:1053AB0008E67803C333CE33CED8F9FF7C007D0AF1
:1053BB0012459E785F1266ADC313F528EF13F529DE
:1053CB00E4F52AF52BF52675270A1256886001227B
:1053DB00126594FE78B1F608EFF67862E6FC08E603
:1053EB00FDC3EF9DEE9C505DC3ED78B296FDEC12C4
:1053FB006649400302549BAF05AE04E4FCFDC004B8
:10540B001265E37873126571D0001246C6C006C0F0
:10541B000778621265CDD007D00612665B50030287
:10542B0054CB12661B785F26FDE52818367873126D
:10543B00666C400302549B78B8E6FE08E67874125B
:10544B0066CC0254B0C379B2E7786396FD19E712C4
:10545B0066494002803AAF05AE04E4FCFDC004127D
:10546B0065E37873126571D0001246C6C006C0079B
:10547B0078621265CDD007D00612665B4042126689
:10548B001B787426FDE5281836785E12666C40088A
:10549B00752A00752B01800DC37874E679B997F6E0
:1054AB0018E61997F6E52B452A7015787312569264
:1054BB00E52715277002152614452660030253D5E0
:1054CB00E52745266008E52B6401452A70037F809C
:1054DB002278B1E6FE08E6FFC3786396EE18964095
:1054EB00127974E7785F96FD19E71896FCED640462
:1054FB004C601A786312669A5040C3795FE77874F0
:10550B0096FF19E71896FEEF64044E702D1266FA9B
:10551B00FF7873EEF6FE08EFF6FF1248EB12568893
:10552B0060012278B2E62401FF18E436FEC3EF785F
:10553B00B99679B2F7EE189619F77873E6F52A084B
:10554B00E6F52BC37963E778B29619E718967E00D8
:10555B0040047F0480027F0278741266CBE6FE085B
:10556B00E6FF1248EB7D187F7912EB1A852A268508
:10557B002B27E4F52FF52EF52DF52CF5287529069F
:10558B007F501291D98F24E524600122126594FE7D
:10559B0078B1F608EFF67863E62402FD18E436FCE2
:1055AB00D3EF9DEE9C400BE4F50FF50EF50DF50CCE
:1055BB008028E4F53AF53B753C00753D257B087D6D
:1055CB00037F031283608F0F8E0E8D0D8C0C126672
:1055DB00F3C312663270037FFF22AF0FAE0EAD0D19
:1055EB00AC0CC31266B55015850F2F850E2E850D8D
:1055FB002D850C2C7873E6F52608E6F527E529456D
:10560B002870161266FAFFD37874E69F18E69E4050
:10561B002AEEF6FE08EFF6801B74FE2529F5297499
:10562B00FF3528F528787474FE26F61874FF36F6C5
:10563B00E6FE08E6FF1248EB02558BAF2FAE2EAD00
:10564B002DAC2CE47B03FAF9F81247518F2F8E2ED9
:10565B008D2D8C2C7862126571FCFD780A1248072F
:10566B00D31266B54006AE26AF278004AE2AAF2B09
:0C567B007873EEF608EFF61248EB7F00A3
:10568700227F501291D98F24E52422E6FE08E6FFF7
:045697001248EB22A8
:1060C1007F401291D98F24E5246001227D801262E4
:1060D100AA70037FFF22E4FFFEFDFC12655D7003E1
:1060E1007F8022126542501F7D401262AA70037F99
:1060F100FF22E4FFFEFDFC12655D70037F8022122A
:10610100654250037FFE22E52424F8543FF53A7599
:106111003B00753C00753D247B087D017F031283A4
:10612100608F2A8E298D288C271266F312655D7087
:10613100037FFF22E4FFFEFDFC12655D70037F809B
:1061410022E52424FD543FF525FF1272E67F031258
:10615100D850EF60037FFF22850F2E850E2D850D10
:106161002C850C2B1262DE60037FFF22850F3285A6
:106171000E31850D30850C2FE5242403543FF52481
:10618100E4F52AF529F528F5271262DE60037FFF81
:1061910022850F36850E35850D34850C33AF2EAE35
:1061A1002DAD2CAC2B1266A14016E532952EFFE5E4
:1061B10031952DFEE530952CFDE52F952BFC8015B5
:1061C100C3E52E9532FFE52D9531FEE52C9530FD89
:1061D100E52B952FFC1265D8E5362532FFE53535DF
:1061E10031FEE5343530FDE533352FFCEF252EFF4B
:1061F100EE352DFEED352CFDEC352BFC1246B8C0ED
:1062010004C005C006C007AF36AE35AD34AC33129D
:1062110066A14016E5329536FFE5319535FEE5304C
:106221009534FDE52F9533FC8015C3E5369532FF96
:10623100E5359531FEE5349530FDE533952FFC12BA
:1062410065D8D007D006D005D0041246B88F0F8E7E
:106251000E8D0D8C0CAF2AAE29AD28AC27126631FC
:106261004013850F2A850E29850D28850C27E525E4
:1062710014543FF52685322E85312D85302C852FFE
:106281002B85363285353185343085332FE52565CB
:1062910024600302618A7875A626AF261272E67D14
:0862A100407F7912EB1A7F0027
:1062A900227F7912EB1AE4F53AF53B753C00753D0E
:1062B900247B087D037F031283608F2A8E298D2812
:1062C9008C2774FFFFFEFDFCAB2AAA29A928A82761
:1062D900C31247E322E52504543FF525FF1272E670
:0762E9007F0312D850EF22E1
:107CD8007F40127E2CEF6001227F401291D9EF6025
:107CE8000122126582C2067D027F0D12D24C1265F6
:107CF80078C2067D017F1112D24C7B007A00790D83
:107D0800C2067D017F1312D24CE50D5402F524E51D
:107D18000CF52578B3E6FE08E6FFC39525F525EEB4
:107D28009524F52478B61266ADCF2401CF3400FE31
:107D38007864E6FC08E6FDC39FF529EC9EF528D398
:107D4800E5299403E528648094804016EF9DFFEEB2
:107D58009CFE12E8F87C007D021245F38E288F29DC
:107D68008005E4F528F52912663DC378721266AEDF
:107D7800FEC3EF786996FFEE1896CFC39529CF9585
:107D880028FE12E8F878AD1266D3501DC3E5279592
:107D980025CFE5269524CF2529CF3528FEC378722F
:107DA800E69FF618E69EF6800312653312ADCC12F4
:107DB8006582C2067D027F0912D24C126578C2061E
:107DC8007D027F1212D24CE50D5401F524E50CF525
:107DD80025C378B9E69525FF18E69524CF24FEF546
:107DE80025EF34FFF52412663DEF787026FFEE1874
:107DF80036FEC3EF786796FFEE1896FE12E8F8781D
:107E0800AC1266D3500A12663D78701266CB800EAB
:107E18007866E6FE08E6FF786FA60608A60712EC65
:037E28000A7F00CE
:017E2B002234
:1068DD00D205E4F527742A252712658C7480F0748F
:1068ED002D25271265AB7480F00527E527B403E548
:1068FD0012EC2D7F40127E2C8F23E5236001227F29
:10690D00401291D98F23E5236001221266857F0203
:10691D00129AFAEF60037F8022E523C3946050033F
:10692D007F80221266857F01129AFAEF60037F80C5
:10693D0022E523C3946050037F8022126685E4FF15
:10694D00129AFAEF60037F8022E523C3946050030F
:10695D007F802278B77605126A9A75260220050384
:10696D00026A867527307B007A007924AF2612B92A
:10697D00108F23E523B4800122E523644060737BEF
:10698D00007A007925AF2612A3208F23E523B4804A
:10699D00012212668EFFBF060BE5266401600575A8
:1069AD0023808003752302E524B4FA06E5256523CB
:1069BD006040E527D394084030E524D394FB50295B
:1069CD00E524C394F94022E5232401FFE433FED3EB
:1069DD00E5259FEE6480F8748098500DE52314FF33
:1069ED00E525C39F40037527081527E5276003029A
:1069FD006973742A252612658CE0D394F0402678AD
:106A0D00B7E6B40718E526B402057526018047E5FB
:106A1D0026B40105E4F526803DC2058039752602B0
:106A2D0078B7068031742A252612658CE0C3941E32
:106A3D00502C78B7E6B40418E526B4020575260186
:106A4D008014E526B40105E4F526800AC20580060A
:106A5D0075260278B71678B7126A9A02696AE52622
:106A6D00B4020675260102696AE526B40106E4F54D
:106A7D002602696AC20502696A90F82AE06008A3D5
:0C6A8D00E06004A3E070037F80227F0023
:106A990022E6C45430F53B7BCFE4FD7FDC12CF4FB7
:086AA9007F017E0012E6CA2203
:109AFA008D2E8B2F8A308931BF0304AB078005C3B3
:109B0A0074029FFB7DF87F7A12DA4DE52E7030756C
:109B1A000C12750D80F50EF50F78B3E6FE08E6FF18
:109B2A00D39409EE940040067E007F098008EF2452
:109B3A00FFFFEE34FFFE8F10E51004F51180227846
:109B4A00B179B81265B34BF50C78B9E6F50D8D0EFF
:109B5A0078B579B31265B34BF50F78B4E6F5108D85
:109B6A0011126582C2067D067C007F7012D718E545
:109B7A002E5401C43354E04401FD7F7D12EB1A12C6
:109B8A00A3B88F0CE50C600122AB2FAA30A931C211
:109B9A00067D017F8712D24CE52E700DAB2FAA30BD
:0C9BAA00A9311244F0F41245587F00224B
:08B910008F288B298A2A892B5C
:10B918007D01129AFAEF60037F80221266DED394CB
:10B92800FA4020EF2406F52CE4FBAD2CAF2812CB0F
:10B9380020EF6037E4FB7D04AF2812CB66EF602B65
:10B948007F40221266DEC394FA5020C374FA9FF532
:10B958002C7B01FDAF2812CB20EF600F7B017D040B
:0DB96800AF2812CB66EF60037F40227F0006
:01B9750022AF
:08A320008F288B298A2A892B62
:10A3280012668EFFBF060BE52864016005752D8057
:10A338008003752D02AB29AA2AA92BE4FDAF2812A8
:10A348009AFAEF60037F802212667CFFD3952D4036
:10A3580016EF952DF52CD3940840047D088004AFA2
:10A368002CAD07E4FB804112667CFFC3952D503D60
:10A37800C3E52D9FF52C12668E64067019E52864D6
:10A38800016013E52CD3940840047D088004AF2CA9
:10A39800AD077B01801212667C7009E52C2404FD50
:0FA3A8007B0180047B01AD2CAF2812CB667F00B8
:01A3B7002283
:10CB2000E4F52DEB601A126589E0FEC39D742A407E
:10CB30000912658BC3EE9DF0802612658BE4801C84
:10CB4000126589E0FEC374FF9DC39E742A400812DB
:10CB5000658BE02DF0800912658B74FFF0752D0157
:05CB600012D7FAAF2D11
:01CB650022AD
:10CB6600E4F52EEB601A1265A8E0FEC39D742D4015
:10CB7600091265AAC3EE9DF080261265AAE4801C00
:10CB86001265A8E0FEC374FF9DC39E742D40081273
:10CB960065AAE02DF080091265AA74FFF0752E01D2
:05CBA60012D62FAF2E96
:01CBAB002267
:10B30F00C0008004010F8080000000000000323276
:10B31F00000A3200000000028002008408080808BA
:10B32F00080896800008080808080891828A878E06
:10B33F008E7B808080808081808387817689816EFB
:10B34F0080808080808061606367615669614E8014
:10B35F0080808080808080808080808080808080DE
:10B36F0080808080FFFFFFFFFFFFFFFFFFFFFFFFDA
:04B37F00FFFFFFFFCE
:10569B0075F01390002712486FE40893FE74019382
:1056AB00A60608F622F0A3F0A3F0A3F07B017AF88C
:1056BB00799822E6FC08E6FDECA3F0AF05A3EFF02A
:1056CB0008E6FC08E6FDECA3F0AF05A3EFF008E657
:1056DB00FC08E6FDECA3F0AF05A3EFF022748C25DC
:1056EB003DF582E434F8F583E07F0025E025E0FE0C
:1056FB00EF22E52975F007A47B0124FFF974F73538
:10570B00F0FA7E00E92528F9EE3AFA1244F0FF741C
:10571B00982528F582E434F8F58322758300124529
:10572B0009FD748C2537F582E434F8F583E025E028
:10573B0025E022E0FDEEF6ED08F6A3E0FEA3E0FD8A
:10574B00EE08F6ED08F6A3E0FEA3E0FDEE08F6ED9D
:10575B0008F622AB28AA29A92A852E827583001266
:10576B004509FF90F881E0FD75F008A4252EF58220
:10577B00E435F0F583E5822290002775F01312488B
:10578B006FE493FC740193FDEC22FA7879E675F0E3
:10579B0003A4F58285F08302450975F008A4240063
:1057AB00F582E5F03EF583E58224F8F582E5833456
:1057BB003FF583E0547F2274922537F582E434F869
:1057CB00F5832278AEE65470C4540FFF25E025E034
:1057DB002440F582E434B3F583E49390F831F0EF91
:1057EB0025E025E02441F582E434B3F583E49322EC
:1057FB0078767C007D007AB3790F7BFF7E007F0685
:10580B000244CA7A002FFFEA3EFE74F82FF5827429
:10581B003F3EF583E0222F7A00FFEA3EFE74002F15
:10582B00F58274403EF583EDF02278AEE65470C4F9
:10583B00540F2275F008A42400FFE5F022E536543E
:10584B000375F004A42537F582E435F0F583AB330B
:10585B00AA34A935227486253DF582E434F8F58304
:10586B002224FEF58274433EF58322E6A3F008E67C
:10587B00A3F008E6A3F022E0F6A3E008F6A3E00805
:10588B00F622F090F88202481A78007CF87D017BB2
:10589B00FF7AB3791B7E007F1F2275F013900021D6
:1058AB00227F0790F89974FF22752B01752CF975DF
:1058BB002D007B017AF979802224FFF58274433E17
:1058CB00F5832224FDF58274433EF5832224FCF5F7
:1058DB008274433EF5832224FBF58274433EF583A9
:1058EB0022F582E434F8F58322FD74802EF582E4F0
:1058FB0034F9F583EDF022AB38AA39A93A22E0FE50
:10590B00E53E5407FD7401A8050822E529241D90E6
:10591B00F898F0752801222400F582E583347BF595
:10592B0083E0222480F582E583347BF583E022E556
:10593B003E131313541F2290F89BF0A3EDF075F058
:10594B00132274002EF582E434F9F5832275F013DB
:0E595B0090002522AB2BAA2CA92D852E82228E
:10D87B00907FFFE0641260028005127F7D400612EC
:10D88B00AFC302957D12DA2412E38612BC3012BDAF
:0BD89B005012DB8812C49612C2F0226B
:10957D0078C6E6A2E150277858E6FFC39410501E36
:10958D00EF1313543FFF7B007A00790C12B5B878B6
:10959D0058E6540325E025E0240CF8E6F52312E8FF
:1095AD004C12B13412D6BC12AF4812EC3312EB8E02
:1095BD0012D0BE12EB5E12CBAC12EC6D12E77378CB
:1095CD00C6E6A2E150687858E6C394105060787BE7
:1095DD00E6C3940F4004E4F68003787B06785AE6E0
:1095ED00F52408E6F52508E6F52608E6F527783290
:1095FD007C007D007B007A0079237E007F0512447C
:10960D00CA12CE4EE4786EF6E5231259581256A1C1
:10961D00E52312569BE5231258A51256A1E408F630
:10962D00787BE6FF12D43C787BE67858F62278C634
:10963D00E6A2E1400B7858E6FF9446500312BF8234
:01964D0022FA
:10D43C00786EE6FEC433333354804F90F898F0087E
:10D44C001256BE08E6A3F078C6E6A2E140071256D3
:10D45C00B7E4FF800C78C6E6A2E150081256B77FFD
:05D46C00031299722279
:02BF82008F2806
:10BF840078C6E6FFA2E14005E4F5298008EFA2E1C6
:10BF940050037529031256B7AD28AF2912B626509F
:10BFA4001A90F898E0C41313135401786EF6A3E0C2
:10BFB400FEA30812573EA3E008F622E4786EF6E5E5
:10BFC400281259581256A1E52812569BE5281258F2
:07BFD400A51256A1E408F6D6
:01BFDB002243
:10B13400E4F5281256B7AD28E4FF12B62650329033
:10B14400F898E528F090002512578690F899F0A316
:10B15400EDF0E528125783125942E5289000211298
:10B16400578990F89DF0A3EDF0E41256B5FF1299BB
:10B17400720528E528C3944640B9E4F5281256B769
:10B18400AD287F0312B626501590F898E528F012E2
:10B1940058ACF0A3DFFC1256B77F0312997205284E
:07B1A400E528C3941040D61A
:01B1AB002281
:10CE4E00E535540FFEE4C4F8540FC868FFEEC45421
:10CE5E00F048FEE533540F4EF533EF4534F5347894
:10CE6E007BE690F898F0A3E532F0E533A3F0A3E566
:10CE7E0034F0A3E536F0A374FF1256B27F02029986
:01CE8E007231
:08B5B8008F328B338A34893590
:10B5C000E53225E025E0F536E53275F004A42404E3
:10B5D000FFE435F0FEC3E5369FEE6480F874809892
:10B5E00050431256B7AD367F0212B6265020E4F50E
:10B5F0003774992537F582E434F8F583E0FF125863
:10B6000048EF12456A0537E537B404E58012E4F5E2
:10B610003712584874FF12456A0537E537B404F10C
:05B62000053602B5C86B
:01B625002202
:10D6BC00E4F5281256B7AD287F0212B62650159005
:10D6CC00F898E528F01258ACF0A3DFFC1256B77F9F
:0DD6DC00021299720528E528C3941040D66B
:01D6E900221E
:10D97C0078C6E6FEA2E140057524018008EEA2E11E
:10D98C00500375240490F898EFF0787C1256BEA3DF
:0AD99C0074FF1256B6AF2402997210
:02C3EF008F2499
:10C3F10078C6E6FFA2E140057525018008EFA2E1BC
:10C4010050037525041256B7AD24AF2512B6265038
:10C411000C90F899E0FEA3787C12573E2275F01338
:10C42100E52490002512486FE4787C1256A675F039
:10C4310013E52412569E75F013E52490002112563F
:01C44100A159
:01C4420022D7
:10AF4800E4F5281256B7AD287F0112B62650359081
:10AF5800F898E528F012595812578990F899F0A3F3
:10AF6800EDF0E528125783125942E5289000211286
:10AF7800578990F89DF0A3EDF0A374FF1256B67FA1
:10AF8800011299720528E528C3944640B6E4F528CD
:10AF98001256B7AD287F0412B626501590F898E5DA
:10AFA80028F01258ACF0A3DFFC1256B77F041299B0
:0AAFB800720528E528C3941040D666
:01AFC200226C
:10E5E00090F8987401F0787612587608125876A34D
:0AE5F00074FF1256B67F05029972FF
:10E386001256B77D017F0512B626500E90F8997881
:0EE3960076125882A308125882221257FB22D8
:06EC33001257FB02E5E0B0
:10C75800E4F529F5291259161256FDEFF00528E5DA
:10C7680028B408F41256B77F051299720529E529ED
:10C77800C3940440E01259161256FDEFF00528E55F
:10C7880028B403F475280312571A74FFF00528E536
:0CC7980028B408F31256B77F050299720E
:10BC3000E4F522E522241DFD1256B77F0512B62633
:10BC4000503E752301E522B404047F0380027F087F
:10BC5000E523C39F50307498252312571EE0FDE55D
:10BC60002275F007A47B0124FFF974F735F0FA7E02
:10BC700000E92523F9EE3AFAED124558052380C56F
:0FBC80001258940244CA0522E522C3940540A439
:01BC8F002292
:09EB8E001258941244CA02C7583F
:10C8D30012583570047F0280027F0390F898EFF0BE
:10C8E30090F82AE090F899F090F82BE090F89AF0FD
:10C8F30090F82CE090F89BF090F82DE090F89CF0E5
:10C9030090F82EE090F89DF090F82FE090F89EF0CC
:0BC9130078B7E61256B57F0502997256
:10BD500012583570047D0280027D031256B77F05AC
:10BD600012B626503890F899E090F82AF090F89A98
:10BD7000E090F82BF090F89BE090F82CF090F89C75
:10BD8000E090F82DF090F89DE090F82EF090F89E5D
:10BD9000E090F82FF090F89FE078B7F622782A7CB0
:0FBDA000F87D017AB3793A12580578B776052203
:10D0BE00125835F528782A7CF87D017BFF7AB379F2
:10D0CE003A12580778B7760578AEE6548FF612C83E
:10D0DE00D378AEE6548F4460F612C8D3E528C45414
:09D0EE00F0FF78AEE6548F4FF616
:01D0F7002216
:10DB6200125835240490F898F090F831E090F89922
:10DB7200F090F832E090F89AF0A374FFF0A31256F6
:06DB8200B07F050299725C
:10DB88001258352404FD1256B77F0512B626500EDA
:10DB980090F899E090F831F090F89AE080031257E5
:06DBA800CE90F832F022DD
:0AEB5E001257CE90F832F002DB628D
:10D32C0012583575F005A4FF7879E6540F24092FAF
:10D33C0090F898F090F835E090F899F090F836E085
:10D34C0090F89AF090F837E090F89BF0A374FF12E5
:07D35C0056B07F0502997233
:10C496007879E6540F2409FD1256B77F0512B626A1
:10C4A600501690F899E090F835F090F89AE090F8E8
:10C4B60036F090F89BE080257BFF7AB37946787951
:10C4C600E6FF12579990F835F07AB30975F003EF45
:10C4D60012579C90F836F07AB30912579690F837AF
:02C4E600F02242
:10CBAC0012583575F00FA4FFAEF02446F974B33E5D
:10CBBC00FA7BFF12579690F835F074472FF974B33F
:10CBCC003E12579590F836F078AEE65470FFC45488
:10CBDC000F75F00FA42448F974B335F012579590E3
:06CBEC00F837F002D32C23
:10C2F00090F881E07002802590F881E0FF541F6083
:10C300003EEFC3942050197420F0752BFF752C82DA
:10C31000752DAA7BFF7A82792A12A563E4FF80211A
:10C3200090F881E0C4135407C43354E0F07F011245
:10C33000BFDC90F881E02420F01258B402A5637F9E
:05C340000112BFDC2228
:10BFDC0090FF207406F0EF701AFEEE90822A9312F6
:10BFEC0058F4EE9082AA93FD12594DEDF00EBE80DE
:10BFFC00E9802FEF6401702AFE90F881E0FF75F064
:10C00C0008A42E1257791259221258F475F008EF21
:10C01C00A42E12577912592EFF12594DEFF00EBE65
:08C02C0080D790FF207407F09B
:01C0340022E9
:03EC6D0002C2F0F0
:06A563008B288A29892AD9
:10A56900E4F52E12575E1259226F701D12595FF5CC
:10A5790083124509FF75F008ED12577612592EB569
:10A589000707052EE52EB480DAE52EC394805056D0
:10A5990090F881E0C3946040107F1F12E4CF907F50
:10A5A900FF7412F0E490F881F0E4F52E12575E245E
:10A5B90000F582E583347CF583EFF012595F7583EA
:10A5C90000124509FF75F008ED1257762480F582CF
:10A5D900E583347CF583EFF0052EE52EB480CD902C
:06A5E900F881E02420F0DF
:01A5EF002249
:06EC39001258B402A563AD
:10AFC3007F1F12E4CF400122752210AF2212E4CF7B
:10AFD3004001220522E522C3941640EFE4F522E561
:10AFE300221256F41258C4E522F0EF12586CE4F022
:10AFF3001258CEE4F01258D8E4F01258E2E522F0E9
:10B003002486125864E522F0248C1258ECE522F0D1
:10B0130024921257C6E4F00522E522B406C1907FBC
:10B02300FF7412F090F8807406F090F88212483E94
:0AB0330000000000E490F881F0D363
:01B03D0022F0
:10E4CF00EF33333354F8440190FF39F07BFF7AEB8D
:0CE4DF0079327F2812E3E0400122D322B2
:107F7D00E4F527F526F525F524F52890F882124825
:107F8D003E00000000E4F52274862522125864E5B7
:107F9D0022F00522E522B406EFE4F523E4F522E50F
:107FAD00221256F41258C4E0FD748625231258642B
:107FBD00E0FFED6F600302807EE522FB1256F412A6
:107FCD0058CEE0FCEF1258D8E06CFCEB1256F612CE
:107FDD00586CE06CFFED6FFDE5221256F41258E27D
:107FED00E06D600302807E748C25231258ECE5222F
:107FFD00F0FF12DC6B749225231257C6EFF0E522C9
:10800D007D0025E025E0FCED24FDF58274433CF573
:10801D0083E07B00FAED24FCF58274433CF583E0AC
:10802D007E007810C333CE33CED8F9FFEE4AFCEF85
:10803D004BFDE5221256F412586CE0FFECFEED4FAD
:10804D00FFE48F278E26F525F52412588EAB27AA2F
:10805D0026A925A824D31247E34029AF27AE26AD84
:10806D0025AC2490F88212483290F880E522F080F9
:10807D0013E522B40E02C3220522E522C3940F504C
:10808D0003027FAC0523E523C394065003027FA9A9
:10809D007F0F12DC6B90F881EFF0E4FFFEFDFCA387
:1080AD00124826C31247E390F88070057406F080DD
:0C80BD000AE0FF12D50C90F880EFF0D321
:0180C9002294
:02DC6B00A90707
:10DC6D007D7FE4FCE925E025E0FAED12583E3AFE11
:10DC7D00EC12580EF46003AF05220CBC08E6DDE291
:02DC8D007F0016
:01DC8F002272
:10D50C00E4FEBF0E03FF80010FEEFD3395E0FC74CB
:10D51C008C2DF58274F83CF583E0B5070ABF0E0438
:10D52C00E4FF80010F7EFF0EC3EE6480948640D929
:01D53C0022CC
:10E84C00E490F898F01258ACF0A3DFFC1256B77FA6
:04E85C0005029972A6
:10E77300E490F898F07F0790F899E4F0A3DFFC1297
:07E7830056B77F05029972F1
:10DA24001256B7E4FD7F0512B6265019752201740B
:10DA340098252212571EE06002800A0522E522C3BF
:08DA4400940840EB2212957DCD
:01DA4C0022B7
:089972008F378B388A39893ADE
:10997A00D20674922F1257C6E004F53BE53BD39406
:10998A0000404912572DFEE53B1257A5FF12590216
:10999A001244F0547F6F7028F53C125902853C82BC
:1099AA00125726FAE53B12583E3AFEE53C12580E8B
:1099BA006D6004C2068015053CE53CB408DC800CE9
:1099CA00E53BB40102C206153B02998620065D12E8
:1099DA0057C2E0B47F05AF37026FC1753B01125918
:1099EA0002853B82125726FA1257C2E012583E3AB3
:1099FA00FEE53B125821053BE53BB408E11259024A
:109A0A001244F012572CFE1257C2E075F008A42433
:109A1A0000F582E5F03EF583E5822400F582E583D0
:0C9A2A003440F583EDF01257C2E004F068
:019A3600220D
:0AB626008F388D398B3A8A3B893C3E
:10B6300074922F1257C6E004F53DE53DD3940040C7
:10B6400050748C2538125731FEE53D1257A56539E7
:10B650007033F53E748C2538125731FCE53D125895
:10B660003E3CFE7C00EF253EFFEC125813AB3AAA9D
:10B670003BA93C853E8275830012456A053EE53E46
:10B68000B408D1800CE53DB40102C322153D02B6D9
:02B690003AD3AB
:01B692002295
:026FC1008F3D02
:106FC300754001748C2F1258ECE0F54190F880E085
:106FD3002410FF12E4CF400122E4F97498291257D8
:106FE3001EE0FD90F880E025E025E0FEE924001294
:106FF300582209B908E590F898E0547FF53EE4F586
:107003003F7498253F12571EE4F0053FE53FB4084F
:10701300F012593AFF249812571E1259098002C3DD
:1070230033D8FC4EFE74982F12571EEEF090F88062
:10703300E0FF748C253D1258ECEFF012D50C90F85C
:1070430080EF12588DEF2401FFE43EFEE43DFDE4A2
:107053003CFC90F882124832797FE54125E025E037
:10706300FE75F008E91257A8F53E647F70030270BD
:10707300F112593A249812571EE0FD7C00E53E5464
:1070830007FF74017E00A807088005C333CE33CE03
:10709300D8F9FFEE5CFEEF5D4E7053F53FE54125F9
:1070A300E025E0FCE912583E3CFE7C00EF253FFF63
:1070B300EC125813FD748C253D125731FAE540123A
:1070C300583E3AFEE53F125821053FE53FB408CD4F
:1070D30012593AFF249812571E1259098002C333DA
:1070E300D8FC4EFE74982F12571EEEF0054019E996
:1070F300600302705D7492253D1257C6E540125835
:107103008D78101247F4AB071256E81258D8EB12D9
:10711300588D78081247F4AA071256E81258CEEA97
:1071230012588DAD071256E812586CEDF0125860E4
:10713300E0FC1256E81258C4ECF0EB6A6DFF1258EB
:1071430060E06FFD1256E81258E2EDF0E5412410BD
:08715300FF12E4CF400122D33A
:01715B002211
:1097E600AE3AAF3B7C007D021245F3EF2BF53BEE24
:1097F6003AF53AAB2BAA2CA92D0246291246C6E405
:109806007B02FAF9F81246C6AB31AA30A92FA82E68
:1098160012CCC08E3A8F3BD3E53B9400E53A648088
:1098260094802290F839E0FEA3E0FBAA06E4F9F85A
:10983600AE36AF3722AB35AA34A933A832AF31AE34
:1098460030AD2FAC2E1246B8A80422A804A905AA4A
:1098560006AB07E0FEA3E0FFE4FCFD22AEF0FBE46E
:10986600C39BFF74809EFEE49400FDE49400FC22FA
:109876007A00790C7B00D2067D0122E53B5401FF7C
:10988600C3E49FFFE49400FAAB072290F839E0FCAA
:10989600A3E0FDEC22AB05AA04E4F9F8E53722AB18
:0698A6002BAA2CA92D22C3
:10D9A6007876E633501C78AEE6A2E25015129876E9
:10D9B6007F0212D24CE50C54037007E50C20E702F7
:0AD9C600C32278AEE654F7F6D32230
:066C6A008B2B8A2C892D02
:106C7000E4FD7F1F12EB1A7D807F4412EB1A1297FE
:106C8000F9FFAEF012CD045002C322126DFCF536AE
:106C9000E50DF537E4FD7F4412EB1A1297F9FFAECC
:106CA000F012CD045002C322126DFCF538E50DF54B
:106CB00039129829FCFD1246C6A804A905AA06ABFC
:106CC00007AE38AF39E4FCFD1246AB8F318E308D04
:106CD0002F8C2ED3E5399490E5389401402B1298EF
:106CE0009113FEED13FFE5392470FBE53834FEFA0D
:106CF000D3EB9FEA9E400D12989B2401FFE43536AA
:106D0000FEE48031129829802C129891C313FEED75
:106D100013FFC374909539FB74019538FAD3EB9F38
:106D2000EA9E400E12989B24FFFFE53634FFFEE4F6
:106D30008003129829FCFD1246C6EF2490FFEE3422
:106D400001FEE43DFDE43C8F358E348D33F5321287
:106D5000983BC005C006C0071297F9129862D0038D
:106D6000D002D0011298024009E53B54017A00FBA1
:106D700080031298811297E6126E105002C322E52A
:106D80000C606990F83930E114129859E5352FFFFD
:106D9000E5343EFEED3533FDEC35328017E0FEA3E1
:106DA000E0FBC3E5359BFFE5349EFEE5339400FD33
:106DB000E53294008F358E348D33F53212983BC016
:106DC00005C006C0071297F9129862D003D002D00E
:106DD000011298024009E53B54017A00FB8003123E
:106DE00098811297E6126E105002C322AB2BAA2C88
:0B6DF000A92DE53A853BF012468CD33C
:106DFB00227B007A00790CC2067D027F4412D24CB2
:106E0B00E50C540F22AEF0253BF53BEE353AF53A47
:076E1B00AF3BFE12CD042283
:10BC90008B2B8A2C892DE4FF12E7E4900A21E49390
:10BCA000FF1298A5E48FF01246541298A512462967
:10BCB000FFAEF012CD0450037F0222E50C602E127D
:10BCC00098A530E10D12462924FFFFE5F034FFFE70
:10BCD000800A1246292401FFE435F0FE12CD0450FB
:10BCE000037F0222E50C540360037F01227F0022C0
:108CD700E4F52EF52DF52CF52BFB7DFC7F4712DAFD
:108CE7004D7B107DEF7F5012DA4D12EB7C7BFF7AC4
:108CF700E9795D7F3C12E3E04003028DCA7B407D4A
:108D0700BF7F5212DA4DE4FD7F5912EB1AE4F50CDE
:108D1700FB7A00790DD2067D037F5912D24C850F5D
:108D27002E850E2D850D2C850C2BE4FB7D5F7F5248
:108D370012DA4D7A00793312987A7FAE12D24C0547
:108D47003305337B007A007934D2067D017FAF1279
:108D5700D24CE5345430C4540FFF7401A80708807F
:108D670002C333D8FCF534FFE4FCFDFEFBFA7908B7
:108D7700F81246C690F8391298511246C6AB2EAA79
:108D87002DA92CA82B12475190F83D129851124645
:108D9700C6C007AF33AB07E4FAF9F8D0071247515B
:108DA7008F328E318D308C2FC3E49532FF748095CE
:108DB70031FEE49530FDE4952F8F328E318D30F5FD
:108DC7002F800BE47532FF7531FFF530F52FE4FB8B
:0B8DD7007DEF7F5012DA4DAE31AF325D
:018DE200226E
:10CD04008E3C8F3DE4FB7DFE7F4712DA4D12EB7CB7
:10CD1400AF3DAE3C12DFCBE4FD7F0212EB1A7F087D
:10CD240012CF8E7F0812CF8E12A930500122129892
:10CD3400767F0212D24CE50C54606002D322530C6D
:03CD440003C32204
:10715C00E4F528FB7A00790CC2067D027FB512D2C9
:10716C004CE50C540FF523E50DF524E4FB7DFD7F78
:10717C00BB12DA4DE4FF12E7E4128CD78E258F2672
:10718C0012CD0450037F0222E50C7053432801E515
:10719C00262418FFE43525FE12CD0450037F02226D
:1071AC00E50C7003432802E52624E8FFE52534FFAF
:1071BC00FE12CD0450037F0222E50C700343280419
:1071CC00E528B40309740C2526F526E4800DE52882
:1071DC00B4050C74F42526F52674FF3525F525E544
:1071EC002860030272BFAF24AE2312DFCBE4F52874
:1071FC00752718AF24AE2312CD0450037F0222E56D
:10720C000C603CE50C30E11AE5287E0030E0047F90
:10721C000C80027F18C3E5249FF524E5239EF523FB
:10722C008017E5287E0030E1047F0C80027F18EF88
:10723C002524F524EE3523F523850C28D527B4E534
:10724C002770037F0122E528701CE5242418FFE435
:10725C003523FE12CD0450037F0222E50C6003FFA0
:0F726C0080027F018F288523258524267527041E
:10727B00E52830E00BE526240CFFE43525FE800ADB
:10728B00E52624F4FFE52534FFFE8E298F2A12CD47
:10729B000450037F0222E50C7009852925852A26D7
:1072AB00D527CDE5242526FFE5233525C313F52565
:1072BB00EF13F5267B007A007925126C6A40037F69
:1072CB0002227B007A00792512BC908F28E528607A
:0A72DB00012278AEE64408F67F00B9
:0172E5002286
:10E8600012E53E7827E475F001024884D29012E860
:04E8700088C29022A8
:10E888000000000000000000000000000000000080
:03E898000000225B
:10E7F900D29012E8883090FDD291C29112E888C275
:05E809009012DBAE22BD
:0AEB6800C291D29012E888D29122E7
:10E90A00D291D29012E888A291E433FFC290D291B8
:01E91A0022DA
:06EC3F00C29112E86C22F4
:06EC4500D29112E86C22DE
:10DBAE00E4FEEF335004D2918002C29112E86CEF82
:10DBBE0025E0FF0EBE08EB12E90AEF600612EB68D5
:05DBCE007F00227F0131
:01DBD300222F
:10E53E00E4FFD291FED29012E888EF25E0FFA2917F
:0AE54E00E4334FFFC2900EBE08EB4D
:01E5580022A0
:02DCFF008D2A6C
:10DD0100752BFF8F2CAF2C12E7F9EF64016005D55D
:10DD11002BF3C322AF2A12DBAEEF64016002C322F0
:01DD2100D32E
:01DD220022DE
:06C5D7008F238A258B264C
:10C5DD00E52645257002C322AF2312DCFF40012260
:10C5ED00E5234401FF12E7F9EF64016002C322E580
:10C5FD0026152670021525144525600C12E860EFEE
:10C60D0012455812EC3F80E712E860EF12455812C0
:06C61D00EC4512EB68D3AE
:01C6230022F4
:08AECA008F238D248A258B26BD
:10AED200E52645257002C322D3E5269400E5259494
:10AEE200004061AD24AF2312DCFF400122E524546F
:10AEF2000FFFC374109FFDFF7E00D3E5269FE5255B
:10AF02009E401CE5269FF526E5259EF525E524C3F2
:10AF120094F0400405230523ED2524F5248007AD94
:10AF220026E4F525F526AF051DEF6013782712E814
:10AF3200651244F0FF12DBAEEF640160E9C3221236
:05AF4200EB688094D3D0
:01AF470022E7
:03000B0002B76BCE
:10B76B00C0E0C0F0C083C082C0D075D000C000C0A4
:10B77B0001C002C003C004C005C006C007D28C754F
:10B78B008A21758CF8D20A78A7E6FE08E6FFF470DA
:10B79B0002EEF4600AEF4E6006E61618700116E52D
:10B7AB005760041557800920090612DD6B75570A7F
:10B7BB00D007D006D005D004D003D002D001D000E2
:0BB7CB00D0D0D082D083D0F0D0E0328C
:07EC1100C10000FD54FEFFED
:10ABDB00019B1E01A60F02A401D201A100019E0040
:10ABEB0001A000019F00019D0001A20001A3000133
:05ABFB009C0001560062
:1080CA007864E6FA08E6FBFF7C007D64AE0212459E
:1080DA009E7C007D0A12459EED243022FFC3ED9F4F
:1080EA00FFEC9ECF24FCAD26CF34FFFE7C00124568
:1080FA008CE4FD7B64FAF9F8024751E524FD7C0023
:10810A00FFC3E5239FFFE5229400FAA9077BFFD26C
:10811A00067F922290832CE493FE7401939083301D
:10812A00FFC37401939FFFE4939EFEEF780222F54A
:10813A000D7B007A00790CC2067D027C007F9022BA
:10814A00E50C24FDFDE434FFFC7B007A00790FD2B4
:10815A00067F92227C007D0AE6FE08E6FF02459E23
:10816A00E4F52485238285228322FE7C007D641225
:10817A00458CAD03AC0202459EC207D2087F92220B
:10818A00E47B0AFAF9F8AF25AE24AD23AC22024704
:10819A00517B007A00790CD20622AB2DAA2EA92F88
:1081AA001244F025E025E02278ACE6C39FFFE49E66
:1081BA00FE22EF2402FFE43EFEE43DFDE43CFCE443
:1081CA007B02222430F52FEF75F00A84E5F022C2F3
:1081DA0007C2087F90227C007D0AAF032290833871
:1081EA00E493FE740193227864E6FE08E6FF22FB1C
:1081FA007A00790CC206222523F523E43522F522DA
:0B820A0022EF25E0FBEE33FAC3E62272
:10B97600789BEFF678A6A6052401F523E433F52295
:10B9860078A4A60208A6031281D912E8237FC01262
:10B99600D56E7F0412D56E12000312818312E8233E
:10B9A600AF23E52312D56EE522C4F854F0C8E5238B
:10B9B600C4540F4854F0FF78A5E6540F4FFF12D534
:10B9C6006E79A4E7C4F854F0C809E7C4540F48FFD9
:06B9D60012D56E02000311
:10C29A008E248F258C268D278B281281D912E8238C
:10C2AA00E524540F4528FF12D56EAF25E52512D592
:10C2BA006E120003E528B4D00FAE26AF277C007DAE
:10C2CA000312458C8E268F2712818312E823E527D5
:10C2DA004526600FAF2912D56EE527152770EF1591
:06C2EA002680EB020003B8
:10D1A4008F228D23EFFD7C007529807B10E4FFFE28
:10D1B40012C29AE4FF12E94DE522FD7C007529882C
:10D1C4007B50E4FFFE12C29AE522FD7C00852329F0
:08D1D4007B90E4FFFE02C29A09
:04CD47008B33AC0777
:10CD4B0078A6E6FFED8FF0A4FF789BE62401FBE4C9
:10CD5B0033CB2FFFEB35F0FEAD047C00EF2DF5351B
:10CD6B00EC3EF5341281D912E823E534540F4533E8
:0ECD7B00FF12D56EAF35E53512D56E020003FE
:10E94D008F2E12818312E823AF2E12D56E02000393
:10DC90008E268F2712818312E8238527828526838B
:10DCA000E493FF600D12D56E0527E52770EC05267D
:05DCB00080E802000302
:08D65E008E228F238D248B2501
:10D6660012E9EDEFC313FEC395244005E4F52480CB
:10D6760006C3E5249EF5247B50AD25AF2412CD4785
:07D68600AF23AE2202DC908D
:08D6EA008E228F238D248B2575
:10D6F20012E9EDEFC313C395244005E4F524800637
:10D70200C3E5249FF5247B50AD25AF2412CD47AF4E
:06D7120023AE2202DC90B0
:04C34500AB07AA0692
:10C349007C277D1012459EEF2430F5227C037DE881
:10C35900AF031280D6F523AF031280D2F5241281E0
:10C36900E01280D6F525AE02AF031280DBF5261266
:10C37900818312E823AF2212D56EAF2312D56EAF97
:10C389002412D56EAF2512D56EAF2612D56E0200D6
:01C3990003A0
:10C4E800EF75F06484FED394004012EE2430F52EEC
:10C4F800EF75F00A841281D21281CD8019EF75F0A0
:10C508000A84FED39400E44008F52EEE1281CD8013
:10C5180005F52EF52FEF2430F53012818312E8232C
:10C52800AF2E12D56EAF2F12D56EAF3012D56E0268
:02C538000003FE
:10D00B00EF540FFEC3940AEE50062430F523800430
:10D01B002437F523EFC4540FFEC3940AEE500624B5
:10D02B0030F52280042437F52212818312E823AFD6
:0CD03B002212D56EAF2312D56E02000346
:10E5FA00750C81EF25E025E02403F50DE4F50E12F4
:0AE60A0081F97D03FC7F9002D71810
:107A22008E228F238C248D258B26E526D3946440C9
:107A320003752632E527D394644003752732E5287F
:107A420030E75C12811ECEC313CE13D8F9FDAC060B
:107A5200E522C313FEE523131280E61281BC1280D5
:107A6200FF8E228F231281E790833C12812ACEC39C
:107A720013CE13D8F9FDAC06E524C313FEE5251396
:107A8200FFC3ED9FFFEC9ECF24FDAD271280F212C3
:107A920081BC1280FF8E248F2543287F027B051232
:107AA200811ECEC313CE13D8F9FDAC06E523AE2258
:107AB2007802CEC313CE13D8F91280E6EF2406F56E
:107AC20023E43EF5221281E7FFC390833C12812C0E
:107AD200CEC313CE13D8F9FDAC06E525AE24780249
:107AE200CEC313CE13D8F9FFC3ED9FFFEC9ECF2474
:107AF200FACF34FFFEAD271280F6EF2404F525E419
:107B02003EF5247B027DF87F9312DA4D7D017F6C76
:107B120012E8748F0CE50C70047FC080027FE08F46
:107B22000CE4F50D1281F97D02FC7F9012D718E565
:107B320024C313E52513F50CE523AE227802CEC348
:107B420013CE13D8F9F50DE5235403C4333354C0CF
:107B5200FFE5255401FEC43354E04F4528F50E12CB
:107B6200819B7D037C007F9212D7187F2012CF8EDB
:0E7B72007F2012CF8E7B057DF87F9302DA4DC7
:10D59F008B30AE05AD07AF06AB3212CD47E532B4D7
:10D5AF00D008E53075F003A4F53012818312E8231B
:10D5BF00E5306009AF3112D56E153080F3020003EC
:10E2EB008F258D268B27E5266014852931852A32CB
:0FE2FB00AB28AD27AF2512D59F0525D526EC22E0
:10A0960078627C037DE8128162EF4E6005750F31B0
:10A0A6008003E4F50F78621280CCF5101281E0127D
:10A0B60080D6F5117862E6FE08E6FFBE051ABF56A1
:10A0C600177865E6B4001118E6B4030C7C007D0A27
:10A0D60012459EED24FA8006786212815EED2430E8
:10A0E600F5127513207514587515201281F17C032D
:10A0F6007DE812459EEF4E60207516311280CAF536
:10A10600171281E01280D6F5181281F11280DBF564
:10A1160019E4F51A750C0E801B1280CAF516128109
:10A12600E01280D6F5171281F11280DBF518E4F5FE
:0AA1360019750C0D12814A02D718AA
:10D36300785C12815EEF75F00A8475F00A8485F0AB
:10D3730018EF75F00A8485F017750C07E51824304B
:10D38300F50FE5172430F51075114875125AE4F5B9
:07D393001312814A02D718B2
:10A822007858E675F01390001B12486F1281EAFF08
:10A83200E48F258E24F523F5227B64FAF9F8128140
:10A8420094E47B0A1280FFAF038F1912818AE47BA2
:10A852000A1280FFAF038F1812818AAF038F17E5A8
:10A8620019C3940A4011E51975F00A8404F51A74A3
:10A87200F62519F5198003E4F51A750C0B851A0FE4
:10A88200E5192430F510E5182430F51175122EE57E
:10A89200172430F51375144B75154875165AE4F5DF
:07A8A2001712814A02D718CA
:0490E5008E228F2325
:1090E900AA06A9077BFF12814112D71802917F12A4
:1090F900816DE49364FC704C12810512D7181281BA
:109109006A0493FFD3940340030291D8EF24FCF53A
:109119002512816D740293B4FD14740393FD7C00D0
:10912900D205AB257F9212DC2074040291B77B0033
:109139007A007925D2067D017C007F9212D71874B6
:10914900020291B712816DE49364FD7034128105B6
:1091590012D71812816D74019324FFFDE434FFFCCA
:10916900E58224FFF582E58334FFF583E493FBD29E
:10917900057F9212DC207402128201E4F524029028
:10918900F812816DE49364FE702A12810512D718D2
:109199000523E5237002052212816A0493F4602FE6
:1091A900AA22A9237BFF12814112D71874021282C5
:1091B900010290F812816DE493B4FF061281050251
:0F91C900D7180523E5237002052205240290F82C
:0191D8002274
:0EEA47007F2012CF8E7B017DFE7F6C02DA4DA8
:09EB9700E4FB7DFE7F6C02DA4D07
:0C8AA9008E258F268C278D288A298B2A89
:108AB5007D017F6C12E8748F30E53070047FC180D2
:108AC500027FE18F0C1281A40412813912D7187E1E
:108AD50000E526543F7802C333CE33CED8F9F50CE2
:108AE500E5255407FEE52654C07806CEC313CE13FC
:108AF500D8F9FFE5285407C43354E04FF50DE528B0
:108B0500AE277803CEC313CE13D8F9F50E7E00E554
:108B15002A543F7802C333CE33CED8F9F50FE52971
:108B25005407FEE52A54C07806CEC313CE13D8F9F0
:108B3500FFE52C5407C43354E04FF510E52CAE2B5C
:108B45007803CEC313CE13D8F9F51112819B7D0698
:108B55007C007F9212D7187F287E0012E6CAE4F5C2
:108B650031750CC11281A4FFE53175F003A42F12F4
:108B7500813912D718E4F530E53175F003A47C008E
:108B85002530FFEC35F0FEAB2DE52F2FF9E52E3E18
:108B9500FA900001124509FF740C2530F8A6070567
:108BA50030E530B403D212819B7D037C007F9212A5
:0B8BB500D7180531E531C3940240A63B
:018BC0002292
:10D1DC008F228B238A248925750C411281AA240362
:10D1EC0012813912D718AB23AA24A9259000051255
:10D1FC00450954F0FFE522540F4FF50C12819B7D2D
:08D20C00017C007F9202D7189B
:02BE6D008F271D
:10BE6F00E527701912BEB07881E640082432FF181A
:10BE7F00E436FE222529FF18E63528FE22E5276441
:10BE8F0001701D12BEB0400C7881E624CEFF18E67B
:10BE9F0034FFFE22C37881E69529FF18E69528FE28
:10BEAF00227880E6FE08E6FF7B007A00792812AE42
:0BBEBF004CD3E5299432E528940022C2
:10E55900EFC4333354C0F50C750D018D0E7B0012D9
:0BE5690081FA7D037C007F9002D71830
:04E9ED008F828E8304
:0AE9F100E4FFE49360040FA380F834
:01E9FB0022F9
:10CF1000E52B601BC3EB9DEA9C4009E52C702FAF0D
:10CF200005AE0422EB2401F52EE43AF52D801BD347
:10CF3000EB9FEA9E500AE52C700122AE04AF052259
:0ECF4000EB24FFF52EEA34FFF52DAE2DAF2EBB
:01CF4E0022C0
:10DBD4007F0112BE6D8E258F26E4FF12BE6DC3EF4A
:10DBE4009526FBEE9525FAC37874E69526FF18E68C
:05DBF40095251281746B
:01DBF9002209
:10CD8900C37967E7787D96FF19E71896FE12E8F8E8
:10CD99001281B2787CE6FC08E6FDC39FF526EC9E7D
:10CDA900F525C37867E69DFF18E69CFE12E8F812A0
:10CDB90081B2787012820B9526FF18E695251281AB
:01CDC90074F5
:01CDCA002246
:10CBF200C37969E7787F96FF19E71896FE12E8F87D
:10CC020078AD1281B4787EE6FC08E6FDC39FF52676
:10CC1200EC9EF525C37869E69DFF18E69CFE12E8B6
:10CC2200F878AD1281B4787212820B9526FF18E65D
:05CC320095251281743C
:01CC370022DA
:10BAA5007877E6F52290F835E0F519A3E0F51AA3C5
:10BAB500E0F51B12957D90F835E519F0A3E51AF030
:10BAC500A3E51BF012C75812E5E012CAD912C0E768
:10BAD50012EC7412EC2DE522640160177873E6FE12
:10BAE50008E6FF1248EB7875E6FF1272E612EC0ADB
:10BAF50012ADCC7877A622786E760178C7E6440831
:04BB0500F602B1ACE7
:10E614008F221281D912E8237F4012D56E7F031214
:0AE62400D56EAF2212D56E0200037E
:10E62E00E4FFFEFDFCED1D70011C8D828C83E493D6
:09E63E002FFFE43EFEED4C70ECF0
:01E6470022B0
:10DEA300E50B450A700712E62E8E0A8F0B7B50E4B2
:10DEB300FD7F0912CD47E50AFF12D00BAF0B02D04D
:01DEC3000B53
:10E7140012971B78C7E6A2E1400312D16B78C7E6D3
:08E72400A2E2400312EB0E22F9
:10C58900E4FFFDFBE55630E71530E0027FFFE55695
:10C5990030E1027DFFE55630E2197BFF8015E55653
:10C5A90030E0027F7FE55630E1027D7FE55630E2DB
:10C5B900027B7F12D39A0556E55630E00790FF615A
:0DC5C90074018004E490FF61F090FF60F0C9
:01C5D6002242
:10A70A007D0112A77E7EF67F0012DC907F2012E97F
:10A71A004D7EF67F0712DC907D0212A77E7EF67FC1
:10A72A001C12DC907D0312A7867EF67F2312DC9032
:10A73A007D0412A7867EF67F3512DC907D0512A76E
:10A74A008E7EF67F3E12DC907D0612A78E7EF67F05
:10A75A004912DC907B507D07E4FF12CD477EF67FDD
:10A76A005612DC907B507D08E4FF12CD477EF67FBF
:10A77A006202DC907B50E4FF12CD47227B50E4FF5B
:0CA78A0012CD47227B50E4FF12CD472285
:10D53D0030042A78BCE67028300105C20102EB9751
:10D54D00D20178C7E64408F612B54912BCF012DED6
:10D55D00A312A70A7BFF7AEB79FA02D68D12C53A90
:01D56D00229B
:10D9D00078BC760812D774502078BAE608F612CCD4
:10D9E0003878BAA60712D214500678BAE6B40B09F2
:0AD9F0007876E633500312B3832269
:0FE9FC0078BAE608F612CC3878BAA60702D21419
:0AEB720078BDE654FEF654FDF622CD
:10D7740078BDE6A2E1500B135008E654FDF654FEC2
:10D78400F62278BDE6A2E140124402F67BFF7AEC71
:0DD7940079187F027E0012C671C322C322E5
:07EC180078BDE64401F6227D
:07EC1F0078BDE64404F62273
:10D8A60079BBE778BA665F600578BCA6052278BDC5
:10D8B600E6A2E35015A2E2500418A605227BFF7AE1
:0BD8C600EC791F7F327E0012BBCF22E6
:10D2140078BAE6FF30E02F086630E02A12CC38787E
:10D22400BAA6077876E6335002C204C201E4F508D0
:10D23400F50920040312E30A78C7E64401F678BD31
:08D24400E654F7F6D322C322E1
:10CC3800E4FF90FF5FE020E0027F0490FF5DE020CA
:10CC4800E00343070890FF5CE020E00343071090EF
:10CC5800FF5AE020E00343070290FF58E020E0037A
:10CC680043070190FF59E020E00343072020910388
:03CC78004307402F
:01CC7B002296
:10E30A007876E633920678BAE624F5600A24FE7037
:0EE31A000D20060AD20422300604E478BAF67A
:01E3280022D2
:10B383007876E633920578BAE61248A9B3A802B3F1
:10B39300B404B3BA08B3D30BB3C010B3C620B3CC51
:10B3A300400000B3E678BDE654F7F6E4FD7F028083
:10B3B3001C7D017F0480167D027F0880107D037F42
:10B3C30010800A7D047F2080047D057F4002D8A67B
:10B3D30020051F78BDE654FBF612957D7876E6547A
:10B3E3007FF62278BDE654FBF67BFF7AEC791F12D9
:02B3F300D68DF5
:01B3F5002235
:10001600020280015E013B02BC0A0A032001C10004
:1000260090003E020280015E017A03520F0F0340E8
:1000360001BD00A0003F0D02D00190013B02BC0AA9
:100046000A038401C100A300230F02D00190017CA2
:1000560003520F0F03A801BE00B4002D0F0280014A
:10006600E0013B02580A0A0320020D009100220F0C
:10007600028001E0015E029A0A0A0360020D00A0F6
:10008600002A0F028001E0017A02D80A0A03400220
:100096000800A9001E0F028001E0017702EE0A0A9D
:1000A600034801F400B900120F028001E001B10318
:1000B600520A0A034001FE0088001C0F0320025862
:1000C600015F02320A0A0400027100C800180F0319
:1000D600200258017A025B0A0A0420027400D90041
:1000E6001A0F0320025801E002D00A0A0410029AED
:1000F60000B9001C0F0320025801D402EE0A0A04BC
:1001060020027100F100170F032002580218035253
:100116000A0A0418027700D8001E0F034002700175
:10012600F102E90A0A0480029B0120002A0B04005E
:10013600030001E302580A0A0540032601280022AB
:100146000B04000300023402BC0A0A053003260130
:100156001800220B04000300025802EE0A0A0520CA
:1001660003200110001E0F0400030002AA03520A16
:100176000A05600328013000270F04000320026CE3
:1001860002E40A0A05300345010800230F040003B0
:100196002002CB03520A0A05280345011800230F43
:1001A60004800360021902580A0A05E8037E012C3E
:1001B600001E0F04800360028202BE0A0A05C00305
:1001C60092012000310F0480036002A302EE0A0AA6
:1001D60006400384018000230F04800360030203AA
:1001E600520A0A0628038B0168002A0F0480036658
:1001F60002AE02EE0A0A05B003930110002A0F04AC
:10020600800384026A02940A0A05F803A9015000D1
:10021600230F0480038402CE02FE050505E003A930
:10022600014000230F050002D001BF02580A0A064A
:100236007802EA015300190F050002D0023402EEDB
:100246000A0A069802EF0154001F04050003000184
:10025600DD02580A0A0684031A0142001A02050042
:10026600030001DB025A0A0A05A0031500730012F7
:100276000405000300023002BC0A0A069C031F01A3
:1002860050001F0405000300025902EE0A0A06AADE
:100296000321015A0021080550030001DD02580A16
:1002A6000A0704031A01700017040500032001F46D
:1002B60002580A0A0690033F0148001C0405000381
:1002C60020024302BC0A0A0684033C00E0001F0425
:1002D60005000320026E02EE0A0A0684033E01446C
:1002E60000210F050003C0025802580A0A07080336
