:10E9B7003D403F3B33281C002C2D3C3D38301A008E
:10AC140001C60041F8220041F81F0041F820064116
:05AC2400F82100C10B46
:1062FD00A81474FFFFFEFDFC124751E47B10FAF960
:10630D00F81246C6A804A905AA06AB0722785EE6D0
:10631D00FE08E6FFE4FCFD221246C6E47BE87A03A4
:10632D00F9F8124751E47B127A02F9F8D30247E3E8
:10633D0090F80FE05407900AA5FF75F00312486F0F
:10634D0002489D8F0E8F0D8F0C7A00790C7B00D239
:10635D00067D037C002290F812E0FF90F819E02FE3
:10636D00C313FF752A00752B38752C00752D7075AC
:10637D002EFF752FC87530FF7531902290F81BE0F8
:10638D001313543FFF90F814E02FFF752AFF752B60
:10639D0090752C00752D30752E00752F7075300091
:1063AD007531302290F839E0FEA3E0FBAA06E4F93E
:1063BD00F822AA06AB07AF407E0012458C7C007D0B
:1063CD00080245F3785FE62480FF18E63402FEE408
:1063DD00FCFDE5132FFFE5123EFEED3511FDEC2220
:1063ED001246C6C3E50F9FFFE50E9EFEE50D9DFD12
:1063FD00E50C9C22ED9FFFEC9EFEE6FD7C00D3EFAD
:10640D009DEE9C2290F80FE05418131313541F2285
:10641D001247518F0F8E0E8D0D22AE30AF31E4FC31
:10642D00FD0246C6785EE6FE08E62290F80FE054BF
:10643D00E0C4135407FF227B007A00790C22124529
:10644D008C7C007D7E1245F38F0D2235108F138EBF
:10645D00128D1122FF752A00752B38752CFF752DA5
:10646D0090752EFF227532107BAF7A007DA67C01D0
:10647D00227532147B027AFE7DFF7C0022FC1245D0
:10648D008C7C007D400245F390F80FE054E722909C
:10649D00F81CE01313543FFF90F81522AB3AAA3BBA
:1064AD00A93C124629FDC3227B1EFAF9F80246C605
:1064BD00C308E69FFF18E69E2275F003EF900AB120
:1064CD0022FDFCAB29AA28A927A82622AF35E4FC7A
:1064DD00FDFE7B387A1822FFE6FC08E6FDD39FEC23
:1064ED009E22E50D24FFFFE50C34FFFE22FE124532
:1064FD008CAC06AD07E54522FFA60608A60722AB24
:10650D0017AA16A915228B278A28892922E5252461
:07651D00F8FFE434FFFE2249
:10E7D6008E3B8F3CE53B5401FB7DFE7F1312DAC76F
:07E7E600AD3C7F1202EB9431
:10E025008E2A8F2BE52B7807CEC313CE13D8F95440
:10E0350002FB7DFD7F1312DAC7AD2B7F1102EB9436
:10E045008E3E8F3FE53E540FFB7DF07FB512DAC75C
:10E05500AD3F7FB612EB947B047DFB7FB702DAC739
:10E85E00EFC454F0FB7D0F7FB712DAC77B047DFB4C
:05E86E007FB702DAC7CC
:09EBF6007B207DDF7F5202DAC7AB
:09EBFF007BC07D3F7FD402DAC720
:10DE73008F3B78AEE6A2E35018E4FD7FDA12EB9411
:10DE830012EACFE53BF4FDE53B4406FB7FDA12DA09
:02DE9300C722A4
:10E59D00EFF4FDE4FB7FDA12DAC77D387FDA12E89B
:0AE5AD00EEEF7006FD7FDA12EB942A
:01E5B7002241
:01ECED002204
:087BAC008F228B238A24892516
:107BB400E522600464017057E522127CEAE5227C28
:107BC400017003FD80027D80AB23AA24A925127CC9
:107BD400FCE522127CF3E5227C017003FD80027D2A
:107BE40080AB26AA27A928127CFCE52244A0FD7FAD
:107BF4006712EB94E5227C017003FD80027D80AB6B
:107C040029AA2AA92BD2067F6612D7BD027CE2E5F7
:107C14002264026009E52264036003027CE9E4F55E
:107C24002EE4F555F551E52E7014E5225401127C2D
:107C3400EAE5252410F9E435248523528030E52E25
:107C4400B40114E5225401127CF3E5282410F9E46C
:107C540035278526528017E522540144A0FD7F670D
:107C640012EB94E52B2410F9E4352A852952F553B7
:107C74008954E4F52FAB527E00E554252FF9EE35F7
:107C840053FA90FFF0124509FF740C252FF8A6074C
:107C9400052FE52FB410DEE4F52CF52DE5227E0149
:107CA400B402047F0080027F80C3E52D9FE52C9EF3
:107CB400502012A97AEFC454F0F52F12A97AEF429A
:107CC4002FAD2F7F6612EB94052DE52D70CE052C7C
:107CD40080CA052EE52EC394035003027C257D4003
:057CE4007F6712EB9424
:107CE900224480FD7F6712EB94224490FD7F671246
:0B7CF900EB9422D2067F6612D7BD225A
:10CE47008B228A2389247B807D3F7F6B12DAC7ABD5
:10CE570022AA23A924D2067D187C007F6912D7BD98
:10CE67007B407D3F7F6B12DAC7AB25AA26A927D265
:10CE7700067D187C007F6A12D7BD7D387F6B02EB79
:01CE87009416
:10D9CC00787AE6540F9008CA126346C003C002C0AE
:10D9DC000175F003EF9008CA12634A8B288A2989D3
:0AD9EC002AD001D002D00302D16C52
:10D16C008B258A2689277DB07F1C12EB94AB25AAD0
:10D17C0026A92712D1997DC07F1C12EB94AB28AA4B
:10D18C0029A92A12D199E4FD7F1C02EB94D2067DC9
:09D19C00807C007F1D12D7BD222A
:10CB130078AEE65470C4540F701D90F831E0FFD323
:10CB230094024006EF24FEFF800590F831E0FF8F6A
:10CB33000E8F0D8F0C800A90F831E0F50EF50DF590
:10CB43000C7D807F6412EB941263567F6512D7BD10
:07CB5300E4FD7F6402EB9496
:10C12100E4FB74352BF582E434F8F583E0FF7E00FF
:10C1310090F832E0FD7C0012458CEF7807CEC313F6
:10C14100CE13D8F9FFD394FFEE940040087C007E13
:10C15100007FFF80027E00740C2BF8A6070BBB0347
:10C16100C17D837F6412EB941263567F6512D7BD44
:07C17100E4FD7F6402EB9482
:01ECEE002203
:10D89F0090F82AE0F50CA3E0F50DA3E0F50E7D80DE
:10D8AF007FDC12EB947D847FDC12EB941263567F46
:0BD8BF00DD12D7BDE4FD7FDC02EB941E
:10D6D40090F82DE0F50FA3E0F510A3E0F5117D809F
:10D6E4007FDC12EB947D877FDC12EB947A00790F58
:0FD6F40012635A7FDD12D7BDE4FD7FDC02EB9499
:06ECA70012D89F02D6D432
:10D40D008F228D238B24E4FB7DDF7F6C12DAC77BAB
:10D41D00207DDF7F6C12DAC7AD227F6D12EB94ADEC
:10D42D00237F6D12EB94AD247F6D12EB94E4FB7DA5
:06D43D00DF7F6C02DAC77C
:10DCC0008B228A2389247D807F6E12EB94AB22AA5B
:10DCD00023A924D2067D307C007F6F12D7BDE4FDDE
:05DCE0007F6E02EB94D1
:026E4B008F2690
:106E4D007858E6FF12B7A58F271263B1AF27FCFD67
:106E5D00FE12630E908358E493FE740193FFE4FCDD
:106E6D00FD1246AB1264208C0C786412631CAB0FC0
:106E7D00AA0EA90DA80C1246C6C006C00790F83D73
:106E8D001263B4D007D006124751C0041263131217
:106E9D00631AD0001246C6C006C0071263B1D007F0
:106EAD00D00612641D8C0C78ADE6FFC37869E69FA1
:106EBD00FF18E69400FEE4FCFDC004126313126497
:106ECD0031FFE4D0001246C6C00412631378661277
:106EDD00631CD0001246ABC006C00778ACE6240A8E
:106EED00FFE433AB07FAE4F9F8D007D0061246B841
:106EFD0012645A8C10E52630E0061263D1026F8AB7
:106F0D00E52630E13D786412631C7B807A02F9F846
:106F1D001246C6C006C00790F83D1263B4D007D024
:106F2D0006124751C00412631312631AD0001246A1
:106F3D00ABE5132FFFE5123EFEE5113DFDE5103CDF
:106F4D0080051263D1351012645AF510D37863E6BB
:106F5D00949018E69406501612631A1263DF1264A9
:106F6D0058F5107B107DEF7F1912DAC78014E513E9
:106F7D002480FFE5123402FEE43511FDE41264585D
:106F8D00F510C3E513950FFFE512950EFEE511956E
:106F9D000DFDE510950C126420F50C126431126391
:106FAD00B8AF0FAE0EAC0C1247518F1A12643112DE
:106FBD0063B8AF1AFCFDFE1263EDFCE47B10FAF929
:106FCD00F81247518F1BE4FB7DFD7F4312DAC7ADED
:0F6FDD001A7F4012EB94AD1B7F4112EB94AF1A59
:016FEC002282
:08761E008F298E288D278C2690
:10762600E4FF7E041264CE1246C67B007AA079057A
:1076360078001247518E2A8F2BD3E52B94FFE52A2B
:107646009400401C752C01E52B2402FFE4352AFE2C
:10765600EF7802CEC313CE13D8F9F52B8E2A8013FA
:10766600752C02E52B2401FFE4352AC313F52AEF16
:1076760013F52BAE2AAF2B7C007D6412458C7C0E55
:107686007D5312459EEF14F511E4F512E511C394EE
:1076960008400974F82511F511431208E511C39441
:1076A60004400974FC2511F511431204E511C39435
:1076B60002400715111511431202E511C39401404A
:1076C600051511431201E52B24FEF50CE52CB4013A
:1076D600047F0080027F10EF4406F50DE51244801A
:1076E600F50E750F17126444C2067D047C007FAE4A
:1076F60012D7BD7B027DFD7FB212DAC77D807FB1D6
:1077060012E8EEEF24FF50197B407DBF7FB112DAFD
:10771600C77F027E0012E744E4FB7DBF7FB112DA29
:10772600C7E52C75F002A4AEF01263B8FFFE7D77B4
:107736007C01124751126311AE2AAF2B12642BE45F
:107746007B08FAF9F812641D8C0C780F1247F412B4
:10775600645A8C10E47FE87E031264CE1263EDFC5B
:10776600AB13AA12A911A8101247518E2A8F2B53B8
:107776002A0F7B017DFE7FBB12DAC7AF2BAE2A0232
:02778600E045DC
:109EF000786FE6FE08E6787C1265057871E6FE0864
:109F0000E6787E1265057873E6FE08E6FF7B007A48
:109F100000792412AE18C3E5259432E5249400504C
:109F200004785E806E126431FF7873E6FC08E6FD0B
:109F3000C39FEC9E5034C3ED9FFFEC9ECF2525CFF1
:109F40003524FEC3EF9432EE94005016C3785FE6DA
:109F50009525FF18E69524CF24327881F6E43F1842
:109F6000F6227880A60408A60522785FE62525FF5C
:109F700018E63524FEC3EF9DFDEE9CFCC3ED943244
:109F8000EC9400500CEF24CE7881F6EE34FF18F6F6
:0F9F9000227873E6FE08E6FF7880A60608A6078B
:019F9F00229F
:10AE18008E388F398B3A8A3B893C7862E6FE08E6A1
:10AE28007803C333CE33CED8F9FF7C007D0A1245B0
:10AE38009EC3785F1264BFC313FEEF13FFAB3AAA39
:10AE48003BA93CEE8FF012468CE6FE08E6FFD3E500
:10AE5800399FE5389E40141264A9E5399FFFE5380B
:10AE68009EFED3EF9DEE95F0400122126431FFD390
:10AE7800E5399FE5389E50141264A9EF9539FFEE25
:0EAE88009538FED3EF9DEE95F0400122D322C7
:044918008E308F311D
:10491C007F2012DE737B007A007936AF31AE301215
:10492C00AE184009785EE6F53008E6F531750C04F2
:10493C00750D4F750E24750F15126444C2067D0457
:10494C007C007F9812D7BD750C1CE4F50D750E37E5
:10495C00FB7A00790CC2067D03FC7FA112D7BD78CF
:10496C005A12631CC004126313126431FFE4D000AA
:10497C001263254013E531AE307802C333CE33CE0B
:10498C00D8F9F5318E30800BE53125E0F531E53085
:10499C0033F53075100075116475350BAF35E4FCCB
:1049AC00FDFE7B3E12630B126427C004C005C006DB
:1049BC00C007786A12631C7BC07A0312630CD007A1
:1049CC00D006D005D0041247518F34E4FCFDFE1202
:1049DC0064B5C004126313786A12631CD0001246CB
:1049EC00C6C004C005C006C0071264D912630C12FD
:1049FC006427D003D002D001D0001247518E0C8F07
:104A0C000DD3E50D94A8E50C940C5003024ACD741B
:104A1C0080250DF50D74F3350CF50CD3E50D9511C2
:104A2C00E50C9510500C850C10850D1185343285D4
:104A3C003533E5342401FFE433FEE4FCFD1264B5A8
:104A4C00C004126313786A12631CD0001246C6C0ED
:104A5C0004C005C006C0071264D912630C12642787
:104A6C00D003D002D001D0001247518E0E8F0FD33D
:104A7C007480950F740C950E400C7480950FFF7418
:104A8C000C950EFE800AE50F2480FFE50E34F3FE34
:104A9C008E0E8F0FC3E50F9428E50E94005007E59A
:104AAC003404F532801ED3E50F9511E50E951050A8
:104ABC0018850E10850F11E53404F53285353380D9
:104ACC0008853432853533800C0535E535C3943093
:104ADC0050030249A8785A12631CC00412631312C3
:104AEC006431FFE4D000126325E530400E13FEE57F
:104AFC003113FFEEC313F530EF8006C313F530E529
:104B0C003113F53178C6E6134003024C3D7B007A35
:104B1C0000791AC2067D027FA512D2BF051A051AAA
:104B2C00051B051B7B007A007918C2067D027FA944
:104B3C0012D2BFE518540FFEE5192401F519E43E15
:104B4C00F518E4FD7F9F12EB947D077F9F12EB9489
:104B5C00126444D2067D047FA012D2BFAF1BAB07F8
:104B6C00E4FAF9F8AF32FCFDFE12630EAE18AF1981
:104B7C0012642B12645A8C10AF33AB07E4FAF9F8B9
:104B8C00AF1AFCFDFE12630E1264278F178E168D62
:104B9C00158C1412650CA814AF0FAE0EAD0DAC0C29
:104BAC00124751AB13AA12A911A8101246C61264CF
:104BBC00208C0CAF13AE12AD11AC1012650CA814F6
:104BCC00D31247E3402C1262FDC3E5179513FFE5A2
:104BDC00169512FEE5159511FDE5149510FC12467F
:104BEC00C6E50F2FFFE50E3EFEE50D3DFDE50C3C49
:104BFC00801E12650C1262FDC3E5139517FFE512BA
:104C0C009516FEE5119515FDE5109514FC1263ED56
:104C1C00126420F50C7D207F9F12EB947D227F9FE8
:104C2C0012EB94126444D2067D047C007FA012D750
:104C3C00BD785A12631CC004126313126431FFE472
:104C4C00D000126325E531400C24FFE53034FF54CD
:104C5C000F4410800824FFE53034FF540FFB7DE037
:104C6C007FA912DAC7E53114FD7FAA12EB94E53265
:104C7C0024FEFD7FA512EB94E53324FEFD7FA612E6
:104C8C00EB94E53275F004A4FFAEF07C007D0A12C3
:104C9C00459EC3EF9405EE940050087C007E007F87
:104CAC00008008EF24FBFFEE34FFFE8F11E4F512B9
:104CBC00E511C3943C400974C42511F5114312103D
:104CCC00E511C39428400974D82511F51143120835
:104CDC00E511C39414400974EC2511F51143120429
:104CEC00E511C3940A400974F62511F5114312021B
:104CFC00E511C39405400974FB2511F5114312010C
:104D0C0005120512AB127DE07FA712DAC778C6E652
:104D1C0013402112E41E7D207F9A12EB947F011226
:104D2C00CFC87F0112CFC87D247F9A12EB9478C62E
:104D3C00E64401F678C6E61350077D687F9F12EBB8
:104D4C00947F0412CFC87F0412CFC8E4FD7F9F125A
:0A4D5C00EB9412EACF7F3802DE73F9
:027312008F37B3
:107314007F3012DE7353373F12631AFB7A60F9F839
:107324001246C6C006C007786AE6FE08E61263B8CD
:10733400D007D006124751E47BA51264B77B407A8C
:1073440042790F78001247518E398F3AD3E53A9437
:1073540040E53994005005C374408003C37480959C
:107364003AFFE49539FE8E398F3AAF377E00C3EF8A
:10737400953AEE95394006EF953AFF8006C3E53A13
:107384009537FF8F0CE50CD3940C400AE50C94342C
:1073940050047F0080027F018F387866E6FE08E69D
:1073A400FFC3787096EE189650191264BDFE78AC3F
:1073B400126407400EED786726FFEC1836786FF6F6
:1073C40008A607786FE6FE08E678661264E44015BE
:1073D40078AC126401400E7867E69DFF18E69C784D
:1073E4006FF608A60778ACE6786726FFE41836FE41
:1073F400C3EF787096FFEE1896CF240AF50DE43F9C
:10740400F50CD3E53A940CE5399400401CE5372497
:107414000CFFE433FEC3EF953AEE95395005126440
:10742400EF8020AE0CAF0D801AE53A2434FFE4352A
:1074340039FEC3E5379FE49E50051264EF8004AE25
:107444000CAF0D8E398F3A7B407DBF7FA912DAC70E
:10745400785A12631CC004126313126431FFE4D01F
:10746400001263254007E53725E0FB8002AB377D3A
:10747400807FAC12DAC7AF3AAE3912E7D6E53833BB
:10748400333354F8FB7DF77F0712DAC712DF3E125D
:07749400EACF7F3802DE732E
:07EC84007875E6FF02731230
:10AD98007F1012DE737868E6FE08E6FFC3787296C5
:10ADA800EE189650191264BDFE78AD126407400E75
:10ADB800ED786926FFEC18367871F608A6077871E1
:10ADC800E6FE08E678681264E4401578AD1264017E
:10ADD800400E7869E69DFF18E69C7871F608A6078C
:10ADE8007868E6FE08E6C3787296FFEE1896FE7855
:10ADF800ADE6C39FFFE49EFE12E02512DF3E7F20F2
:10AE080012CFC87F1012CFC812EACF7F3802DE7384
:10C8C200EF540FFEC454F0F50CEDBF070C5407C42F
:10C8D2003354E04410F50D801D5407C454F0FFE5B5
:10C8E200275401C433333354804FFFEB5403FE25E6
:10C8F200E025E04FF50D126444C2067D027C007F04
:0BC902001712D7BDE4FD7F1702EB9475
:10E776008F23129AB8E52390F8017005E054FDF056
:08E7860022E054FD4402F022E0
:109AB800AD07D3ED648094FE40027D7EC3ED6480E3
:109AC800948E5009ED6480948040027D0EEDFF3342
:109AD80095E0FEEF2401FFE43EA2E713EF1325E033
:109AE800F50C78AEE65470C4540F14600824FA508C
:109AF800222407704DED13AF0C7E007CFF500A7DC9
:109B0800C112644BE4F50E80397DC012644B750EAA
:109B180002802FED13AF0C7E007CFF50047DB880CF
:109B2800027DB712644BEF75F002A47C00250CFF90
:109B3800EC35F0FEC3E49FFFE49EFE7D021245F380
:109B48008F0E750F037510327511CE7D807F26122A
:109B5800EB94126444D2067D067C007F2712D7BDA1
:079B68007D407F2602EB9413
:02AB0C008F2494
:10AB0E00E4F525E52464027021F52512AB7675F087
:10AB1E0003E525900E5012634AD2067D337C001257
:10AB2E00AB85940540E57DDF8038E4F52512AB76E4
:10AB3E00E52475F004A47C002525FFEC35F0FE908D
:10AB4E000E2075F003EF12486FEE75F003A4258307
:10AB5E00F58312489DD2067D3312AB85940440CD09
:07AB6E007DDE7FE012EB9495
:10AB750022AD257FE112EB94E4FD7FE212EB9422F6
:0BAB85007FE312D7BD0525E525C322A4
:069D8D008B248A258926C3
:109D9300129E23532AFCAD2A7FE412EB947D037FAA
:109DA300E612EB94E4F52AAB24AA25A926129E33E6
:109DB3002526F526E43525F525052AE52AC3940944
:109DC30040E5129E23E52A54FC4401F52AFD7FE475
:109DD30012EB94E4FD7FE612EB94E4F52AAB27AA99
:109DE30028A929129E332529F529E43528F52805C4
:109DF3002AE52AC3941440E57F2012CFC890F80FB8
:109E0300E0FF540764046006EF12641570047D2CB0
:109E130080027DAC7FE412EB947D807FE502EB94BE
:109E23007B007A00792AD2067D017FE412D2BF2219
:0C9E33001244F0FD7FE712EB9474012252
:10D8CA007B407DBF7F6012DAC77B807D7F7FE0125D
:10D8DA00DAC77B807D7F7FE412DAC790F816E0FF13
:0BD8EA0012DB9090F817E0FF02DBB6A5
:10D4430012633DC003C002C0011264C612634A12D4
:10D453006513D001D002D003129D8DE4FB7DBF7F05
:10D463006012DAC7E4FB7D7F7FE012DAC7E4FB7D5D
:06D473007F7FE402DAC72E
:10B3C20012643864046011BF0514E05407FFBF041F
:10B3D2000D90F801E020E006126495F080061264F8
:10B3E200954408F090F80FE05418FF131313541FFC
:10B3F200700280361264116401703590F83BE0FCF3
:10B40200A3E0FDA3E0F52AA3E0F52BE4FBFAFFFE9F
:10B4120012B26790F83BE0FEA3E0FFA3E0FCA3E0DA
:10B42200FD12BF04126438BF040302D44312D8CA07
:01B4320022F7
:10B267008E248F258C268D278A288B29E52745262E
:10B277006061E52B452A605B7B807D707F6012DA19
:10B28700C7E5245407F50CAD258D0DE5252527E5E4
:10B297002435265407F50EED2527F50FE528540725
:10B2A700F510AD298D11E529252BE528352A5407F9
:10B2B700F512ED252BF5137F2012CFC8126444D267
:10B2C700067D087C007F6112D7BDE4FB7D707F603F
:04B2D70012DAC7229E
:10BF04008C248D25AB07AA06E4F9F8FFFE7DC07CDE
:10BF14003F124751C006C007AE24AF25AB07AA069F
:10BF2400E4F9F8D007D00612641D8C0CE4FB7DFC08
:10BF34007FE412DAC7E4FD7FE612EB94E50FFFE538
:10BF44000EFEE50D543FFDE4126420F50CFB7A006F
:0CBF5400790DD2067D03FC7FE702D7BD0B
:10DB90008F24126411FFBF01037524807B867D7082
:10DBA0007F6412DAC7AF241263507F6512D7BDE4D9
:06DBB000FD7F6402EB940E
:10DBB6008F24126411FFBF01037524807B897D7059
:10DBC6007F6412DAC7AF241263507F6512D7BDE4B3
:06DBD600FD7F6402EB94E8
:0484D3008D45A90723
:1084D700E9540F14603314605C1470030285691447
:1084E7007003028593240460030285C7E954F0FFF3
:1084F700700590F8118074BF10030285B7E954F036
:10850700642060030285C7800EE954F0FF70059070
:10851700F81A8057BF100A90F81AE0FF90F81180F8
:108527003BE954F0642060030285C790F81AE0FF26
:1085370090F8138027E954F0FF700590F813802B0B
:10854700BF100A90F81AE0FF90F813800FE954F073
:108557006420706C90F81CE0FF90F813E02FC313B1
:10856700800AE954F0FF700990F81CE07A00FB805C
:108577004FBF100C90F81CE0C313FF90F813803A1C
:10858700E954F06420703912649C802EE954F0702D
:108597000C90F815E0C313FF90F81E801DE954F006
:1085A700FFBF100512649C8011E954F0FFBF201033
:1085B70090F811E0C313FF90F81EE02FFBE433FAA5
:1085C700EB25E0FBEA33FAC3EB9410EA648094806E
:1085D700E545401D90E9B693FD7C00EB24F0FFEAEA
:1085E70034FF1264FA7F0025E0FEEF2DFFEC3E809A
:1085F7001A90E9BE93FD7C00C374109BFFE49A12A6
:0F86070064FA25E0FEC3E49DFFEE9CFE12648E34
:018616002241
:0A78ED008F378C388D398A3A8B3BB7
:1078F700127A43E4FD7FE212EB94E537540F7009E7
:107907007D03127A297D8C804BE537540FFFBF0129
:10791700097D05127A297D88803AE537540FFFBF24
:1079270003097D0B127A367DC88029E537540FFF8E
:10793700BF04097D0F127A367DCC8018E537540FC6
:10794700FFBF02157D087FE312EB94E4FD7FE3128E
:10795700EB947DCC7FE312EB94127A43E53754F036
:107967002403FD7FE212EB94754001AD40AF37125F
:1079770084D3E539253BFDE538353A12648AAC38BE
:10798700AD391263BFC3EB9FF542EA9EF541AD40A7
:10799700AF371284D3E53D253FFDE53C353E126404
:1079A7008AAC3CAD3D1263BFC3EB9FF544EA9EF53D
:1079B70043D3E542947FE541648094804008754154
:1079C7000075427F8013C3E5429480E5416480944B
:1079D7007F50067541FF754280D3E544947FE543A8
:1079E70064809480400875430075447F8013C3E525
:1079F700449480E5436480947F50067543FF754443
:107A070080AD427FE312EB94AD447FE312EB940524
:107A170040E540C3940950030279727DDF7FE0029D
:027A2700EB94DE
:107A29007FE312EB94E4FD7FE312EB94227FE312F0
:107A3900EB94E4FD7FE312EB9422E537540FFD7FCD
:057A4900E112EB9422A4
:06BA7B008F258D828C83F3
:10BA8100E525C394085024C374089FFFE49400FE85
:10BA9100AC2AAD2B1263C78E338F34C3740895253E
:10BAA100FFE49400FEAC2CAD2D801512651AAC2E6E
:10BAB100AD2F1263C78E338F3412651AAC30AD319E
:10BAC1001263C78E358F36AD82AC838A3C8B3D8540
:0EBAD100353E85363FAB34AA33AF320278EDF6
:104D66008F2412643864046011BF0514E05407FFF1
:104D7600BF040D90F801E020E006126495F080066D
:104D86001264954408F0E524703D90F810E0126432
:104D960061752F907530FF7531D0E4F5327BFE7A60
:104DA600017DFFFC124FDB126472125065753220D2
:104DB6007BFE7A01E4FDFC1250657532117BFE7AAA
:104DC60001E4FDFC024EFAE52464017059126363A6
:104DD6007532217B547A017DAC7CFE12BA7B90F849
:104DE60012E0FF752A00752B38752C00752D70752D
:104DF6002E00752F38126382753202E4FBFA7D02AB
:104E06007CFE12BA7B1263637532127B547A0112EE
:104E16004F207532227BAC7AFE124F207532237BEF
:104E2600AC7AFE024E71E5246403704690F819E0F0
:104E3600FF752A00752B70752CFF752DD012637CBB
:104E46007532017BFE7D017CFF124FB07532111267
:104E56004F4D7532217B547DAC7CFE124FB07532BE
:104E660020124F4D7532127B547A017DAC7CFE02C6
:104E76004F03E5246404703A90F81BE0FF752AFF9F
:104E8600752BC8752C00752D701263A47532037DC1
:104E9600017CFF125004753213124F7D7532237D4B
:104EA600FF7C00125004753222124F7D12647E027E
:104EB6004F03E52464027018126389753223126465
:104EC6008112503112BA7B12638912647E024F033B
:104ED600E5246405702A90F810E0C313FF90F81DCE
:104EE600E02F126461752FC8753000753170126439
:104EF60072125031124FDB75322412647512BA7B6E
:104F060090F801E030E00912641160047B808002B1
:104F1600E4FB7D7F7FE012DAC7227DAC7CFE12BA0D
:104F26007B90F81BE0FF90F812E02FC313FF752A61
:104F3600FF752BC8752C00752D70752E00752F38D2
:104F46007530FF753190227BFE7A01E4FDFC12BAC2
:104F56007B90F812E0FF90F819E02FC313FF752A33
:104F660000752B38752C00752D70752EFF752FC8A2
:104F76007530FF753190227BAC7AFE7DAC7CFE12DB
:104F8600BA7B90F81BE01313543FFF90F814E02F00
:104F9600FF752AFF752B90752C00752D30752E0028
:104FA600752F70753000753130227A0112BA7B90F8
:104FB600F819E0FF90F810E02FC313FF752A00756B
:104FC6002B70752CFF752DD0752EFF752F907530B3
:104FD600FF7531D02212BA7B90F810E0C313FF9010
:104FE600F81DE02FFF752A00752B38752CFF752DDF
:104FF60090752EFF752FC8753000753170227B02B3
:105006007AFE12BA7B90F81BE0FF90F812E02FC3ED
:1050160013FF752AFF752BC8752C00752D70752E1C
:1050260000752F387530FF7531902212BA7B90F8D3
:1050360014E0C313FF90F81DE02FFF752AFF752BB0
:10504600C8752CFF752D90752E00752F387530009C
:105056007531707532047B517AFF7DA67C01221270
:10506600BA7B90F819E0FF90F810E02FC313FF7594
:105076002A00752B70752CFF752DD0752EFF752F98
:08508600907530FF7531D02256
:109B6F008F23E523C43354E0FF90F80FE0541F4FC9
:109B7F00F0E523B40403029C22E5236405706B9087
:109B8F00F801E030E022E4FF124D667F01124D66CE
:109B9F007F02124D667F03124D667F04124D667F62
:109BAF0005124D667B808002E4FB7D7F7FE012DA39
:109BBF00C790F80FE05407FFBF04117D2C7FE4120C
:109BCF00EB9490F801E020E04D029C2212B3C212F8
:109BDF00633DC003C002C0011264C612634A12651E
:109BEF0013D001D002D003029D8D90F80FE054E006
:109BFF00C413126341C003C002C0011264C61263D2
:109C0F004A126513D001D002D003129D8D12643811
:079C1F0012AB0C12B3C222CC
:10652400785EE6FE08E6FF7873A60608A607786696
:10653400E6FE08E6FF786FA60608A6077868E6FE7A
:1065440008E67871FFA60608A607227864E6FE0826
:10655400E6FFE4FCFDFB7A0CF9F81246C6E47B0284
:10656400FAF9F8124751AB2AAA29A928A827C30285
:1065740047E3786CA905AA06AB07E6FE08E6FFE444
:1065840022E50C5407F526E50DF5277B007A007902
:106594000C22742A2FF582E434F8F5832278B2E6CB
:1065A4002401FF18E43678B9FEC3EF96FFEE18967F
:1065B40022742D2FF582E434F8F58322E6FC08E6F4
:1065C400FDEC540FFBE7C4F854F0C809E7C4540FBA
:1065D40048547022786AE6FE08E6FBAA06E4F9F855
:1065E40022E47B02FAF9F8124751A804A905AA0685
:1065F400AB0722E4F50FF510F511F512751301FB45
:106604007A00790CC2067D08FC7F76221246C6E425
:106614007BE87A03F9F8124751E47B127A02F9F81D
:10662400D30247E378B9E62402FF18E436FEEF54B8
:10663400FCFFEEF608EFF6E52922D3AB0FAA0EA96C
:106644000DA80C0247E3C3E5279525FFE52695240D
:10665400FE221896FCE52925E0FFE52833FEC3ED6C
:106664009FEC9E2212475178B8EEF608EFF6D394C9
:1066740002EE940022FCE6FA08E62FFFEE3AFED37F
:10668400EF9DEE9C22AB29AA2AA92B0244F07B00A1
:106694007A0079237D012278AEE65470C4540F2227
:1066A400FE7867C3EF96EE189622AB32AA31A93072
:1066B400A82FD30247E3C3E69FFF18E69E22AB2F21
:1066C400AA2EA92DA82C0247E37B007A007914C2D4
:1066D400067D0322EF26F618EE36F622E6FDD3EF0A
:1066E4009D7480F86E9822AB29AA2AA92B1244F033
:1066F400FF22E51454F075F010A4FF2274FFFFFE8E
:0A670400FDFC22785EE6FE08E622A6
:10A0F8007875E6F523E4FD7F7D12EB9412EACF7FB5
:10A10800FA7E0012E744127D048F22E5227036128F
:10A1180053AA8F22E52270251260CE8F22E5226095
:10A128000464FE7013E522B4FE0312A185127D04B7
:10A138008F22E5226018800D12A1858011126524F6
:10A1480012A18F800312653212EC8412AD98E522B9
:10A158007006E522648060137858E6FF12D4AF12C7
:10A168009EF07858E6FF12D9F6800C12652412A1E9
:0CA178008F12EC8412AD9812EACFAF22D7
:10A18400227875A623AF231273122208E6FE08E68E
:05A19400FF1249182232
:10E8B2001268F18F22E522700512C90D800312D071
:03E8C200F8AF228A
:01E8C5002230
:10A3700012EACF7D037F7A12E8EEBF03047F968056
:10A38000027F328F447545197F017E0012E7441227
:10A39000658FD2067D017F0312D2BFE50C30E00C41
:10A3A000E4FD7F0312EB9475451980021545E545E0
:10A3B0006006E50C54C060037FFF2212EA7678C77E
:10A3C000E61350037FFF2212658FD2067D017F7D49
:10A3D00012D2BFE50C30E003D544AD12658FD20632
:10A3E0007D017F0212D2BFE4FD7F0212EB94E50CE7
:0EA3F00054637004E54470047FFF80027F0018
:01A3FE00223C
:02C9EE008F4474
:10C9F000754519E4FD7F0312EB947F017E0012E779
:10CA00004412658FD2067D017F0312D2BF530CC141
:10CA1000E50C30E010E544600CE4FD7F0312EB947C
:10CA20001544754519E544600C1545E5456006E576
:07CA30000C54C060C5AF0CFF
:01CA370022DC
:0291CE008F37D9
:1091D0007873E6F53A08E6F53BAE3AFFE4FCFDC0ED
:1091E00004126576D0001246C6C006C0071265D8C4
:1091F000D007D0061247518E388F397B507D0F7FB4
:109200001312DAC7E53B2405F53BE4353AF53A7429
:10921000E0253BF53B74FF353AF53AE539241BFF71
:10922000E435381266A4500280047E007F018E3837
:109230008F39D3E5399420E5389400400CE5392482
:10924000E0FFE53834FFFE80047E007F018E388F1A
:10925000395337FCE53A540FFDE538C4F854F0C8EB
:10926000E5391265D14DF50C85390D853B0E12653A
:109270008FC2067D037C007F7012D7BD85370C85B9
:10928000370D85370E1265F712D7BD12A3708F0CFC
:10929000E50C6001221266CD7F8112D2BF1266F604
:1092A000AEF0EF4515242078B9F6E43E18F6E51443
:1092B000540FFEE516242078B2F6E43E18F67F003F
:0192C000228B
:027E58008F3069
:107E5A007873E6F53308E6F534AE33FFE4FCFDC08B
:107E6A0004126576D0001246C6C006C0071265D84D
:107E7A00D007D0061247518E318F327B507D0F7F4B
:107E8A001312DAC7E5342405F534E43533F53374CF
:107E9A00E02534F53474FF3533F533E532241BFF1E
:107EAA00E435311266A4500280047E007F018E31CF
:107EBA008F32D3E5329420E5319400400CE5322428
:107ECA00E0FFE53134FFFE80047E007F018E318FB2
:107EDA00325330FCE533540FFDE531C4F854F0C891
:107EEA00E5321265D14DF50C85320D85340E786078
:107EFA00E6FC08E6FD2402E43C540FF50F75100277
:107F0A00AF05EF2402F51112658FC2067D067C00CB
:107F1A007F7012D7BD85300C85300D85300E126505
:107F2A00F712D7BD12A3708F0CE50C6001221266FE
:107F3A00CD7F7E12D2BF1266F6EF45152403FFE409
:107F4A0035F078B3F6FC08EFF6FDE514540FFEE5BC
:107F5A00162403FFE43EFE08F608EFF6C39DFFEE83
:107F6A009C78651265ACFE12E972D3EF9405EE6453
:107F7A0080948040037FFF2278B6E6184670037F1C
:107F8A008022E514547FF50C85150D85160E1265B1
:0E7F9A008FC2067D037C007F7312D7BD7F006F
:017FA80022B6
:06838C008F378D388B399C
:10839200E4FD7F7D12EB94E5375403FB7DFC7F7A8D
:1083A20012DAC7785A12657EFCFDC004785E126547
:1083B20078D00012661040160538E53A25E0F53A05
:1083C200C3944040097B027DFD7FA812DAC7E539DC
:1083D20014541F33333354F8FFE53854074FFD7FED
:1083E2007B12EB94E53A543FFD7F7C12EB94AF385D
:1083F2007401A807088002C333D8FCF538E5398533
:1084020038F0A4253AF537853A42E4F541F540F5CE
:108412003FF53EF5437D7B7F7D12EB947F0112C9D0
:10842200EE7D037F7A12E8EEBF03047F0380027FB2
:108432000112C9EEEF54C060051284C28047126572
:108442008FC2067D037F8412D2BFE4F50FAF41AE27
:1084520040AD3FAC3E12663E400F850F41850E4057
:10846200850D3F850C3E854243E5382542F542C3E2
:10847200953740AD1284C27F0112CFC812A3708F0C
:108482000CE50C600412670022785A12657EFCFD2E
:10849200C0041265F0785E12657ED000126610404C
:1084A2000BE54313AB3BAA3CA93D8008AB3BAA3C7E
:0F84B200A93DE543124558AF41AE40AD3FAC3E4A
:1084C10022E4FD7F7D12EB94E4FB7DFD7FA812DAAF
:0284D100C722C0
:10D8F500EF5403FB7DFC7F7A12DAC77D3B7F7D12F7
:10D90500EB9412A3708F0CE50C60012212658FC297
:0BD91500067D047F8412D2BF7F002239
:1053AA001267077873126548E654FCF6181256B16C
:1053BA007F40127E588F24E5246001227862E6FE3F
:1053CA0008E67803C333CE33CED8F9FF7C007D0AD2
:1053DA0012459E785F1266BAC313F528EF13F529B2
:1053EA00E4F52AF52BF52675270A1256A76001223D
:1053FA001265A1FE78B1F608EFF67862E6FC08E6D7
:10540A00FDC3EF9DEE9C505DC3ED78B296FDEC12A4
:10541A00665640030254BAAF05AE04E4FCFDC0046C
:10542A001265F0787312657ED0001246C6C006C0B7
:10543A000778621265DAD007D0061266685003024E
:10544A0054EA126628785F26FDE528183678731222
:10545A00667940030254BA78B8E6FE08E678741210
:10546A0066D90254CFC379B2E7786396FD19E71279
:10547A0066564002803AAF05AE04E4FCFDC0041251
:10548A0065F0787312657ED0001246C6C006C00762
:10549A0078621265DAD007D0061266684042126650
:1054AA0028787426FDE5281836785E126679400851
:1054BA00752A00752B01800DC37874E679B997F6C1
:1054CA0018E61997F6E52B452A701578731256B126
:1054DA00E52715277002152614452660030253F4A2
:1054EA00E52745266008E52B6401452A70037F807D
:1054FA002278B1E6FE08E6FFC3786396EE18964076
:10550A00127974E7785F96FD19E71896FCED640442
:10551A004C601A78631266A75040C3795FE77874C3
:10552A0096FF19E71896FEEF64044E702D1267076E
:10553A00FF7873EEF6FE08EFF6FF1249181256A727
:10554A0060012278B2E62401FF18E436FEC3EF7840
:10555A00B99679B2F7EE189619F77873E6F52A082C
:10556A00E6F52BC37963E778B29619E718967E00B9
:10557A0040047F0480027F0278741266D8E6FE082F
:10558A00E6FF1249187D187F7912EB94852A268541
:10559A002B27E4F52FF52EF52DF52CF52875290680
:1055AA007F501291CE8F24E5246001221265A1FE5C
:1055BA0078B1F608EFF67863E62402FD18E436FCC3
:1055CA00D3EF9DEE9C400BE4F50FF50EF50DF50CAF
:1055DA008028E4F53AF53B753C00753D257B087D4E
:1055EA00037F0312838C8F0F8E0E8D0D8C0C126726
:1055FA0000C312663F70037FFF22AF0FAE0EAD0DE0
:10560A00AC0CC31266C25015850F2F850E2E850D60
:10561A002D850C2C7873E6F52608E6F527E529454D
:10562A00287016126707FFD37874E69F18E69E4023
:10563A002AEEF6FE08EFF6801B74FE2529F529747A
:10564A00FF3528F528787474FE26F61874FF36F6A6
:10565A00E6FE08E6FF1249180255AAAF2FAE2EAD94
:10566A002DAC2CE47B03FAF9F81247518F2F8E2EBA
:10567A008D2D8C2C786212657EFCFD780A12480703
:10568A00D31266C24006AE26AF278004AE2AAF2BDD
:0C569A007873EEF608EFF61249187F0056
:1056A600227F501291CE8F24E52422E6FE08E6FFE3
:0456B600124918225B
:1060CE007F401291CE8F24E5246001227D801262E2
:1060DE00B770037FFF22E4FFFEFDFC12656A7003BA
:1060EE007F802212654F501F7D401262B770037F72
:1060FE00FF22E4FFFEFDFC12656A70037F80221210
:10610E00654F50037FFE22E52424F8543FF53A757F
:10611E003B00753C00753D247B087D017F03128397
:10612E008C8F2A8E298D288C2712670012656A7033
:10613E00037FFF22E4FFFEFDFC12656A70037F8081
:10614E0022E52424FD543FF525FF1273127F03121E
:10615E00D8F5EF60037FFF22850F2E850E2D850D5E
:10616E002C850C2B1262EB60037FFF22850F32858C
:10617E000E31850D30850C2FE5242403543FF52474
:10618E00E4F52AF529F528F5271262EB60037FFF67
:10619E0022850F36850E35850D34850C33AF2EAE28
:1061AE002DAD2CAC2B1266AE4016E532952EFFE5CA
:1061BE0031952DFEE530952CFDE52F952BFC8015A8
:1061CE00C3E52E9532FFE52D9531FEE52C9530FD7C
:1061DE00E52B952FFC1265E5E5362532FFE53535C5
:1061EE0031FEE5343530FDE533352FFCEF252EFF3E
:1061FE00EE352DFEED352CFDEC352BFC1246B8C0E0
:10620E0004C005C006C007AF36AE35AD34AC331290
:10621E0066AE4016E5329536FFE5319535FEE53032
:10622E009534FDE52F9533FC8015C3E5369532FF89
:10623E00E5359531FEE5349530FDE533952FFC12AD
:10624E0065E5D007D006D005D0041246B88F0F8E64
:10625E000E8D0D8C0CAF2AAE29AD28AC2712663EE2
:10626E004013850F2A850E29850D28850C27E525D7
:10627E0014543FF52685322E85312D85302C852FF1
:10628E002B85363285353185343085332FE52565BE
:10629E002460030261977875A626AF261273127DCD
:0862AE00407F7912EB947F00A0
:1062B600227F7912EB94E4F53AF53B753C00753D87
:1062C600247B087D037F0312838C8F2A8E298D28D9
:1062D6008C2774FFFFFEFDFCAB2AAA29A928A82754
:1062E600C31247E322E52504543FF525FF12731236
:0762F6007F0312D8F5EF222F
:107D04007F40127E58EF6001227F401291CEEF60D7
:107D1400012212658FC2067D027F0D12D2BF126549
:107D240085C2067D017F1112D2BF7B007A00790DD6
:107D3400C2067D017F1312D2BFE50D5402F524E57E
:107D44000CF52578B3E6FE08E6FFC39525F525EE88
:107D54009524F52478B61266BACF2401CF3400FEF8
:107D64007864E6FC08E6FDC39FF529EC9EF528D36C
:107D7400E5299403E528648094804016EF9DFFEE86
:107D84009CFE12E9727C007D021245F38E288F2935
:107D94008005E4F528F52912664AC378721266BB99
:107DA400FEC3EF786996FFEE1896CFC39529CF9559
:107DB40028FE12E97278AD1266E0501DC3E52795DE
:107DC40025CFE5269524CF2529CF3528FEC3787203
:107DD400E69FF618E69EF6800312654012AD9812EF
:107DE400658FC2067D027F0912D2BF126585C20665
:107DF4007D027F1212D2BFE50D5401F524E50CF586
:107E040025C378B9E69525FF18E69524CF24FEF519
:107E140025EF34FFF52412664AEF787026FFEE183A
:107E240036FEC3EF786796FFEE1896FE12E9727875
:107E3400AC1266E0500A12664A78701266D8800E58
:107E44007866E6FE08E6FF786FA60608A60712EC39
:037E5400847F0028
:017E57002208
:1068F100D205E4F527742A25271265997480F0746E
:106901002D25271265B87480F00527E527B403E526
:1069110012ECA77F40127E588F23E5236001227F6E
:10692100401291CE8F23E5236001221266927F02ED
:106931001299FCEF60037F8022E523C3946050032A
:106941007F80221266927F011299FCEF60037F80A3
:1069510022E523C3946050037F8022126692E4FFF4
:106961001299FCEF60037F8022E523C394605003FA
:106971007F802278B77605126AAE7526022005035C
:10698100026A9A7527307B007A007924AF2612B902
:106991004A8F23E523B4800122E523644060737BA1
:1069A100007A007925AF2612A2D88F23E523B4807F
:1069B100012212669BFFBF060BE526640160057587
:1069C10023808003752302E524B4FA06E5256523B7
:1069D1006040E527D394084030E524D394FB502947
:1069E100E524C394F94022E5232401FFE433FED3D7
:1069F100E5259FEE6480F8748098500DE52314FF1F
:106A0100E525C39F40037527081527E52760030285
:106A11006987742A2526126599E0D394F040267877
:106A2100B7E6B40718E526B402057526018047E5E7
:106A310026B40105E4F526803DC20580397526029C
:106A410078B7068031742A2526126599E0C3941E11
:106A5100502C78B7E6B40418E526B4020575260172
:106A61008014E526B40105E4F526800AC2058006F6
:106A710075260278B71678B7126AAE02697EE526E6
:106A8100B4020675260102697EE526B40106E4F525
:106A91002602697EC20502697E90F82AE06008A399
:0C6AA100E06004A3E070037F80227F000F
:106AAD0022E6C45430F53B7BCFE4FD7FDC12CF8969
:086ABD007F017E0012E7442274
:1099FC008D2E8B2F8A308931BF0304AB078005C3B2
:109A0C0074029FFB7DF87F7A12DAC7E52E703075F1
:109A1C000C12750D80F50EF50F78B3E6FE08E6FF17
:109A2C00D39409EE940040067E007F098008EF2451
:109A3C00FFFFEE34FFFE8F10E51004F51180227845
:109A4C00B179B81265C04BF50C78B9E6F50D8D0EF1
:109A5C0078B579B31265C04BF50F78B4E6F5108D77
:109A6C001112658FC2067D067C007F7012D7BDE592
:109A7C002E5401C43354E04401FD7F7D12EB94124B
:109A8C00A3708F0CE50C600122AB2FAA30A931C258
:109A9C00067D017F8712D2BFE52E700DAB2FAA3049
:0C9AAC00A9311244F0F41245587F00224A
:08B94A008F288B298A2A892B22
:10B952007D011299FCEF60037F80221266EBD39483
:10B96200FA4020EF2406F52CE4FBAD2CAF2812CBD5
:10B972005AEF6037E4FB7D04AF2812CBA0EF602BB7
:10B982007F40221266EBC394FA5020C374FA9FF5EB
:10B992002C7B01FDAF2812CB5AEF600F7B017D0497
:0DB9A200AF2812CBA0EF60037F40227F0092
:01B9AF002275
:08A2D8008F288B298A2A892BAB
:10A2E00012669BFFBF060BE52864016005752D8093
:10A2F0008003752D02AB29AA2AA92BE4FDAF2812F1
:10A3000099FCEF60037F8022126689FFD3952D4070
:10A3100016EF952DF52CD3940840047D088004AFEA
:10A320002CAD07E4FB8041126689FFC3952D503D9B
:10A33000C3E52D9FF52C12669B64067019E5286411
:10A34000016013E52CD3940840047D088004AF2CF1
:10A35000AD077B0180121266897009E52C2404FD8B
:0FA360007B0180047B01AD2CAF2812CBA07F00C6
:01A36F0022CB
:10CB5A00E4F52DEB601A126596E0FEC39D742A4037
:10CB6A0009126598C3EE9DF08026126598E4801C30
:10CB7A00126596E0FEC374FF9DC39E742A40081294
:10CB8A006598E02DF0800912659874FFF0752D0103
:05CB9A0012D89FAF2D31
:01CB9F002273
:10CBA000E4F52EEB601A1265B5E0FEC39D742D40CE
:10CBB000091265B7C3EE9DF080261265B7E4801CAC
:10CBC0001265B5E0FEC374FF9DC39E742D4008122C
:10CBD00065B7E02DF080091265B774FFF0752E017E
:05CBE00012D6D4AF2EB7
:01CBE500222D
:10B2DB00C0008004010F80800000000000003232AB
:10B2EB00000A3200000000028002008408080808EF
:10B2FB00080896800008080808080891828A878E3B
:10B30B008E7B808080808081808387817689816E2F
:10B31B0080808080808061606367615669614E8048
:10B32B008080808080808080808080808080808012
:10B33B0080808080FFFFFFFFFFFFFFFFFFFFFFFF0E
:04B34B00FFFFFFFF02
:1056BA0075F01390002712486FE40893FE74019363
:1056CA00A60608F622F0A3F0A3F0A3F07B017AF86D
:1056DA00799822E6FC08E6FDECA3F0AF05A3EFF00B
:1056EA0008E6FC08E6FDECA3F0AF05A3EFF008E638
:1056FA00FC08E6FDECA3F0AF05A3EFF022748C25BD
:10570A003DF582E434F8F583E07F0025E025E0FEEC
:10571A00EF22E52975F007A47B0124FFF974F73518
:10572A00F0FA7E00E92528F9EE3AFA1244F0FF74FD
:10573A00982528F582E434F8F5832275830012450A
:10574A0009FD748C2537F582E434F8F583E025E009
:10575A0025E022E0FDEEF6ED08F6A3E0FEA3E0FD6B
:10576A00EE08F6ED08F6A3E0FEA3E0FDEE08F6ED7E
:10577A0008F622AB28AA29A92A852E827583001247
:10578A004509FF90F881E0FD75F008A4252EF58201
:10579A00E435F0F583E5822290002775F01312486C
:1057AA006FE493FC740193FDEC22FA7879E675F0C4
:1057BA0003A4F58285F08302450975F008A4240044
:1057CA00F582E5F03EF583E58224F8F582E5833437
:1057DA003FF583E0547F2274922537F582E434F84A
:1057EA00F5832278AEE65470C4540FFF25E025E015
:1057FA00240CF582E434B3F583E49390F831F0EFA6
:10580A0025E025E0240DF582E434B3F583E4932200
:10581A0078767C007D007AB279DB7BFF7E007F069A
:10582A000244CA7A002FFFEA3EFE74F82FF582740A
:10583A003F3EF583E0222F7A00FFEA3EFE74002FF6
:10584A00F58274403EF583EDF02278AEE65470C4DA
:10585A00540F2275F008A42400FFE5F022E536541F
:10586A000375F004A42537F582E435F0F583AB33EC
:10587A00AA34A935227486253DF582E434F8F583E5
:10588A002224FEF58274433EF58322E6A3F008E65D
:10589A00A3F008E6A3F022E0F6A3E008F6A3E008E6
:1058AA00F622F090F88202481A78007CF87D017B93
:1058BA00FF7AB279E77E007F1F2275F013900021EC
:1058CA00227F0790F89974FF22752B01752CF975C0
:1058DA002D007B017AF979802224FFF58274433EF8
:1058EA00F5832224FDF58274433EF5832224FCF5D8
:1058FA008274433EF5832224FBF58274433EF5838A
:10590A0022F582E434F8F58322FD74802EF582E4D0
:10591A0034F9F583EDF022AB38AA39A93A22E0FE30
:10592A00E53E5407FD7401A8050822E529241D90C7
:10593A00F898F0752801222400F582E583347BF576
:10594A0083E0222480F582E583347BF583E022E537
:10595A003E131313541F2290F89BF0A3EDF075F039
:10596A00132274002EF582E434F9F5832275F013BC
:0E597A0090002522AB2BAA2CA92D852E82226F
:10D92000907FFFE0641260028005127FA94006121A
:10D93000AF8F02948912DA9E12E40012BC6A12BD03
:0BD940008A12DC0212C4D012C32A229B
:1094890078C6E6A2E150277858E6FFC39410501E2B
:10949900EF1313543FFF7B007A00790C12B5F37870
:1094A90058E6540325E025E0240CF8E6F52312E8F4
:1094B900C612B10012D76112AF1412ECAD12EC084A
:1094C90012D0F812EBD812CBE612ECE712E7ED78DE
:1094D900C6E6A2E150687858E6C394105060787BDC
:1094E900E6C3940F4004E4F68003787B06785AE6D5
:1094F900F52408E6F52508E6F52608E6F527783285
:109509007C007D007B007A0079237E007F05124470
:10951900CA12CE88E4786EF6E5231259771256C03E
:10952900E5231256BAE5231258C41256C0E408F6C8
:10953900787BE6FF12D4AF787BE67858F62278C6B6
:10954900E6A2E1400B7858E6FF9446500312BFBCEF
:0195590022EF
:10D4AF00786EE6FEC433333354804F90F898F0080B
:10D4BF001256DD08E6A3F078C6E6A2E14007125641
:10D4CF00D6E4FF800C78C6E6A2E150081256D67F4C
:05D4DF00031297B322C7
:02BFBC008F28CC
:10BFBE0078C6E6FFA2E14005E4F5298008EFA2E18C
:10BFCE0050037529031256D6AD28AF2912B661500B
:10BFDE001A90F898E0C41313135401786EF6A3E088
:10BFEE00FEA30812575DA3E008F622E4786EF6E58C
:10BFFE00281259771256C0E5281256BAE52812585B
:07C00E00C41256C0E408F65D
:01C015002208
:10B10000E4F5281256D6AD28E4FF12B6615032900D
:10B11000F898E528F09000251257A590F899F0A32B
:10B12000EDF0E5281257A2125961E528900021128E
:10B1300057A890F89DF0A3EDF0E41256D4FF1297B3
:10B14000B30528E528C3944640B9E4F5281256D63D
:10B15000AD287F0312B661501590F898E528F012DB
:10B1600058CBF0A3DFFC1256D67F031297B3052805
:07B17000E528C3941040D64E
:01B1770022B5
:10CE8800E535540FFEE4C4F8540FC868FFEEC454E7
:10CE9800F048FEE533540F4EF533EF4534F534785A
:10CEA8007BE690F898F0A3E532F0E533A3F0A3E52C
:10CEB80034F0A3E536F0A374FF1256D17F0202972F
:01CEC800B3B6
:08B5F3008F328B338A34893555
:10B5FB00E53225E025E0F536E53275F004A42404A8
:10B60B00FFE435F0FEC3E5369FEE6480F874809856
:10B61B0050431256D6AD367F0212B6615020E4F578
:10B62B003774992537F582E434F8F583E0FF125827
:10B63B0067EF12456A0537E537B404E58012E4F588
:10B64B003712586774FF12456A0537E537B404F1B2
:05B65B00053602B603F4
:01B6600022C7
:10D76100E4F5281256D6AD287F0212B66150159005
:10D77100F898E528F01258CBF0A3DFFC1256D67FBB
:0DD78100021297B30528E528C3941040D686
:01D78E002278
:10D9F60078C6E6FEA2E140057524018008EEA2E1A4
:10DA0600500375240490F898EFF0787C1256DDA345
:0ADA160074FF1256D5AF240297B337
:02C429008F245E
:10C42B0078C6E6FFA2E140057525018008EFA2E181
:10C43B0050037525041256D6AD24AF2512B66150A4
:10C44B000C90F899E0FEA3787C12575D2275F013DF
:10C45B00E52490002512486FE4787C1256C575F0E0
:10C46B0013E5241256BD75F013E5249000211256E6
:01C47B00C000
:01C47C00229D
:10AF1400E4F5281256D6AD287F0112B6615035905B
:10AF2400F898E528F01259771257A890F899F0A3E9
:10AF3400EDF0E5281257A2125961E528900021127C
:10AF440057A890F89DF0A3EDF0A374FF1256D57F97
:10AF5400011297B30528E528C3944640B6E4F528C2
:10AF64001256D6AD287F0412B661501590F898E5B4
:10AF740028F01258CBF0A3DFFC1256D67F041297A8
:0AAF8400B30528E528C3941040D659
:01AF8E0022A0
:10E65A0090F8987401F0787612589508125895A394
:0AE66A0074FF1256D57F050297B326
:10E400001256D67D017F0512B661500E90F89978AC
:0EE41000761258A1A3081258A12212581A22FF
:06ECAD0012581A02E65A9B
:10C79200E4F529F52912593512571CEFF00528E561
:10C7A20028B408F41256D67F051297B30529E52955
:10C7B200C3940440E012593512571CEFF00528E5E6
:10C7C20028B403F475280312573974FFF00528E5DD
:0CC7D20028B408F31256D67F050297B376
:10BC6A00E4F522E522241DFD1256D67F0512B6619F
:10BC7A00503E752301E522B404047F0380027F0845
:10BC8A00E523C39F50307498252312573DE0FDE504
:10BC9A002275F007A47B0124FFF974F735F0FA7EC8
:10BCAA0000E92523F9EE3AFAED124558052380C535
:0FBCBA001258B30244CA0522E522C3940540A4E0
:01BCC9002258
:09EC08001258B31244CA02C7926B
:10C90D0012585470047F0280027F0390F898EFF064
:10C91D0090F82AE090F899F090F82BE090F89AF0C2
:10C92D0090F82CE090F89BF090F82DE090F89CF0AA
:10C93D0090F82EE090F89DF090F82FE090F89EF092
:0BC94D0078B7E61256D47F050297B3BE
:10BD8A0012585470047D0280027D031256D67F0534
:10BD9A0012B661503890F899E090F82AF090F89A23
:10BDAA00E090F82BF090F89BE090F82CF090F89C3B
:10BDBA00E090F82DF090F89DE090F82EF090F89E23
:10BDCA00E090F82FF090F89FE078B7F622782A7C76
:0FBDDA00F87D017AB3790612582478B7760522DE
:10D0F800125854F528782A7CF87D017BFF7AB37999
:10D108000612582678B7760578AEE6548FF612C917
:10D118000D78AEE6548F4460F612C90DE528C45464
:09D12800F0FF78AEE6548F4FF6DB
:01D1310022DB
:10DBDC00125854240490F898F090F831E090F89989
:10DBEC00F090F832E090F89AF0A374FFF0A312567C
:06DBFC00CF7F050297B384
:10DC02001258542404FD1256D67F0512B661500EE6
:10DC120090F899E090F831F090F89AE0800312576A
:06DC2200ED90F832F02243
:0AEBD8001257ED90F832F002DBDC7A
:10D39F0012585475F005A4FF7879E6540F24092F1D
:10D3AF0090F898F090F835E090F899F090F836E012
:10D3BF0090F89AF090F837E090F89BF0A374FF1272
:07D3CF0056CF7F050297B362
:10C4D0007879E6540F2409FD1256D67F0512B6610D
:10C4E000501690F899E090F835F090F89AE090F8AE
:10C4F00036F090F89BE080257BFF7AB3791278794B
:10C50000E6FF1257B890F835F07AB30975F003EFEB
:10C510001257BB90F836F07AB3091257B590F83736
:02C52000F02207
:10CBE60012585475F00FA4FFAEF02412F974B33E38
:10CBF600FA7BFF1257B590F835F074132FF974B31A
:10CC06003E1257B490F836F078AEE65470FFC4542E
:10CC16000F75F00FA42414F974B335F01257B490BD
:06CC2600F837F002D39F75
:10C32A0090F881E07002802590F881E0FF541F6048
:10C33A003EEFC3942050197420F0752BFF752C82A0
:10C34A00752DD67BFF7A82795612A51BE4FF8021D0
:10C35A0090F881E0C4135407C43354E0F07F01120B
:10C36A00C01690F881E02420F01258D302A51B7F52
:05C37A000112C01622B3
:10C0160090FF207406F0EF701AFEEE90825693128F
:10C026005913EE9082D693FD12596CEDF00EBE8038
:10C03600E9802FEF6401702AFE90F881E0FF75F029
:10C0460008A42E12579812594112591375F008EF89
:10C05600A42E12579812594DFF12596CEFF00EBECE
:08C0660080D790FF207407F061
:01C06E0022AF
:03ECE70002C32A3B
:06A51B008B288A29892A21
:10A52100E4F52E12577D1259416F701D12597EF5B7
:10A5310083124509FF75F008ED12579512594DB573
:10A541000707052EE52EB480DAE52EC39480505618
:10A5510090F881E0C3946040107F1F12E549907F1D
:10A56100FF7412F0E490F881F0E4F52E12577D2487
:10A5710000F582E583347CF583EFF012597E758313
:10A5810000124509FF75F008ED1257952480F582F8
:10A59100E583347CF583EFF0052EE52EB480CD9074
:06A5A100F881E02420F027
:01A5A7002291
:06ECB3001258D302A51B5C
:10AF8F007F1F12E549400122752210AF2212E549B9
:10AF9F004001220522E522C3941640EFE4F522E595
:10AFAF00221257131258E3E522F0EF12588BE4F0F8
:10AFBF001258EDE4F01258F7E4F0125901E522F0BF
:10AFCF002486125883E522F0248C12590BE522F0C7
:10AFDF0024921257E5E4F00522E522B406C1907FD2
:10AFEF00FF7412F090F8807406F090F88212483EC9
:0AAFFF0000000000E490F881F0D398
:01B009002224
:10E54900EF33333354F8440190FF39F07BFF7AEB12
:0CE5590079AC7F2812E45A400122D32242
:107FA900E4F527F526F525F524F52890F8821248F9
:107FB9003E00000000E4F52274862522125883E56C
:107FC90022F00522E522B406EFE4F523E4F522E5E3
:107FD900221257131258E3E0FD74862523125883A1
:107FE900E0FFED6F60030280AAE522FB125713122E
:107FF90058EDE0FCEF1258F7E06CFCEB1257151244
:10800900588BE06CFFED6FFDE522125713125901F1
:10801900E06D60030280AA748C252312590BE522B6
:10802900F0FF12DCE5749225231257E5EFF0E52203
:108039007D0025E025E0FCED24FDF58274433CF547
:1080490083E07B00FAED24FCF58274433CF583E080
:108059007E007810C333CE33CED8F9FFEE4AFCEF59
:108069004BFDE52212571312588BE0FFECFEED4F42
:10807900FFE48F278E26F525F5241258ADAB27AAE4
:1080890026A925A824D31247E34029AF27AE26AD58
:1080990025AC2490F88212483290F880E522F080CD
:1080A90013E522B40E02C3220522E522C3940F5020
:1080B90003027FD80523E523C394065003027FD525
:1080C9007F0F12DCE590F881EFF0E4FFFEFDFCA3E1
:1080D900124826C31247E390F88070057406F080B1
:0C80E9000AE0FF12D5B190F880EFF0D350
:0180F5002268
:02DCE500A9078D
:10DCE7007D7FE4FCE925E025E0FAED12585D3AFE78
:10DCF700EC12582DF46003AF05220CBC08E6DDE2F8
:02DD07007F009B
:01DD090022F7
:10D5B100E4FEBF0E03FF80010FEEFD3395E0FC7426
:10D5C1008C2DF58274F83CF583E0B5070ABF0E0493
:10D5D100E4FF80010F7EFF0EC3EE6480948640D984
:01D5E1002227
:10E8C600E490F898F01258CBF0A3DFFC1256D67FEE
:04E8D600050297B3ED
:10E7ED00E490F898F07F0790F899E4F0A3DFFC121D
:07E7FD0056D67F050297B319
:10DA9E001256D6E4FD7F0512B66150197522017437
:10DAAE0098252212573DE06002800A0522E522C326
:08DABE00940840EB2212948948
:01DAC600223D
:0897B3008F378B388A39893A9F
:1097BB00D20674922F1257E5E004F53BE53BD394A8
:1097CB0000404912574CFEE53B1257C4FF1259217A
:1097DB001244F0547F6F7028F53C125921853C825E
:1097EB00125745FAE53B12585D3AFEE53C12582DEF
:1097FB006D6004C2068015053CE53CB408DC800CAA
:10980B00E53BB40102C206153B0297C720065D1269
:10981B0057E1E0B47F05AF37026FED753B0112598D
:10982B0021853B82125745FA1257E1E012585D3AF7
:10983B00FEE53B125840053BE53BB408E1125921CC
:10984B001244F012574BFE1257E1E075F008A424B6
:10985B0000F582E5F03EF583E5822400F582E58391
:0C986B003440F583EDF01257E1E004F00A
:0198770022CE
:0AB661008F388D398B3A8A3B893C03
:10B66B0074922F1257E5E004F53DE53DD39400406D
:10B67B0050748C2538125750FEE53D1257C465396E
:10B68B007033F53E748C2538125750FCE53D12583B
:10B69B005D3CFE7C00EF253EFFEC125832AB3AAA24
:10B6AB003BA93C853E8275830012456A053EE53E0B
:10B6BB00B408D1800CE53DB40102C322153D02B69E
:02B6CB0075D335
:01B6CD00225A
:026FED008F3DD6
:106FEF00754001748C2F12590BE0F54190F880E039
:106FFF002410FF12E549400122E4F9749829125731
:10700F003DE0FD90F880E025E025E0FEE924001248
:10701F00584109B908E590F898E0547FF53EE4F53A
:10702F003F7498253F12573DE4F0053FE53FB40804
:10703F00F0125959FF249812573D1259288002C354
:10704F0033D8FC4EFE74982F12573DEEF090F88017
:10705F00E0FF748C253D12590BEFF012D5B190F86B
:10706F0080EF1258ACEF2401FFE43EFEE43DFDE457
:10707F003CFC90F882124832797FE54125E025E00B
:10708F00FE75F008E91257C7F53E647F7003027171
:10709F001D125959249812573DE0FD7C00E53E54CE
:1070AF0007FF74017E00A807088005C333CE33CED7
:1070BF00D8F9FFEE5CFEEF5D4E7053F53FE54125CD
:1070CF00E025E0FCE912585D3CFE7C00EF253FFF18
:1070DF00EC125832FD748C253D125750FAE54012D0
:1070EF00585D3AFEE53F125840053FE53FB408CDE5
:1070FF00125959FF249812573D1259288002C33351
:10710F00D8FC4EFE74982F12573DEEF0054019E94A
:10711F0060030270897492253D1257E5E5401258BD
:10712F00AC78101247F4AB071257071258F7EB124F
:10713F0058AC78081247F4AA071257071258EDEA0D
:10714F001258ACAD0712570712588BEDF012587F3B
:10715F00E0FC1257071258E3ECF0EB6A6DFF125880
:10716F007FE06FFD125707125901EDF0E541241032
:08717F00FF12E549400122D393
:0171870022E5
:10962700AE3AAF3B7C007D021245F3EF2BF53BEEE4
:109637003AF53AAB2BAA2CA92D0246291246C6E4C5
:109647007B02FAF9F81246C6AB31AA30A92FA82E29
:1096570012CCFA8E3A8F3BD3E53B9400E53A64800F
:1096670094802290F839E0FEA3E0FBAA06E4F9F81B
:10967700AE36AF3722AB35AA34A933A832AF31AEF5
:1096870030AD2FAC2E1246B8A80422A804A905AA0B
:1096970006AB07E0FEA3E0FFE4FCFD22AEF0FBE42F
:1096A700C39BFF74809EFEE49400FDE49400FC22BB
:1096B7007A00790C7B00D2067D0122E53B5401FF3D
:1096C700C3E49FFFE49400FAAB072290F839E0FC6B
:1096D700A3E0FDEC22AB05AA04E4F9F8E53722ABD9
:0696E7002BAA2CA92D2284
:10DA20007876E633501C78AEE6A2E250151296B72F
:10DA30007F0212D2BFE50C54037007E50C20E70209
:0ADA4000C32278AEE654F7F6D322B5
:066C93008B2B8A2C892DD9
:106C9900E4FD7F1F12EB947D807F4412EB941296E2
:106CA9003AFFAEF012CD3E5002C322126E25F536E0
:106CB900E50DF537E4FD7F4412EB9412963AFFAEE9
:106CC900F012CD3E5002C322126E25F538E50DF5BE
:106CD9003912966AFCFD1246C6A804A905AA06AB94
:106CE90007AE38AF39E4FCFD1246AB8F318E308DDB
:106CF9002F8C2ED3E5399490E5389401402B1296C8
:106D0900D213FEED13FFE5392470FBE53834FEFAA2
:106D1900D3EB9FEA9E400D1296DC2401FFE4353641
:106D2900FEE4803112966A802C1296D2C313FEEDCE
:106D390013FFC374909539FB74019538FAD3EB9F0F
:106D4900EA9E400E1296DC24FFFFE53634FFFEE48E
:106D5900800312966AFCFD1246C6EF2490FFEE34BA
:106D690001FEE43DFDE43C8F358E348D33F532125E
:106D7900967CC005C006C00712963A1296A3D003A6
:106D8900D002D0011296434009E53B54017A00FB39
:106D990080031296C2129627126E395002C322E559
:106DA9000C606990F83930E11412969AE5352FFF95
:106DB900E5343EFEED3533FDEC35328017E0FEA3B8
:106DC900E0FBC3E5359BFFE5349EFEE5339400FD0A
:106DD900E53294008F358E348D33F53212967CC0AE
:106DE90005C006C00712963A1296A3D003D002D066
:106DF900011296434009E53B54017A00FB800312D6
:106E090096C2129627126E395002C322AB2BAA2CB6
:0B6E1900A92DE53A853BF012468CD312
:106E2400227B007A00790CC2067D027F4412D2BF15
:106E3400E50C540F22AEF0253BF53BEE353AF53A1E
:076E4400AF3BFE12CD3E2220
:10BCCA008B2B8A2C892DE4FF12E85E900A21E493DB
:10BCDA00FF1296E6E48FF01246541296E6124629AF
:10BCEA00FFAEF012CD3E50037F0222E50C602E1209
:10BCFA0096E630E10D12462924FFFFE5F034FFFEF7
:10BD0A00800A1246292401FFE435F0FE12CD3E5086
:10BD1A00037F0222E50C540360037F01227F002285
:108BD400E4F52EF52DF52CF52BFB7DFC7F4712DA01
:108BE400C77B107DEF7F5012DAC712EBF67BFF7A5A
:108BF400E979D77F3C12E45A4003028CC77B407D5D
:108C0400BF7F5212DAC7E4FD7F5912EB94E4F50CEE
:108C1400FB7A00790DD2067D037F5912D2BF850FEE
:108C24002E850E2D850D2C850C2BE4FB7D5F7F524C
:108C340012DAC77A0079331296BB7FAE12D2BF051F
:108C44003305337B007A007934D2067D017FAF127D
:108C5400D2BFE5345430C4540FFF7401A807088010
:108C640002C333D8FCF534FFE4FCFDFEFBFA7908BB
:108C7400F81246C690F8391296921246C6AB2EAA3E
:108C84002DA92CA82B12475190F83D12969212460A
:108C9400C6C007AF33AB07E4FAF9F8D0071247515F
:108CA4008F328E318D308C2FC3E49532FF748095D2
:108CB40031FEE49530FDE4952F8F328E318D30F501
:108CC4002F800BE47532FF7531FFF530F52FE4FB8F
:0B8CD4007DEF7F5012DAC7AE31AF32E7
:018CDF002272
:10CD3E008E3C8F3DE4FB7DFE7F4712DAC712EBF689
:10CD4E00AF3DAE3C12E045E4FD7F0212EB947F084E
:10CD5E0012CFC87F0812CFC812AA01500122129614
:10CD6E00B77F0212D2BFE50C54606002D322530C7F
:03CD7E0003C322CA
:10718800E4F528FB7A00790CC2067D027FB512D29D
:10719800BFE50C540FF523E50DF524E4FB7DFD7FD9
:1071A800BB12DAC7E4FF12E85E128BD48E258F2655
:1071B80012CD3E50037F0222E50C7053432801E5AF
:1071C800262418FFE43525FE12CD3E50037F022207
:1071D800E50C7003432802E52624E8FFE52534FF83
:1071E800FE12CD3E50037F0222E50C7003432804B3
:1071F800E528B40309740C2526F526E4800DE52856
:10720800B4050C74F42526F52674FF3525F525E517
:107218002860030272EBAF24AE2312E045E4F528A0
:10722800752718AF24AE2312CD3E50037F0222E506
:107238000C603CE50C30E11AE5287E0030E0047F64
:107248000C80027F18C3E5249FF524E5239EF523CF
:107258008017E5287E0030E1047F0C80027F18EF5C
:107268002524F524EE3523F523850C28D527B4E508
:107278002770037F0122E528701CE5242418FFE409
:107288003523FE12CD3E50037F0222E50C6003FF3A
:0F72980080027F018F28852325852426752704F2
:1072A700E52830E00BE526240CFFE43525FE800AAF
:1072B700E52624F4FFE52534FFFE8E298F2A12CD1B
:1072C7003E50037F0222E50C7009852925852A2671
:1072D700D527CDE5242526FFE5233525C313F52539
:1072E700EF13F5267B007A007925126C9340037F14
:1072F70002227B007A00792512BCCA8F28E5286014
:0A730700012278AEE64408F67F008C
:017311002259
:10E8DA0012E5B87827E475F001024884D29012E96B
:04E8EA0002C29022B4
:10E902000000000000000000000000000000000005
:03E91200000022E0
:10E87300D29012E9023090FDD291C29112E902C204
:05E883009012DC2822C8
:0AEBE200C291D29012E902D29122F2
:10E98400D291D29012E902A291E433FFC290D291C3
:01E994002260
:06ECB900C29112E8E62200
:06ECBF00D29112E8E622EA
:10DC2800E4FEEF335004D2918002C29112E8E6EF8D
:10DC380025E0FF0EBE08EB12E984EF600612EBE266
:05DC48007F00227F01B6
:01DC4D0022B4
:10E5B800E4FFD291FED29012E902EF25E0FFA2918A
:0AE5C800E4334FFFC2900EBE08EBD3
:01E5D2002226
:02DD79008D2AF1
:10DD7B00752BFF8F2CAF2C12E873EF64016005D568
:10DD8B002BF3C322AF2A12DC28EF64016002C322FB
:01DD9B00D3B4
:01DD9C002264
:06C611008F238A258B2611
:10C61700E52645257002C322AF2312DD79400122AA
:10C62700E5234401FF12E873EF64016002C322E5CA
:10C6370026152670021525144525600C12E8DAEF39
:10C6470012455812ECB980E712E8DAEF1245581292
:06C65700ECBF12EBE2D380
:01C65D0022BA
:08AE96008F238D248A258B26F1
:10AE9E00E52645257002C322D3E5269400E52594C8
:10AEAE00004061AD24AF2312DD79400122E5245428
:10AEBE000FFFC374109FFDFF7E00D3E5269FE5258F
:10AECE009E401CE5269FF526E5259EF525E524C327
:10AEDE0094F0400405230523ED2524F5248007ADC9
:10AEEE0026E4F525F526AF051DEF6013782712E849
:10AEFE00DF1244F0FF12DC28EF640160E9C3221276
:05AF0E00EBE28094D38A
:01AF1300221B
:03000B0002B73AFF
:10B73A00C0E0C0F0C083C082C0D075D000C000C0D5
:10B74A0001C002C003C004C005C006C007D28C7580
:10B75A008A21758CF8D20A78A7E6FE08E6FFF4700B
:10B76A0002EEF4600AEF4E6006E61618700116E55E
:10B77A005760041557800920090612DDE575570A36
:10B78A00D007D006D005D004D003D002D001D00013
:0BB79A00D0D0D082D083D0F0D0E032BD
:07EC8B00C10000FD54FEFF73
:10AC2900019B1E01A60F02A401D201A100019E00F1
:10AC390001A000019F00019D0001A20001A30001E4
:05AC49009C0001560013
:1080F6007864E6FA08E6FBFF7C007D64AE02124572
:108106009E7C007D0A12459EED243022FFC3ED9F22
:10811600FFEC9ECF24FCAD26CF34FFFE7C0012453B
:108126008CE4FD7B64FAF9F8024751E524FD7C00F6
:10813600FFC3E5239FFFE5229400FAA9077BFFD240
:10814600067F9222908358E493FE74019390835C99
:10815600FFC37401939FFFE4939EFEEF780222F51E
:108166000D7B007A00790CC2067D027C007F90228E
:10817600E50C24FDFDE434FFFC7B007A00790FD288
:10818600067F92227C007D0AE6FE08E6FF02459EF7
:10819600E4F52485238285228322FE7C007D6412F9
:1081A600458CAD03AC0202459EC207D2087F9222DF
:1081B600E47B0AFAF9F8AF25AE24AD23AC220247D8
:1081C600517B007A00790CD20622AB2DAA2EA92F5C
:1081D6001244F025E025E02278ACE6C39FFFE49E3A
:1081E600FE22EF2402FFE43EFEE43DFDE43CFCE417
:1081F6007B02222430F52FEF75F00A84E5F022C2C7
:1082060007C2087F90227C007D0AAF032290836418
:10821600E493FE740193227864E6FE08E6FF22FBEF
:108226007A00790CC206222523F523E43522F522AD
:0B82360022EF25E0FBEE33FAC3E62246
:10B9B000789BEFF678A6A6052401F523E433F5225B
:10B9C00078A4A60208A60312820512E89D7FC01281
:10B9D000D6137F0412D6131200031281AF12E89D12
:10B9E000AF23E52312D613E522C4F854F0C8E523AB
:10B9F000C4540F4854F0FF78A5E6540F4FFF12D6F9
:10BA00001379A4E7C4F854F0C809E7C4540F48FFF9
:06BA100012D61302000330
:10C2D4008E248F258C268D278B2812820512E89DAB
:10C2E400E524540F4528FF12D613AF25E52512D6B1
:10C2F40013120003E528B4D00FAE26AF277C007DCF
:10C304000312458C8E268F271281AF12E89DE527F4
:10C314004526600FAF2912D613E527152770EF15B0
:06C324002680EB0200037D
:10D217008F228D23EFFD7C007529807B10E4FFFEB4
:10D2270012C2D4E4FF12E9C7E522FD7C0075298804
:10D237007B50E4FFFE12C2D4E522FD7C0085232942
:08D247007B90E4FFFE02C2D45B
:04CD81008B33AC073D
:10CD850078A6E6FFED8FF0A4FF789BE62401FBE48F
:10CD950033CB2FFFEB35F0FEAD047C00EF2DF535E1
:10CDA500EC3EF53412820512E89DE534540F453307
:0ECDB500FF12D613AF35E53512D61302000378
:10E9C7008F2E1281AF12E89DAF2E12D613020003CD
:10DD0A008E268F271281AF12E89D8527828526836A
:10DD1A00E493FF600D12D6130527E52770EC05265C
:05DD2A0080E802000387
:08D703008E228F238D248B255B
:10D70B0012EA67EFC313FEC395244005E4F52480AA
:10D71B0006C3E5249EF5247B50AD25AF2412CD81A5
:07D72B00AF23AE2202DD0A6C
:08D78F008E228F238D248B25CF
:10D7970012EA67EFC313C395244005E4F524800616
:10D7A700C3E5249FF5247B50AD25AF2412CD81AF6F
:06D7B70023AE2202DD0A90
:04C37F00AB07AA0658
:10C383007C277D1012459EEF2430F5227C037DE847
:10C39300AF03128102F523AF031280FEF52412824C
:10C3A3000C128102F525AE02AF03128107F52612A6
:10C3B30081AF12E89DAF2212D613AF2312D613AF6B
:10C3C3002412D613AF2512D613AF2612D6130200AA
:01C3D3000366
:10C52200EF75F06484FED394004012EE2430F52EB1
:10C53200EF75F00A841281FE1281F98019EF75F00D
:10C542000A84FED39400E44008F52EEE1281F980AD
:10C5520005F52EF52FEF2430F5301281AF12E89D4C
:10C56200AF2E12D613AF2F12D613AF3012D613023C
:02C572000003C4
:10D04500EF540FFEC3940AEE50062430F5238004F6
:10D055002437F523EFC4540FFEC3940AEE5006247B
:10D0650030F52280042437F5221281AF12E89DAFF6
:0CD075002212D613AF2312D613020003C0
:10E67400750C81EF25E025E02403F50DE4F50E1279
:0AE6840082257D03FC7F9002D7BDC4
:107A4E008E228F238C248D258B26E526D39464409D
:107A5E0003752632E527D394644003752732E52853
:107A6E0030E75C12814ACEC313CE13D8F9FDAC06B3
:107A7E00E522C313FEE523131281121281E812814F
:107A8E002B8E228F23128213908368128156CEC3BF
:107A9E0013CE13D8F9FDAC06E524C313FEE525136A
:107AAE00FFC3ED9FFFEC9ECF24FDAD2712811E126A
:107ABE0081E812812B8E248F2543287F027B311281
:107ACE00814ACEC313CE13D8F9FDAC06E523AE2200
:107ADE007802CEC313CE13D8F9128112EF2406F515
:107AEE0023E43EF522128213FFC39083681281585D
:107AFE00CEC313CE13D8F9FDAC06E525AE2478021D
:107B0E00CEC313CE13D8F9FFC3ED9FFFEC9ECF2447
:107B1E00FACF34FFFEAD27128122EF2404F525E4BF
:107B2E003EF5247B027DF87F9312DAC77D017F6CD0
:107B3E0012E8EE8F0CE50C70047FC080027FE08FA0
:107B4E000CE4F50D1282257D02FC7F9012D7BDE567
:107B5E0024C313E52513F50CE523AE227802CEC31C
:107B6E0013CE13D8F9F50DE5235403C4333354C0A3
:107B7E00FFE5255401FEC43354E04F4528F50E129F
:107B8E0081C77D037C007F9212D7BD7F2012CFC8A4
:0E7B9E007F2012CFC87B057DF87F9302DAC7E7
:10D644008B30AE05AD07AF06AB3212CD81E532B4F7
:10D65400D008E53075F003A4F5301281AF12E89DCF
:10D66400E5306009AF3112D613153080F3020003A0
:10E365008F258D268B27E5266014852931852A3250
:0FE37500AB28AD27AF2512D6440525D526EC22BF
:10A04E0078627C037DE812818EEF4E6005750F31CC
:10A05E008003E4F50F78621280F8F51012820C126C
:10A06E008102F5117862E6FE08E6FFBE051ABF56BC
:10A07E00177865E6B4001118E6B4030C7C007D0A6F
:10A08E0012459EED24FA8006786212818AED243004
:10A09E00F51275132075145875152012821D7C0348
:10A0AE007DE812459EEF4E60207516311280F6F552
:10A0BE001712820C128102F51812821D128107F5F9
:10A0CE0019E4F51A750C0E801B1280F6F516128225
:10A0DE000C128102F51712821D128107F518E4F594
:0AA0EE0019750C0D12817602D7BD22
:10D3D600785C12818AEF75F00A8475F00A8485F00C
:10D3E60018EF75F00A8485F017750C07E5182430D8
:10D3F600F50FE5172430F51075114875125AE4F546
:07D406001312817602D7BD6D
:10A8F3007858E675F01390001B12486F128216FF0A
:10A90300E48F258E24F523F5227B64FAF9F812816E
:10A91300C0E47B0A12812BAF038F191281B6E47B4B
:10A923000A12812BAF038F181281B6AF038F17E57D
:10A9330019C3940A4011E51975F00A8404F51A74D1
:10A94300F62519F5198003E4F51A750C0B851A0F12
:10A95300E5192430F510E5182430F51175122EE5AC
:10A96300172430F51375144B75154875165AE4F50D
:07A973001712817602D7BD27
:0490DA008E228F2330
:1090DE00AA06A9077BFF12816D12D7BD02917412E9
:1090EE008199E49364FC704C12813112D7BD1281C8
:1090FE00960493FFD3940340030291CDEF24FCF525
:10910E0025128199740293B4FD14740393FD7C00AF
:10911E00D205AB257F9212DC9A74040291AC7B00CF
:10912E007A007925D2067D017C007F9212D7BD741C
:10913E00020291AC128199E49364FD703412813174
:10914E0012D7BD12819974019324FFFDE434FFFC04
:10915E00E58224FFF582E58334FFF583E493FBD2A9
:10916E00057F9212DC9A740212822DE4F52402908D
:10917E00ED128199E49364FE702A12813112D7BDEB
:10918E000523E523700205221281960493F4602FC5
:10919E00AA22A9237BFF12816D12D7BD74021282FF
:1091AE002D0290ED128199E493B4FF0612813102E3
:0F91BE00D7BD0523E5237002052205240290ED9D
:0191CD00227F
:0EEAC1007F2012CFC87B017DFE7F6C02DAC77A
:09EC1100E4FB7DFE7F6C02DAC712
:0C8ABC008E258F268C278D288A298B2A76
:108AC8007D017F6C12E8EE8F30E53070047FC18045
:108AD800027FE18F0C1281D00412816512D7BD7E0E
:108AE80000E526543F7802C333CE33CED8F9F50CCF
:108AF800E5255407FEE52654C07806CEC313CE13E9
:108B0800D8F9FFE5285407C43354E04FF50DE5289C
:108B1800AE277803CEC313CE13D8F9F50E7E00E541
:108B28002A543F7802C333CE33CED8F9F50FE5295E
:108B38005407FEE52A54C07806CEC313CE13D8F9DD
:108B4800FFE52C5407C43354E04FF510E52CAE2B49
:108B58007803CEC313CE13D8F9F5111281C77D0659
:108B68007C007F9212D7BD7F287E0012E744E4F58F
:108B780031750CC11281D0FFE53175F003A42F12B5
:108B8800816512D7BDE4F530E53175F003A47C00AA
:108B98002530FFEC35F0FEAB2DE52F2FF9E52E3E05
:108BA800FA900001124509FF740C2530F8A6070554
:108BB80030E530B403D21281C77D037C007F921266
:0B8BC800D7BD0531E531C3940240A683
:018BD300227F
:10D24F008F228B238A248925750C411281D62403C2
:10D25F0012816512D7BDAB23AA24A9259000051210
:10D26F00450954F0FFE522540F4FF50C1281C77D8D
:08D27F00017C007F9202D7BD83
:02BEA7008F27E3
:10BEA900E527701912BEEA7881E640082432FF18A6
:10BEB900E436FE222529FF18E63528FE22E5276407
:10BEC90001701D12BEEA400C7881E624CEFF18E607
:10BED90034FFFE22C37881E69529FF18E69528FEEE
:10BEE900227880E6FE08E6FF7B007A00792812AE08
:0BBEF90018D3E5299432E528940022BC
:10E5D300EFC4333354C0F50C750D018D0E7B00125F
:0BE5E30082267D037C007F9002D7BDE4
:04EA67008F828E8389
:0AEA6B00E4FFE49360040FA380F8B9
:01EA7500227E
:10CF4A00E52B601BC3EB9DEA9C4009E52C702FAFD3
:10CF5A0005AE0422EB2401F52EE43AF52D801BD30D
:10CF6A00EB9FEA9E500AE52C700122AE04AF05221F
:0ECF7A00EB24FFF52EEA34FFF52DAE2DAF2E81
:01CF88002286
:10DC4E007F0112BEA78E258F26E4FF12BEA7C3EF5B
:10DC5E009526FBEE9525FAC37874E69526FF18E611
:05DC6E0095251281A0C4
:01DC7300228E
:10CDC300C37967E7787D96FF19E71896FE12E97233
:10CDD3001281DE787CE6FC08E6FDC39FF526EC9E17
:10CDE300F525C37867E69DFF18E69CFE12E97212EB
:10CDF30081DE78701282379526FF18E69525128119
:01CE0300A08E
:01CE0400220B
:10CC2C00C37969E7787F96FF19E71896FE12E972C7
:10CC3C0078AD1281E0787EE6FC08E6FDC39FF52610
:10CC4C00EC9EF525C37869E69DFF18E69CFE12E97B
:10CC5C007278AD1281E078721282379526FF18E651
:05CC6C0095251281A0D6
:01CC710022A0
:10BADF007877E6F52290F835E0F519A3E0F51AA38B
:10BAEF00E0F51B12948990F835E519F0A3E51AF0EB
:10BAFF00A3E51BF012C79212E65A12CB1312C12103
:10BB0F0012ECEE12ECA7E522640160177873E6FEE3
:10BB1F0008E6FF1249187875E6FF12731212EC84CB
:10BB2F0012AD987877A622786E760178C7E644082A
:04BB3F00F602B178E1
:10E68E008F2212820512E89D7F4012D6137F03124D
:0AE69E00D613AF2212D613020003B8
:10E6A800E4FFFEFDFCED1D70011C8D828C83E4935C
:09E6B8002FFFE43EFEED4C70EC76
:01E6C1002236
:10DF1D00E50B450A700712E6A88E0A8F0B7B50E4BD
:10DF2D00FD7F0912CD81E50AFF12D045AF0B02D05E
:01DF3D00459E
:10E78E00129CDA78C7E6A2E1400312D1A578C7E65B
:08E79E00A2E2400312EB882205
:10C5C300E4FFFDFBE55630E71530E0027FFFE5565B
:10C5D30030E1027DFFE55630E2197BFF8015E55619
:10C5E30030E0027F7FE55630E1027D7FE55630E2A1
:10C5F300027B7F12D40D0556E55630E00790FF61AC
:0DC6030074018004E490FF61F090FF60F08E
:01C610002207
:10A74F007D0112A7C37EF67F0012DD0A7F2012E97A
:10A75F00C77EF67F0712DD0A7D0212A7C37EF67F42
:10A76F001C12DD0A7D0312A7CB7EF67F2312DD0AB2
:10A77F007D0412A7CB7EF67F3512DD0A7D0512A769
:10A78F00D37EF67F3E12DD0A7D0612A7D37EF67FBB
:10A79F004912DD0A7B507D07E4FF12CD817EF67FE3
:10A7AF005212DD0A7B507D08E4FF12CD817EF67FC9
:10A7BF005B02DD0A7B50E4FF12CD81227B50E4FF68
:0CA7CF0012CD81227B50E4FF12CD8122CC
:10D5E20030042A78BCE67028300105C20102EC1131
:10D5F200D20178C7E64408F612B58412BD2A12DFBA
:10D602001D12A74F7BFF7AEC797402D73212C574D0
:01D6120022F5
:10DA4A0078BC760812D819502078BAE608F612CCB3
:10DA5A007278BAA60712D287500678BAE6B40B09CA
:0ADA6A007876E633500312B34F2222
:0FEA760078BAE608F612CC7278BAA60702D287F1
:0AEBEC0078BDE654FEF654FDF62253
:10D8190078BDE6A2E1500B135008E654FDF654FE1C
:10D82900F62278BDE6A2E140124402F67BFF7AECCB
:0DD8390079927F027E0012C6ABC322C3228B
:07EC920078BDE64401F62203
:07EC990078BDE64404F622F9
:10D94B0079BBE778BA665F600578BCA6052278BD1F
:10D95B00E6A2E35015A2E2500418A605227BFF7A3B
:0BD96B00EC79997F327E0012BC09228B
:10D2870078BAE6FF30E02F086630E02A12CC7278D1
:10D29700BAA6077876E6335002C204C201E4F5085D
:10D2A700F50920040312E38478C7E64401F678BD44
:08D2B700E654F7F6D322C3226E
:10CC7200E4FF90FF5FE020E0027F0490FF5DE02090
:10CC8200E00343070890FF5CE020E00343071090B5
:10CC9200FF5AE020E00343070290FF58E020E00340
:10CCA20043070190FF59E020E0034307202091034E
:03CCB200430740F5
:01CCB500225C
:10E384007876E633920678BAE624F5600A24FE70BD
:0EE394000D20060AD20422300604E478BAF600
:01E3A2002258
:10B34F007876E633920578BAE61248A9B37402B359
:10B35F008004B38608B39F0BB38C10B39220B398BD
:10B36F00400000B3B278BDE654F7F6E4FD7F0280EB
:10B37F001C7D017F0480167D027F0880107D037F76
:10B38F0010800A7D047F2080047D057F4002D94B09
:10B39F0020051F78BDE654FBF61294897876E654A3
:10B3AF007FF62278BDE654FBF67BFF7AEC79991293
:02B3BF00D73283
:01B3C1002269
:10001600020280015E013B02BC0A0A032001C10004
:1000260090003E020280015E017A03520F0F0340E8
:1000360001BD00A0003F0D02D00190013B02BC0AA9
:100046000A038401C100A300230F02D00190017CA2
:1000560003520F0F03A801BE00B4002D0F0280014A
:10006600E0013B02580A0A0320020D009100220F0C
:10007600028001E0015E029A0A0A0360020D00A0F6
:10008600002A0F028001E0017A02D80A0A03400220
:100096000800A9001E0F028001E0017702EE0A0A9D
:1000A600034801F400B900120F028001E001B10318
:1000B600520A0A034001FE0088001C0F0320025862
:1000C600015F02320A0A0400027100C800180F0319
:1000D600200258017A025B0A0A0420027400D90041
:1000E6001A0F0320025801E002D00A0A0410029AED
:1000F60000B9001C0F0320025801D402EE0A0A04BC
:1001060020027100F100170F032002580218035253
:100116000A0A0418027700D8001E0F034002700175
:10012600F102E90A0A0480029B0120002A0B04005E
:10013600030001E302580A0A0540032601280022AB
:100146000B04000300023402BC0A0A053003260130
:100156001800220B04000300025802EE0A0A0520CA
:1001660003200110001E0F0400030002AA03520A16
:100176000A05600328013000270F04000320026CE3
:1001860002E40A0A05300345010800230F040003B0
:100196002002CB03520A0A05280345011800230F43
:1001A60004800360021902580A0A05E8037E012C3E
:1001B600001E0F04800360028202BE0A0A05C00305
:1001C60092012000310F0480036002A302EE0A0AA6
:1001D60006400384018000230F04800360030203AA
:1001E600520A0A0628038B0168002A0F0480036658
:1001F60002AE02EE0A0A05B003930110002A0F04AC
:10020600800384026A02940A0A05F803A9015000D1
:10021600230F0480038402CE02FE050505E003A930
:10022600014000230F050002D001BF02580A0A064A
:100236007802EA015300190F050002D0023402EEDB
:100246000A0A069802EF0154001F04050003000184
:10025600DD02580A0A0684031A0142001A02050042
:10026600030001DB025A0A0A05A0031500730012F7
:100276000405000300023002BC0A0A069C031F01A3
:1002860050001F0405000300025902EE0A0A06AADE
:100296000321015A0021080550030001DD02580A16
:1002A6000A0704031A01700017040500032001F46D
:1002B60002580A0A0690033F0148001C0405000381
:1002C60020024302BC0A0A0684033C00E0001F0425
:1002D60005000320026E02EE0A0A0684033E01446C
