:10E9F1003D403F3B33281C002C2D3C3D38301A0054
:10AC5C0001C60041F8220041F81F0041F8200641CE
:05AC6C00F82100C10BFE
:10630D00A81474FFFFFEFDFC124751E47B10FAF94F
:10631D00F81246C6A804A905AA06AB0722785EE6C0
:10632D00FE08E6FFE4FCFD221246C6E47BE87A0394
:10633D00F9F8124751E47B127A02F9F8D30247E3D8
:10634D0090F80FE05407900AA5FF75F00312486FFF
:10635D0002489D8F0E8F0D8F0C7A00790C7B00D229
:10636D00067D037C002290F812E0FF90F819E02FD3
:10637D00C313FF752A00752B38752C00752D70759C
:10638D002EFF752FC87530FF7531902290F81BE0E8
:10639D001313543FFF90F814E02FFF752AFF752B50
:1063AD0090752C00752D30752E00752F7075300081
:1063BD007531302290F839E0FEA3E0FBAA06E4F92E
:1063CD00F822AA06AB07AF407E0012458C7C007DFB
:1063DD00080245F3785FE62480FF18E63402FEE4F8
:1063ED00FCFDE5132FFFE5123EFEED3511FDEC2210
:1063FD001246C6C3E50F9FFFE50E9EFEE50D9DFD02
:10640D00E50C9C22ED9FFFEC9EFEE6FD7C00D3EF9C
:10641D009DEE9C2290F80FE05418131313541F2275
:10642D001247518F0F8E0E8D0D22AE30AF31E4FC21
:10643D00FD0246C6785EE6FE08E62290F80FE054AF
:10644D00E0C4135407FF227B007A00790C22124519
:10645D008C7C007D7E1245F38F0D2235108F138EAF
:10646D00128D1122FF752A00752B38752CFF752D95
:10647D0090752EFF227532107BAF7A007DA67C01C0
:10648D00227532147B027AFE7DFF7C0022FC1245C0
:10649D008C7C007D400245F390F80FE054E722908C
:1064AD00F81CE01313543FFF90F81522AB3AAA3BAA
:1064BD00A93C124629FDC3227B1EFAF9F80246C6F5
:1064CD00C308E69FFF18E69E2275F003EF900AB110
:1064DD0022FDFCAB29AA28A927A82622AF35E4FC6A
:1064ED00FDFE7B387A1822FFE6FC08E6FDD39FEC13
:1064FD009E22E50D24FFFFE50C34FFFE22FE124522
:10650D008CAC06AD07E54522FFA60608A60722AB13
:10651D0017AA16A915228B278A28892922E5252451
:07652D00F8FFE434FFFE2239
:10E810008E3B8F3CE53B5401FB7DFE7F1312DB01F9
:07E82000AD3C7F1202EBCEBC
:10E05F008E2A8F2BE52B7807CEC313CE13D8F95406
:10E06F0002FB7DFD7F1312DB01AD2B7F1102EBCE87
:10E07F008E3E8F3FE53E540FFB7DF07FB512DB01E7
:10E08F00AD3F7FB612EBCE7B047DFB7FB702DB018A
:10E89800EFC454F0FB7D0F7FB712DB017B047DFBD7
:05E8A8007FB702DB0157
:09EC30007B207DDF7F5202DB0135
:09EC39007BC07D3F7FD402DB01AA
:10DEAD008F3B78AEE6A2E35018E4FD7FDA12EBCE9D
:10DEBD0012EB09E53BF4FDE53B4406FB7FDA12DB93
:02DECD00012230
:10E5D700EFF4FDE4FB7FDA12DB017D387FDA12E925
:0AE5E70028EF7006FD7FDA12EBCE7C
:01E5F1002207
:01ED270022C9
:087BB3008F228B238A2489250F
:107BBB00E522600464017057E522127CF1E5227C1A
:107BCB00017003FD80027D80AB23AA24A925127DC1
:107BDB0003E522127CFAE5227C017003FD80027D15
:107BEB0080AB26AA27A928127D03E52244A0FD7F9E
:107BFB006712EBCEE5227C017003FD80027D80AB2A
:107C0B0029AA2AA92BD2067F6612D7CC027CE9E5DA
:107C1B002264026009E52264036003027CF0E4F550
:107C2B002EE4F555F551E52E7014E5225401127C26
:107C3B00F1E5252410F9E435248523528030E52E17
:107C4B00B40114E5225401127CFAE5282410F9E45E
:107C5B0035278526528017E522540144A0FD7F6706
:107C6B0012EBCEE52B2410F9E4352A852952F55376
:107C7B008954E4F52FAB527E00E554252FF9EE35F0
:107C8B0053FA90FFF0124509FF740C252FF8A60745
:107C9B00052FE52FB410DEE4F52CF52DE5227E0142
:107CAB00B402047F0080027F80C3E52D9FE52C9EEC
:107CBB00502012A9C2EFC454F0F52F12A9C2EF4203
:107CCB002FAD2F7F6612EBCE052DE52D70CE052C3B
:107CDB0080CA052EE52EC394035003027C2C7D40F5
:057CEB007F6712EBCEE3
:107CF000224480FD7F6712EBCE224490FD7F671205
:0B7D0000EBCE22D2067F6612D7CC2209
:10CE8F008B228A2389247B807D3F7F6B12DB01AB52
:10CE9F0022AA23A924D2067D187C007F6912D7CC41
:10CEAF007B407D3F7F6B12DB01AB25AA26A927D2E2
:10CEBF00067D187C007F6A12D7CC7D387F6B02EB22
:01CECF00CE94
:10DA0600787AE6540F9008CA126356C003C002C063
:10DA16000175F003EF9008CA12635A8B288A298988
:0ADA26002AD001D002D00302D1B4CF
:10D1B4008B258A2689277DB07F1C12EBCEAB25AA4E
:10D1C40026A92712D1E17DC07F1C12EBCEAB28AA81
:10D1D40029A92A12D1E1E4FD7F1C02EBCED2067DFF
:09D1E400807C007F1D12D7CC22D3
:10CB5B0078AEE65470C4540F701D90F831E0FFD3DB
:10CB6B0094024006EF24FEFF800590F831E0FF8F22
:10CB7B000E8F0D8F0C800A90F831E0F50EF50DF548
:10CB8B000C7D807F6412EBCE1263667F6512D7CC6F
:07CB9B00E4FD7F6402EBCE14
:10C16900E4FB74352BF582E434F8F583E0FF7E00B7
:10C1790090F832E0FD7C0012458CEF7807CEC313AE
:10C18900CE13D8F9FFD394FFEE940040087C007ECB
:10C19900007FFF80027E00740C2BF8A6070BBB03FF
:10C1A900C17D837F6412EBCE1263667F6512D7CCA3
:07C1B900E4FD7F6402EBCE00
:01ED280022C8
:10D8AE0090F82AE0F50CA3E0F50DA3E0F50E7D80CF
:10D8BE007FDC12EBCE7D847FDC12EBCE1263667FB3
:0BD8CE00DD12D7CCE4FD7FDC02EBCEC6
:10D6E30090F82DE0F50FA3E0F510A3E0F5117D8090
:10D6F3007FDC12EBCE7D877FDC12EBCE7A00790FD5
:0FD7030012636A7FDD12D7CCE4FD7FDC02EBCE30
:06ECE10012D8AE02D6E3DA
:10D41C008F228D238B24E4FB7DDF7F6C12DB017B61
:10D42C00207DDF7F6C12DB01AD227F6D12EBCEAD68
:10D43C00237F6D12EBCEAD247F6D12EBCEE4FB7D22
:06D44C00DF7F6C02DB0132
:10DCFA008B228A2389247D807F6E12EBCEAB22AAE7
:10DD0A0023A924D2067D307C007F6F12D7CCE4FD94
:05DD1A007F6E02EBCE5C
:026E52008F2689
:106E54007858E6FF12B7ED8F271263C1AF27FCFD08
:106E6400FE12631E90835FE493FE740193FFE4FCBF
:106E7400FD1246AB1264308C0C786412632CAB0F99
:106E8400AA0EA90DA80C1246C6C006C00790F83D6C
:106E94001263C4D007D006124751C00412632312F0
:106EA400632AD0001246C6C006C0071263C1D007C9
:106EB400D00612642D8C0C78ADE6FFC37869E69F8A
:106EC400FF18E69400FEE4FCFDC004126323126480
:106ED40041FFE4D0001246C6C00412632378661250
:106EE400632CD0001246ABC006C00778ACE6240A77
:106EF400FFE433AB07FAE4F9F8D007D0061246B83A
:106F040012646A8C10E52630E0061263E1026F9188
:106F1400E52630E13D786412632C7B807A02F9F82F
:106F24001246C6C006C00790F83D1263C4D007D00D
:106F340006124751C00412632312632AD00012467A
:106F4400ABE5132FFFE5123EFEE5113DFDE5103CD8
:106F540080051263E1351012646AF510D37863E694
:106F6400949018E69406501612632A1263EF126482
:106F740068F5107B107DEF7F1912DB018014E51397
:106F84002480FFE5123402FEE43511FDE412646846
:106F9400F510C3E513950FFFE512950EFEE5119567
:106FA4000DFDE510950C126430F50C12644112636A
:106FB400C8AF0FAE0EAC0C1247518F1A12644112B7
:106FC40063C8AF1AFCFDFE1263FDFCE47B10FAF902
:106FD400F81247518F1BE4FB7DFD7F4312DB01ADAB
:0F6FE4001A7F4012EBCEAD1B7F4112EBCEAF1ADE
:016FF300227B
:087625008F298E288D278C2689
:10762D00E4FF7E041264DE1246C67B007AA0790563
:10763D0078001247518E2A8F2BD3E52B94FFE52A24
:10764D009400401C752C01E52B2402FFE4352AFE25
:10765D00EF7802CEC313CE13D8F9F52B8E2A8013F3
:10766D00752C02E52B2401FFE4352AC313F52AEF0F
:10767D0013F52BAE2AAF2B7C007D6412458C7C0E4E
:10768D007D5312459EEF14F511E4F512E511C394E7
:10769D0008400974F82511F511431208E511C3943A
:1076AD0004400974FC2511F511431204E511C3942E
:1076BD0002400715111511431202E511C394014043
:1076CD00051511431201E52B24FEF50CE52CB40133
:1076DD00047F0080027F10EF4406F50DE512448013
:1076ED00F50E750F17126454C2067D047C007FAE33
:1076FD0012D7CC7B027DFD7FB212DB017D807FB185
:10770D0012E928EF24FF50197B407DBF7FB112DBBA
:10771D00017F027E0012E77EE4FB7DBF7FB112DBAD
:10772D0001E52C75F002A4AEF01263C8FFFE7D7763
:10773D007C01124751126321AE2AAF2B12643BE438
:10774D007B08FAF9F812642D8C0C780F1247F4129D
:10775D00646A8C10E47FE87E031264DE1263FDFC24
:10776D00AB13AA12A911A8101247518E2A8F2B53B1
:10777D002A0F7B017DFE7FBB12DB01AF2BAE2A02F0
:02778D00E07F9B
:109F3800786FE6FE08E6787C1265157871E6FE080B
:109F4800E6787E1265157873E6FE08E6FF7B007AF0
:109F580000792412AE60C3E5259432E524940050BC
:109F680004785E806E126441FF7873E6FC08E6FDB3
:109F7800C39FEC9E5034C3ED9FFFEC9ECF2525CFA9
:109F88003524FEC3EF9432EE94005016C3785FE692
:109F98009525FF18E69524CF24327881F6E43F18FA
:109FA800F6227880A60408A60522785FE62525FF14
:109FB80018E63524FEC3EF9DFDEE9CFCC3ED9432FC
:109FC800EC9400500CEF24CE7881F6EE34FF18F6AE
:0F9FD800227873E6FE08E6FF7880A60608A60743
:019FE7002257
:10AE60008E388F398B3A8A3B893C7862E6FE08E659
:10AE70007803C333CE33CED8F9FF7C007D0A124568
:10AE80009EC3785F1264CFC313FEEF13FFAB3AAAE1
:10AE90003BA93CEE8FF012468CE6FE08E6FFD3E5B8
:10AEA000399FE5389E40141264B9E5399FFFE538B3
:10AEB0009EFED3EF9DEE95F0400122126441FFD338
:10AEC000E5399FE5389E50141264B9EF9539FFEECD
:0EAED0009538FED3EF9DEE95F0400122D3227F
:044918008E308F311D
:10491C007F2012DEAD7B007A007936AF31AE3012DB
:10492C00AE604009785EE6F53008E6F531750C04AA
:10493C00750D4F750E24750F15126454C2067D0447
:10494C007C007F9812D7CC750C1CE4F50D750E37D6
:10495C00FB7A00790CC2067D03FC7FA112D7CC78C0
:10496C005A12632CC004126323126441FFE4D0007A
:10497C001263354013E531AE307802C333CE33CEFB
:10498C00D8F9F5318E30800BE53125E0F531E53085
:10499C0033F53075100075116475350BAF35E4FCCB
:1049AC00FDFE7B3E12631B126437C004C005C006BB
:1049BC00C007786A12632C7BC07A0312631CD00781
:1049CC00D006D005D0041247518F34E4FCFDFE1202
:1049DC0064C5C004126323786A12632CD00012469B
:1049EC00C6C004C005C006C0071264E912631C12DD
:1049FC006437D003D002D001D0001247518E0C8FF7
:104A0C000DD3E50D94A8E50C940C5003024ACD741B
:104A1C0080250DF50D74F3350CF50CD3E50D9511C2
:104A2C00E50C9510500C850C10850D1185343285D4
:104A3C003533E5342401FFE433FEE4FCFD1264C598
:104A4C00C004126323786A12632CD0001246C6C0CD
:104A5C0004C005C006C0071264E912631C12643757
:104A6C00D003D002D001D0001247518E0E8F0FD33D
:104A7C007480950F740C950E400C7480950FFF7418
:104A8C000C950EFE800AE50F2480FFE50E34F3FE34
:104A9C008E0E8F0FC3E50F9428E50E94005007E59A
:104AAC003404F532801ED3E50F9511E50E951050A8
:104ABC0018850E10850F11E53404F53285353380D9
:104ACC0008853432853533800C0535E535C3943093
:104ADC0050030249A8785A12632CC00412632312A3
:104AEC006441FFE4D000126335E530400E13FEE55F
:104AFC003113FFEEC313F530EF8006C313F530E529
:104B0C003113F53178C6E6134003024C3D7B007A35
:104B1C0000791AC2067D027FA512D2CE051A051A9B
:104B2C00051B051B7B007A007918C2067D027FA944
:104B3C0012D2CEE518540FFEE5192401F519E43E06
:104B4C00F518E4FD7F9F12EBCE7D077F9F12EBCE15
:104B5C00126454D2067D047FA012D2CEAF1BAB07D9
:104B6C00E4FAF9F8AF32FCFDFE12631EAE18AF1971
:104B7C0012643B12646A8C10AF33AB07E4FAF9F899
:104B8C00AF1AFCFDFE12631E1264378F178E168D42
:104B9C00158C1412651CA814AF0FAE0EAD0DAC0C19
:104BAC00124751AB13AA12A911A8101246C61264CF
:104BBC00308C0CAF13AE12AD11AC1012651CA814D6
:104BCC00D31247E3402C12630DC3E5179513FFE591
:104BDC00169512FEE5159511FDE5149510FC12467F
:104BEC00C6E50F2FFFE50E3EFEE50D3DFDE50C3C49
:104BFC00801E12651C12630DC3E5139517FFE51299
:104C0C009516FEE5119515FDE5109514FC1263FD46
:104C1C00126430F50C7D207F9F12EBCE7D227F9F9E
:104C2C0012EBCE126454D2067D047C007FA012D706
:104C3C00CC785A12632CC004126323126441FFE433
:104C4C00D000126335E531400C24FFE53034FF54BD
:104C5C000F4410800824FFE53034FF540FFB7DE037
:104C6C007FA912DB01E53114FD7FAA12EBCEE532F0
:104C7C0024FEFD7FA512EBCEE53324FEFD7FA612AC
:104C8C00EBCEE53275F004A4FFAEF07C007D0A1289
:104C9C00459EC3EF9405EE940050087C007E007F87
:104CAC00008008EF24FBFFEE34FFFE8F11E4F512B9
:104CBC00E511C3943C400974C42511F5114312103D
:104CCC00E511C39428400974D82511F51143120835
:104CDC00E511C39414400974EC2511F51143120429
:104CEC00E511C3940A400974F62511F5114312021B
:104CFC00E511C39405400974FB2511F5114312010C
:104D0C0005120512AB127DE07FA712DB0178C6E617
:104D1C0013402112E4587D207F9A12EBCE7F0112B2
:104D2C00D0107F0112D0107D247F9A12EBCE78C662
:104D3C00E64401F678C6E61350077D687F9F12EBB8
:104D4C00CE7F0412D0107F0412D010E4FD7F9F128E
:0A4D5C00EBCE12EB097F3802DEAD4A
:027319008F37AC
:10731B007F3012DEAD53373F12632AFB7A60F9F8E8
:10732B001246C6C006C007786AE6FE08E61263C8B6
:10733B00D007D006124751E47BA51264C77B407A75
:10734B0042790F78001247518E398F3AD3E53A9430
:10735B0040E53994005005C374408003C374809595
:10736B003AFFE49539FE8E398F3AAF377E00C3EF83
:10737B00953AEE95394006EF953AFF8006C3E53A0C
:10738B009537FF8F0CE50CD3940C400AE50C943425
:10739B0050047F0080027F018F387866E6FE08E696
:1073AB00FFC3787096EE189650191264CDFE78AC28
:1073BB00126417400EED786726FFEC1836786FF6DF
:1073CB0008A607786FE6FE08E678661264F44015A7
:1073DB0078AC126411400E7867E69DFF18E69C7836
:1073EB006FF608A60778ACE6786726FFE41836FE3A
:1073FB00C3EF787096FFEE1896CF240AF50DE43F95
:10740B00F50CD3E53A940CE5399400401CE5372490
:10741B000CFFE433FEC3EF953AEE95395005126439
:10742B00FF8020AE0CAF0D801AE53A2434FFE43513
:10743B0039FEC3E5379FE49E50051264FF8004AE0E
:10744B000CAF0D8E398F3A7B407DBF7FA912DB01CC
:10745B00785A12632CC004126323126441FFE4D0E8
:10746B00001263354007E53725E0FB8002AB377D23
:10747B00807FAC12DB01AF3AAE3912E810E538333E
:10748B00333354F8FB7DF77F0712DB0112DF7812E1
:07749B00EB097F3802DEADB2
:07ECBE007875E6FF027319EF
:10ADE0007F1012DEAD7868E6FE08E6FFC378729643
:10ADF000EE189650191264CDFE78AD126417400E0D
:10AE0000ED786926FFEC18367871F608A607787198
:10AE1000E6FE08E678681264F4401578AD12641115
:10AE2000400E7869E69DFF18E69C7871F608A60743
:10AE30007868E6FE08E6C3787296FFEE1896FE780C
:10AE4000ADE6C39FFFE49EFE12E05F12DF787F2035
:10AE500012D0107F1012D01012EB097F3802DEAD35
:10C90A00EF540FFEC454F0F50CEDBF070C5407C4E6
:10C91A003354E04410F50D801D5407C454F0FFE56C
:10C92A00275401C433333354804FFFEB5403FE259D
:10C93A00E025E04FF50D126454C2067D027C007FAB
:0BC94A001712D7CCE4FD7F1702EBCEE4
:10E7B0008F23129B00E52390F8017005E054FDF0D3
:08E7C00022E054FD4402F022A6
:109B0000AD07D3ED648094FE40027D7EC3ED64809A
:109B1000948E5009ED6480948040027D0EEDFF33F9
:109B200095E0FEEF2401FFE43EA2E713EF1325E0EA
:109B3000F50C78AEE65470C4540F14600824FA5043
:109B4000222407704DED13AF0C7E007CFF500A7D80
:109B5000C112645BE4F50E80397DC012645B750E42
:109B600002802FED13AF0C7E007CFF50047DB88087
:109B7000027DB712645BEF75F002A47C00250CFF38
:109B8000EC35F0FEC3E49FFFE49EFE7D021245F338
:109B90008F0E750F037510327511CE7D807F2612E2
:109BA000EBCE126454D2067D067C007F2712D7CC00
:079BB0007D407F2602EBCE91
:02AB54008F244C
:10AB5600E4F525E52464027021F52512ABBE75F0F7
:10AB660003E525900E5012635AD2067D337C0012FF
:10AB7600ABCD940540E57DDF8038E4F52512ABBE0C
:10AB8600E52475F004A47C002525FFEC35F0FE9045
:10AB96000E2075F003EF12486FEE75F003A42583BF
:10ABA600F58312489DD2067D3312ABCD940440CD79
:07ABB6007DDE7FE012EBCE13
:10ABBD0022AD257FE112EBCEE4FD7FE212EBCE223A
:0BABCD007FE312D7CC0525E525C3224D
:069DD5008B248A2589267B
:109DDB00129E6B532AFCAD2A7FE412EBCE7D037FE0
:109DEB00E612EBCEE4F52AAB24AA25A926129E7B1C
:109DFB002526F526E43525F525052AE52AC39409FC
:109E0B0040E5129E6BE52A54FC4401F52AFD7FE4E4
:109E1B0012EBCEE4FD7FE612EBCEE4F52AAB27AADC
:109E2B0028A929129E7B2529F529E43528F5280533
:109E3B002AE52AC3941440E57F2012D01090F80F26
:109E4B00E0FF540764046006EF12642570047D2C58
:109E5B0080027DAC7FE412EBCE7D807FE502EBCE02
:109E6B007B007A00792AD2067D017FE412D2CE22C2
:0C9E7B001244F0FD7FE712EBCE740122D0
:10D8D9007B407DBF7F6012DB017B807D7F7FE01213
:10D8E900DB017B807D7F7FE412DB0190F816E0FF8E
:0BD8F90012DBCA90F817E0FF02DBF022
:10D4520012634DC003C002C0011264D612635A1295
:10D462006523D001D002D003129DD5E4FB7DBF7F9E
:10D472006012DB01E4FB7D7F7FE012DB01E4FB7DD8
:06D482007F7FE402DB01E4
:10B40A0012644864046011BF0514E05407FFBF04C6
:10B41A000D90F801E020E0061264A5F0800612649F
:10B42A00A54408F090F80FE05418FF131313541FA3
:10B43A00700280361264216401703590F83BE0FC9A
:10B44A00A3E0FDA3E0F52AA3E0F52BE4FBFAFFFE57
:10B45A0012B2AF90F83BE0FEA3E0FFA3E0FCA3E04A
:10B46A00FD12BF4C126448BF040302D45212D8D949
:01B47A0022AF
:10B2AF008E248F258C268D278A288B29E5274526E6
:10B2BF006061E52B452A605B7B807D707F6012DBD0
:10B2CF0001E5245407F50CAD258D0DE5252527E562
:10B2DF002435265407F50EED2527F50FE5285407DD
:10B2EF00F510AD298D11E529252BE528352A5407B1
:10B2FF00F512ED252BF5137F2012D010126454D2C6
:10B30F00067D087C007F6112D7CCE4FB7D707F60E7
:04B31F0012DB01221A
:10BF4C008C248D25AB07AA06E4F9F8FFFE7DC07C96
:10BF5C003F124751C006C007AE24AF25AB07AA0657
:10BF6C00E4F9F8D007D00612642D8C0CE4FB7DFCB0
:10BF7C007FE412DB01E4FD7FE612EBCEE50FFFE57B
:10BF8C000EFEE50D543FFDE4126430F50CFB7A0017
:0CBF9C00790DD2067D03FC7FE702D7CCB4
:10DBCA008F24126421FFBF01037524807B867D7038
:10DBDA007F6412DB01AF241263607F6512D7CCE445
:06DBEA00FD7F6402EBCE9A
:10DBF0008F24126421FFBF01037524807B897D700F
:10DC00007F6412DB01AF241263607F6512D7CCE41E
:06DC1000FD7F6402EBCE73
:0484DA008D45A9071C
:1084DE00E9540F14603314605C1470030285701439
:1084EE00700302859A240460030285CEE954F0FFDE
:1084FE00700590F8118074BF10030285BEE954F028
:10850E00642060030285CE800EE954F0FF70059062
:10851E00F81A8057BF100A90F81AE0FF90F81180F1
:10852E003BE954F0642060030285CE90F81AE0FF18
:10853E0090F8138027E954F0FF700590F813802B04
:10854E00BF100A90F81AE0FF90F813800FE954F06C
:10855E006420706C90F81CE0FF90F813E02FC313AA
:10856E00800AE954F0FF700990F81CE07A00FB8055
:10857E004FBF100C90F81CE0C313FF90F813803A15
:10858E00E954F0642070391264AC802EE954F07016
:10859E000C90F815E0C313FF90F81E801DE954F0FF
:1085AE00FFBF10051264AC8011E954F0FFBF20101C
:1085BE0090F811E0C313FF90F81EE02FFBE433FA9E
:1085CE00EB25E0FBEA33FAC3EB9410EA6480948067
:1085DE00E545401D90E9F093FD7C00EB24F0FFEAA9
:1085EE0034FF12650A7F0025E0FEEF2DFFEC3E8082
:1085FE001A90E9F893FD7C00C374109BFFE49A1265
:0F860E00650A25E0FEC3E49DFFEE9CFE12649E0C
:01861D00223A
:0A78F4008F378C388D398A3A8B3BB0
:1078FE00127A4AE4FD7FE212EBCEE537540F70099F
:10790E007D03127A307D8C804BE537540FFFBF011B
:10791E00097D05127A307D88803AE537540FFFBF16
:10792E0003097D0B127A3D7DC88029E537540FFF80
:10793E00BF04097D0F127A3D7DCC8018E537540FB8
:10794E00FFBF02157D087FE312EBCEE4FD7FE3124D
:10795E00EBCE7DCC7FE312EBCE127A4AE53754F0B4
:10796E002403FD7FE212EBCE754001AD40AF37121E
:10797E0084DAE539253BFDE538353A12649AAC38A0
:10798E00AD391263CFC3EB9FF542EA9EF541AD4090
:10799E00AF371284DAE53D253FFDE53C353E1264F6
:1079AE009AAC3CAD3D1263CFC3EB9FF544EA9EF516
:1079BE0043D3E542947FE54164809480400875414D
:1079CE000075427F8013C3E5429480E54164809444
:1079DE007F50067541FF754280D3E544947FE543A1
:1079EE0064809480400875430075447F8013C3E51E
:1079FE00449480E5436480947F50067543FF75443C
:107A0E0080AD427FE312EBCEAD447FE312EBCE05A9
:107A1E0040E540C3940950030279797DDF7FE0028F
:027A2E00EBCE9D
:107A30007FE312EBCEE4FD7FE312EBCE227FE31275
:107A4000EBCEE4FD7FE312EBCE22E537540FFD7F52
:057A5000E112EBCE2263
:06BAC3008F258D828C83AB
:10BAC900E525C394085024C374089FFFE49400FE3D
:10BAD900AC2AAD2B1263D78E338F34C374089525E6
:10BAE900FFE49400FEAC2CAD2D801512652AAC2E16
:10BAF900AD2F1263D78E338F3412652AAC30AD3136
:10BB09001263D78E358F36AD82AC838A3C8B3D85E7
:0EBB1900353E85363FAB34AA33AF320278F4A6
:104D66008F2412644864046011BF0514E05407FFE1
:104D7600BF040D90F801E020E0061264A5F080065D
:104D86001264A54408F0E524703D90F810E0126422
:104D960071752F907530FF7531D0E4F5327BFE7A50
:104DA600017DFFFC124FDB126482125065753220C2
:104DB6007BFE7A01E4FDFC1250657532117BFE7AAA
:104DC60001E4FDFC024EFAE5246401705912637396
:104DD6007532217B547A017DAC7CFE12BAC390F801
:104DE60012E0FF752A00752B38752C00752D70752D
:104DF6002E00752F38126392753202E4FBFA7D029B
:104E06007CFE12BAC31263737532127B547A011296
:104E16004F207532227BAC7AFE124F207532237BEF
:104E2600AC7AFE024E71E5246403704690F819E0F0
:104E3600FF752A00752B70752CFF752DD012638CAB
:104E46007532017BFE7D017CFF124FB07532111267
:104E56004F4D7532217B547DAC7CFE124FB07532BE
:104E660020124F4D7532127B547A017DAC7CFE02C6
:104E76004F03E5246404703A90F81BE0FF752AFF9F
:104E8600752BC8752C00752D701263B47532037DB1
:104E9600017CFF125004753213124F7D7532237D4B
:104EA600FF7C00125004753222124F7D12648E026E
:104EB6004F03E52464027018126399753223126455
:104EC6009112503112BAC312639912648E024F03C3
:104ED600E5246405702A90F810E0C313FF90F81DCE
:104EE600E02F126471752FC8753000753170126429
:104EF60082125031124FDB75322412648512BAC306
:104F060090F801E030E00912642160047B808002A1
:104F1600E4FB7D7F7FE012DB01227DAC7CFE12BAD2
:104F2600C390F81BE0FF90F812E02FC313FF752A19
:104F3600FF752BC8752C00752D70752E00752F38D2
:104F46007530FF753190227BFE7A01E4FDFC12BAC2
:104F5600C390F812E0FF90F819E02FC313FF752AEB
:104F660000752B38752C00752D70752EFF752FC8A2
:104F76007530FF753190227BAC7AFE7DAC7CFE12DB
:104F8600BAC390F81BE01313543FFF90F814E02FB8
:104F9600FF752AFF752B90752C00752D30752E0028
:104FA600752F70753000753130227A0112BAC390B0
:104FB600F819E0FF90F810E02FC313FF752A00756B
:104FC6002B70752CFF752DD0752EFF752F907530B3
:104FD600FF7531D02212BAC390F810E0C313FF90C8
:104FE600F81DE02FFF752A00752B38752CFF752DDF
:104FF60090752EFF752FC8753000753170227B02B3
:105006007AFE12BAC390F81BE0FF90F812E02FC3A5
:1050160013FF752AFF752BC8752C00752D70752E1C
:1050260000752F387530FF7531902212BAC390F88B
:1050360014E0C313FF90F81DE02FFF752AFF752BB0
:10504600C8752CFF752D90752E00752F387530009C
:105056007531707532047B517AFF7DA67C01221270
:10506600BAC390F819E0FF90F810E02FC313FF754C
:105076002A00752B70752CFF752DD0752EFF752F98
:08508600907530FF7531D02256
:109BB7008F23E523C43354E0FF90F80FE0541F4F81
:109BC700F0E523B40403029C6AE5236405706B90F7
:109BD700F801E030E022E4FF124D667F01124D6686
:109BE7007F02124D667F03124D667F04124D667F1A
:109BF70005124D667B808002E4FB7D7F7FE012DBF0
:109C07000190F80FE05407FFBF04117D2C7FE41289
:109C1700EBCE90F801E020E04D029C6A12B40A12E4
:109C2700634DC003C002C0011264D612635A1265A5
:109C370023D001D002D003029DD590F80FE054E065
:109C4700C413126351C003C002C0011264D6126369
:109C57005A126523D001D002D003129DD512644851
:079C670012AB5412B40A22F3
:10653400785EE6FE08E6FF7873A60608A607786686
:10654400E6FE08E6FF786FA60608A6077868E6FE6A
:1065540008E67871FFA60608A607227864E6FE0816
:10656400E6FFE4FCFDFB7A0CF9F81246C6E47B0274
:10657400FAF9F8124751AB2AAA29A928A827C30275
:1065840047E3786CA905AA06AB07E6FE08E6FFE434
:1065940022E50C5407F526E50DF5277B007A0079F2
:1065A4000C22742A2FF582E434F8F5832278B2E6BB
:1065B4002401FF18E43678B9FEC3EF96FFEE18966F
:1065C40022742D2FF582E434F8F58322E6FC08E6E4
:1065D400FDEC540FFBE7C4F854F0C809E7C4540FAA
:1065E40048547022786AE6FE08E6FBAA06E4F9F845
:1065F40022E47B02FAF9F8124751A804A905AA0675
:10660400AB0722E4F50FF510F511F512751301FB34
:106614007A00790CC2067D08FC7F76221246C6E415
:106624007BE87A03F9F8124751E47B127A02F9F80D
:10663400D30247E378B9E62402FF18E436FEEF54A8
:10664400FCFFEEF608EFF6E52922D3AB0FAA0EA95C
:106654000DA80C0247E3C3E5279525FFE5269524FD
:10666400FE221896FCE52925E0FFE52833FEC3ED5C
:106674009FEC9E2212475178B8EEF608EFF6D394B9
:1066840002EE940022FCE6FA08E62FFFEE3AFED36F
:10669400EF9DEE9C22AB29AA2AA92B0244F07B0091
:1066A4007A0079237D012278AEE65470C4540F2217
:1066B400FE7867C3EF96EE189622AB32AA31A93062
:1066C400A82FD30247E3C3E69FFF18E69E22AB2F11
:1066D400AA2EA92DA82C0247E37B007A007914C2C4
:1066E400067D0322EF26F618EE36F622E6FDD3EFFA
:1066F4009D7480F86E9822AB29AA2AA92B1244F023
:10670400FF22E51454F075F010A4FF2274FFFFFE7D
:0A671400FDFC22785EE6FE08E62296
:10A140007875E6F523E4FD7F7D12EBCE12EB097FF7
:10A15000FA7E0012E77E127D0B8F22E52270361206
:10A1600053AA8F22E52270251260DE8F22E522603D
:10A170000464FE7013E522B4FE0312A1CD127D0B20
:10A180008F22E5226018800D12A1CD801112653456
:10A1900012A1D7800312654212ECBE12ADE0E52297
:10A1A0007006E522648060137858E6FF12D4BE1270
:10A1B0009F387858E6FF12DA30800C12653412A10D
:0CA1C000D712ECBE12ADE012EB09AF228A
:10A1CC00227875A623AF231273192208E6FE08E63F
:05A1DC00FF12491822EA
:10E8EC001268FA8F22E522700512C955800312D1E5
:03E8FC0040AF2208
:01E8FF0022F6
:10A3B80012EB097D037F7A12E928BF03047F968098
:10A3C800027F328F447545197F017E0012E77E12A5
:10A3D800659FD2067D017F0312D2CEE50C30E00CDA
:10A3E800E4FD7F0312EBCE75451980021545E5455E
:10A3F8006006E50C54C060037FFF2212EAB078C7FC
:10A40800E61350037FFF2212659FD2067D017F7DF0
:10A4180012D2CEE50C30E003D544AD12659FD206CA
:10A428007D017F0212D2CEE4FD7F0212EBCEE50C55
:0EA4380054637004E54470047FFF80027F00CF
:01A4460022F3
:02CA36008F442B
:10CA3800754519E4FD7F0312EBCE7F017E0012E7F6
:10CA48007E12659FD2067D017F0312D2CE530CC1A0
:10CA5800E50C30E010E544600CE4FD7F0312EBCEFA
:10CA68001544754519E544600C1545E5456006E52E
:07CA78000C54C060C5AF0CB7
:01CA7F002294
:0291EC008F37BB
:1091EE007873E6F53A08E6F53BAE3AFFE4FCFDC0CF
:1091FE0004126586D0001246C6C006C0071265E886
:10920E00D007D0061247518E388F397B507D0F7F95
:10921E001312DB01E53B2405F53BE4353AF53A74D0
:10922E00E0253BF53B74FF353AF53AE539241BFF53
:10923E00E435381266B4500280047E007F018E3809
:10924E008F39D3E5399420E5389400400CE5392464
:10925E00E0FFE53834FFFE80047E007F018E388FFC
:10926E00395337FCE53A540FFDE538C4F854F0C8CD
:10927E00E5391265E14DF50C85390D853B0E12650C
:10928E009FC2067D037C007F7012D7CC85370C857C
:10929E00370D85370E12660712D7CC12A3B88F0C76
:1092AE00E50C6001221266DD7F8112D2CE126706B6
:1092BE00AEF0EF4515242078B9F6E43E18F6E51425
:1092CE00540FFEE516242078B2F6E43E18F67F0021
:0192DE00226D
:027E5F008F3062
:107E61007873E6F53308E6F534AE33FFE4FCFDC084
:107E710004126586D0001246C6C006C0071265E826
:107E8100D007D0061247518E318F327B507D0F7F44
:107E91001312DB01E5342405F534E43533F533748D
:107EA100E02534F53474FF3533F533E532241BFF17
:107EB100E435311266B4500280047E007F018E31B8
:107EC1008F32D3E5329420E5319400400CE5322421
:107ED100E0FFE53134FFFE80047E007F018E318FAB
:107EE100325330FCE533540FFDE531C4F854F0C88A
:107EF100E5321265E14DF50C85320D85340E786061
:107F0100E6FC08E6FD2402E43C540FF50F7510026F
:107F1100AF05EF2402F51112659FC2067D067C00B4
:107F21007F7012D7CC85300C85300D85300E1266EE
:107F31000712D7CC12A3B88F0CE50C600122126690
:107F4100DD7F7E12D2CE126706EF45152403FFE4D2
:107F510035F078B3F6FC08EFF6FDE514540FFEE5B5
:107F6100162403FFE43EFE08F608EFF6C39DFFEE7C
:107F71009C78651265BCFE12E9ACD3EF9405EE6402
:107F810080948040037FFF2278B6E6184670037F15
:107F91008022E514547FF50C85150D85160E1265AA
:0E7FA1009FC2067D037C007F7312D7CC7F0049
:017FAF0022AF
:068393008F378D388B3995
:10839900E4FD7F7D12EBCEE5375403FB7DFC7F7A4C
:1083A90012DB01785A12658EFCFDC004785E1265F5
:1083B90088D00012662040160538E53A25E0F53ADE
:1083C900C3944040097B027DFD7FA812DB01E5399A
:1083D90014541F33333354F8FFE53854074FFD7FE6
:1083E9007B12EBCEE53A543FFD7F7C12EBCEAF38E2
:1083F9007401A807088002C333D8FCF538E539852C
:1084090038F0A4253AF537853A42E4F541F540F5C7
:108419003FF53EF5437D7B7F7D12EBCE7F0112CA8E
:10842900367D037F7A12E928BF03047F0380027F28
:108439000112CA36EF54C060051284C9804712651B
:108449009FC2067D037F8412D2CEE4F50FAF41AE01
:1084590040AD3FAC3E12664E400F850F41850E4040
:10846900850D3F850C3E854243E5382542F542C3DB
:10847900953740AD1284C97F0112D01012A3B88F6D
:108489000CE50C600412671022785A12658EFCFD07
:10849900C004126600785E12658ED0001266204014
:1084A9000BE54313AB3BAA3CA93D8008AB3BAA3C77
:0F84B900A93DE543124558AF41AE40AD3FAC3E43
:1084C80022E4FD7F7D12EBCEE4FB7DFD7FA812DB6D
:0284D80001227F
:10D90400EF5403FB7DFC7F7A12DB017D3B7F7D12AC
:10D91400EBCE12A3B88F0CE50C60012212659FC2F6
:0BD92400067D047F8412D2CE7F00221B
:1053AA001267177873126558E654FCF6181256B14C
:1053BA007F40127E5F8F24E5246001227862E6FE38
:1053CA0008E67803C333CE33CED8F9FF7C007D0AD2
:1053DA0012459E785F1266CAC313F528EF13F529A2
:1053EA00E4F52AF52BF52675270A1256A76001223D
:1053FA001265B1FE78B1F608EFF67862E6FC08E6C7
:10540A00FDC3EF9DEE9C505DC3ED78B296FDEC12A4
:10541A00666640030254BAAF05AE04E4FCFDC0045C
:10542A00126600787312658ED0001246C6C006C096
:10543A000778621265EAD007D0061266785003022E
:10544A0054EA126638785F26FDE528183678731212
:10545A00668940030254BA78B8E6FE08E678741200
:10546A0066E90254CFC379B2E7786396FD19E71269
:10547A0066664002803AAF05AE04E4FCFDC0041241
:10548A006600787312658ED0001246C6C006C00741
:10549A0078621265EAD007D0061266784042126630
:1054AA0038787426FDE5281836785E126689400831
:1054BA00752A00752B01800DC37874E679B997F6C1
:1054CA0018E61997F6E52B452A701578731256B126
:1054DA00E52715277002152614452660030253F4A2
:1054EA00E52745266008E52B6401452A70037F807D
:1054FA002278B1E6FE08E6FFC3786396EE18964076
:10550A00127974E7785F96FD19E71896FCED640442
:10551A004C601A78631266B75040C3795FE77874B3
:10552A0096FF19E71896FEEF64044E702D1267175E
:10553A00FF7873EEF6FE08EFF6FF1249181256A727
:10554A0060012278B2E62401FF18E436FEC3EF7840
:10555A00B99679B2F7EE189619F77873E6F52A082C
:10556A00E6F52BC37963E778B29619E718967E00B9
:10557A0040047F0480027F0278741266E8E6FE081F
:10558A00E6FF1249187D187F7912EBCE852A268507
:10559A002B27E4F52FF52EF52DF52CF52875290680
:1055AA007F501291EC8F24E5246001221265B1FE2E
:1055BA0078B1F608EFF67863E62402FD18E436FCC3
:1055CA00D3EF9DEE9C400BE4F50FF50EF50DF50CAF
:1055DA008028E4F53AF53B753C00753D257B087D4E
:1055EA00037F031283938F0F8E0E8D0D8C0C12671F
:1055FA0010C312664F70037FFF22AF0FAE0EAD0DC0
:10560A00AC0CC31266D25015850F2F850E2E850D50
:10561A002D850C2C7873E6F52608E6F527E529454D
:10562A00287016126717FFD37874E69F18E69E4013
:10563A002AEEF6FE08EFF6801B74FE2529F529747A
:10564A00FF3528F528787474FE26F61874FF36F6A6
:10565A00E6FE08E6FF1249180255AAAF2FAE2EAD94
:10566A002DAC2CE47B03FAF9F81247518F2F8E2EBA
:10567A008D2D8C2C786212658EFCFD780A124807F3
:10568A00D31266D24006AE26AF278004AE2AAF2BCD
:0C569A007873EEF608EFF61249187F0056
:1056A600227F501291EC8F24E52422E6FE08E6FFC5
:0456B600124918225B
:1060DE007F401291EC8F24E5246001227D801262B4
:1060EE00C770037FFF22E4FFFEFDFC12657A70038A
:1060FE007F802212655F501F7D401262C770037F42
:10610E00FF22E4FFFEFDFC12657A70037F802212EF
:10611E00655F50037FFE22E52424F8543FF53A755F
:10612E003B00753C00753D247B087D017F03128387
:10613E00938F2A8E298D288C2712671012657A70FC
:10614E00037FFF22E4FFFEFDFC12657A70037F8061
:10615E0022E52424FD543FF525FF1273197F031207
:10616E00D904EF60037FFF22850F2E850E2D850D3E
:10617E002C850C2B1262FB60037FFF22850F32856C
:10618E000E31850D30850C2FE5242403543FF52464
:10619E00E4F52AF529F528F5271262FB60037FFF47
:1061AE0022850F36850E35850D34850C33AF2EAE18
:1061BE002DAD2CAC2B1266BE4016E532952EFFE5AA
:1061CE0031952DFEE530952CFDE52F952BFC801598
:1061DE00C3E52E9532FFE52D9531FEE52C9530FD6C
:1061EE00E52B952FFC1265F5E5362532FFE53535A5
:1061FE0031FEE5343530FDE533352FFCEF252EFF2E
:10620E00EE352DFEED352CFDEC352BFC1246B8C0CF
:10621E0004C005C006C007AF36AE35AD34AC331280
:10622E0066BE4016E5329536FFE5319535FEE53012
:10623E009534FDE52F9533FC8015C3E5369532FF79
:10624E00E5359531FEE5349530FDE533952FFC129D
:10625E0065F5D007D006D005D0041246B88F0F8E44
:10626E000E8D0D8C0CAF2AAE29AD28AC2712664EC2
:10627E004013850F2A850E29850D28850C27E525C7
:10628E0014543FF52685322E85312D85302C852FE1
:10629E002B85363285353185343085332FE52565AE
:1062AE002460030261A77875A626AF261273197DA6
:0862BE00407F7912EBCE7F0056
:1062C600227F7912EBCEE4F53AF53B753C00753D3D
:1062D600247B087D037F031283938F2A8E298D28C2
:1062E6008C2774FFFFFEFDFCAB2AAA29A928A82744
:1062F600C31247E322E52504543FF525FF1273191F
:076306007F0312D904EF220E
:107D0B007F40127E5FEF6001227F401291ECEF60AB
:107D1B00012212659FC2067D027F0D12D2CE126523
:107D2B0095C2067D017F1112D2CE7B007A00790DB0
:107D3B00C2067D017F1312D2CEE50D5402F524E568
:107D4B000CF52578B3E6FE08E6FFC39525F525EE81
:107D5B009524F52478B61266CACF2401CF3400FEE1
:107D6B007864E6FC08E6FDC39FF529EC9EF528D365
:107D7B00E5299403E528648094804016EF9DFFEE7F
:107D8B009CFE12E9AC7C007D021245F38E288F29F4
:107D9B008005E4F528F52912665AC378721266CB72
:107DAB00FEC3EF786996FFEE1896CFC39529CF9552
:107DBB0028FE12E9AC78AD1266F0501DC3E527958D
:107DCB0025CFE5269524CF2529CF3528FEC37872FC
:107DDB00E69FF618E69EF6800312655012ADE01290
:107DEB00659FC2067D027F0912D2CE126595C2062F
:107DFB007D027F1212D2CEE50D5401F524E50CF570
:107E0B0025C378B9E69525FF18E69524CF24FEF512
:107E1B0025EF34FFF52412665AEF787026FFEE1823
:107E2B0036FEC3EF786796FFEE1896FE12E9AC7834
:107E3B00AC1266F0500A12665A78701266E8800E21
:107E4B007866E6FE08E6FF786FA60608A60712EC32
:037E5B00BE7F00E7
:017E5E002201
:1068FA00D205E4F527742A25271265A97480F07455
:10690A002D25271265C87480F00527E527B403E50D
:10691A0012ECE17F40127E5F8F23E5236001227F24
:10692A00401291EC8F23E5236001221266A27F02B6
:10693A00129A44EF60037F8022E523C394605003D8
:10694A007F80221266A27F01129A44EF60037F8041
:10695A0022E523C3946050037F80221266A2E4FFDB
:10696A00129A44EF60037F8022E523C394605003A8
:10697A007F802278B77605126AB77526022005034A
:10698A00026AA37527307B007A007924AF2612B9F0
:10699A00928F23E523B4800122E523644060737B50
:1069AA00007A007925AF2612A3208F23E523B4802D
:1069BA0001221266ABFFBF060BE52664016005756E
:1069CA0023808003752302E524B4FA06E5256523AE
:1069DA006040E527D394084030E524D394FB50293E
:1069EA00E524C394F94022E5232401FFE433FED3CE
:1069FA00E5259FEE6480F8748098500DE52314FF16
:106A0A00E525C39F40037527081527E5276003027C
:106A1A006990742A25261265A9E0D394F040267855
:106A2A00B7E6B40718E526B402057526018047E5DE
:106A3A0026B40105E4F526803DC205803975260293
:106A4A0078B7068031742A25261265A9E0C3941EF8
:106A5A00502C78B7E6B40418E526B4020575260169
:106A6A008014E526B40105E4F526800AC2058006ED
:106A7A0075260278B71678B7126AB7026987E526CB
:106A8A00B40206752601026987E526B40106E4F513
:106A9A0026026987C20502698790F82AE06008A37E
:0C6AAA00E06004A3E070037F80227F0006
:106AB60022E6C45430F53B7BCFE4FD7FDC12CFD118
:086AC6007F017E0012E77E2231
:109A44008D2E8B2F8A308931BF0304AB078005C369
:109A540074029FFB7DF87F7A12DB01E52E7030756E
:109A64000C12750D80F50EF50F78B3E6FE08E6FFCF
:109A7400D39409EE940040067E007F098008EF2409
:109A8400FFFFEE34FFFE8F10E51004F511802278FD
:109A9400B179B81265D04BF50C78B9E6F50D8D0E99
:109AA40078B579B31265D04BF50F78B4E6F5108D1F
:109AB4001112659FC2067D067C007F7012D7CCE52B
:109AC4002E5401C43354E04401FD7F7D12EBCE12C9
:109AD400A3B88F0CE50C600122AB2FAA30A931C2C8
:109AE400067D017F8712D2CEE52E700DAB2FAA30F2
:0C9AF400A9311244F0F41245587F002202
:08B992008F288B298A2A892BDA
:10B99A007D01129A44EF60037F80221266FBD394E2
:10B9AA00FA4020EF2406F52CE4FBAD2CAF2812CB8D
:10B9BA00A2EF6037E4FB7D04AF2812CBE8EF602BDF
:10B9CA007F40221266FBC394FA5020C374FA9FF593
:10B9DA002C7B01FDAF2812CBA2EF600F7B017D0407
:0DB9EA00AF2812CBE8EF60037F40227F0002
:01B9F700222D
:08A320008F288B298A2A892B62
:10A328001266ABFFBF060BE52864016005752D803A
:10A338008003752D02AB29AA2AA92BE4FDAF2812A8
:10A348009A44EF60037F8022126699FFD3952D40CF
:10A3580016EF952DF52CD3940840047D088004AFA2
:10A368002CAD07E4FB8041126699FFC3952D503D43
:10A37800C3E52D9FF52C1266AB64067019E52864B9
:10A38800016013E52CD3940840047D088004AF2CA9
:10A39800AD077B0180121266997009E52C2404FD33
:0FA3A8007B0180047B01AD2CAF2812CBE87F0036
:01A3B7002283
:10CBA200E4F52DEB601A1265A6E0FEC39D742A40DF
:10CBB200091265A8C3EE9DF080261265A8E4801CC8
:10CBC2001265A6E0FEC374FF9DC39E742A4008123C
:10CBD20065A8E02DF080091265A874FFF0752D019B
:05CBE20012D8AEAF2DDA
:01CBE700222B
:10CBE800E4F52EEB601A1265C5E0FEC39D742D4076
:10CBF800091265C7C3EE9DF080261265C7E4801C44
:10CC08001265C5E0FEC374FF9DC39E742D400812D3
:10CC180065C7E02DF080091265C774FFF0752E0115
:05CC280012D6E3AF2E5F
:01CC2D0022E4
:10B32300C0008004010F8080000000000000323262
:10B33300000A3200000000028002008408080808A6
:10B34300080896800008080808080891828A878EF2
:10B353008E7B808080808081808387817689816EE7
:10B3630080808080808061606367615669614E8000
:10B3730080808080808080808080808080808080CA
:10B3830080808080FFFFFFFFFFFFFFFFFFFFFFFFC6
:04B39300FFFFFFFFBA
:1056BA0075F01390002712486FE40893FE74019363
:1056CA00A60608F622F0A3F0A3F0A3F07B017AF86D
:1056DA00799822E6FC08E6FDECA3F0AF05A3EFF00B
:1056EA0008E6FC08E6FDECA3F0AF05A3EFF008E638
:1056FA00FC08E6FDECA3F0AF05A3EFF022748C25BD
:10570A003DF582E434F8F583E07F0025E025E0FEEC
:10571A00EF22E52975F007A47B0124FFF974F73518
:10572A00F0FA7E00E92528F9EE3AFA1244F0FF74FD
:10573A00982528F582E434F8F5832275830012450A
:10574A0009FD748C2537F582E434F8F583E025E009
:10575A0025E022E0FDEEF6ED08F6A3E0FEA3E0FD6B
:10576A00EE08F6ED08F6A3E0FEA3E0FDEE08F6ED7E
:10577A0008F622AB28AA29A92A852E827583001247
:10578A004509FF90F881E0FD75F008A4252EF58201
:10579A00E435F0F583E5822290002775F01312486C
:1057AA006FE493FC740193FDEC22FA7879E675F0C4
:1057BA0003A4F58285F08302450975F008A4240044
:1057CA00F582E5F03EF583E58224F8F582E5833437
:1057DA003FF583E0547F2274922537F582E434F84A
:1057EA00F5832278AEE65470C4540FFF25E025E015
:1057FA002454F582E434B3F583E49390F831F0EF5E
:10580A0025E025E02455F582E434B3F583E49322B8
:10581A0078767C007D007AB379237BFF7E007F0651
:10582A000244CA7A002FFFEA3EFE74F82FF582740A
:10583A003F3EF583E0222F7A00FFEA3EFE74002FF6
:10584A00F58274403EF583EDF02278AEE65470C4DA
:10585A00540F2275F008A42400FFE5F022E536541F
:10586A000375F004A42537F582E435F0F583AB33EC
:10587A00AA34A935227486253DF582E434F8F583E5
:10588A002224FEF58274433EF58322E6A3F008E65D
:10589A00A3F008E6A3F022E0F6A3E008F6A3E008E6
:1058AA00F622F090F88202481A78007CF87D017B93
:1058BA00FF7AB3792F7E007F1F2275F013900021A3
:1058CA00227F0790F89974FF22752B01752CF975C0
:1058DA002D007B017AF979802224FFF58274433EF8
:1058EA00F5832224FDF58274433EF5832224FCF5D8
:1058FA008274433EF5832224FBF58274433EF5838A
:10590A0022F582E434F8F58322FD74802EF582E4D0
:10591A0034F9F583EDF022AB38AA39A93A22E0FE30
:10592A00E53E5407FD7401A8050822E529241D90C7
:10593A00F898F0752801222400F582E583347BF576
:10594A0083E0222480F582E583347BF583E022E537
:10595A003E131313541F2290F89BF0A3EDF075F039
:10596A00132274002EF582E434F9F5832275F013BC
:0E597A0090002522AB2BAA2CA92D852E82226F
:10D92F00907FFFE0641260028005127FB040061204
:10D93F00AFD702959212DAD812E43A12BCB212BDE6
:0BD94F00D212DC3C12C51812C3722279
:1095920078C6E6A2E150277858E6FFC39410501E21
:1095A200EF1313543FFF7B007A00790C12B63B781D
:1095B20058E6540325E025E0240CF8E6F52312E9E9
:1095C2000012B14812D77012AF5C12ECE712EC42F3
:1095D20012D14012EC1212CC2E12ED2112E8277891
:1095E200C6E6A2E150687858E6C394105060787BD2
:1095F200E6C3940F4004E4F68003787B06785AE6CB
:10960200F52408E6F52508E6F52608E6F52778327A
:109612007C007D007B007A0079237E007F05124466
:10962200CA12CED0E4786EF6E5231259771256C0EC
:10963200E5231256BAE5231258C41256C0E408F6BE
:10964200787BE6FF12D4BE787BE67858F62278C69D
:10965200E6A2E1400B7858E6FF9446500312C0049C
:0196620022E5
:10D4BE00786EE6FEC433333354804F90F898F008FC
:10D4CE001256DD08E6A3F078C6E6A2E14007125632
:10D4DE00D6E4FF800C78C6E6A2E150081256D67F3D
:05D4EE00031298BC22AE
:02C004008F2883
:10C0060078C6E6FFA2E14005E4F5298008EFA2E143
:10C0160050037529031256D6AD28AF2912B6A9507A
:10C026001A90F898E0C41313135401786EF6A3E03F
:10C03600FEA30812575DA3E008F622E4786EF6E543
:10C04600281259771256C0E5281256BAE528125812
:07C05600C41256C0E408F615
:01C05D0022C0
:10B14800E4F5281256D6AD28E4FF12B6A95032907D
:10B15800F898E528F09000251257A590F899F0A3E3
:10B16800EDF0E5281257A2125961E5289000211246
:10B1780057A890F89DF0A3EDF0E41256D4FF12986A
:10B18800BC0528E528C3944640B9E4F5281256D6EC
:10B19800AD287F0312B6A9501590F898E528F0124B
:10B1A80058CBF0A3DFFC1256D67F031298BC0528B3
:07B1B800E528C3941040D606
:01B1BF00226D
:10CED000E535540FFEE4C4F8540FC868FFEEC4549F
:10CEE000F048FEE533540F4EF533EF4534F5347812
:10CEF0007BE690F898F0A3E532F0E533A3F0A3E5E4
:10CF000034F0A3E536F0A374FF1256D17F020298E5
:01CF1000BC64
:08B63B008F328B338A3489350C
:10B64300E53225E025E0F536E53275F004A424045F
:10B65300FFE435F0FEC3E5369FEE6480F87480980E
:10B6630050431256D6AD367F0212B6A95020E4F5E8
:10B673003774992537F582E434F8F583E0FF1258DF
:10B6830067EF12456A0537E537B404E58012E4F540
:10B693003712586774FF12456A0537E537B404F16A
:05B6A300053602B64B64
:01B6A800227F
:10D77000E4F5281256D6AD287F0212B6A9501590AE
:10D78000F898E528F01258CBF0A3DFFC1256D67FAC
:0DD79000021298BC0528E528C3941040D66D
:01D79D002269
:10DA300078C6E6FEA2E140057524018008EEA2E169
:10DA4000500375240490F898EFF0787C1256DDA30B
:0ADA500074FF1256D5AF240298BCF3
:02C471008F2416
:10C4730078C6E6FFA2E140057525018008EFA2E139
:10C4830050037525041256D6AD24AF2512B6A95014
:10C493000C90F899E0FEA3787C12575D2275F01397
:10C4A300E52490002512486FE4787C1256C575F098
:10C4B30013E5241256BD75F013E52490002112569E
:01C4C300C0B8
:01C4C4002255
:10AF5C00E4F5281256D6AD287F0112B6A9503590CB
:10AF6C00F898E528F01259771257A890F899F0A3A1
:10AF7C00EDF0E5281257A2125961E5289000211234
:10AF8C0057A890F89DF0A3EDF0A374FF1256D57F4F
:10AF9C00011298BC0528E528C3944640B6E4F52870
:10AFAC001256D6AD287F0412B6A9501590F898E524
:10AFBC0028F01258CBF0A3DFFC1256D67F0412985F
:0AAFCC00BC0528E528C3941040D608
:01AFD6002258
:10E6940090F8987401F0787612589508125895A35A
:0AE6A40074FF1256D57F050298BCE2
:10E43A001256D67D017F0512B6A9500E90F899782A
:0EE44A00761258A1A3081258A12212581A22C5
:06ECE70012581A02E69427
:10C7DA00E4F529F52912593512571CEFF00528E519
:10C7EA0028B408F41256D67F051298BC0529E52903
:10C7FA00C3940440E012593512571CEFF00528E59E
:10C80A0028B403F475280312573974FFF00528E594
:0CC81A0028B408F31256D67F050298BC23
:10BCB200E4F522E522241DFD1256D67F0512B6A90F
:10BCC200503E752301E522B404047F0380027F08FD
:10BCD200E523C39F50307498252312573DE0FDE5BC
:10BCE2002275F007A47B0124FFF974F735F0FA7E80
:10BCF20000E92523F9EE3AFAED124558052380C5ED
:0FBD02001258B30244CA0522E522C3940540A497
:01BD1100220F
:09EC42001258B31244CA02C7DAE9
:10C9550012585470047F0280027F0390F898EFF01C
:10C9650090F82AE090F899F090F82BE090F89AF07A
:10C9750090F82CE090F89BF090F82DE090F89CF062
:10C9850090F82EE090F89DF090F82FE090F89EF04A
:0BC9950078B7E61256D47F050298BC6C
:10BDD20012585470047D0280027D031256D67F05EC
:10BDE20012B6A9503890F899E090F82AF090F89A93
:10BDF200E090F82BF090F89BE090F82CF090F89CF3
:10BE0200E090F82DF090F89DE090F82EF090F89EDA
:10BE1200E090F82FF090F89FE078B7F622782A7C2D
:0FBE2200F87D017AB3794E12582478B77605224D
:10D14000125854F528782A7CF87D017BFF7AB37950
:10D150004E12582678B7760578AEE6548FF612C987
:10D160005578AEE6548F4460F612C955E528C4548C
:09D17000F0FF78AEE6548F4FF693
:01D179002293
:10DC1600125854240490F898F090F831E090F8994E
:10DC2600F090F832E090F89AF0A374FFF0A3125641
:06DC3600CF7F050298BC3F
:10DC3C001258542404FD1256D67F0512B6A9500E64
:10DC4C0090F899E090F831F090F89AE08003125730
:06DC5C00ED90F832F02209
:0AEC12001257ED90F832F002DC1604
:10D3AE0012585475F005A4FF7879E6540F24092F0E
:10D3BE0090F898F090F835E090F899F090F836E003
:10D3CE0090F89AF090F837E090F89BF0A374FF1263
:07D3DE0056CF7F050298BC49
:10C518007879E6540F2409FD1256D67F0512B6A97C
:10C52800501690F899E090F835F090F89AE090F865
:10C5380036F090F89BE080257BFF7AB3795A7879BA
:10C54800E6FF1257B890F835F07AB30975F003EFA3
:10C558001257BB90F836F07AB3091257B590F837EE
:02C56800F022BF
:10CC2E0012585475F00FA4FFAEF0245AF974B33EA7
:10CC3E00FA7BFF1257B590F835F0745B2FF974B389
:10CC4E003E1257B490F836F078AEE65470FFC454E6
:10CC5E000F75F00FA4245CF974B335F01257B4902D
:06CC6E00F837F002D3AE1E
:10C3720090F881E07002802590F881E0FF541F6000
:10C382003EEFC3942050197420F0752BFF752C8258
:10C39200752DDD7BFF7A82795D12A563E4FF802132
:10C3A20090F881E0C4135407C43354E0F07F0112C3
:10C3B200C05E90F881E02420F01258D302A5637F7A
:05C3C2000112C05E2223
:10C05E0090FF207406F0EF701AFEEE90825D931240
:10C06E005913EE9082DD93FD12596CEDF00EBE80E9
:10C07E00E9802FEF6401702AFE90F881E0FF75F0E1
:10C08E0008A42E12579812594112591375F008EF41
:10C09E00A42E12579812594DFF12596CEFF00EBE86
:08C0AE0080D790FF207407F019
:01C0B6002267
:03ED210002C372B8
:06A563008B288A29892AD9
:10A56900E4F52E12577D1259416F701D12597EF56F
:10A5790083124509FF75F008ED12579512594DB52B
:10A589000707052EE52EB480DAE52EC394805056D0
:10A5990090F881E0C3946040107F1F12E583907F9B
:10A5A900FF7412F0E490F881F0E4F52E12577D243F
:10A5B90000F582E583347CF583EFF012597E7583CB
:10A5C90000124509FF75F008ED1257952480F582B0
:10A5D900E583347CF583EFF0052EE52EB480CD902C
:06A5E900F881E02420F0DF
:01A5EF002249
:06ECED001258D302A563DA
:10AFD7007F1F12E583400122752210AF2212E583FD
:10AFE7004001220522E522C3941640EFE4F522E54D
:10AFF700221257131258E3E522F0EF12588BE4F0B0
:10B007001258EDE4F01258F7E4F0125901E522F076
:10B017002486125883E522F0248C12590BE522F07E
:10B0270024921257E5E4F00522E522B406C1907F89
:10B03700FF7412F090F8807406F090F88212483E80
:0AB0470000000000E490F881F0D34F
:01B0510022DC
:10E58300EF33333354F8440190FF39F07BFF7AEBD8
:0CE5930079E67F2812E494400122D32294
:107FB000E4F527F526F525F524F52890F8821248F2
:107FC0003E00000000E4F52274862522125883E565
:107FD00022F00522E522B406EFE4F523E4F522E5DC
:107FE000221257131258E3E0FD748625231258839A
:107FF000E0FFED6F60030280B1E522FB1257131220
:1080000058EDE0FCEF1258F7E06CFCEB125715123C
:10801000588BE06CFFED6FFDE522125713125901EA
:10802000E06D60030280B1748C252312590BE522A8
:10803000F0FF12DD1F749225231257E5EFF0E522C1
:108040007D0025E025E0FCED24FDF58274433CF540
:1080500083E07B00FAED24FCF58274433CF583E079
:108060007E007810C333CE33CED8F9FFEE4AFCEF52
:108070004BFDE52212571312588BE0FFECFEED4F3B
:10808000FFE48F278E26F525F5241258ADAB27AADD
:1080900026A925A824D31247E34029AF27AE26AD51
:1080A00025AC2490F88212483290F880E522F080C6
:1080B00013E522B40E02C3220522E522C3940F5019
:1080C00003027FDF0523E523C394065003027FDC10
:1080D0007F0F12DD1F90F881EFF0E4FFFEFDFCA39F
:1080E000124826C31247E390F88070057406F080AA
:0C80F0000AE0FF12D5C090F880EFF0D33A
:0180FC002261
:02DD1F00A90752
:10DD21007D7FE4FCE925E025E0FAED12585D3AFE3D
:10DD3100EC12582DF46003AF05220CBC08E6DDE2BD
:02DD41007F0061
:01DD430022BD
:10D5C000E4FEBF0E03FF80010FEEFD3395E0FC7417
:10D5D0008C2DF58274F83CF583E0B5070ABF0E0484
:10D5E000E4FF80010F7EFF0EC3EE6480948640D975
:01D5F0002218
:10E90000E490F898F01258CBF0A3DFFC1256D67FB3
:04E91000050298BCA8
:10E82700E490F898F07F0790F899E4F0A3DFFC12E2
:07E8370056D67F050298BCD4
:10DAD8001256D6E4FD7F0512B6A9501975220174B5
:10DAE80098252212573DE06002800A0522E522C3EC
:08DAF800940840EB2212959204
:01DB00002202
:0898BC008F378B388A39893A95
:1098C400D20674922F1257E5E004F53BE53BD3949E
:1098D40000404912574CFEE53B1257C4FF12592170
:1098E4001244F0547F6F7028F53C125921853C8254
:1098F400125745FAE53B12585D3AFEE53C12582DE5
:109904006D6004C2068015053CE53CB408DC800C9F
:10991400E53BB40102C206153B0298D020065D1255
:1099240057E1E0B47F05AF37026FF4753B0112597C
:1099340021853B82125745FA1257E1E012585D3AED
:10994400FEE53B125840053BE53BB408E1125921C2
:109954001244F012574BFE1257E1E075F008A424AC
:1099640000F582E5F03EF583E5822400F582E58387
:0C9974003440F583EDF01257E1E004F000
:0199800022C4
:0AB6A9008F388D398B3A8A3B893CBB
:10B6B30074922F1257E5E004F53DE53DD394004025
:10B6C30050748C2538125750FEE53D1257C4653926
:10B6D3007033F53E748C2538125750FCE53D1258F3
:10B6E3005D3CFE7C00EF253EFFEC125832AB3AAADC
:10B6F3003BA93C853E8275830012456A053EE53EC3
:10B70300B408D1800CE53DB40102C322153D02B655
:02B71300BDD3A4
:01B715002211
:026FF4008F3DCF
:106FF600754001748C2F12590BE0F54190F880E032
:107006002410FF12E583400122E4F97498291257EF
:107016003DE0FD90F880E025E025E0FEE924001241
:10702600584109B908E590F898E0547FF53EE4F533
:107036003F7498253F12573DE4F0053FE53FB408FD
:10704600F0125959FF249812573D1259288002C34D
:1070560033D8FC4EFE74982F12573DEEF090F88010
:10706600E0FF748C253D12590BEFF012D5C090F855
:1070760080EF1258ACEF2401FFE43EFEE43DFDE450
:107086003CFC90F882124832797FE54125E025E004
:10709600FE75F008E91257C7F53E647F700302716A
:1070A60024125959249812573DE0FD7C00E53E54C0
:1070B60007FF74017E00A807088005C333CE33CED0
:1070C600D8F9FFEE5CFEEF5D4E7053F53FE54125C6
:1070D600E025E0FCE912585D3CFE7C00EF253FFF11
:1070E600EC125832FD748C253D125750FAE54012C9
:1070F600585D3AFEE53F125840053FE53FB408CDDE
:10710600125959FF249812573D1259288002C33349
:10711600D8FC4EFE74982F12573DEEF0054019E943
:1071260060030270907492253D1257E5E5401258AF
:10713600AC78101247F4AB071257071258F7EB1248
:1071460058AC78081247F4AA071257071258EDEA06
:107156001258ACAD0712570712588BEDF012587F34
:10716600E0FC1257071258E3ECF0EB6A6DFF125879
:107176007FE06FFD125707125901EDF0E54124102B
:08718600FF12E583400122D352
:01718E0022DE
:10973000AE3AAF3B7C007D021245F3EF2BF53BEEDA
:109740003AF53AAB2BAA2CA92D0246291246C6E4BB
:109750007B02FAF9F81246C6AB31AA30A92FA82E1F
:1097600012CD428E3A8F3BD3E53B9400E53A6480BC
:1097700094802290F839E0FEA3E0FBAA06E4F9F811
:10978000AE36AF3722AB35AA34A933A832AF31AEEB
:1097900030AD2FAC2E1246B8A80422A804A905AA01
:1097A00006AB07E0FEA3E0FFE4FCFD22AEF0FBE425
:1097B000C39BFF74809EFEE49400FDE49400FC22B1
:1097C0007A00790C7B00D2067D0122E53B5401FF33
:1097D000C3E49FFFE49400FAAB072290F839E0FC61
:1097E000A3E0FDEC22AB05AA04E4F9F8E53722ABCF
:0697F0002BAA2CA92D227A
:10DA5A007876E633501C78AEE6A2E250151297C0EB
:10DA6A007F0212D2CEE50C54037007E50C20E702C0
:0ADA7A00C32278AEE654F7F6D3227B
:066C9A008B2B8A2C892DD2
:106CA000E4FD7F1F12EBCE7D807F4412EBCE129766
:106CB00043FFAEF012CD865002C322126E2CF53681
:106CC000E50DF537E4FD7F4412EBCE129743FFAE9E
:106CD000F012CD865002C322126E2CF538E50DF568
:106CE00039129773FCFD1246C6A804A905AA06AB83
:106CF00007AE38AF39E4FCFD1246AB8F318E308DD4
:106D00002F8C2ED3E5399490E5389401402B1297BF
:106D1000DB13FEED13FFE5392470FBE53834FEFA92
:106D2000D3EB9FEA9E400D1297E52401FFE4353630
:106D3000FEE48031129773802C1297DBC313FEEDB3
:106D400013FFC374909539FB74019538FAD3EB9F08
:106D5000EA9E400E1297E524FFFFE53634FFFEE47D
:106D60008003129773FCFD1246C6EF2490FFEE34A9
:106D700001FEE43DFDE43C8F358E348D33F5321257
:106D80009785C005C006C0071297431297ACD00381
:106D9000D002D00112974C4009E53B54017A00FB28
:106DA00080031297CB129730126E405002C322E537
:106DB0000C606990F83930E1141297A3E5352FFF84
:106DC000E5343EFEED3533FDEC35328017E0FEA3B1
:106DD000E0FBC3E5359BFFE5349EFEE5339400FD03
:106DE000E53294008F358E348D33F532129785C09D
:106DF00005C006C0071297431297ACD003D002D04B
:106E00000112974C4009E53B54017A00FB800312C4
:106E100097CB129730126E405002C322AB2BAA2C94
:0B6E2000A92DE53A853BF012468CD30B
:106E2B00227B007A00790CC2067D027F4412D2CEFF
:106E3B00E50C540F22AEF0253BF53BEE353AF53A17
:076E4B00AF3BFE12CD8622D1
:10BD12008B2B8A2C892DE4FF12E898900A21E49358
:10BD2200FF1297EFE48FF01246541297EF12462952
:10BD3200FFAEF012CD8650037F0222E50C602E1278
:10BD420097EF30E10D12462924FFFFE5F034FFFEA4
:10BD5200800A1246292401FFE435F0FE12CD8650F6
:10BD6200037F0222E50C540360037F01227F00223D
:108CEA00E4F52EF52DF52CF52BFB7DFC7F4712DBE9
:108CFA00017B107DEF7F5012DB0112EC307BFF7A93
:108D0A00EA79117F3C12E4944003028DDD7B407DB9
:108D1A00BF7F5212DB01E4FD7F5912EBCEE4F50C62
:108D2A00FB7A00790DD2067D037F5912D2CE850FC8
:108D3A002E850E2D850D2C850C2BE4FB7D5F7F5235
:108D4A0012DB017A0079331297C47FAE12D2CE05B4
:108D5A003305337B007A007934D2067D017FAF1266
:108D6A00D2CEE5345430C4540FFF7401A8070880EA
:108D7A0002C333D8FCF534FFE4FCFDFEFBFA7908A4
:108D8A00F81246C690F83912979B1246C6AB2EAA1D
:108D9A002DA92CA82B12475190F83D12979B1246E9
:108DAA00C6C007AF33AB07E4FAF9F8D00712475148
:108DBA008F328E318D308C2FC3E49532FF748095BB
:108DCA0031FEE49530FDE4952F8F328E318D30F5EA
:108DDA002F800BE47532FF7531FFF530F52FE4FB78
:0B8DEA007DEF7F5012DB01AE31AF3295
:018DF500225B
:10CD86008E3C8F3DE4FB7DFE7F4712DB0112EC30CB
:10CD9600AF3DAE3C12E07FE4FD7F0212EBCE7F0892
:10CDA60012D0107F0812D01012AA495001221297F1
:10CDB600C07F0212D2CEE50C54606002D322530C1F
:03CDC60003C32282
:10718F00E4F528FB7A00790CC2067D027FB512D296
:10719F00CEE50C540FF523E50DF524E4FB7DFD7FC3
:1071AF00BB12DB01E4FF12E898128CEA8E258F26C2
:1071BF0012CD8650037F0222E50C7053432801E560
:1071CF00262418FFE43525FE12CD8650037F0222B8
:1071DF00E50C7003432802E52624E8FFE52534FF7C
:1071EF00FE12CD8650037F0222E50C700343280464
:1071FF00E528B40309740C2526F526E4800DE5284F
:10720F00B4050C74F42526F52674FF3525F525E510
:10721F002860030272F2AF24AE2312E07FE4F52858
:10722F00752718AF24AE2312CD8650037F0222E5B7
:10723F000C603CE50C30E11AE5287E0030E0047F5D
:10724F000C80027F18C3E5249FF524E5239EF523C8
:10725F008017E5287E0030E1047F0C80027F18EF55
:10726F002524F524EE3523F523850C28D527B4E501
:10727F002770037F0122E528701CE5242418FFE402
:10728F003523FE12CD8650037F0222E50C6003FFEB
:0F729F0080027F018F28852325852426752704EB
:1072AE00E52830E00BE526240CFFE43525FE800AA8
:1072BE00E52624F4FFE52534FFFE8E298F2A12CD14
:1072CE008650037F0222E50C7009852925852A2622
:1072DE00D527CDE5242526FFE5233525C313F52532
:1072EE00EF13F5267B007A007925126C9A40037F06
:1072FE0002227B007A00792512BD128F28E52860C4
:0A730E00012278AEE64408F67F0085
:017318002252
:10E9140012E5F27827E475F001024884D29012E9F6
:04E924003CC290223F
:10E93C0000000000000000000000000000000000CB
:03E94C00000022A6
:10E8AD00D29012E93C3090FDD291C29112E93CC256
:05E8BD009012DC622254
:0AEC1C00C291D29012E93CD291227D
:10E9BE00D291D29012E93CA291E433FFC290D2914F
:01E9CE002226
:06ECF300C29112E920228B
:06ECF900D29112E9202275
:10DC6200E4FEEF335004D2918002C29112E920EF18
:10DC720025E0FF0EBE08EB12E9BEEF600612EC1CB7
:05DC82007F00227F017C
:01DC8700227A
:10E5F200E4FFD291FED29012E93CEF25E0FFA29116
:0AE60200E4334FFFC2900EBE08EB98
:01E60C0022EB
:02DDB3008D2AB7
:10DDB500752BFF8F2CAF2C12E8ADEF64016005D5F4
:10DDC5002BF3C322AF2A12DC62EF64016002C32287
:01DDD500D37A
:01DDD600222A
:06C659008F238A258B26C9
:10C65F00E52645257002C322AF2312DDB340012228
:10C66F00E5234401FF12E8ADEF64016002C322E548
:10C67F0026152670021525144525600C12E914EFB6
:10C68F0012455812ECF380E712E914EF12455812D5
:06C69F00ECF912EC1CD3C3
:01C6A5002272
:08AEDE008F238D248A258B26A9
:10AEE600E52645257002C322D3E5269400E5259480
:10AEF600004061AD24AF2312DDB3400122E52454A6
:10AF06000FFFC374109FFDFF7E00D3E5269FE52546
:10AF16009E401CE5269FF526E5259EF525E524C3DE
:10AF260094F0400405230523ED2524F5248007AD80
:10AF360026E4F525F526AF051DEF6013782712E9FF
:10AF4600191244F0FF12DC62EF640160E9C32212B9
:05AF5600EC1C8094D307
:01AF5B0022D3
:03000B0002B782B7
:10B78200C0E0C0F0C083C082C0D075D000C000C08D
:10B7920001C002C003C004C005C006C007D28C7538
:10B7A2008A21758CF8D20A78A7E6FE08E6FFF470C3
:10B7B20002EEF4600AEF4E6006E61618700116E516
:10B7C2005760041557800920090612DE1F75570AB3
:10B7D200D007D006D005D004D003D002D001D000CB
:0BB7E200D0D0D082D083D0F0D0E03275
:07ECC500C10000FD54FEFF39
:10AC7100019B1E01A60F02A401D201A100019E00A9
:10AC810001A000019F00019D0001A20001A300019C
:05AC91009C00015600CB
:1080FD007864E6FA08E6FBFF7C007D64AE0212456B
:10810D009E7C007D0A12459EED243022FFC3ED9F1B
:10811D00FFEC9ECF24FCAD26CF34FFFE7C00124534
:10812D008CE4FD7B64FAF9F8024751E524FD7C00EF
:10813D00FFC3E5239FFFE5229400FAA9077BFFD239
:10814D00067F922290835FE493FE74019390836384
:10815D00FFC37401939FFFE4939EFEEF780222F517
:10816D000D7B007A00790CC2067D027C007F902287
:10817D00E50C24FDFDE434FFFC7B007A00790FD281
:10818D00067F92227C007D0AE6FE08E6FF02459EF0
:10819D00E4F52485238285228322FE7C007D6412F2
:1081AD00458CAD03AC0202459EC207D2087F9222D8
:1081BD00E47B0AFAF9F8AF25AE24AD23AC220247D1
:1081CD00517B007A00790CD20622AB2DAA2EA92F55
:1081DD001244F025E025E02278ACE6C39FFFE49E33
:1081ED00FE22EF2402FFE43EFEE43DFDE43CFCE410
:1081FD007B02222430F52FEF75F00A84E5F022C2C0
:10820D0007C2087F90227C007D0AAF032290836B0A
:10821D00E493FE740193227864E6FE08E6FF22FBE8
:10822D007A00790CC206222523F523E43522F522A6
:0B823D0022EF25E0FBEE33FAC3E6223F
:10B9F800789BEFF678A6A6052401F523E433F52213
:10BA080078A4A60208A60312820C12E8D77FC012F7
:10BA1800D6227F0412D6221200031281B612E8D76A
:10BA2800AF23E52312D622E522C4F854F0C8E52353
:10BA3800C4540F4854F0FF78A5E6540F4FFF12D6B0
:10BA48002279A4E7C4F854F0C809E7C4540F48FFA2
:06BA580012D622020003D9
:10C31C008E248F258C268D278B2812820C12E8D721
:10C32C00E524540F4528FF12D622AF25E52512D659
:10C33C0022120003E528B4D00FAE26AF277C007D77
:10C34C000312458C8E268F271281B612E8D7E5276B
:10C35C004526600FAF2912D622E527152770EF1559
:06C36C002680EB02000335
:10D226008F228D23EFFD7C007529807B10E4FFFEA5
:10D2360012C31CE4FF12EA01E522FD7C0075298871
:10D246007B50E4FFFE12C31CE522FD7C00852329EA
:08D256007B90E4FFFE02C31C03
:04CDC9008B33AC07F5
:10CDCD0078A6E6FFED8FF0A4FF789BE62401FBE447
:10CDDD0033CB2FFFEB35F0FEAD047C00EF2DF53599
:10CDED00EC3EF53412820C12E8D7E534540F45337E
:0ECDFD00FF12D622AF35E53512D62202000312
:10EA01008F2E1281B612E8D7AF2E12D62202000342
:10DD44008E268F271281B612E8D7852782852683EF
:10DD5400E493FF600D12D6220527E52770EC052613
:05DD640080E80200034D
:08D712008E228F238D248B254C
:10D71A0012EAA1EFC313FEC395244005E4F5248061
:10D72A0006C3E5249EF5247B50AD25AF2412CDC94E
:07D73A00AF23AE2202DD4423
:08D79E008E228F238D248B25C0
:10D7A60012EAA1EFC313C395244005E4F5248006CD
:10D7B600C3E5249FF5247B50AD25AF2412CDC9AF18
:06D7C60023AE2202DD4447
:04C3C700AB07AA0610
:10C3CB007C277D1012459EEF2430F5227C037DE8FF
:10C3DB00AF03128109F523AF03128105F5241282F5
:10C3EB0013128109F525AE02AF0312810EF5261249
:10C3FB0081B612E8D7AF2212D622AF2312D622AFC4
:10C40B002412D622AF2512D622AF2612D622020034
:01C41B00031D
:10C56A00EF75F06484FED394004012EE2430F52E69
:10C57A00EF75F00A841282051282008019EF75F0B5
:10C58A000A84FED39400E44008F52EEE128200805D
:10C59A0005F52EF52FEF2430F5301281B612E8D7C3
:10C5AA00AF2E12D622AF2F12D622AF3012D62202C7
:02C5BA0000037C
:10D08D00EF540FFEC3940AEE50062430F5238004AE
:10D09D002437F523EFC4540FFEC3940AEE50062433
:10D0AD0030F52280042437F5221281B612E8D7AF6D
:0CD0BD002212D622AF2312D6220200035A
:10E6AE00750C81EF25E025E02403F50DE4F50E123F
:0AE6BE00822C7D03FC7F9002D7CC74
:107A55008E228F238C248D258B26E526D394644096
:107A650003752632E527D394644003752732E5284C
:107A750030E75C128151CEC313CE13D8F9FDAC06A5
:107A8500E522C313FEE523131281191281EF12813A
:107A9500328E228F2312821A90836F12815DCEC39C
:107AA50013CE13D8F9FDAC06E524C313FEE5251363
:107AB500FFC3ED9FFFEC9ECF24FDAD27128125125C
:107AC50081EF1281328E248F2543287F027B381265
:107AD5008151CEC313CE13D8F9FDAC06E523AE22F2
:107AE5007802CEC313CE13D8F9128119EF2406F507
:107AF50023E43EF52212821AFFC390836F12815F41
:107B0500CEC313CE13D8F9FDAC06E525AE24780215
:107B1500CEC313CE13D8F9FFC3ED9FFFEC9ECF2440
:107B2500FACF34FFFEAD27128129EF2404F525E4B1
:107B35003EF5247B027DF87F9312DB017D017F6C8E
:107B450012E9288F0CE50C70047FC080027FE08F5E
:107B55000CE4F50D12822C7D02FC7F9012D7CCE54A
:107B650024C313E52513F50CE523AE227802CEC315
:107B750013CE13D8F9F50DE5235403C4333354C09C
:107B8500FFE5255401FEC43354E04F4528F50E1298
:107B950081CE7D037C007F9212D7CC7F2012D0103E
:0E7BA5007F2012D0107B057DF87F9302DB015C
:10D653008B30AE05AD07AF06AB3212CDC9E532B4A0
:10D66300D008E53075F003A4F5301281B612E8D77F
:10D67300E5306009AF3112D622153080F302000382
:10E39F008F258D268B27E5266014852931852A3216
:0FE3AF00AB28AD27AF2512D6530525D526EC2276
:10A0960078627C037DE8128195EF4E6005750F317D
:10A0A6008003E4F50F78621280FFF5101282131216
:10A0B6008109F5117862E6FE08E6FFBE051ABF566D
:10A0C600177865E6B4001118E6B4030C7C007D0A27
:10A0D60012459EED24FA80067862128191ED2430B5
:10A0E600F5127513207514587515201282247C03F9
:10A0F6007DE812459EEF4E60207516311280FDF503
:10A1060017128213128109F51812822412810EF594
:10A1160019E4F51A750C0E801B1280FDF5161282D5
:10A1260013128109F51712822412810EF518E4F52F
:0AA1360019750C0D12817D02D7CCC3
:10D3E500785C128191EF75F00A8475F00A8485F0F6
:10D3F50018EF75F00A8485F017750C07E5182430C9
:10D40500F50FE5172430F51075114875125AE4F536
:07D415001312817D02D7CC48
:10A93B007858E675F01390001B12486F12821DFFBA
:10A94B00E48F258E24F523F5227B64FAF9F8128126
:10A95B00C7E47B0A128132AF038F191281BDE47BEE
:10A96B000A128132AF038F181281BDAF038F17E527
:10A97B0019C3940A4011E51975F00A8404F51A7489
:10A98B00F62519F5198003E4F51A750C0B851A0FCA
:10A99B00E5192430F510E5182430F51175122EE564
:10A9AB00172430F51375144B75154875165AE4F5C5
:07A9BB001712817D02D7CCC9
:0490F8008E228F2312
:1090FC00AA06A9077BFF12817412D7CC0291921297
:10910C0081A0E49364FC704C12813812D7CC12818C
:10911C009D0493FFD3940340030291EBEF24FCF5E1
:10912C00251281A0740293B4FD14740393FD7C008A
:10913C00D205AB257F9212DCD474040291CA7B0059
:10914C007A007925D2067D017C007F9212D7CC74EF
:10915C00020291CA1281A0E49364FD70341281382A
:10916C0012D7CC1281A074019324FFFDE434FFFCD0
:10917C00E58224FFF582E58334FFF583E493FBD28B
:10918C00057F9212DCD47402128234E4F52402912D
:10919C000B1281A0E49364FE702A12813812D7CC92
:1091AC000523E5237002052212819D0493F4602FA0
:1091BC00AA22A9237BFF12817412D7CC74021282CB
:1091CC003402910B1281A0E493B4FF061281380291
:0F91DC00D7CC0523E52370020522052402910B51
:0191EB002261
:0EEAFB007F2012D0107B017DFE7F6C02DB01BC
:09EC4B00E4FB7DFE7F6C02DB019D
:0C8AC3008E258F268C278D288A298B2A6F
:108ACF007D017F6C12E9288F30E53070047FC18003
:108ADF00027FE18F0C1281D70412816C12D7CC7EEA
:108AEF0000E526543F7802C333CE33CED8F9F50CC8
:108AFF00E5255407FEE52654C07806CEC313CE13E2
:108B0F00D8F9FFE5285407C43354E04FF50DE52895
:108B1F00AE277803CEC313CE13D8F9F50E7E00E53A
:108B2F002A543F7802C333CE33CED8F9F50FE52957
:108B3F005407FEE52A54C07806CEC313CE13D8F9D6
:108B4F00FFE52C5407C43354E04FF510E52CAE2B42
:108B5F007803CEC313CE13D8F9F5111281CE7D064B
:108B6F007C007F9212D7CC7F287E0012E77EE4F53F
:108B7F0031750CC11281D7FFE53175F003A42F12A7
:108B8F00816C12D7CCE4F530E53175F003A47C008D
:108B9F002530FFEC35F0FEAB2DE52F2FF9E52E3EFE
:108BAF00FA900001124509FF740C2530F8A607054D
:108BBF0030E530B403D21281CE7D037C007F921258
:0B8BCF00D7CC0531E531C3940240A66D
:018BDA002278
:10D25E008F228B238A248925750C411281DD2403AC
:10D26E0012816C12D7CCAB23AA24A92590000512EB
:10D27E00450954F0FFE522540F4FF50C1281CE7D77
:08D28E00017C007F9202D7CC65
:02BEEF008F279B
:10BEF100E527701912BF327881E640082432FF1815
:10BF0100E436FE222529FF18E63528FE22E52764BE
:10BF110001701D12BF32400C7881E624CEFF18E675
:10BF210034FFFE22C37881E69529FF18E69528FEA5
:10BF3100227880E6FE08E6FF7B007A00792812AEBF
:0BBF410060D3E5299432E5289400222B
:10E60D00EFC4333354C0F50C750D018D0E7B001224
:0BE61D00822D7D037C007F9002D7CC93
:04EAA1008F828E834F
:0AEAA500E4FFE49360040FA380F87F
:01EAAF002244
:10CF9200E52B601BC3EB9DEA9C4009E52C702FAF8B
:10CFA20005AE0422EB2401F52EE43AF52D801BD3C5
:10CFB200EB9FEA9E500AE52C700122AE04AF0522D7
:0ECFC200EB24FFF52EEA34FFF52DAE2DAF2E39
:01CFD000223E
:10DC88007F0112BEEF8E258F26E4FF12BEEFC3EF91
:10DC98009526FBEE9525FAC37874E69526FF18E6D7
:05DCA80095251281A783
:01DCAD002254
:10CE0B00C37967E7787D96FF19E71896FE12E9ACB0
:10CE1B001281E5787CE6FC08E6FDC39FF526EC9EC7
:10CE2B00F525C37867E69DFF18E69CFE12E9AC1268
:10CE3B0081E5787012823E9526FF18E695251281C2
:01CE4B00A73F
:01CE4C0022C3
:10CC7400C37969E7787F96FF19E71896FE12E9AC45
:10CC840078AD1281E7787EE6FC08E6FDC39FF526C1
:10CC9400EC9EF525C37869E69DFF18E69CFE12E933
:10CCA400AC78AD1281E7787212823E9526FF18E6C1
:05CCB40095251281A787
:01CCB9002258
:10BB27007877E6F52290F835E0F519A3E0F51AA342
:10BB3700E0F51B12959290F835E519F0A3E51AF098
:10BB4700A3E51BF012C7DA12E69412CB5B12C169A8
:10BB570012ED2812ECE1E522640160177873E6FE26
:10BB670008E6FF1249187875E6FF12731912ECBE42
:10BB770012ADE07877A622786E760178C7E644089A
:04BB8700F602B1C051
:10E6C8008F2212820C12E8D77F4012D6227F0312C3
:0AE6D800D622AF2212D62202000360
:10E6E200E4FFFEFDFCED1D70011C8D828C83E49322
:09E6F2002FFFE43EFEED4C70EC3C
:01E6FB0022FC
:10DF5700E50B450A700712E6E28E0A8F0B7B50E449
:10DF6700FD7F0912CDC9E50AFF12D08DAF0B02D094
:01DF77008D1C
:10E7C800129D2278C7E6A2E1400312D1ED78C7E690
:08E7D800A2E2400312EBC22291
:10C60B00E4FFFDFBE55630E71530E0027FFFE55612
:10C61B0030E1027DFFE55630E2197BFF8015E556D0
:10C62B0030E0027F7FE55630E1027D7FE55630E258
:10C63B00027B7F12D41C0556E55630E00790FF6154
:0DC64B0074018004E490FF61F090FF60F046
:01C6580022BF
:10A797007D0112A80B7EF67F0012DD447F2012EAAE
:10A7A700017EF67F0712DD447D0212A80B7EF67F3D
:10A7B7001C12DD447D0312A8137EF67F2312DD44AD
:10A7C7007D0412A8137EF67F3512DD447D0512A89D
:10A7D7001B7EF67F3E12DD447D0612A81B7EF67FA8
:10A7E7004912DD447B507D07E4FF12CDC97EF67F19
:10A7F7005512DD447B507D08E4FF12CDC97EF67FFC
:10A807006102DD447B50E4FF12CDC9227B50E4FF97
:0CA8170012CDC9227B50E4FF12CDC922F3
:10D5F10030042A78BCE67028300105C20102EC4BE8
:10D60100D20178C7E64408F612B5CC12BD7212DF1A
:10D611005712A7977BFF7AEC79AE02D74112C5BCAE
:01D6210022E6
:10DA840078BC760812D828502078BAE608F612CC6A
:10DA9400BA78BAA60712D296500678BAE6B40B0939
:0ADAA4007876E633500312B39722A0
:0FEAB00078BAE608F612CCBA78BAA60702D29660
:0AEC260078BDE654FEF654FDF62218
:10D8280078BDE6A2E1500B135008E654FDF654FE0D
:10D83800F62278BDE6A2E140124402F67BFF7AECBC
:0DD8480079CC7F027E0012C6F3C322C322FA
:07ECCC0078BDE64401F622C9
:07ECD30078BDE64404F622BF
:10D95A0079BBE778BA665F600578BCA6052278BD10
:10D96A00E6A2E35015A2E2500418A605227BFF7A2C
:0BD97A00EC79D37F327E0012BC5122FA
:10D2960078BAE6FF30E02F086630E02A12CCBA787A
:10D2A600BAA6077876E6335002C204C201E4F5084E
:10D2B600F50920040312E3BE78C7E64401F678BDFB
:08D2C600E654F7F6D322C3225F
:10CCBA00E4FF90FF5FE020E0027F0490FF5DE02048
:10CCCA00E00343070890FF5CE020E003430710906D
:10CCDA00FF5AE020E00343070290FF58E020E003F8
:10CCEA0043070190FF59E020E00343072020910306
:03CCFA00430740AD
:01CCFD002214
:10E3BE007876E633920678BAE624F5600A24FE7083
:0EE3CE000D20060AD20422300604E478BAF6C6
:01E3DC00221E
:10B397007876E633920578BAE61248A9B3BC02B3C9
:10B3A700C804B3CE08B3E70BB3D410B3DA20B3E0C5
:10B3B700400000B3FA78BDE654F7F6E4FD7F02805B
:10B3C7001C7D017F0480167D027F0880107D037F2E
:10B3D70010800A7D047F2080047D057F4002D95AB2
:10B3E70020051F78BDE654FBF61295927876E65451
:10B3F7007FF62278BDE654FBF67BFF7AEC79D31211
:02B40700D7412B
:01B409002220
:10001600020280015E013B02BC0A0A032001C10004
:1000260090003E020280015E017A03520F0F0340E8
:1000360001BD00A0003F0D02D00190013B02BC0AA9
:100046000A038401C100A300230F02D00190017CA2
:1000560003520F0F03A801BE00B4002D0F0280014A
:10006600E0013B02580A0A0320020D009100220F0C
:10007600028001E0015E029A0A0A0360020D00A0F6
:10008600002A0F028001E0017A02D80A0A03400220
:100096000800A9001E0F028001E0017702EE0A0A9D
:1000A600034801F400B900120F028001E001B10318
:1000B600520A0A034001FE0088001C0F0320025862
:1000C600015F02320A0A0400027100C800180F0319
:1000D600200258017A025B0A0A0420027400D90041
:1000E6001A0F0320025801E002D00A0A0410029AED
:1000F60000B9001C0F0320025801D402EE0A0A04BC
:1001060020027100F100170F032002580218035253
:100116000A0A0418027700D8001E0F034002700175
:10012600F102E90A0A0480029B0120002A0B04005E
:10013600030001E302580A0A0540032601280022AB
:100146000B04000300023402BC0A0A053003260130
:100156001800220B04000300025802EE0A0A0520CA
:1001660003200110001E0F0400030002AA03520A16
:100176000A05600328013000270F04000320026CE3
:1001860002E40A0A05300345010800230F040003B0
:100196002002CB03520A0A05280345011800230F43
:1001A60004800360021902580A0A05E8037E012C3E
:1001B600001E0F04800360028202BE0A0A05C00305
:1001C60092012000310F0480036002A302EE0A0AA6
:1001D60006400384018000230F04800360030203AA
:1001E600520A0A0628038B0168002A0F0480036658
:1001F60002AE02EE0A0A05B003930110002A0F04AC
:10020600800384026A02940A0A05F803A9015000D1
:10021600230F0480038402CE02FE050505E003A930
:10022600014000230F050002D001BF02580A0A064A
:100236007802EA015300190F050002D0023402EEDB
:100246000A0A069802EF0154001F04050003000184
:10025600DD02580A0A0684031A0142001A02050042
:10026600030001DB025A0A0A05A0031500730012F7
:100276000405000300023002BC0A0A069C031F01A3
:1002860050001F0405000300025902EE0A0A06AADE
:100296000321015A0021080550030001DD02580A16
:1002A6000A0704031A01700017040500032001F46D
:1002B60002580A0A0690033F0148001C0405000381
:1002C60020024302BC0A0A0684033C00E0001F0425
:1002D60005000320026E02EE0A0A0684033E01446C
