:10E9AA003D403F3B33281C002C2D3C3D38301A009B
:10AC150001C60041F8220041F81F0041F820064115
:05AC2500F82100C10B45
:1062FD00A81474FFFFFEFDFC124751E47B10FAF960
:10630D00F81246C6A804A905AA06AB0722785EE6D0
:10631D00FE08E6FFE4FCFD221246C6E47BE87A03A4
:10632D00F9F8124751E47B127A02F9F8D30247E3E8
:10633D0090F80FE05407900AA5FF75F00312486F0F
:10634D0002489D8F0E8F0D8F0C7A00790C7B00D239
:10635D00067D037C002290F812E0FF90F819E02FE3
:10636D00C313FF752A00752B38752C00752D7075AC
:10637D002EFF752FC87530FF7531902290F81BE0F8
:10638D001313543FFF90F814E02FFF752AFF752B60
:10639D0090752C00752D30752E00752F7075300091
:1063AD007531302290F839E0FEA3E0FBAA06E4F93E
:1063BD00F822AA06AB07AF407E0012458C7C007D0B
:1063CD00080245F3785FE62480FF18E63402FEE408
:1063DD00FCFDE5132FFFE5123EFEED3511FDEC2220
:1063ED001246C6C3E50F9FFFE50E9EFEE50D9DFD12
:1063FD00E50C9C22ED9FFFEC9EFEE6FD7C00D3EFAD
:10640D009DEE9C2290F80FE05418131313541F2285
:10641D001247518F0F8E0E8D0D22AE30AF31E4FC31
:10642D00FD0246C6785EE6FE08E62290F80FE054BF
:10643D00E0C4135407FF227B007A00790C22124529
:10644D008C7C007D7E1245F38F0D2235108F138EBF
:10645D00128D1122FF752A00752B38752CFF752DA5
:10646D0090752EFF227532107BAF7A007DA67C01D0
:10647D00227532147B027AFE7DFF7C0022FC1245D0
:10648D008C7C007D400245F390F80FE054E722909C
:10649D00F81CE01313543FFF90F81522AB3AAA3BBA
:1064AD00A93C124629FDC3227B1EFAF9F80246C605
:1064BD00C308E69FFF18E69E2275F003EF900AB120
:1064CD0022FDFCAB29AA28A927A82622AF35E4FC7A
:1064DD00FDFE7B387A1822FFE6FC08E6FDD39FEC23
:1064ED009E22E50D24FFFFE50C34FFFE22FE124532
:1064FD008CAC06AD07E54522FFA60608A60722AB24
:10650D0017AA16A915228B278A28892922E5252461
:07651D00F8FFE434FFFE2249
:10E7C9008E3B8F3CE53B5401FB7DFE7F1312DABA89
:07E7D900AD3C7F1202EB874B
:10E018008E2A8F2BE52B7807CEC313CE13D8F9544D
:10E0280002FB7DFD7F1312DABAAD2B7F1102EB875D
:10E038008E3E8F3FE53E540FFB7DF07FB512DABA76
:10E04800AD3F7FB612EB877B047DFB7FB702DABA60
:10E85100EFC454F0FB7D0F7FB712DABA7B047DFB66
:05E861007FB702DABAE6
:09EBE9007B207DDF7F5202DABAC5
:09EBF2007BC07D3F7FD402DABA3A
:10DE66008F3B78AEE6A2E35018E4FD7FDA12EB872B
:10DE760012EAC2E53BF4FDE53B4406FB7FDA12DA23
:02DE8600BA22BE
:10E59000EFF4FDE4FB7FDA12DABA7D387FDA12E8B5
:0AE5A000E1EF7006FD7FDA12EB8751
:01E5AA00224E
:01ECE0002211
:087B9B008F228B238A24892527
:107BA300E522600464017057E522127CD9E5227C4A
:107BB300017003FD80027D80AB23AA24A925127CDA
:107BC300EBE522127CE2E5227C017003FD80027D5D
:107BD30080AB26AA27A928127CEBE52244A0FD7FCF
:107BE3006712EB87E5227C017003FD80027D80AB89
:107BF30029AA2AA92BD2067F6612D785027CD1E552
:107C03002264026009E52264036003027CD8E4F580
:107C13002EE4F555F551E52E7014E5225401127C3E
:107C2300D9E5252410F9E435248523528030E52E47
:107C3300B40114E5225401127CE2E5282410F9E48E
:107C430035278526528017E522540144A0FD7F671E
:107C530012EB87E52B2410F9E4352A852952F553D5
:107C63008954E4F52FAB527E00E554252FF9EE3508
:107C730053FA90FFF0124509FF740C252FF8A6075D
:107C8300052FE52FB410DEE4F52CF52DE5227E015A
:107C9300B402047F0080027F80C3E52D9FE52C9E04
:107CA300502012A97BEFC454F0F52F12A97BEF42A9
:107CB3002FAD2F7F6612EB87052DE52D70CE052C9A
:107CC30080CA052EE52EC394035003027C147D4025
:057CD3007F6712EB8742
:107CD800224480FD7F6712EB87224490FD7F671264
:0B7CE800EB8722D2067F6612D78522B0
:10CE48008B228A2389247B807D3F7F6B12DABAABE1
:10CE580022AA23A924D2067D187C007F6912D785CF
:10CE68007B407D3F7F6B12DABAAB25AA26A927D271
:10CE7800067D187C007F6A12D7857D387F6B02EBB0
:01CE88008722
:10D9BF00787AE6540F9008CA126346C003C002C0BB
:10D9CF000175F003EF9008CA12634A8B288A2989E0
:0AD9DF002AD001D002D00302D16D5E
:10D16D008B258A2689277DB07F1C12EB87AB25AADC
:10D17D0026A92712D19A7DC07F1C12EB87AB28AA56
:10D18D0029A92A12D19AE4FD7F1C02EB87D2067DD4
:09D19D00807C007F1D12D7852261
:10CB140078AEE65470C4540F701D90F831E0FFD322
:10CB240094024006EF24FEFF800590F831E0FF8F69
:10CB34000E8F0D8F0C800A90F831E0F50EF50DF58F
:10CB44000C7D807F6412EB871263567F6512D78554
:07CB5400E4FD7F6402EB87A2
:10C12200E4FB74352BF582E434F8F583E0FF7E00FE
:10C1320090F832E0FD7C0012458CEF7807CEC313F5
:10C14200CE13D8F9FFD394FFEE940040087C007E12
:10C15200007FFF80027E00740C2BF8A6070BBB0346
:10C16200C17D837F6412EB871263567F6512D78588
:07C17200E4FD7F6402EB878E
:01ECE1002210
:10D8670090F82AE0F50CA3E0F50DA3E0F50E7D8016
:10D877007FDC12EB877D847FDC12EB871263567F98
:0BD88700DD12D785E4FD7FDC02EB879B
:10D69C0090F82DE0F50FA3E0F510A3E0F5117D80D7
:10D6AC007FDC12EB877D877FDC12EB877A00790FAA
:0FD6BC0012635A7FDD12D785E4FD7FDC02EB8716
:06EC9A0012D86702D69CAF
:10D3D5008F228D238B24E4FB7DDF7F6C12DABA7BF1
:10D3E500207DDF7F6C12DABAAD227F6D12EB87AD3F
:10D3F500237F6D12EB87AD247F6D12EB87E4FB7DF8
:06D40500DF7F6C02DABAC1
:10DCB3008B228A2389247D807F6E12EB87AB22AA75
:10DCC30023A924D2067D307C007F6F12D785E4FD23
:05DCD3007F6E02EB87EB
:026E3A008F26A1
:106E3C007858E6FF12B7A68F271263B1AF27FCFD77
:106E4C00FE12630E908347E493FE740193FFE4FCFF
:106E5C00FD1246AB1264208C0C786412631CAB0FD1
:106E6C00AA0EA90DA80C1246C6C006C00790F83D84
:106E7C001263B4D007D006124751C0041263131228
:106E8C00631AD0001246C6C006C0071263B1D00701
:106E9C00D00612641D8C0C78ADE6FFC37869E69FB2
:106EAC00FF18E69400FEE4FCFDC0041263131264A8
:106EBC0031FFE4D0001246C6C00412631378661288
:106ECC00631CD0001246ABC006C00778ACE6240A9F
:106EDC00FFE433AB07FAE4F9F8D007D0061246B852
:106EEC0012645A8C10E52630E0061263D1026F79D9
:106EFC00E52630E13D786412631C7B807A02F9F858
:106F0C001246C6C006C00790F83D1263B4D007D035
:106F1C0006124751C00412631312631AD0001246B2
:106F2C00ABE5132FFFE5123EFEE5113DFDE5103CF0
:106F3C0080051263D1351012645AF510D37863E6CC
:106F4C00949018E69406501612631A1263DF1264BA
:106F5C0058F5107B107DEF7F1912DABA8014E51307
:106F6C002480FFE5123402FEE43511FDE41264586E
:106F7C00F510C3E513950FFFE512950EFEE511957F
:106F8C000DFDE510950C126420F50C1264311263A2
:106F9C00B8AF0FAE0EAC0C1247518F1A12643112EF
:106FAC0063B8AF1AFCFDFE1263EDFCE47B10FAF93A
:106FBC00F81247518F1BE4FB7DFD7F4312DABAAD0B
:0F6FCC001A7F4012EB87AD1B7F4112EB87AF1A84
:016FDB002293
:08760D008F298E288D278C26A1
:10761500E4FF7E041264CE1246C67B007AA079058B
:1076250078001247518E2A8F2BD3E52B94FFE52A3C
:107635009400401C752C01E52B2402FFE4352AFE3D
:10764500EF7802CEC313CE13D8F9F52B8E2A80130B
:10765500752C02E52B2401FFE4352AC313F52AEF27
:1076650013F52BAE2AAF2B7C007D6412458C7C0E66
:107675007D5312459EEF14F511E4F512E511C394FF
:1076850008400974F82511F511431208E511C39452
:1076950004400974FC2511F511431204E511C39446
:1076A50002400715111511431202E511C39401405B
:1076B500051511431201E52B24FEF50CE52CB4014B
:1076C500047F0080027F10EF4406F50DE51244802B
:1076D500F50E750F17126444C2067D047C007FAE5B
:1076E50012D7857B027DFD7FB212DABA7D807FB12C
:1076F50012E8E1EF24FF50197B407DBF7FB112DA1C
:10770500BA7F027E0012E737E4FB7DBF7FB112DA54
:10771500BAE52C75F002A4AEF01263B8FFFE7D77D2
:107725007C01124751126311AE2AAF2B12642BE470
:107735007B08FAF9F812641D8C0C780F1247F412C5
:10774500645A8C10E47FE87E031264CE1263EDFC6C
:10775500AB13AA12A911A8101247518E2A8F2B53C9
:107765002A0F7B017DFE7FBB12DABAAF2BAE2A0250
:02777500E038FA
:109EF100786FE6FE08E6787C1265057871E6FE0863
:109F0100E6787E1265057873E6FE08E6FF7B007A47
:109F110000792412AE19C3E5259432E5249400504A
:109F210004785E806E126431FF7873E6FC08E6FD0A
:109F3100C39FEC9E5034C3ED9FFFEC9ECF2525CFF0
:109F41003524FEC3EF9432EE94005016C3785FE6D9
:109F51009525FF18E69524CF24327881F6E43F1841
:109F6100F6227880A60408A60522785FE62525FF5B
:109F710018E63524FEC3EF9DFDEE9CFCC3ED943243
:109F8100EC9400500CEF24CE7881F6EE34FF18F6F5
:0F9F9100227873E6FE08E6FF7880A60608A6078A
:019FA000229E
:10AE19008E388F398B3A8A3B893C7862E6FE08E6A0
:10AE29007803C333CE33CED8F9FF7C007D0A1245AF
:10AE39009EC3785F1264BFC313FEEF13FFAB3AAA38
:10AE49003BA93CEE8FF012468CE6FE08E6FFD3E5FF
:10AE5900399FE5389E40141264A9E5399FFFE5380A
:10AE69009EFED3EF9DEE95F0400122126431FFD38F
:10AE7900E5399FE5389E50141264A9EF9539FFEE24
:0EAE89009538FED3EF9DEE95F0400122D322C6
:044918008E308F311D
:10491C007F2012DE667B007A007936AF31AE301222
:10492C00AE194009785EE6F53008E6F531750C04F1
:10493C00750D4F750E24750F15126444C2067D0457
:10494C007C007F9812D785750C1CE4F50D750E371D
:10495C00FB7A00790CC2067D03FC7FA112D7857807
:10496C005A12631CC004126313126431FFE4D000AA
:10497C001263254013E531AE307802C333CE33CE0B
:10498C00D8F9F5318E30800BE53125E0F531E53085
:10499C0033F53075100075116475350BAF35E4FCCB
:1049AC00FDFE7B3E12630B126427C004C005C006DB
:1049BC00C007786A12631C7BC07A0312630CD007A1
:1049CC00D006D005D0041247518F34E4FCFDFE1202
:1049DC0064B5C004126313786A12631CD0001246CB
:1049EC00C6C004C005C006C0071264D912630C12FD
:1049FC006427D003D002D001D0001247518E0C8F07
:104A0C000DD3E50D94A8E50C940C5003024ACD741B
:104A1C0080250DF50D74F3350CF50CD3E50D9511C2
:104A2C00E50C9510500C850C10850D1185343285D4
:104A3C003533E5342401FFE433FEE4FCFD1264B5A8
:104A4C00C004126313786A12631CD0001246C6C0ED
:104A5C0004C005C006C0071264D912630C12642787
:104A6C00D003D002D001D0001247518E0E8F0FD33D
:104A7C007480950F740C950E400C7480950FFF7418
:104A8C000C950EFE800AE50F2480FFE50E34F3FE34
:104A9C008E0E8F0FC3E50F9428E50E94005007E59A
:104AAC003404F532801ED3E50F9511E50E951050A8
:104ABC0018850E10850F11E53404F53285353380D9
:104ACC0008853432853533800C0535E535C3943093
:104ADC0050030249A8785A12631CC00412631312C3
:104AEC006431FFE4D000126325E530400E13FEE57F
:104AFC003113FFEEC313F530EF8006C313F530E529
:104B0C003113F53178C6E6134003024C3D7B007A35
:104B1C0000791AC2067D027FA512D287051A051AE2
:104B2C00051B051B7B007A007918C2067D027FA944
:104B3C0012D287E518540FFEE5192401F519E43E4D
:104B4C00F518E4FD7F9F12EB877D077F9F12EB87A3
:104B5C00126444D2067D047FA012D287AF1BAB0730
:104B6C00E4FAF9F8AF32FCFDFE12630EAE18AF1981
:104B7C0012642B12645A8C10AF33AB07E4FAF9F8B9
:104B8C00AF1AFCFDFE12630E1264278F178E168D62
:104B9C00158C1412650CA814AF0FAE0EAD0DAC0C29
:104BAC00124751AB13AA12A911A8101246C61264CF
:104BBC00208C0CAF13AE12AD11AC1012650CA814F6
:104BCC00D31247E3402C1262FDC3E5179513FFE5A2
:104BDC00169512FEE5159511FDE5149510FC12467F
:104BEC00C6E50F2FFFE50E3EFEE50D3DFDE50C3C49
:104BFC00801E12650C1262FDC3E5139517FFE512BA
:104C0C009516FEE5119515FDE5109514FC1263ED56
:104C1C00126420F50C7D207F9F12EB877D227F9FF5
:104C2C0012EB87126444D2067D047C007FA012D75D
:104C3C0085785A12631CC004126313126431FFE4AA
:104C4C00D000126325E531400C24FFE53034FF54CD
:104C5C000F4410800824FFE53034FF540FFB7DE037
:104C6C007FA912DABAE53114FD7FAA12EB87E5327F
:104C7C0024FEFD7FA512EB87E53324FEFD7FA612F3
:104C8C00EB87E53275F004A4FFAEF07C007D0A12D0
:104C9C00459EC3EF9405EE940050087C007E007F87
:104CAC00008008EF24FBFFEE34FFFE8F11E4F512B9
:104CBC00E511C3943C400974C42511F5114312103D
:104CCC00E511C39428400974D82511F51143120835
:104CDC00E511C39414400974EC2511F51143120429
:104CEC00E511C3940A400974F62511F5114312021B
:104CFC00E511C39405400974FB2511F5114312010C
:104D0C0005120512AB127DE07FA712DABA78C6E65F
:104D1C0013402112E4117D207F9A12EB877F011240
:104D2C00CFC97F0112CFC97D247F9A12EB8778C639
:104D3C00E64401F678C6E61350077D687F9F12EBB8
:104D4C00877F0412CFC97F0412CFC9E4FD7F9F1265
:0A4D5C00EB8712EAC27F3802DE6620
:027301008F37C4
:107303007F3012DE6653373F12631AFB7A60F9F857
:107313001246C6C006C007786AE6FE08E61263B8DE
:10732300D007D006124751E47BA51264B77B407A9D
:1073330042790F78001247518E398F3AD3E53A9448
:1073430040E53994005005C374408003C3748095AD
:107353003AFFE49539FE8E398F3AAF377E00C3EF9B
:10736300953AEE95394006EF953AFF8006C3E53A24
:107373009537FF8F0CE50CD3940C400AE50C94343D
:1073830050047F0080027F018F387866E6FE08E6AE
:10739300FFC3787096EE189650191264BDFE78AC50
:1073A300126407400EED786726FFEC1836786FF607
:1073B30008A607786FE6FE08E678661264E44015CF
:1073C30078AC126401400E7867E69DFF18E69C785E
:1073D3006FF608A60778ACE6786726FFE41836FE52
:1073E300C3EF787096FFEE1896CF240AF50DE43FAD
:1073F300F50CD3E53A940CE5399400401CE53724A9
:107403000CFFE433FEC3EF953AEE95395005126451
:10741300EF8020AE0CAF0D801AE53A2434FFE4353B
:1074230039FEC3E5379FE49E50051264EF8004AE36
:107433000CAF0D8E398F3A7B407DBF7FA912DABA2C
:10744300785A12631CC004126313126431FFE4D030
:10745300001263254007E53725E0FB8002AB377D4B
:10746300807FAC12DABAAF3AAE3912E7C9E53833E6
:10747300333354F8FB7DF77F0712DABA12DF311288
:07748300EAC27F3802DE6659
:07EC77007875E6FF0273014E
:10AD99007F1012DE667868E6FE08E6FFC3787296D1
:10ADA900EE189650191264BDFE78AD126407400E74
:10ADB900ED786926FFEC18367871F608A6077871E0
:10ADC900E6FE08E678681264E4401578AD1264017D
:10ADD900400E7869E69DFF18E69C7871F608A6078B
:10ADE9007868E6FE08E6C3787296FFEE1896FE7854
:10ADF900ADE6C39FFFE49EFE12E01812DF317F200B
:10AE090012CFC97F1012CFC912EAC27F3802DE669B
:10C8C300EF540FFEC454F0F50CEDBF070C5407C42E
:10C8D3003354E04410F50D801D5407C454F0FFE5B4
:10C8E300275401C433333354804FFFEB5403FE25E5
:10C8F300E025E04FF50D126444C2067D027C007F03
:0BC903001712D785E4FD7F1702EB87B9
:10E769008F23129B6CE52390F8017005E054FDF0AE
:08E7790022E054FD4402F022ED
:109B6C00AD07D3ED648094FE40027D7EC3ED64802E
:109B7C00948E5009ED6480948040027D0EEDFF338D
:109B8C0095E0FEEF2401FFE43EA2E713EF1325E07E
:109B9C00F50C78AEE65470C4540F14600824FA50D7
:109BAC00222407704DED13AF0C7E007CFF500A7D14
:109BBC00C112644BE4F50E80397DC012644B750EF6
:109BCC0002802FED13AF0C7E007CFF50047DB8801B
:109BDC00027DB712644BEF75F002A47C00250CFFDC
:109BEC00EC35F0FEC3E49FFFE49EFE7D021245F3CC
:109BFC008F0E750F037510327511CE7D807F261276
:109C0C00EB87126444D2067D067C007F2712D78531
:079C1C007D407F2602EB876B
:02AB0D008F2493
:10AB0F00E4F525E52464027021F52512AB7775F085
:10AB1F0003E525900E5012634AD2067D337C001256
:10AB2F00AB86940540E57DDF8038E4F52512AB77E1
:10AB3F00E52475F004A47C002525FFEC35F0FE908C
:10AB4F000E2075F003EF12486FEE75F003A4258306
:10AB5F00F58312489DD2067D3312AB86940440CD07
:07AB6F007DDE7FE012EB87A1
:10AB760022AD257FE112EB87E4FD7FE212EB87220F
:0BAB86007FE312D7850525E525C322DB
:069D8E008B248A258926C2
:109D9400129E24532AFCAD2A7FE412EB877D037FB5
:109DA400E612EB87E4F52AAB24AA25A926129E34F1
:109DB4002526F526E43525F525052AE52AC3940943
:109DC40040E5129E24E52A54FC4401F52AFD7FE473
:109DD40012EB87E4FD7FE612EB87E4F52AAB27AAB2
:109DE40028A929129E342529F529E43528F52805C2
:109DF4002AE52AC3941440E57F2012CFC990F80FB6
:109E0400E0FF540764046006EF12641570047D2CAF
:109E140080027DAC7FE412EB877D807FE502EB87D7
:109E24007B007A00792AD2067D017FE412D2872250
:0C9E34001244F0FD7FE712EB877401225E
:10D892007B407DBF7F6012DABA7B807D7F7FE012A2
:10D8A200DABA7B807D7F7FE412DABA90F816E0FF65
:0BD8B20012DB8390F817E0FF02DBA9F7
:10D40B0012633DC003C002C0011264C612634A120C
:10D41B006513D001D002D003129D8EE4FB7DBF7F3C
:10D42B006012DABAE4FB7D7F7FE012DABAE4FB7DAF
:06D43B007F7FE402DABA73
:10B3C30012643864046011BF0514E05407FFBF041E
:10B3D3000D90F801E020E006126495F080061264F7
:10B3E300954408F090F80FE05418FF131313541FFB
:10B3F300700280361264116401703590F83BE0FCF2
:10B40300A3E0FDA3E0F52AA3E0F52BE4FBFAFFFE9E
:10B4130012B26890F83BE0FEA3E0FFA3E0FCA3E0D8
:10B42300FD12BF05126438BF040302D40B12D89275
:01B4330022F6
:10B268008E248F258C268D278A288B29E52745262D
:10B278006061E52B452A605B7B807D707F6012DA18
:10B28800BAE5245407F50CAD258D0DE5252527E5F0
:10B298002435265407F50EED2527F50FE528540724
:10B2A800F510AD298D11E529252BE528352A5407F8
:10B2B800F512ED252BF5137F2012CFC9126444D265
:10B2C800067D087C007F6112D785E4FB7D707F6076
:04B2D80012DABA22AA
:10BF05008C248D25AB07AA06E4F9F8FFFE7DC07CDD
:10BF15003F124751C006C007AE24AF25AB07AA069E
:10BF2500E4F9F8D007D00612641D8C0CE4FB7DFC07
:10BF35007FE412DABAE4FD7FE612EB87E50FFFE551
:10BF45000EFEE50D543FFDE4126420F50CFB7A006E
:0CBF5500790DD2067D03FC7FE702D78542
:10DB83008F24126411FFBF01037524807B867D708F
:10DB93007F6412DABAAF241263507F6512D785E42B
:06DBA300FD7F6402EB8728
:10DBA9008F24126411FFBF01037524807B897D7066
:10DBB9007F6412DABAAF241263507F6512D785E405
:06DBC900FD7F6402EB8702
:0484C2008D45A90734
:1084C600E9540F14603314605C1470030285581469
:1084D6007003028582240460030285B6E954F0FF26
:1084E600700590F8118074BF10030285A6E954F058
:1084F600642060030285B6800EE954F0FF70059093
:10850600F81A8057BF100A90F81AE0FF90F8118009
:108516003BE954F0642060030285B690F81AE0FF48
:1085260090F8138027E954F0FF700590F813802B1C
:10853600BF100A90F81AE0FF90F813800FE954F084
:108546006420706C90F81CE0FF90F813E02FC313C2
:10855600800AE954F0FF700990F81CE07A00FB806D
:108566004FBF100C90F81CE0C313FF90F813803A2D
:10857600E954F06420703912649C802EE954F0703E
:108586000C90F815E0C313FF90F81E801DE954F017
:10859600FFBF100512649C8011E954F0FFBF201044
:1085A60090F811E0C313FF90F81EE02FFBE433FAB6
:1085B600EB25E0FBEA33FAC3EB9410EA648094807F
:1085C600E545401D90E9A993FD7C00EB24F0FFEA08
:1085D60034FF1264FA7F0025E0FEEF2DFFEC3E80AB
:1085E6001A90E9B193FD7C00C374109BFFE49A12C4
:0F85F60064FA25E0FEC3E49DFFEE9CFE12648E46
:018605002252
:0A78DC008F378C388D398A3A8B3BC8
:1078E600127A32E4FD7FE212EB87E537540F700916
:1078F6007D03127A187D8C804BE537540FFFBF014C
:10790600097D05127A187D88803AE537540FFFBF46
:1079160003097D0B127A257DC88029E537540FFFB0
:10792600BF04097D0F127A257DCC8018E537540FE8
:10793600FFBF02157D087FE312EB87E4FD7FE312AC
:10794600EB877DCC7FE312EB87127A32E53754F072
:107956002403FD7FE212EB87754001AD40AF37127D
:1079660084C2E539253BFDE538353A12648AAC38E0
:10797600AD391263BFC3EB9FF542EA9EF541AD40B8
:10798600AF371284C2E53D253FFDE53C353E126426
:107996008AAC3CAD3D1263BFC3EB9FF544EA9EF54E
:1079A60043D3E542947FE541648094804008754165
:1079B6000075427F8013C3E5429480E5416480945C
:1079C6007F50067541FF754280D3E544947FE543B9
:1079D60064809480400875430075447F8013C3E536
:1079E600449480E5436480947F50067543FF754454
:1079F60080AD427FE312EB87AD447FE312EB870550
:107A060040E540C3940950030279617DDF7FE002BF
:027A1600EB87FC
:107A18007FE312EB87E4FD7FE312EB87227FE3121B
:107A2800EB87E4FD7FE312EB8722E537540FFD7FF8
:057A3800E112EB8722C2
:06BA7C008F258D828C83F2
:10BA8200E525C394085024C374089FFFE49400FE84
:10BA9200AC2AAD2B1263C78E338F34C3740895253D
:10BAA200FFE49400FEAC2CAD2D801512651AAC2E6D
:10BAB200AD2F1263C78E338F3412651AAC30AD319D
:10BAC2001263C78E358F36AD82AC838A3C8B3D853F
:0EBAD200353E85363FAB34AA33AF320278DC06
:104D66008F2412643864046011BF0514E05407FFF1
:104D7600BF040D90F801E020E006126495F080066D
:104D86001264954408F0E524703D90F810E0126432
:104D960061752F907530FF7531D0E4F5327BFE7A60
:104DA600017DFFFC124FDB126472125065753220D2
:104DB6007BFE7A01E4FDFC1250657532117BFE7AAA
:104DC60001E4FDFC024EFAE52464017059126363A6
:104DD6007532217B547A017DAC7CFE12BA7C90F848
:104DE60012E0FF752A00752B38752C00752D70752D
:104DF6002E00752F38126382753202E4FBFA7D02AB
:104E06007CFE12BA7C1263637532127B547A0112ED
:104E16004F207532227BAC7AFE124F207532237BEF
:104E2600AC7AFE024E71E5246403704690F819E0F0
:104E3600FF752A00752B70752CFF752DD012637CBB
:104E46007532017BFE7D017CFF124FB07532111267
:104E56004F4D7532217B547DAC7CFE124FB07532BE
:104E660020124F4D7532127B547A017DAC7CFE02C6
:104E76004F03E5246404703A90F81BE0FF752AFF9F
:104E8600752BC8752C00752D701263A47532037DC1
:104E9600017CFF125004753213124F7D7532237D4B
:104EA600FF7C00125004753222124F7D12647E027E
:104EB6004F03E52464027018126389753223126465
:104EC6008112503112BA7C12638912647E024F033A
:104ED600E5246405702A90F810E0C313FF90F81DCE
:104EE600E02F126461752FC8753000753170126439
:104EF60072125031124FDB75322412647512BA7C6D
:104F060090F801E030E00912641160047B808002B1
:104F1600E4FB7D7F7FE012DABA227DAC7CFE12BA1A
:104F26007C90F81BE0FF90F812E02FC313FF752A60
:104F3600FF752BC8752C00752D70752E00752F38D2
:104F46007530FF753190227BFE7A01E4FDFC12BAC2
:104F56007C90F812E0FF90F819E02FC313FF752A32
:104F660000752B38752C00752D70752EFF752FC8A2
:104F76007530FF753190227BAC7AFE7DAC7CFE12DB
:104F8600BA7C90F81BE01313543FFF90F814E02FFF
:104F9600FF752AFF752B90752C00752D30752E0028
:104FA600752F70753000753130227A0112BA7C90F7
:104FB600F819E0FF90F810E02FC313FF752A00756B
:104FC6002B70752CFF752DD0752EFF752F907530B3
:104FD600FF7531D02212BA7C90F810E0C313FF900F
:104FE600F81DE02FFF752A00752B38752CFF752DDF
:104FF60090752EFF752FC8753000753170227B02B3
:105006007AFE12BA7C90F81BE0FF90F812E02FC3EC
:1050160013FF752AFF752BC8752C00752D70752E1C
:1050260000752F387530FF7531902212BA7C90F8D2
:1050360014E0C313FF90F81DE02FFF752AFF752BB0
:10504600C8752CFF752D90752E00752F387530009C
:105056007531707532047B517AFF7DA67C01221270
:10506600BA7C90F819E0FF90F810E02FC313FF7593
:105076002A00752B70752CFF752DD0752EFF752F98
:08508600907530FF7531D02256
:109C23008F23E523C43354E0FF90F80FE0541F4F14
:109C3300F0E523B40403029CD6E5236405706B901E
:109C4300F801E030E022E4FF124D667F01124D6619
:109C53007F02124D667F03124D667F04124D667FAD
:109C630005124D667B808002E4FB7D7F7FE012DA84
:109C7300BA90F80FE05407FFBF04117D2C7FE41264
:109C8300EB8790F801E020E04D029CD612B3C3129B
:109C9300633DC003C002C0011264C612634A126569
:109CA30013D001D002D003029D8E90F80FE054E050
:109CB300C413126341C003C002C0011264C612631D
:109CC3004A126513D001D002D003129D8E1264385C
:079CD30012AB0D12B3C32216
:10652400785EE6FE08E6FF7873A60608A607786696
:10653400E6FE08E6FF786FA60608A6077868E6FE7A
:1065440008E67871FFA60608A607227864E6FE0826
:10655400E6FFE4FCFDFB7A0CF9F81246C6E47B0284
:10656400FAF9F8124751AB2AAA29A928A827C30285
:1065740047E3786CA905AA06AB07E6FE08E6FFE444
:1065840022E50C5407F526E50DF5277B007A007902
:106594000C22742A2FF582E434F8F5832278B2E6CB
:1065A4002401FF18E43678B9FEC3EF96FFEE18967F
:1065B40022742D2FF582E434F8F58322E6FC08E6F4
:1065C400FDEC540FFBE7C4F854F0C809E7C4540FBA
:1065D40048547022786AE6FE08E6FBAA06E4F9F855
:1065E40022E47B02FAF9F8124751A804A905AA0685
:1065F400AB0722E4F50FF510F511F512751301FB45
:106604007A00790CC2067D08FC7F76221246C6E425
:106614007BE87A03F9F8124751E47B127A02F9F81D
:10662400D30247E378B9E62402FF18E436FEEF54B8
:10663400FCFFEEF608EFF6E52922D3AB0FAA0EA96C
:106644000DA80C0247E3C3E5279525FFE52695240D
:10665400FE221896FCE52925E0FFE52833FEC3ED6C
:106664009FEC9E2212475178B8EEF608EFF6D394C9
:1066740002EE940022FCE6FA08E62FFFEE3AFED37F
:10668400EF9DEE9C22AB29AA2AA92B0244F07B00A1
:106694007A0079237D012278AEE65470C4540F2227
:1066A400FE7867C3EF96EE189622AB32AA31A93072
:1066B400A82FD30247E3C3E69FFF18E69E22AB2F21
:1066C400AA2EA92DA82C0247E37B007A007914C2D4
:1066D400067D0322EF26F618EE36F622E6FDD3EF0A
:1066E4009D7480F86E9822AB29AA2AA92B1244F033
:1066F400FF22E51454F075F010A4FF2274FFFFFE8E
:0A670400FDFC22785EE6FE08E622A6
:10A0F9007875E6F523E4FD7F7D12EB8712EAC27FCE
:10A10900FA7E0012E737127CF38F22E522703612AD
:10A1190053AA8F22E52270251260CE8F22E5226094
:10A129000464FE7013E522B4FE0312A186127CF3C7
:10A139008F22E5226018800D12A1868011126524F4
:10A1490012A190800312653212EC7712AD99E522C3
:10A159007006E522648060137858E6FF12D47712FE
:10A169009EF17858E6FF12D9E9800C12652412A1F4
:0CA179009012EC7712AD9912EAC2AF22EE
:10A18500227875A623AF231273012208E6FE08E69E
:05A19500FF1249182231
:10E8A5001268EA8F22E522700512C90E800312D084
:03E8B500F9AF2296
:01E8B800223D
:10A3710012EAC27D037F7A12E8E1BF03047F96806F
:10A38100027F328F447545197F017E0012E7371233
:10A39100658FD2067D017F0312D287E50C30E00C78
:10A3A100E4FD7F0312EB8775451980021545E545EC
:10A3B1006006E50C54C060037FFF2212EA6978C78A
:10A3C100E61350037FFF2212658FD2067D017F7D48
:10A3D10012D287E50C30E003D544AD12658FD20669
:10A3E1007D017F0212D287E4FD7F0212EB87E50C2B
:0EA3F10054637004E54470047FFF80027F0017
:01A3FF00223B
:02C9EF008F4473
:10C9F100754519E4FD7F0312EB877F017E0012E785
:10CA01003712658FD2067D017F0312D287530CC185
:10CA1100E50C30E010E544600CE4FD7F0312EB8788
:10CA21001544754519E544600C1545E5456006E575
:07CA31000C54C060C5AF0CFE
:01CA380022DB
:0291BD008F37EA
:1091BF007873E6F53A08E6F53BAE3AFFE4FCFDC0FE
:1091CF0004126576D0001246C6C006C0071265D8D5
:1091DF00D007D0061247518E388F397B507D0F7FC5
:1091EF001312DABAE53B2405F53BE4353AF53A7448
:1091FF00E0253BF53B74FF353AF53AE539241BFF83
:10920F00E435381266A4500280047E007F018E3848
:10921F008F39D3E5399420E5389400400CE5392493
:10922F00E0FFE53834FFFE80047E007F018E388F2B
:10923F00395337FCE53A540FFDE538C4F854F0C8FC
:10924F00E5391265D14DF50C85390D853B0E12654B
:10925F008FC2067D037C007F7012D78585370C8502
:10926F00370D85370E1265F712D78512A3718F0C44
:10927F00E50C6001221266CD7F8112D2871266F64D
:10928F00AEF0EF4515242078B9F6E43E18F6E51454
:10929F00540FFEE516242078B2F6E43E18F67F0050
:0192AF00229C
:027E47008F307A
:107E49007873E6F53308E6F534AE33FFE4FCFDC09C
:107E590004126576D0001246C6C006C0071265D85E
:107E6900D007D0061247518E318F327B507D0F7F5C
:107E79001312DABAE5342405F534E43533F53374ED
:107E8900E02534F53474FF3533F533E532241BFF2F
:107E9900E435311266A4500280047E007F018E31E0
:107EA9008F32D3E5329420E5319400400CE5322439
:107EB900E0FFE53134FFFE80047E007F018E318FC3
:107EC900325330FCE533540FFDE531C4F854F0C8A2
:107ED900E5321265D14DF50C85320D85340E786089
:107EE900E6FC08E6FD2402E43C540FF50F75100288
:107EF900AF05EF2402F51112658FC2067D067C00DD
:107F09007F7012D78585300C85300D85300E12654E
:107F1900F712D78512A3718F0CE50C600122126646
:107F2900CD7F7E12D2871266F6EF45152403FFE452
:107F390035F078B3F6FC08EFF6FDE514540FFEE5CD
:107F4900162403FFE43EFE08F608EFF6C39DFFEE94
:107F59009C78651265ACFE12E965D3EF9405EE6471
:107F690080948040037FFF2278B6E6184670037F2D
:107F79008022E514547FF50C85150D85160E1265C2
:0E7F89008FC2067D037C007F7312D7857F00B8
:017F970022C7
:06837B008F378D388B39AD
:10838100E4FD7F7D12EB87E5375403FB7DFC7F7AAB
:1083910012DABA785A12657EFCFDC004785E126565
:1083A10078D00012661040160538E53A25E0F53A16
:1083B100C3944040097B027DFD7FA812DABAE539FA
:1083C10014541F33333354F8FFE53854074FFD7FFE
:1083D1007B12EB87E53A543FFD7F7C12EB87AF3888
:1083E1007401A807088002C333D8FCF538E5398544
:1083F10038F0A4253AF537853A42E4F541F540F5E0
:108401003FF53EF5437D7B7F7D12EB877F0112C9EE
:10841100EF7D037F7A12E8E1BF03047F0380027FCF
:108421000112C9EFEF54C060051284B18047126593
:108431008FC2067D037F8412D287E4F50FAF41AE70
:1084410040AD3FAC3E12663E400F850F41850E4068
:10845100850D3F850C3E854243E5382542F542C3F3
:10846100953740AD1284B17F0112CFC912A3718F2C
:108471000CE50C600412670022785A12657EFCFD3F
:10848100C0041265F0785E12657ED000126610405D
:108491000BE54313AB3BAA3CA93D8008AB3BAA3C8F
:0F84A100A93DE543124558AF41AE40AD3FAC3E5B
:1084B00022E4FD7F7D12EB87E4FB7DFD7FA812DACD
:0284C000BA22DE
:10D8BD00EF5403FB7DFC7F7A12DABA7D3B7F7D123C
:10D8CD00EB8712A3718F0CE50C60012212658FC2DC
:0BD8DD00067D047F8412D2877F0022AA
:1053AA001267077873126548E654FCF6181256B16C
:1053BA007F40127E478F24E5246001227862E6FE50
:1053CA0008E67803C333CE33CED8F9FF7C007D0AD2
:1053DA0012459E785F1266BAC313F528EF13F529B2
:1053EA00E4F52AF52BF52675270A1256A76001223D
:1053FA001265A1FE78B1F608EFF67862E6FC08E6D7
:10540A00FDC3EF9DEE9C505DC3ED78B296FDEC12A4
:10541A00665640030254BAAF05AE04E4FCFDC0046C
:10542A001265F0787312657ED0001246C6C006C0B7
:10543A000778621265DAD007D0061266685003024E
:10544A0054EA126628785F26FDE528183678731222
:10545A00667940030254BA78B8E6FE08E678741210
:10546A0066D90254CFC379B2E7786396FD19E71279
:10547A0066564002803AAF05AE04E4FCFDC0041251
:10548A0065F0787312657ED0001246C6C006C00762
:10549A0078621265DAD007D0061266684042126650
:1054AA0028787426FDE5281836785E126679400851
:1054BA00752A00752B01800DC37874E679B997F6C1
:1054CA0018E61997F6E52B452A701578731256B126
:1054DA00E52715277002152614452660030253F4A2
:1054EA00E52745266008E52B6401452A70037F807D
:1054FA002278B1E6FE08E6FFC3786396EE18964076
:10550A00127974E7785F96FD19E71896FCED640442
:10551A004C601A78631266A75040C3795FE77874C3
:10552A0096FF19E71896FEEF64044E702D1267076E
:10553A00FF7873EEF6FE08EFF6FF1249181256A727
:10554A0060012278B2E62401FF18E436FEC3EF7840
:10555A00B99679B2F7EE189619F77873E6F52A082C
:10556A00E6F52BC37963E778B29619E718967E00B9
:10557A0040047F0480027F0278741266D8E6FE082F
:10558A00E6FF1249187D187F7912EB87852A26854E
:10559A002B27E4F52FF52EF52DF52CF52875290680
:1055AA007F501291BD8F24E5246001221265A1FE6D
:1055BA0078B1F608EFF67863E62402FD18E436FCC3
:1055CA00D3EF9DEE9C400BE4F50FF50EF50DF50CAF
:1055DA008028E4F53AF53B753C00753D257B087D4E
:1055EA00037F0312837B8F0F8E0E8D0D8C0C126737
:1055FA0000C312663F70037FFF22AF0FAE0EAD0DE0
:10560A00AC0CC31266C25015850F2F850E2E850D60
:10561A002D850C2C7873E6F52608E6F527E529454D
:10562A00287016126707FFD37874E69F18E69E4023
:10563A002AEEF6FE08EFF6801B74FE2529F529747A
:10564A00FF3528F528787474FE26F61874FF36F6A6
:10565A00E6FE08E6FF1249180255AAAF2FAE2EAD94
:10566A002DAC2CE47B03FAF9F81247518F2F8E2EBA
:10567A008D2D8C2C786212657EFCFD780A12480703
:10568A00D31266C24006AE26AF278004AE2AAF2BDD
:0C569A007873EEF608EFF61249187F0056
:1056A600227F501291BD8F24E52422E6FE08E6FFF4
:0456B600124918225B
:1060CE007F401291BD8F24E5246001227D801262F3
:1060DE00B770037FFF22E4FFFEFDFC12656A7003BA
:1060EE007F802212654F501F7D401262B770037F72
:1060FE00FF22E4FFFEFDFC12656A70037F80221210
:10610E00654F50037FFE22E52424F8543FF53A757F
:10611E003B00753C00753D247B087D017F03128397
:10612E007B8F2A8E298D288C2712670012656A7044
:10613E00037FFF22E4FFFEFDFC12656A70037F8081
:10614E0022E52424FD543FF525FF1273017F03122F
:10615E00D8BDEF60037FFF22850F2E850E2D850D96
:10616E002C850C2B1262EB60037FFF22850F32858C
:10617E000E31850D30850C2FE5242403543FF52474
:10618E00E4F52AF529F528F5271262EB60037FFF67
:10619E0022850F36850E35850D34850C33AF2EAE28
:1061AE002DAD2CAC2B1266AE4016E532952EFFE5CA
:1061BE0031952DFEE530952CFDE52F952BFC8015A8
:1061CE00C3E52E9532FFE52D9531FEE52C9530FD7C
:1061DE00E52B952FFC1265E5E5362532FFE53535C5
:1061EE0031FEE5343530FDE533352FFCEF252EFF3E
:1061FE00EE352DFEED352CFDEC352BFC1246B8C0E0
:10620E0004C005C006C007AF36AE35AD34AC331290
:10621E0066AE4016E5329536FFE5319535FEE53032
:10622E009534FDE52F9533FC8015C3E5369532FF89
:10623E00E5359531FEE5349530FDE533952FFC12AD
:10624E0065E5D007D006D005D0041246B88F0F8E64
:10625E000E8D0D8C0CAF2AAE29AD28AC2712663EE2
:10626E004013850F2A850E29850D28850C27E525D7
:10627E0014543FF52685322E85312D85302C852FF1
:10628E002B85363285353185343085332FE52565BE
:10629E002460030261977875A626AF261273017DDE
:0862AE00407F7912EB877F00AD
:1062B600227F7912EB87E4F53AF53B753C00753D94
:1062C600247B087D037F0312837B8F2A8E298D28EA
:1062D6008C2774FFFFFEFDFCAB2AAA29A928A82754
:1062E600C31247E322E52504543FF525FF12730147
:0762F6007F0312D8BDEF2267
:107CF3007F40127E47EF6001227F401291BDEF600B
:107D0300012212658FC2067D027F0D12D287126592
:107D130085C2067D017F1112D2877B007A00790D1F
:107D2300C2067D017F1312D287E50D5402F524E5C7
:107D33000CF52578B3E6FE08E6FFC39525F525EE99
:107D43009524F52478B61266BACF2401CF3400FE09
:107D53007864E6FC08E6FDC39FF529EC9EF528D37D
:107D6300E5299403E528648094804016EF9DFFEE97
:107D73009CFE12E9657C007D021245F38E288F2953
:107D83008005E4F528F52912664AC378721266BBAA
:107D9300FEC3EF786996FFEE1896CFC39529CF956A
:107DA30028FE12E96578AD1266E0501DC3E52795FC
:107DB30025CFE5269524CF2529CF3528FEC3787214
:107DC300E69FF618E69EF6800312654012AD9912FF
:107DD300658FC2067D027F0912D287126585C206AE
:107DE3007D027F1212D287E50D5401F524E50CF5CF
:107DF30025C378B9E69525FF18E69524CF24FEF52B
:107E030025EF34FFF52412664AEF787026FFEE184B
:107E130036FEC3EF786796FFEE1896FE12E9657893
:107E2300AC1266E0500A12664A78701266D8800E69
:107E33007866E6FE08E6FF786FA60608A60712EC4A
:037E4300777F0046
:017E46002219
:1068EA00D205E4F527742A25271265997480F07475
:1068FA002D25271265B87480F00527E527B403E52E
:10690A0012EC9A7F40127E478F23E5236001227F93
:10691A00401291BD8F23E5236001221266927F0205
:10692A00129AB0EF60037F8022E523C3946050037C
:10693A007F80221266927F01129AB0EF60037F80F5
:10694A0022E523C3946050037F8022126692E4FFFB
:10695A00129AB0EF60037F8022E523C3946050034C
:10696A007F802278B77605126AA77526022005036A
:10697A00026A937527307B007A007924AF2612B910
:10698A004B8F23E523B4800122E523644060737BA7
:10699A00007A007925AF2612A2D98F23E523B48085
:1069AA00012212669BFFBF060BE52664016005758E
:1069BA0023808003752302E524B4FA06E5256523BE
:1069CA006040E527D394084030E524D394FB50294E
:1069DA00E524C394F94022E5232401FFE433FED3DE
:1069EA00E5259FEE6480F8748098500DE52314FF26
:1069FA00E525C39F40037527081527E5276003028D
:106A0A006980742A2526126599E0D394F040267885
:106A1A00B7E6B40718E526B402057526018047E5EE
:106A2A0026B40105E4F526803DC2058039752602A3
:106A3A0078B7068031742A2526126599E0C3941E18
:106A4A00502C78B7E6B40418E526B4020575260179
:106A5A008014E526B40105E4F526800AC2058006FD
:106A6A0075260278B71678B7126AA7026977E526FB
:106A7A00B40206752601026977E526B40106E4F533
:106A8A0026026977C20502697790F82AE06008A3AE
:0C6A9A00E06004A3E070037F80227F0016
:106AA60022E6C45430F53B7BCFE4FD7FDC12CF8A6F
:086AB6007F017E0012E7372288
:109AB0008D2E8B2F8A308931BF0304AB078005C3FD
:109AC00074029FFB7DF87F7A12DABAE52E7030754A
:109AD0000C12750D80F50EF50F78B3E6FE08E6FF63
:109AE000D39409EE940040067E007F098008EF249D
:109AF000FFFFEE34FFFE8F10E51004F51180227891
:109B0000B179B81265C04BF50C78B9E6F50D8D0E3C
:109B100078B579B31265C04BF50F78B4E6F5108DC2
:109B20001112658FC2067D067C007F7012D785E515
:109B30002E5401C43354E04401FD7F7D12EB8712A3
:109B4000A3718F0CE50C600122AB2FAA30A931C2A2
:109B5000067D017F8712D287E52E700DAB2FAA30CC
:0C9B6000A9311244F0F41245587F002295
:08B94B008F288B298A2A892B21
:10B953007D01129AB0EF60037F80221266EBD394CD
:10B96300FA4020EF2406F52CE4FBAD2CAF2812CBD4
:10B973005BEF6037E4FB7D04AF2812CBA1EF602BB4
:10B983007F40221266EBC394FA5020C374FA9FF5EA
:10B993002C7B01FDAF2812CB5BEF600F7B017D0495
:0DB9A300AF2812CBA1EF60037F40227F0090
:01B9B0002274
:08A2D9008F288B298A2A892BAA
:10A2E10012669BFFBF060BE52864016005752D8092
:10A2F1008003752D02AB29AA2AA92BE4FDAF2812F0
:10A301009AB0EF60037F8022126689FFD3952D40BA
:10A3110016EF952DF52CD3940840047D088004AFE9
:10A321002CAD07E4FB8041126689FFC3952D503D9A
:10A33100C3E52D9FF52C12669B64067019E5286410
:10A34100016013E52CD3940840047D088004AF2CF0
:10A35100AD077B0180121266897009E52C2404FD8A
:0FA361007B0180047B01AD2CAF2812CBA17F00C4
:01A3700022CA
:10CB5B00E4F52DEB601A126596E0FEC39D742A4036
:10CB6B0009126598C3EE9DF08026126598E4801C2F
:10CB7B00126596E0FEC374FF9DC39E742A40081293
:10CB8B006598E02DF0800912659874FFF0752D0102
:05CB9B0012D867AF2D68
:01CBA0002272
:10CBA100E4F52EEB601A1265B5E0FEC39D742D40CD
:10CBB100091265B7C3EE9DF080261265B7E4801CAB
:10CBC1001265B5E0FEC374FF9DC39E742D4008122B
:10CBD10065B7E02DF080091265B774FFF0752E017D
:05CBE10012D69CAF2EEE
:01CBE600222C
:10B2DC00C0008004010F80800000000000003232AA
:10B2EC00000A3200000000028002008408080808EE
:10B2FC00080896800008080808080891828A878E3A
:10B30C008E7B808080808081808387817689816E2E
:10B31C0080808080808061606367615669614E8047
:10B32C008080808080808080808080808080808011
:10B33C0080808080FFFFFFFFFFFFFFFFFFFFFFFF0D
:04B34C00FFFFFFFF01
:1056BA0075F01390002712486FE40893FE74019363
:1056CA00A60608F622F0A3F0A3F0A3F07B017AF86D
:1056DA00799822E6FC08E6FDECA3F0AF05A3EFF00B
:1056EA0008E6FC08E6FDECA3F0AF05A3EFF008E638
:1056FA00FC08E6FDECA3F0AF05A3EFF022748C25BD
:10570A003DF582E434F8F583E07F0025E025E0FEEC
:10571A00EF22E52975F007A47B0124FFF974F73518
:10572A00F0FA7E00E92528F9EE3AFA1244F0FF74FD
:10573A00982528F582E434F8F5832275830012450A
:10574A0009FD748C2537F582E434F8F583E025E009
:10575A0025E022E0FDEEF6ED08F6A3E0FEA3E0FD6B
:10576A00EE08F6ED08F6A3E0FEA3E0FDEE08F6ED7E
:10577A0008F622AB28AA29A92A852E827583001247
:10578A004509FF90F881E0FD75F008A4252EF58201
:10579A00E435F0F583E5822290002775F01312486C
:1057AA006FE493FC740193FDEC22FA7879E675F0C4
:1057BA0003A4F58285F08302450975F008A4240044
:1057CA00F582E5F03EF583E58224F8F582E5833437
:1057DA003FF583E0547F2274922537F582E434F84A
:1057EA00F5832278AEE65470C4540FFF25E025E015
:1057FA00240DF582E434B3F583E49390F831F0EFA5
:10580A0025E025E0240EF582E434B3F583E49322FF
:10581A0078767C007D007AB279DC7BFF7E007F0699
:10582A000244CA7A002FFFEA3EFE74F82FF582740A
:10583A003F3EF583E0222F7A00FFEA3EFE74002FF6
:10584A00F58274403EF583EDF02278AEE65470C4DA
:10585A00540F2275F008A42400FFE5F022E536541F
:10586A000375F004A42537F582E435F0F583AB33EC
:10587A00AA34A935227486253DF582E434F8F583E5
:10588A002224FEF58274433EF58322E6A3F008E65D
:10589A00A3F008E6A3F022E0F6A3E008F6A3E008E6
:1058AA00F622F090F88202481A78007CF87D017B93
:1058BA00FF7AB279E87E007F1F2275F013900021EB
:1058CA00227F0790F89974FF22752B01752CF975C0
:1058DA002D007B017AF979802224FFF58274433EF8
:1058EA00F5832224FDF58274433EF5832224FCF5D8
:1058FA008274433EF5832224FBF58274433EF5838A
:10590A0022F582E434F8F58322FD74802EF582E4D0
:10591A0034F9F583EDF022AB38AA39A93A22E0FE30
:10592A00E53E5407FD7401A8050822E529241D90C7
:10593A00F898F0752801222400F582E583347BF576
:10594A0083E0222480F582E583347BF583E022E537
:10595A003E131313541F2290F89BF0A3EDF075F039
:10596A00132274002EF582E434F9F5832275F013BC
:0E597A0090002522AB2BAA2CA92D852E82226F
:10D8E800907FFFE0641260028005127F9840061264
:10D8F800AF9002947812DA9112E3F312BC6B12BD66
:0BD908008B12DBF512C4D112C32B22DE
:1094780078C6E6A2E150277858E6FFC39410501E3C
:10948800EF1313543FFF7B007A00790C12B5F47880
:1094980058E6540325E025E0240CF8E6F52312E805
:1094A800B912B10112D72912AF1512ECA012EBFBB9
:1094B80012D0F912EBCB12CBE712ECDA12E7E07814
:1094C800C6E6A2E150687858E6C394105060787BED
:1094D800E6C3940F4004E4F68003787B06785AE6E6
:1094E800F52408E6F52508E6F52608E6F527783296
:1094F8007C007D007B007A0079237E007F05124482
:10950800CA12CE89E4786EF6E5231259771256C04E
:10951800E5231256BAE5231258C41256C0E408F6D9
:10952800787BE6FF12D477787BE67858F62278C6FF
:10953800E6A2E1400B7858E6FF9446500312BFBDFF
:019548002200
:10D47700786EE6FEC433333354804F90F898F00843
:10D487001256DD08E6A3F078C6E6A2E14007125679
:10D49700D6E4FF800C78C6E6A2E150081256D67F84
:05D4A700031297A22210
:02BFBD008F28CB
:10BFBF0078C6E6FFA2E14005E4F5298008EFA2E18B
:10BFCF0050037529031256D6AD28AF2912B6625009
:10BFDF001A90F898E0C41313135401786EF6A3E087
:10BFEF00FEA30812575DA3E008F622E4786EF6E58B
:10BFFF00281259771256C0E5281256BAE52812585A
:07C00F00C41256C0E408F65C
:01C016002207
:10B10100E4F5281256D6AD28E4FF12B6625032900B
:10B11100F898E528F09000251257A590F899F0A32A
:10B12100EDF0E5281257A2125961E528900021128D
:10B1310057A890F89DF0A3EDF0E41256D4FF1297B2
:10B14100A20528E528C3944640B9E4F5281256D64D
:10B15100AD287F0312B662501590F898E528F012D9
:10B1610058CBF0A3DFFC1256D67F031297A2052815
:07B17100E528C3941040D64D
:01B1780022B4
:10CE8900E535540FFEE4C4F8540FC868FFEEC454E6
:10CE9900F048FEE533540F4EF533EF4534F5347859
:10CEA9007BE690F898F0A3E532F0E533A3F0A3E52B
:10CEB90034F0A3E536F0A374FF1256D17F0202972E
:01CEC900A2C6
:08B5F4008F328B338A34893554
:10B5FC00E53225E025E0F536E53275F004A42404A7
:10B60C00FFE435F0FEC3E5369FEE6480F874809855
:10B61C0050431256D6AD367F0212B6625020E4F576
:10B62C003774992537F582E434F8F583E0FF125826
:10B63C0067EF12456A0537E537B404E58012E4F587
:10B64C003712586774FF12456A0537E537B404F1B1
:05B65C00053602B604F2
:01B6610022C6
:10D72900E4F5281256D6AD287F0212B6625015903C
:10D73900F898E528F01258CBF0A3DFFC1256D67FF3
:0DD74900021297A20528E528C3941040D6CF
:01D7560022B0
:10D9E90078C6E6FEA2E140057524018008EEA2E1B1
:10D9F900500375240490F898EFF0787C1256DDA353
:0ADA090074FF1256D5AF240297A255
:02C42A008F245D
:10C42C0078C6E6FFA2E140057525018008EFA2E180
:10C43C0050037525041256D6AD24AF2512B66250A2
:10C44C000C90F899E0FEA3787C12575D2275F013DE
:10C45C00E52490002512486FE4787C1256C575F0DF
:10C46C0013E5241256BD75F013E5249000211256E5
:01C47C00C0FF
:01C47D00229C
:10AF1500E4F5281256D6AD287F0112B66250359059
:10AF2500F898E528F01259771257A890F899F0A3E8
:10AF3500EDF0E5281257A2125961E528900021127B
:10AF450057A890F89DF0A3EDF0A374FF1256D57F96
:10AF5500011297A20528E528C3944640B6E4F528D2
:10AF65001256D6AD287F0412B662501590F898E5B2
:10AF750028F01258CBF0A3DFFC1256D67F041297A7
:0AAF8500A20528E528C3941040D669
:01AF8F00229F
:10E64D0090F8987401F0787612589508125895A3A1
:0AE65D0074FF1256D57F050297A244
:10E3F3001256D67D017F0512B662500E90F89978B9
:0EE40300761258A1A3081258A12212581A220C
:06ECA00012581A02E64DB5
:10C79300E4F529F52912593512571CEFF00528E560
:10C7A30028B408F41256D67F051297A20529E52965
:10C7B300C3940440E012593512571CEFF00528E5E5
:10C7C30028B403F475280312573974FFF00528E5DC
:0CC7D30028B408F31256D67F050297A286
:10BC6B00E4F522E522241DFD1256D67F0512B6629D
:10BC7B00503E752301E522B404047F0380027F0844
:10BC8B00E523C39F50307498252312573DE0FDE503
:10BC9B002275F007A47B0124FFF974F735F0FA7EC7
:10BCAB0000E92523F9EE3AFAED124558052380C534
:0FBCBB001258B30244CA0522E522C3940540A4DF
:01BCCA002257
:09EBFB001258B31244CA02C79378
:10C90E0012585470047F0280027F0390F898EFF063
:10C91E0090F82AE090F899F090F82BE090F89AF0C1
:10C92E0090F82CE090F89BF090F82DE090F89CF0A9
:10C93E0090F82EE090F89DF090F82FE090F89EF091
:0BC94E0078B7E61256D47F050297A2CE
:10BD8B0012585470047D0280027D031256D67F0533
:10BD9B0012B662503890F899E090F82AF090F89A21
:10BDAB00E090F82BF090F89BE090F82CF090F89C3A
:10BDBB00E090F82DF090F89DE090F82EF090F89E22
:10BDCB00E090F82FF090F89FE078B7F622782A7C75
:0FBDDB00F87D017AB3790712582478B7760522DC
:10D0F900125854F528782A7CF87D017BFF7AB37998
:10D109000712582678B7760578AEE6548FF612C915
:10D119000E78AEE6548F4460F612C90EE528C45461
:09D12900F0FF78AEE6548F4FF6DA
:01D1320022DA
:10DBCF00125854240490F898F090F831E090F89996
:10DBDF00F090F832E090F89AF0A374FFF0A3125689
:06DBEF00CF7F050297A2A2
:10DBF5001258542404FD1256D67F0512B662500EF3
:10DC050090F899E090F831F090F89AE08003125777
:06DC1500ED90F832F02250
:0AEBCB001257ED90F832F002DBCF94
:10D3670012585475F005A4FF7879E6540F24092F55
:10D3770090F898F090F835E090F899F090F836E04A
:10D3870090F89AF090F837E090F89BF0A374FF12AA
:07D3970056CF7F050297A2AB
:10C4D1007879E6540F2409FD1256D67F0512B6620B
:10C4E100501690F899E090F835F090F89AE090F8AD
:10C4F10036F090F89BE080257BFF7AB37913787949
:10C50100E6FF1257B890F835F07AB30975F003EFEA
:10C511001257BB90F836F07AB3091257B590F83735
:02C52100F02206
:10CBE70012585475F00FA4FFAEF02413F974B33E36
:10CBF700FA7BFF1257B590F835F074142FF974B318
:10CC07003E1257B490F836F078AEE65470FFC4542D
:10CC17000F75F00FA42415F974B335F01257B490BB
:06CC2700F837F002D367AC
:10C32B0090F881E07002802590F881E0FF541F6047
:10C33B003EEFC3942050197420F0752BFF752C829F
:10C34B00752DC57BFF7A82794512A51CE4FF8021F0
:10C35B0090F881E0C4135407C43354E0F07F01120A
:10C36B00C01790F881E02420F01258D302A51C7F4F
:05C37B000112C01722B1
:10C0170090FF207406F0EF701AFEEE90824593129F
:10C027005913EE9082C593FD12596CEDF00EBE8048
:10C03700E9802FEF6401702AFE90F881E0FF75F028
:10C0470008A42E12579812594112591375F008EF88
:10C05700A42E12579812594DFF12596CEFF00EBECD
:08C0670080D790FF207407F060
:01C06F0022AE
:03ECDA0002C32B47
:06A51C008B288A29892A20
:10A52200E4F52E12577D1259416F701D12597EF5B6
:10A5320083124509FF75F008ED12579512594DB572
:10A542000707052EE52EB480DAE52EC39480505617
:10A5520090F881E0C3946040107F1F12E53C907F29
:10A56200FF7412F0E490F881F0E4F52E12577D2486
:10A5720000F582E583347CF583EFF012597E758312
:10A5820000124509FF75F008ED1257952480F582F7
:10A59200E583347CF583EFF0052EE52EB480CD9073
:06A5A200F881E02420F026
:01A5A8002290
:06ECA6001258D302A51C68
:10AF90007F1F12E53C400122752210AF2212E53CD2
:10AFA0004001220522E522C3941640EFE4F522E594
:10AFB000221257131258E3E522F0EF12588BE4F0F7
:10AFC0001258EDE4F01258F7E4F0125901E522F0BE
:10AFD0002486125883E522F0248C12590BE522F0C6
:10AFE00024921257E5E4F00522E522B406C1907FD1
:10AFF000FF7412F090F8807406F090F88212483EC8
:0AB0000000000000E490F881F0D396
:01B00A002223
:10E53C00EF33333354F8440190FF39F07BFF7AEB1F
:0CE54C00799F7F2812E44D400122D32269
:107F9800E4F527F526F525F524F52890F88212480A
:107FA8003E00000000E4F52274862522125883E57D
:107FB80022F00522E522B406EFE4F523E4F522E5F4
:107FC800221257131258E3E0FD74862523125883B2
:107FD800E0FFED6F6003028099E522FB1257131250
:107FE80058EDE0FCEF1258F7E06CFCEB1257151255
:107FF800588BE06CFFED6FFDE52212571312590103
:10800800E06D6003028099748C252312590BE522D8
:10801800F0FF12DCD8749225231257E5EFF0E52221
:108028007D0025E025E0FCED24FDF58274433CF558
:1080380083E07B00FAED24FCF58274433CF583E091
:108048007E007810C333CE33CED8F9FFEE4AFCEF6A
:108058004BFDE52212571312588BE0FFECFEED4F53
:10806800FFE48F278E26F525F5241258ADAB27AAF5
:1080780026A925A824D31247E34029AF27AE26AD69
:1080880025AC2490F88212483290F880E522F080DE
:1080980013E522B40E02C3220522E522C3940F5031
:1080A80003027FC70523E523C394065003027FC458
:1080B8007F0F12DCD890F881EFF0E4FFFEFDFCA3FF
:1080C800124826C31247E390F88070057406F080C2
:0C80D8000AE0FF12D57990F880EFF0D399
:0180E4002279
:02DCD800A9079A
:10DCDA007D7FE4FCE925E025E0FAED12585D3AFE85
:10DCEA00EC12582DF46003AF05220CBC08E6DDE205
:02DCFA007F00A9
:01DCFC002205
:10D57900E4FEBF0E03FF80010FEEFD3395E0FC745E
:10D589008C2DF58274F83CF583E0B5070ABF0E04CB
:10D59900E4FF80010F7EFF0EC3EE6480948640D9BC
:01D5A900225F
:10E8B900E490F898F01258CBF0A3DFFC1256D67FFB
:04E8C900050297A20B
:10E7E000E490F898F07F0790F899E4F0A3DFFC122A
:07E7F00056D67F050297A237
:10DA91001256D6E4FD7F0512B66250197522017443
:10DAA10098252212573DE06002800A0522E522C333
:08DAB100940840EB2212947866
:01DAB900224A
:0897A2008F378B388A39893AB0
:1097AA00D20674922F1257E5E004F53BE53BD394B9
:1097BA0000404912574CFEE53B1257C4FF1259218B
:1097CA001244F0547F6F7028F53C125921853C826F
:1097DA00125745FAE53B12585D3AFEE53C12582D00
:1097EA006D6004C2068015053CE53CB408DC800CBB
:1097FA00E53BB40102C206153B0297B620065D128C
:10980A0057E1E0B47F05AF37026FDC753B011259AF
:10981A0021853B82125745FA1257E1E012585D3A08
:10982A00FEE53B125840053BE53BB408E1125921DD
:10983A001244F012574BFE1257E1E075F008A424C7
:10984A0000F582E5F03EF583E5822400F582E583A2
:0C985A003440F583EDF01257E1E004F01B
:0198660022DF
:0AB662008F388D398B3A8A3B893C02
:10B66C0074922F1257E5E004F53DE53DD39400406C
:10B67C0050748C2538125750FEE53D1257C465396D
:10B68C007033F53E748C2538125750FCE53D12583A
:10B69C005D3CFE7C00EF253EFFEC125832AB3AAA23
:10B6AC003BA93C853E8275830012456A053EE53E0A
:10B6BC00B408D1800CE53DB40102C322153D02B69D
:02B6CC0076D333
:01B6CE002259
:026FDC008F3DE7
:106FDE00754001748C2F12590BE0F54190F880E04A
:106FEE002410FF12E53C400122E4F974982912574F
:106FFE003DE0FD90F880E025E025E0FEE92400125A
:10700E00584109B908E590F898E0547FF53EE4F54B
:10701E003F7498253F12573DE4F0053FE53FB40815
:10702E00F0125959FF249812573D1259288002C365
:10703E0033D8FC4EFE74982F12573DEEF090F88028
:10704E00E0FF748C253D12590BEFF012D57990F8B4
:10705E0080EF1258ACEF2401FFE43EFEE43DFDE468
:10706E003CFC90F882124832797FE54125E025E01C
:10707E00FE75F008E91257C7F53E647F7003027182
:10708E000C125959249812573DE0FD7C00E53E54F0
:10709E0007FF74017E00A807088005C333CE33CEE8
:1070AE00D8F9FFEE5CFEEF5D4E7053F53FE54125DE
:1070BE00E025E0FCE912585D3CFE7C00EF253FFF29
:1070CE00EC125832FD748C253D125750FAE54012E1
:1070DE00585D3AFEE53F125840053FE53FB408CDF6
:1070EE00125959FF249812573D1259288002C33362
:1070FE00D8FC4EFE74982F12573DEEF0054019E95C
:10710E0060030270787492253D1257E5E5401258DF
:10711E00AC78101247F4AB071257071258F7EB1260
:10712E0058AC78081247F4AA071257071258EDEA1E
:10713E001258ACAD0712570712588BEDF012587F4C
:10714E00E0FC1257071258E3ECF0EB6A6DFF125891
:10715E007FE06FFD125707125901EDF0E541241043
:08716E00FF12E53C400122D3B1
:0171760022F6
:10961600AE3AAF3B7C007D021245F3EF2BF53BEEF5
:109626003AF53AAB2BAA2CA92D0246291246C6E4D6
:109636007B02FAF9F81246C6AB31AA30A92FA82E3A
:1096460012CCFB8E3A8F3BD3E53B9400E53A64801F
:1096560094802290F839E0FEA3E0FBAA06E4F9F82C
:10966600AE36AF3722AB35AA34A933A832AF31AE06
:1096760030AD2FAC2E1246B8A80422A804A905AA1C
:1096860006AB07E0FEA3E0FFE4FCFD22AEF0FBE440
:10969600C39BFF74809EFEE49400FDE49400FC22CC
:1096A6007A00790C7B00D2067D0122E53B5401FF4E
:1096B600C3E49FFFE49400FAAB072290F839E0FC7C
:1096C600A3E0FDEC22AB05AA04E4F9F8E53722ABEA
:0696D6002BAA2CA92D2295
:10DA13007876E633501C78AEE6A2E250151296A64D
:10DA23007F0212D287E50C54037007E50C20E7024E
:0ADA3300C32278AEE654F7F6D322C2
:066C82008B2B8A2C892DEA
:106C8800E4FD7F1F12EB877D807F4412EB8712960D
:106C980029FFAEF012CD3F5002C322126E14F53612
:106CA800E50DF537E4FD7F4412EB87129629FFAE18
:106CB800F012CD3F5002C322126E14F538E50DF5DF
:106CC80039129659FCFD1246C6A804A905AA06ABB6
:106CD80007AE38AF39E4FCFD1246AB8F318E308DEC
:106CE8002F8C2ED3E539944CE5389404402B12961A
:106CF800C113FEED13FFE53924B4FBE53834FBFA84
:106D0800D3EB9FEA9E400D1296CB2401FFE4353663
:106D1800FEE48031129659802C1296C1C313FEED01
:106D280013FFC3744C9539FB74049538FAD3EB9F61
:106D3800EA9E400E1296CB24FFFFE53634FFFEE4B0
:106D48008003129659FCFD1246C6EF244CFFEE3420
:106D580004FEE43DFDE43C8F358E348D33F532126C
:106D6800966BC005C006C007129629129692D003EA
:106D7800D002D0011296324009E53B54017A00FB5B
:106D880080031296B1129616126E285002C322E59D
:106D98000C606990F83930E114129689E5352FFFB7
:106DA800E5343EFEED3533FDEC35328017E0FEA3C9
:106DB800E0FBC3E5359BFFE5349EFEE5339400FD1B
:106DC800E53294008F358E348D33F53212966BC0D0
:106DD80005C006C007129629129692D003D002D099
:106DE800011296324009E53B54017A00FB800312F8
:106DF80096B1129616126E285002C322AB2BAA2CFB
:0B6E0800A92DE53A853BF012468CD323
:106E1300227B007A00790CC2067D027F4412D2875E
:106E2300E50C540F22AEF0253BF53BEE353AF53A2F
:076E3300AF3BFE12CD3F2230
:10BCCB008B2B8A2C892DE4FF12E851900A21E493E7
:10BCDB00FF1296D5E48FF01246541296D5124629D0
:10BCEB00FFAEF012CD3F50037F0222E50C602E1207
:10BCFB0096D530E10D12462924FFFFE5F034FFFE07
:10BD0B00800A1246292401FFE435F0FE12CD3F5084
:10BD1B00037F0222E50C540360037F01227F002284
:108BC300E4F52EF52DF52CF52BFB7DFC7F4712DA12
:108BD300BA7B107DEF7F5012DABA12EBE97BFF7A92
:108BE300E979CA7F3C12E44D4003028CB67B407D99
:108BF300BF7F5212DABAE4FD7F5912EB87E4F50C1A
:108C0300FB7A00790DD2067D037F5912D287850F37
:108C13002E850E2D850D2C850C2BE4FB7D5F7F525D
:108C230012DABA7A0079331296AA7FAE12D2870586
:108C33003305337B007A007934D2067D017FAF128E
:108C4300D287E5345430C4540FFF7401A807088059
:108C530002C333D8FCF534FFE4FCFDFEFBFA7908CC
:108C6300F81246C690F8391296811246C6AB2EAA60
:108C73002DA92CA82B12475190F83D12968112462C
:108C8300C6C007AF33AB07E4FAF9F8D00712475170
:108C93008F328E318D308C2FC3E49532FF748095E3
:108CA30031FEE49530FDE4952F8F328E318D30F512
:108CB3002F800BE47532FF7531FFF530F52FE4FBA0
:0B8CC3007DEF7F5012DABAAE31AF3205
:018CCE002283
:10CD3F008E3C8F3DE4FB7DFE7F4712DABA12EBE9A2
:10CD4F00AF3DAE3C12E038E4FD7F0212EB877F0867
:10CD5F0012CFC97F0812CFC912AA02500122129610
:10CD6F00A67F0212D287E50C54606002D322530CC7
:03CD7F0003C322C9
:10717700E4F528FB7A00790CC2067D027FB512D2AE
:1071870087E50C540FF523E50DF524E4FB7DFD7F22
:10719700BB12DABAE4FF12E851128BC38E258F2691
:1071A70012CD3F50037F0222E50C7053432801E5BF
:1071B700262418FFE43525FE12CD3F50037F022217
:1071C700E50C7003432802E52624E8FFE52534FF94
:1071D700FE12CD3F50037F0222E50C7003432804C3
:1071E700E528B40309740C2526F526E4800DE52867
:1071F700B4050C74F42526F52674FF3525F525E529
:107207002860030272DAAF24AE2312E038E4F528CF
:10721700752718AF24AE2312CD3F50037F0222E516
:107227000C603CE50C30E11AE5287E0030E0047F75
:107237000C80027F18C3E5249FF524E5239EF523E0
:107247008017E5287E0030E1047F0C80027F18EF6D
:107257002524F524EE3523F523850C28D527B4E519
:107267002770037F0122E528701CE5242418FFE41A
:107277003523FE12CD3F50037F0222E50C6003FF4A
:0F72870080027F018F2885232585242675270403
:10729600E52830E00BE526240CFFE43525FE800AC0
:1072A600E52624F4FFE52534FFFE8E298F2A12CD2C
:1072B6003F50037F0222E50C7009852925852A2681
:1072C600D527CDE5242526FFE5233525C313F5254A
:1072D600EF13F5267B007A007925126C8240037F36
:1072E60002227B007A00792512BCCB8F28E5286024
:0A72F600012278AEE64408F67F009E
:01730000226A
:10E8CD0012E5AB7827E475F001024884D29012E886
:04E8DD00F5C29022CE
:10E8F5000000000000000000000000000000000013
:03E90500000022ED
:10E86600D29012E8F53090FDD291C29112E8F5C22D
:05E876009012DC1B22E2
:0AEBD500C291D29012E8F5D291220D
:10E97700D291D29012E8F5A291E433FFC290D291DE
:01E98700226D
:06ECAC00C29112E8D9221A
:06ECB200D29112E8D92204
:10DC1B00E4FEEF335004D2918002C29112E8D9EFA7
:10DC2B0025E0FF0EBE08EB12E977EF600612EBD58D
:05DC3B007F00227F01C3
:01DC400022C1
:10E5AB00E4FFD291FED29012E8F5EF25E0FFA291A5
:0AE5BB00E4334FFFC2900EBE08EBE0
:01E5C5002233
:02DD6C008D2AFE
:10DD6E00752BFF8F2CAF2C12E866EF64016005D582
:10DD7E002BF3C322AF2A12DC1BEF64016002C32215
:01DD8E00D3C1
:01DD8F002271
:06C612008F238A258B2610
:10C61800E52645257002C322AF2312DD6C400122B6
:10C62800E5234401FF12E866EF64016002C322E5D6
:10C6380026152670021525144525600C12E8CDEF45
:10C6480012455812ECAC80E712E8CDEF12455812AB
:06C65800ECB212EBD5D399
:01C65E0022B9
:08AE97008F238D248A258B26F0
:10AE9F00E52645257002C322D3E5269400E52594C7
:10AEAF00004061AD24AF2312DD6C400122E5245434
:10AEBF000FFFC374109FFDFF7E00D3E5269FE5258E
:10AECF009E401CE5269FF526E5259EF525E524C326
:10AEDF0094F0400405230523ED2524F5248007ADC8
:10AEEF0026E4F525F526AF051DEF6013782712E848
:10AEFF00D21244F0FF12DC1BEF640160E9C322128F
:05AF0F00EBD58094D396
:01AF1400221A
:03000B0002B73BFE
:10B73B00C0E0C0F0C083C082C0D075D000C000C0D4
:10B74B0001C002C003C004C005C006C007D28C757F
:10B75B008A21758CF8D20A78A7E6FE08E6FFF4700A
:10B76B0002EEF4600AEF4E6006E61618700116E55D
:10B77B005760041557800920090612DDD875570A42
:10B78B00D007D006D005D004D003D002D001D00012
:0BB79B00D0D0D082D083D0F0D0E032BC
:07EC7E00C10000FD54FEFF80
:10AC2A00019B1E01A60F02A401D201A100019E00F0
:10AC3A0001A000019F00019D0001A20001A30001E3
:05AC4A009C0001560012
:1080E5007864E6FA08E6FBFF7C007D64AE02124583
:1080F5009E7C007D0A12459EED243022FFC3ED9F34
:10810500FFEC9ECF24FCAD26CF34FFFE7C0012454C
:108115008CE4FD7B64FAF9F8024751E524FD7C0007
:10812500FFC3E5239FFFE5229400FAA9077BFFD251
:10813500067F9222908347E493FE74019390834BCC
:10814500FFC37401939FFFE4939EFEEF780222F52F
:108155000D7B007A00790CC2067D027C007F90229F
:10816500E50C24FDFDE434FFFC7B007A00790FD299
:10817500067F92227C007D0AE6FE08E6FF02459E08
:10818500E4F52485238285228322FE7C007D64120A
:10819500458CAD03AC0202459EC207D2087F9222F0
:1081A500E47B0AFAF9F8AF25AE24AD23AC220247E9
:1081B500517B007A00790CD20622AB2DAA2EA92F6D
:1081C5001244F025E025E02278ACE6C39FFFE49E4B
:1081D500FE22EF2402FFE43EFEE43DFDE43CFCE428
:1081E5007B02222430F52FEF75F00A84E5F022C2D8
:1081F50007C2087F90227C007D0AAF03229083533B
:10820500E493FE740193227864E6FE08E6FF22FB00
:108215007A00790CC206222523F523E43522F522BE
:0B82250022EF25E0FBEE33FAC3E62257
:10B9B100789BEFF678A6A6052401F523E433F5225A
:10B9C10078A4A60208A6031281F412E8907FC0129F
:10B9D100D5DB7F0412D5DB12000312819E12E890A1
:10B9E100AF23E52312D5DBE522C4F854F0C8E523E3
:10B9F100C4540F4854F0FF78A5E6540F4FFF12D5F9
:10BA0100DB79A4E7C4F854F0C809E7C4540F48FF30
:06BA110012D5DB02000368
:10C2D5008E248F258C268D278B281281F412E890C9
:10C2E500E524540F4528FF12D5DBAF25E52512D5EA
:10C2F500DB120003E528B4D00FAE26AF277C007D06
:10C305000312458C8E268F2712819E12E890E52711
:10C315004526600FAF2912D5DBE527152770EF15E8
:06C325002680EB0200037C
:10D1DF008F228D23EFFD7C007529807B10E4FFFEED
:10D1EF0012C2D5E4FF12E9BAE522FD7C0075298849
:10D1FF007B50E4FFFE12C2D5E522FD7C008523297A
:08D20F007B90E4FFFE02C2D592
:04CD82008B33AC073C
:10CD860078A6E6FFED8FF0A4FF789BE62401FBE48E
:10CD960033CB2FFFEB35F0FEAD047C00EF2DF535E0
:10CDA600EC3EF5341281F412E890E534540F453325
:0ECDB600FF12D5DBAF35E53512D5DB020003E9
:10E9BA008F2E12819E12E890AF2E12D5DB02000331
:10DCFD008E268F2712819E12E89085278285268396
:10DD0D00E493FF600D12D5DB0527E52770EC0526A2
:05DD1D0080E802000394
:08D6CB008E228F238D248B2594
:10D6D30012EA5AEFC313FEC395244005E4F52480F0
:10D6E30006C3E5249EF5247B50AD25AF2412CD82DD
:07D6F300AF23AE2202DCFDB3
:08D757008E228F238D248B2507
:10D75F0012EA5AEFC313C395244005E4F52480065B
:10D76F00C3E5249FF5247B50AD25AF2412CD82AFA6
:06D77F0023AE2202DCFDD6
:04C38000AB07AA0657
:10C384007C277D1012459EEF2430F5227C037DE846
:10C39400AF031280F1F523AF031280EDF52412816F
:10C3A400FB1280F1F525AE02AF031280F6F52612DA
:10C3B400819E12E890AF2212D5DBAF2312D5DBAFFA
:10C3C4002412D5DBAF2512D5DBAF2612D5DB020054
:01C3D4000365
:10C52300EF75F06484FED394004012EE2430F52EB0
:10C53300EF75F00A841281ED1281E88019EF75F02E
:10C543000A84FED39400E44008F52EEE1281E880BD
:10C5530005F52EF52FEF2430F53012819E12E89069
:10C56300AF2E12D5DBAF2F12D5DBAF3012D5DB02E6
:02C573000003C3
:10D04600EF540FFEC3940AEE50062430F5238004F5
:10D056002437F523EFC4540FFEC3940AEE5006247A
:10D0660030F52280042437F52212819E12E890AF13
:0CD076002212D5DBAF2312D5DB02000331
:10E66700750C81EF25E025E02403F50DE4F50E1286
:0AE6770082147D03FC7F9002D7851A
:107A3D008E228F238C248D258B26E526D3946440AE
:107A4D0003752632E527D394644003752732E52864
:107A5D0030E75C128139CEC313CE13D8F9FDAC06D5
:107A6D00E522C313FEE523131281011281D7128182
:107A7D001A8E228F23128202908357128145CEC314
:107A8D0013CE13D8F9FDAC06E524C313FEE525137B
:107A9D00FFC3ED9FFFEC9ECF24FDAD2712810D128C
:107AAD0081D712811A8E248F2543287F027B2012C5
:107ABD008139CEC313CE13D8F9FDAC06E523AE2222
:107ACD007802CEC313CE13D8F9128101EF2406F537
:107ADD0023E43EF522128202FFC3908357128147A1
:107AED00CEC313CE13D8F9FDAC06E525AE2478022E
:107AFD00CEC313CE13D8F9FFC3ED9FFFEC9ECF2459
:107B0D00FACF34FFFEAD27128111EF2404F525E4E1
:107B1D003EF5247B027DF87F9312DABA7D017F6CEE
:107B2D0012E8E18F0CE50C70047FC080027FE08FBE
:107B3D000CE4F50D1282147D02FC7F9012D785E5C1
:107B4D0024C313E52513F50CE523AE227802CEC32D
:107B5D0013CE13D8F9F50DE5235403C4333354C0B4
:107B6D00FFE5255401FEC43354E04F4528F50E12B0
:107B7D0081B67D037C007F9212D7857F2012CFC9FD
:0E7B8D007F2012CFC97B057DF87F9302DABA04
:10D60C008B30AE05AD07AF06AB3212CD82E532B42E
:10D61C00D008E53075F003A4F53012819E12E89025
:10D62C00E5306009AF3112D5DB153080F302000311
:10E358008F258D268B27E5266014852931852A325D
:0FE36800AB28AD27AF2512D60C0525D526EC2204
:10A04F0078627C037DE812817DEF4E6005750F31DC
:10A05F008003E4F50F78621280E7F5101281FB128E
:10A06F0080F1F5117862E6FE08E6FFBE051ABF56CD
:10A07F00177865E6B4001118E6B4030C7C007D0A6E
:10A08F0012459EED24FA80067862128179ED243014
:10A09F00F51275132075145875152012820C7C0358
:10A0AF007DE812459EEF4E60207516311280E5F562
:10A0BF00171281FB1280F1F51812820C1280F6F53F
:10A0CF0019E4F51A750C0E801B1280E5F516128136
:10A0DF00FB1280F1F51712820C1280F6F518E4F5D9
:0AA0EF0019750C0D12816502D7856A
:10D39E00785C128179EF75F00A8475F00A8485F055
:10D3AE0018EF75F00A8485F017750C07E518243010
:10D3BE00F50FE5172430F51075114875125AE4F57E
:07D3CE001312816502D785EF
:10A8F4007858E675F01390001B12486F128205FF1A
:10A90400E48F258E24F523F5227B64FAF9F812816D
:10A91400AFE47B0A12811AAF038F191281A5E47B7D
:10A924000A12811AAF038F181281A5AF038F17E59E
:10A9340019C3940A4011E51975F00A8404F51A74D0
:10A94400F62519F5198003E4F51A750C0B851A0F11
:10A95400E5192430F510E5182430F51175122EE5AB
:10A96400172430F51375144B75154875165AE4F50C
:07A974001712816502D7856F
:0490C9008E228F2341
:1090CD00AA06A9077BFF12815C12D7850291631254
:1090DD008188E49364FC704C12812012D785128133
:1090ED00850493FFD3940340030291BCEF24FCF558
:1090FD0025128188740293B4FD14740393FD7C00D2
:10910D00D205AB257F9212DC8D740402919B7B00FE
:10911D007A007925D2067D017C007F9212D7857465
:10912D000202919B128188E49364FD7034128120B8
:10913D0012D78512818874019324FFFDE434FFFC5E
:10914D00E58224FFF582E58334FFF583E493FBD2BA
:10915D00057F9212DC8D740212821CE4F5240290BC
:10916D00DC128188E49364FE702A12812012D78567
:10917D000523E523700205221281850493F4602FE7
:10918D00AA22A9237BFF12815C12D7857402128259
:10919D001C0290DC128188E493B4FF061281200238
:0F91AD00D7850523E5237002052205240290DCF7
:0191BC002290
:0EEAB4007F2012CFC97B017DFE7F6C02DABA93
:09EC0400E4FB7DFE7F6C02DABA2C
:0C8AAB008E258F268C278D288A298B2A87
:108AB7007D017F6C12E8E18F30E53070047FC18063
:108AC700027FE18F0C1281BF0412815412D7857E79
:108AD70000E526543F7802C333CE33CED8F9F50CE0
:108AE700E5255407FEE52654C07806CEC313CE13FA
:108AF700D8F9FFE5285407C43354E04FF50DE528AE
:108B0700AE277803CEC313CE13D8F9F50E7E00E552
:108B17002A543F7802C333CE33CED8F9F50FE5296F
:108B27005407FEE52A54C07806CEC313CE13D8F9EE
:108B3700FFE52C5407C43354E04FF510E52CAE2B5A
:108B47007803CEC313CE13D8F9F5111281B67D067B
:108B57007C007F9212D7857F287E0012E737E4F5E5
:108B670031750CC11281BFFFE53175F003A42F12D7
:108B7700815412D785E4F530E53175F003A47C0004
:108B87002530FFEC35F0FEAB2DE52F2FF9E52E3E16
:108B9700FA900001124509FF740C2530F8A6070565
:108BA70030E530B403D21281B67D037C007F921288
:0B8BB700D7850531E531C3940240A6CC
:018BC2002290
:10D217008F228B238A248925750C411281C524030B
:10D2270012815412D785AB23AA24A9259000051291
:10D23700450954F0FFE522540F4FF50C1281B67DD6
:08D24700017C007F9202D785F3
:02BEA8008F27E2
:10BEAA00E527701912BEEB7881E640082432FF18A4
:10BEBA00E436FE222529FF18E63528FE22E5276406
:10BECA0001701D12BEEB400C7881E624CEFF18E605
:10BEDA0034FFFE22C37881E69529FF18E69528FEED
:10BEEA00227880E6FE08E6FF7B007A00792812AE07
:0BBEFA0019D3E5299432E528940022BA
:10E5C600EFC4333354C0F50C750D018D0E7B00126C
:0BE5D60082157D037C007F9002D7853A
:04EA5A008F828E8396
:0AEA5E00E4FFE49360040FA380F8C6
:01EA6800228B
:10CF4B00E52B601BC3EB9DEA9C4009E52C702FAFD2
:10CF5B0005AE0422EB2401F52EE43AF52D801BD30C
:10CF6B00EB9FEA9E500AE52C700122AE04AF05221E
:0ECF7B00EB24FFF52EEA34FFF52DAE2DAF2E80
:01CF89002285
:10DC41007F0112BEA88E258F26E4FF12BEA8C3EF66
:10DC51009526FBEE9525FAC37874E69526FF18E61E
:05DC6100952512818FE2
:01DC6600229B
:10CDC400C37967E7787D96FF19E71896FE12E9653F
:10CDD4001281CD787CE6FC08E6FDC39FF526EC9E27
:10CDE400F525C37867E69DFF18E69CFE12E96512F7
:10CDF40081CD78701282269526FF18E6952512813A
:01CE04008F9E
:01CE0500220A
:10CC2D00C37969E7787F96FF19E71896FE12E965D3
:10CC3D0078AD1281CF787EE6FC08E6FDC39FF52620
:10CC4D00EC9EF525C37869E69DFF18E69CFE12E97A
:10CC5D006578AD1281CF78721282269526FF18E67F
:05CC6D00952512818FE6
:01CC7200229F
:10BAE0007877E6F52290F835E0F519A3E0F51AA38A
:10BAF000E0F51B12947890F835E519F0A3E51AF0FB
:10BB0000A3E51BF012C79312E64D12CB1412C1220B
:10BB100012ECE112EC9AE522640160177873E6FEFC
:10BB200008E6FF1249187875E6FF12730112EC77E8
:10BB300012AD997877A622786E760178C7E6440828
:04BB4000F602B179DF
:10E681008F221281F412E8907F4012D5DB7F0312B2
:0AE69100D5DBAF2212D5DB02000337
:10E69B00E4FFFEFDFCED1D70011C8D828C83E49369
:09E6AB002FFFE43EFEED4C70EC83
:01E6B4002243
:10DF1000E50B450A700712E69B8E0A8F0B7B50E4D7
:10DF2000FD7F0912CD82E50AFF12D046AF0B02D069
:01DF300046AA
:10E7810012986778C7E6A2E1400312D1A678C7E6DE
:08E79100A2E2400312EB7B221F
:10C5C400E4FFFDFBE55630E71530E0027FFFE5565A
:10C5D40030E1027DFFE55630E2197BFF8015E55618
:10C5E40030E0027F7FE55630E1027D7FE55630E2A0
:10C5F400027B7F12D3D50556E55630E00790FF61E4
:0DC6040074018004E490FF61F090FF60F08D
:01C611002206
:10A750007D0112A7C47EF67F0012DCFD7F2012E986
:10A76000BA7EF67F0712DCFD7D0212A7C47EF67F5B
:10A770001C12DCFD7D0312A7CC7EF67F2312DCFDCC
:10A780007D0412A7CC7EF67F3512DCFD7D0512A775
:10A79000D47EF67F3E12DCFD7D0612A7D47EF67FC6
:10A7A0004912DCFD7B507D07E4FF12CD827EF67FEF
:10A7B0005312DCFD7B507D08E4FF12CD827EF67FD4
:10A7C0005D02DCFD7B50E4FF12CD82227B50E4FF72
:0CA7D00012CD82227B50E4FF12CD8222C9
:10D5AA0030042A78BCE67028300105C20102EC0476
:10D5BA00D20178C7E64408F612B58512BD2B12DFF0
:10D5CA001012A7507BFF7AEC796702D6FA12C5755A
:01D5DA00222E
:10DA3D0078BC760812D7E1502078BAE608F612CCF9
:10DA4D007378BAA60712D24F500678BAE6B40B090E
:0ADA5D007876E633500312B350222E
:0FEA690078BAE608F612CC7378BAA60702D24F35
:0AEBDF0078BDE654FEF654FDF62260
:10D7E10078BDE6A2E1500B135008E654FDF654FE55
:10D7F100F62278BDE6A2E140124402F67BFF7AEC04
:0DD8010079857F027E0012C6ACC322C322CF
:07EC850078BDE64401F62210
:07EC8C0078BDE64404F62206
:10D9130079BBE778BA665F600578BCA6052278BD57
:10D92300E6A2E35015A2E2500418A605227BFF7A73
:0BD93300EC798C7F327E0012BC0A22CF
:10D24F0078BAE6FF30E02F086630E02A12CC737808
:10D25F00BAA6077876E6335002C204C201E4F50895
:10D26F00F50920040312E37778C7E64401F678BD89
:08D27F00E654F7F6D322C322A6
:10CC7300E4FF90FF5FE020E0027F0490FF5DE0208F
:10CC8300E00343070890FF5CE020E00343071090B4
:10CC9300FF5AE020E00343070290FF58E020E0033F
:10CCA30043070190FF59E020E0034307202091034D
:03CCB300430740F4
:01CCB600225B
:10E377007876E633920678BAE624F5600A24FE70CA
:0EE387000D20060AD20422300604E478BAF60D
:01E395002265
:10B350007876E633920578BAE61248A9B37502B357
:10B360008104B38708B3A00BB38D10B39320B399B6
:10B37000400000B3B378BDE654F7F6E4FD7F0280E9
:10B380001C7D017F0480167D027F0880107D037F75
:10B3900010800A7D047F2080047D057F4002D91340
:10B3A00020051F78BDE654FBF61294787876E654B3
:10B3B0007FF62278BDE654FBF67BFF7AEC798C129F
:02B3C000D6FABB
:01B3C2002268
:10001600020280015E013B02BC0A0A032001C10004
:1000260090003E020280015E017A03520F0F0340E8
:1000360001BD00A0003F0D02D00190013B02BC0AA9
:100046000A038401C100A300230F02D00190017CA2
:1000560003520F0F03A801BE00B4002D0F0280014A
:10006600E0013B02580A0A0320020D009100220F0C
:10007600028001E0015E029A0A0A0360020D00A0F6
:10008600002A0F028001E0017A02D80A0A03400220
:100096000800A9001E0F028001E0017702EE0A0A9D
:1000A600034801F400B900120F028001E001B10318
:1000B600520A0A034001FE0088001C0F0320025862
:1000C600015F02320A0A0400027100C800180F0319
:1000D600200258017A025B0A0A0420027400D90041
:1000E6001A0F0320025801E002D00A0A0410029AED
:1000F60000B9001C0F0320025801D402EE0A0A04BC
:1001060020027100F100170F032002580218035253
:100116000A0A0418027700D8001E0F034002700175
:10012600F102E90A0A0480029B0120002A0B04005E
:10013600030001E302580A0A0540032601280022AB
:100146000B04000300023402BC0A0A053003260130
:100156001800220B04000300025802EE0A0A0520CA
:1001660003200110001E0F0400030002AA03520A16
:100176000A05600328013000270F04000320026CE3
:1001860002E40A0A05300345010800230F040003B0
:100196002002CB03520A0A05280345011800230F43
:1001A60004800360021902580A0A05E8037E012C3E
:1001B600001E0F04800360028202BE0A0A05C00305
:1001C60092012000310F0480036002A302EE0A0AA6
:1001D60006400384018000230F04800360030203AA
:1001E600520A0A0628038B0168002A0F0480036658
:1001F60002AE02EE0A0A05B003930110002A0F04AC
:10020600800384026A02940A0A05F803A9015000D1
:10021600230F0480038402CE02FE050505E003A930
:10022600014000230F050002D001BF02580A0A064A
:100236007802EA015300190F050002D0023402EEDB
:100246000A0A069802EF0154001F04050003000184
:10025600DD02580A0A0684031A0142001A02050042
:10026600030001DB025A0A0A05A0031500730012F7
:100276000405000300023002BC0A0A069C031F01A3
:1002860050001F0405000300025902EE0A0A06AADE
:100296000321015A0021080550030001DD02580A16
:1002A6000A0704031A01700017040500032001F46D
:1002B60002580A0A0690033F0148001C0405000381
:1002C60020024302BC0A0A0684033C00E0001F0425
:1002D60005000320026E02EE0A0A0684033E01446C
