:10EB23003D403F3B33281C002C2D3C3D38301A0020
:10AD910001C60041F8220041F81F0041F820064198
:05ADA100F82100C10BC8
:1065B700A81474FFFFFEFDFC124751E47B10FAF9A3
:1065C700F81246C6A804A905AA06AB0722785EE614
:1065D700FE08E6FFE4FCFD221246C6E47BE87A03E8
:1065E700F9F8124751E47B127A02F9F8D30247E32C
:1065F70090F80FE05407900AA5FF75F00312486F53
:1066070002489D8F0E8F0D8F0C7A00790C7B00D27C
:10661700067D037C002290F812E0FF90F819E02F26
:10662700C313FF752A00752B38752C00752D7075EF
:106637002EFF752FC87530FF7531902290F81BE03B
:106647001313543FFF90F814E02FFF752AFF752BA3
:1066570090752C00752D30752E00752F70753000D4
:106667007531302290F839E0FEA3E0FBAA06E4F981
:10667700F822AA06AB07AF407E0012458C7C007D4E
:10668700080245F3785FE62480FF18E63402FEE44B
:10669700FCFDE5132FFFE5123EFEED3511FDEC2263
:1066A7001246C6C3E50F9FFFE50E9EFEE50D9DFD55
:1066B700E50C9C22ED9FFFEC9EFEE6FD7C00D3EFF0
:1066C7009DEE9C2290F80FE05418131313541F22C9
:1066D7001247518F0F8E0E8D0D22AE30AF31E4FC75
:1066E700FD0246C6785EE6FE08E62290F80FE05403
:1066F700E0C4135407FF227B007A00790C2212456D
:106707008C7C007D7E1245F38F0D2235108F138E02
:10671700128D1122FF752A00752B38752CFF752DE8
:1067270090752EFF227532107BAF7A007DA67C0113
:10673700227532147B027AFE7DFF7C0022FC124513
:106747008C7C007D400245F390F80FE054E72290DF
:10675700F81CE01313543FFF90F81522AB3AAA3BFD
:10676700A93C124629FDC3227B1EFAF9F80246C648
:10677700C308E69FFF18E69E2275F003EF900AB163
:1067870022FDFCAB29AA28A927A82622AF35E4FCBD
:10679700FDFE7B387A1822FFE6FC08E6FDD39FEC66
:1067A7009E22E50D24FFFFE50C34FFFE22FE124575
:1067B7008CAC06AD07E54522FFA60608A60722AB67
:1067C70017AA16A915228B278A28892922E52524A5
:0767D700F8FFE434FFFE228D
:10E942008E3B8F3CE53B5401FB7DFE7F1312DC3393
:07E95200AD3C7F1202ED0055
:10E191008E2A8F2BE52B7807CEC313CE13D8F954D3
:10E1A10002FB7DFD7F1312DC33AD2B7F1102ED00ED
:10E1B1008E3E8F3FE53E540FFB7DF07FB512DC3381
:10E1C100AD3F7FB612ED007B047DFB7FB702DC33F0
:10E9CA00EFC454F0FB7D0F7FB712DC337B047DFB71
:05E9DA007FB702DC33F1
:09ED62007B207DDF7F5202DC33CF
:09ED6B007BC07D3F7FD402DC3344
:10DFDF008F3B78AEE6A2E35018E4FD7FDA12ED0036
:10DFEF0012EC3BE53BF4FDE53B4406FB7FDA12DC2C
:02DFFF003322CB
:10E70900EFF4FDE4FB7FDA12DC337D387FDA12EABD
:0AE719005AEF7006FD7FDA12ED00E2
:01E7230022D3
:01EE59002296
:087CAF008F228B238A24892512
:107CB700E522600464017057E522127DEDE5227C20
:107CC700017003FD80027D80AB23AA24A925127DC4
:107CD700FFE522127DF6E5227C017003FD80027D1F
:107CE70080AB26AA27A928127DFFE52244A0FD7FA5
:107CF7006712ED00E5227C017003FD80027D80ABF9
:107D070029AA2AA92BD2067F6612D8FE027DE5E5AD
:107D17002264026009E52264036003027DECE4F556
:107D27002EE4F555F551E52E7014E5225401127D28
:107D3700EDE5252410F9E435248523528030E52E1E
:107D4700B40114E5225401127DF6E5282410F9E464
:107D570035278526528017E522540144A0FD7F6709
:107D670012ED00E52B2410F9E4352A852952F55345
:107D77008954E4F52FAB527E00E554252FF9EE35F3
:107D870053FA90FFF0124509FF740C252FF8A60748
:107D9700052FE52FB410DEE4F52CF52DE5227E0145
:107DA700B402047F0080027F80C3E52D9FE52C9EEF
:107DB700502012AAF7EFC454F0F52F12AAF7EF429A
:107DC7002FAD2F7F6612ED00052DE52D70CE052C0A
:107DD70080CA052EE52EC394035003027D287D40FB
:057DE7007F6712ED00B2
:107DEC00224480FD7F6712ED00224490FD7F6712D4
:0B7DFC00ED0022D2067F6612D8FE22A6
:10CFC1008B228A2389247B807D3F7F6B12DC33ABEC
:10CFD10022AA23A924D2067D187C007F6912D8FEDB
:10CFE1007B407D3F7F6B12DC33AB25AA26A927D27C
:10CFF100067D187C007F6A12D8FE7D387F6B02EDBA
:01D00100002E
:10DB3800787AE6540F9008CA126600C003C002C083
:10DB48000175F003EF9008CA1266048B288A2989A8
:0ADB58002AD001D002D00302D2E669
:10D2E6008B258A2689277DB07F1C12ED00AB25AAE7
:10D2F60026A92712D3137DC07F1C12ED00AB28AAE6
:10D3060029A92A12D313E4FD7F1C02ED00D2067D63
:09D31600807C007F1D12D8FE226C
:10CC8D0078AEE65470C4540F701D90F831E0FFD3A8
:10CC9D0094024006EF24FEFF800590F831E0FF8FEF
:10CCAD000E8F0D8F0C800A90F831E0F50EF50DF515
:10CCBD000C7D807F6412ED001266107F6512D8FE28
:07CCCD00E4FD7F6402ED00AD
:10C29B00E4FB74352BF582E434F8F583E0FF7E0084
:10C2AB0090F832E0FD7C0012458CEF7807CEC3137B
:10C2BB00CE13D8F9FFD394FFEE940040087C007E98
:10C2CB00007FFF80027E00740C2BF8A6070BBB03CC
:10C2DB00C17D837F6412ED001266107F6512D8FE5C
:07C2EB00E4FD7F6402ED0099
:01EE5A002295
:10D9E00090F82AE0F50CA3E0F50DA3E0F50E7D809C
:10D9F0007FDC12ED007D847FDC12ED001266107F6B
:0BDA0000DD12D8FEE4FD7FDC02ED002B
:10D8150090F82DE0F50FA3E0F510A3E0F5117D805C
:10D825007FDC12ED007D877FDC12ED007A00790F39
:0FD835001266147FDD12D8FEE4FD7FDC02ED00E9
:06EE130012D9E002D8153F
:10D54E008F228D238B24E4FB7DDF7F6C12DC337BFB
:10D55E00207DDF7F6C12DC33AD227F6D12ED00ADCE
:10D56E00237F6D12ED00AD247F6D12ED00E4FB7D87
:06D57E00DF7F6C02DC33CC
:10DE2C008B228A2389247D807F6E12ED00AB22AA7F
:10DE3C0023A924D2067D307C007F6F12D8FEE4FD2E
:05DE4C007F6E02ED00F5
:026F4E008F268C
:106F50007858E6FF12B98C8F2712666BAF27FCFDBD
:106F6000FE1265C890845BE493FE740193FFE4FC19
:106F7000FD1246AB1266DA8C0C78641265D6AB0F44
:106F8000AA0EA90DA80C1246C6C006C00790F83D6F
:106F900012666ED007D006124751C0041265CD129A
:106FA00065D4D0001246C6C006C00712666BD00773
:106FB000D0061266D78C0C78ADE6FFC37869E69FE1
:106FC000FF18E69400FEE4FCFDC0041265CD1266D5
:106FD000EBFFE4D0001246C6C0041265CD786612FD
:106FE00065D6D0001246ABC006C00778ACE6240ACE
:106FF000FFE433AB07FAE4F9F8D007D0061246B83D
:107000001267148C10E52630E00612668B02708D34
:10701000E52630E13D78641265D67B807A02F9F886
:107020001246C6C006C00790F83D12666ED007D063
:1070300006124751C0041265CD1265D4D000124625
:10704000ABE5132FFFE5123EFEE5113DFDE5103CDB
:10705000800512668B3510126714F510D37863E63D
:10706000949018E6940650161265D4126699126729
:1070700012F5107B107DEF7F1912DC338014E513BD
:107080002480FFE5123402FEE43511FDE41267129C
:10709000F510C3E513950FFFE512950EFEE511956A
:1070A0000DFDE510950C1266DAF50C1266EB126612
:1070B00072AF0FAE0EAC0C1247518F1A1266EB1264
:1070C0006672AF1AFCFDFE1266A7FCE47B10FAF9AB
:1070D000F81247518F1BE4FB7DFD7F4312DC33AD7B
:0F70E0001A7F4012ED00AD1B7F4112ED00AF1A79
:0170EF00227E
:087721008F298E288D278C268C
:10772900E4FF7E041267881246C67B007AA07905B9
:1077390078001247518E2A8F2BD3E52B94FFE52A27
:107749009400401C752C01E52B2402FFE4352AFE28
:10775900EF7802CEC313CE13D8F9F52B8E2A8013F6
:10776900752C02E52B2401FFE4352AC313F52AEF12
:1077790013F52BAE2AAF2B7C007D6412458C7C0E51
:107789007D5312459EEF14F511E4F512E511C394EA
:1077990008400974F82511F511431208E511C3943D
:1077A90004400974FC2511F511431204E511C39431
:1077B90002400715111511431202E511C394014046
:1077C900051511431201E52B24FEF50CE52CB40136
:1077D900047F0080027F10EF4406F50DE512448016
:1077E900F50E750F171266FEC2067D047C007FAE8A
:1077F90012D8FE7B027DFD7FB212DC337D807FB122
:1078090012EA5AEF24FF50197B407DBF7FB112DC89
:10781900337F027E0012E8B0E4FB7DBF7FB112DC4A
:1078290033E52C75F002A4AEF0126672FFFE7D7787
:107839007C011247511265CBAE2AAF2B1266E5E4E3
:107849007B08FAF9F81266D78C0C780F1247F412F4
:1078590067148C10E47FE87E031267881266A7FC20
:10786900AB13AA12A911A8101247518E2A8F2B53B4
:107879002A0F7B017DFE7FBB12DC33AF2BAE2A02C0
:02788900E1B16B
:10A06D00786FE6FE08E6787C1267BF7871E6FE0829
:10A07D00E6787E1267BF7873E6FE08E6FF7B007A0E
:10A08D0000792412AF95C3E5259432E52494005050
:10A09D0004785E806E1266EBFF7873E6FC08E6FDD1
:10A0AD00C39FEC9E5034C3ED9FFFEC9ECF2525CF73
:10A0BD003524FEC3EF9432EE94005016C3785FE65C
:10A0CD009525FF18E69524CF24327881F6E43F18C4
:10A0DD00F6227880A60408A60522785FE62525FFDE
:10A0ED0018E63524FEC3EF9DFDEE9CFCC3ED9432C6
:10A0FD00EC9400500CEF24CE7881F6EE34FF18F678
:0FA10D00227873E6FE08E6FF7880A60608A6070C
:01A11C002220
:10AF95008E388F398B3A8A3B893C7862E6FE08E623
:10AFA5007803C333CE33CED8F9FF7C007D0A124532
:10AFB5009EC3785F126779C313FEEF13FFAB3AAAFE
:10AFC5003BA93CEE8FF012468CE6FE08E6FFD3E582
:10AFD500399FE5389E4014126763E5399FFFE538D0
:10AFE5009EFED3EF9DEE95F04001221266EBFFD356
:10AFF500E5399FE5389E5014126763EF9539FFEEEA
:0EB005009538FED3EF9DEE95F0400122D32248
:044918008E308F311D
:10491C007F2012DFDF7B007A007936AF31AE3012A8
:10492C00AF954009785EE6F53008E6F531750C0474
:10493C00750D4F750E24750F151266FEC2067D049B
:10494C007C007F9812D8FE750C1CE4F50D750E37A3
:10495C00FB7A00790CC2067D03FC7FA112D8FE788D
:10496C005A1265D6C0041265CD1266EBFFE4D00076
:10497C001265DF4013E531AE307802C333CE33CE4F
:10498C00D8F9F5318E30800BE53125E0F531E53085
:10499C0033F53075100075116475350BAF35E4FCCB
:1049AC00FDFE7B3E1265C51266E1C004C005C00663
:1049BC00C007786A1265D67BC07A031265C6D00729
:1049CC00D006D005D0041247518F34E4FCFDFE1202
:1049DC00676FC0041265CD786A1265D6D000124696
:1049EC00C6C004C005C006C0071267931265C61284
:1049FC0066E1D003D002D001D0001247518E0C8F4B
:104A0C000DD3E50D94A8E50C940C5003024ACD741B
:104A1C0080250DF50D74F3350CF50CD3E50D9511C2
:104A2C00E50C9510500C850C10850D1185343285D4
:104A3C003533E5342401FFE433FEE4FCFD12676FEB
:104A4C00C0041265CD786A1265D6D0001246C6C075
:104A5C0004C005C006C0071267931265C61266E152
:104A6C00D003D002D001D0001247518E0E8F0FD33D
:104A7C007480950F740C950E400C7480950FFF7418
:104A8C000C950EFE800AE50F2480FFE50E34F3FE34
:104A9C008E0E8F0FC3E50F9428E50E94005007E59A
:104AAC003404F532801ED3E50F9511E50E951050A8
:104ABC0018850E10850F11E53404F53285353380D9
:104ACC0008853432853533800C0535E535C3943093
:104ADC0050030249A8785A1265D6C0041265CD124B
:104AEC0066EBFFE4D0001265DFE530400E13FEE507
:104AFC003113FFEEC313F530EF8006C313F530E529
:104B0C003113F53178C6E6134003024C3D7B007A35
:104B1C0000791AC2067D027FA512D400051A051A67
:104B2C00051B051B7B007A007918C2067D027FA944
:104B3C0012D400E518540FFEE5192401F519E43ED2
:104B4C00F518E4FD7F9F12ED007D077F9F12ED00AD
:104B5C001266FED2067D047FA012D400AF1BAB07F9
:104B6C00E4FAF9F8AF32FCFDFE1265C8AE18AF19C5
:104B7C001266E51267148C10AF33AB07E4FAF9F840
:104B8C00AF1AFCFDFE1265C81266E18F178E168DEA
:104B9C00158C141267C6A814AF0FAE0EAD0DAC0C6D
:104BAC00124751AB13AA12A911A8101246C61266CD
:104BBC00DA8C0CAF13AE12AD11AC101267C6A81480
:104BCC00D31247E3402C1265B7C3E5179513FFE5E5
:104BDC00169512FEE5159511FDE5149510FC12467F
:104BEC00C6E50F2FFFE50E3EFEE50D3DFDE50C3C49
:104BFC00801E1267C61265B7C3E5139517FFE51241
:104C0C009516FEE5119515FDE5109514FC1266A799
:104C1C001266DAF50C7D207F9F12ED007D227F9FBE
:104C2C0012ED001266FED2067D047C007FA012D825
:104C3C00FE785A1265D6C0041265CD1266EBFFE4FD
:104C4C00D0001265DFE531400C24FFE53034FF5411
:104C5C000F4410800824FFE53034FF540FFB7DE037
:104C6C007FA912DC33E53114FD7FAA12ED00E53289
:104C7C0024FEFD7FA512ED00E53324FEFD7FA61278
:104C8C00ED00E53275F004A4FFAEF07C007D0A1255
:104C9C00459EC3EF9405EE940050087C007E007F87
:104CAC00008008EF24FBFFEE34FFFE8F11E4F512B9
:104CBC00E511C3943C400974C42511F5114312103D
:104CCC00E511C39428400974D82511F51143120835
:104CDC00E511C39414400974EC2511F51143120429
:104CEC00E511C3940A400974F62511F5114312021B
:104CFC00E511C39405400974FB2511F5114312010C
:104D0C0005120512AB127DE07FA712DC3378C6E6E4
:104D1C0013402112E58A7D207F9A12ED007F01124B
:104D2C00D1427F0112D1427D247F9A12ED0078C6C8
:104D3C00E64401F678C6E61350077D687F9F12EDB6
:104D4C00007F0412D1427F0412D142E4FD7F9F12F6
:0A4D5C00ED0012EC3B7F3802DFDFB0
:027415008F37AF
:107417007F3012DFDF53373F1265D4FB7A60F9F80C
:107427001246C6C006C007786AE6FE08E61266720C
:10743700D007D006124751E47BA51267717B407ACB
:1074470042790F78001247518E398F3AD3E53A9433
:1074570040E53994005005C374408003C374809598
:107467003AFFE49539FE8E398F3AAF377E00C3EF86
:10747700953AEE95394006EF953AFF8006C3E53A0F
:107487009537FF8F0CE50CD3940C400AE50C943428
:1074970050047F0080027F018F387866E6FE08E699
:1074A700FFC3787096EE18965019126777FE78AC7E
:1074B7001266C1400EED786726FFEC1836786FF636
:1074C70008A607786FE6FE08E6786612679E4015FD
:1074D70078AC1266BB400E7867E69DFF18E69C788D
:1074E7006FF608A60778ACE6786726FFE41836FE3D
:1074F700C3EF787096FFEE1896CF240AF50DE43F98
:10750700F50CD3E53A940CE5399400401CE5372493
:107517000CFFE433FEC3EF953AEE95395005126739
:10752700A98020AE0CAF0D801AE53A2434FFE4356C
:1075370039FEC3E5379FE49E50051267A98004AE64
:107547000CAF0D8E398F3A7B407DBF7FA912DC339C
:10755700785A1265D6C0041265CD1266EBFFE4D0E7
:10756700001265DF4007E53725E0FB8002AB377D7A
:10757700807FAC12DC33AF3AAE3912E942E53833DB
:10758700333354F8FB7DF77F0712DC3312E0AA127E
:07759700EC3B7F3802DFDF4F
:07EDF0007875E6FF027415BF
:10AF15007F1012DFDF7868E6FE08E6FFC3787296D9
:10AF2500EE18965019126777FE78AD1266C1400E7D
:10AF3500ED786926FFEC18367871F608A607787162
:10AF4500E6FE08E6786812679E401578AD1266BB86
:10AF5500400E7869E69DFF18E69C7871F608A6070D
:10AF65007868E6FE08E6C3787296FFEE1896FE78D6
:10AF7500ADE6C39FFFE49EFE12E19112E0AA7F2099
:10AF850012D1427F1012D14212EC3B7F3802DFDF33
:10CA3C00EF540FFEC454F0F50CEDBF070C5407C4B3
:10CA4C003354E04410F50D801D5407C454F0FFE539
:10CA5C00275401C433333354804FFFEB5403FE256A
:10CA6C00E025E04FF50D1266FEC2067D027C007FCC
:0BCA7C001712D8FEE4FD7F1702ED004A
:10E8E2008F23129C35E52390F8017005E054FDF06A
:08E8F20022E054FD4402F02273
:109C3500AD07D3ED648094FE40027D7EC3ED648064
:109C4500948E5009ED6480948040027D0EEDFF33C3
:109C550095E0FEEF2401FFE43EA2E713EF1325E0B4
:109C6500F50C78AEE65470C4540F14600824FA500D
:109C7500222407704DED13AF0C7E007CFF500A7D4A
:109C8500C1126705E4F50E80397DC0126705750EB2
:109C950002802FED13AF0C7E007CFF50047DB88051
:109CA500027DB7126705EF75F002A47C00250CFF55
:109CB500EC35F0FEC3E49FFFE49EFE7D021245F302
:109CC5008F0E750F037510327511CE7D807F2612AC
:109CD500ED001266FED2067D067C007F2712D8FEB7
:079CE5007D407F2602ED0027
:02AC89008F2416
:10AC8B00E4F525E52464027021F52512ACF375F08B
:10AC9B0003E525900E50126604D2067D337C00121C
:10ACAB00AD02940540E57DDF8038E4F52512ACF369
:10ACBB00E52475F004A47C002525FFEC35F0FE900F
:10ACCB000E2075F003EF12486FEE75F003A4258389
:10ACDB00F58312489DD2067D3312AD02940440CD0C
:07ACEB007DDE7FE012ED00A9
:10ACF20022AD257FE112ED00E4FD7FE212ED00229C
:0BAD02007FE312D8FE0525E525C322E3
:069F0A008B248A25892644
:109F1000129FA0532AFCAD2A7FE412ED007D037F3F
:109F2000E612ED00E4F52AAB24AA25A926129FB07B
:109F30002526F526E43525F525052AE52AC39409C5
:109F400040E5129FA0E52A54FC4401F52AFD7FE478
:109F500012ED00E4FD7FE612ED00E4F52AAB27AA3E
:109F600028A929129FB02529F529E43528F52805C7
:109F70002AE52AC3941440E57F2012D14290F80FBD
:109F8000E0FF540764046006EF1266CF70047D2C76
:109F900080027DAC7FE412ED007D807FE502ED0064
:109FA0007B007A00792AD2067D017FE412D4002258
:0C9FB0001244F0FD7FE712ED0074012266
:10DA0B007B407DBF7F6012DC337B807D7F7FE012AC
:10DA1B00DC337B807D7F7FE412DC3390F816E0FFF4
:0BDA2B0012DCFC90F817E0FF02DD2287
:10D584001265F7C003C002C001126780126604125C
:10D5940067CDD001D002D003129F0AE4FB7DBF7F88
:10D5A4006012DC33E4FB7D7F7FE012DC33E4FB7D3F
:06D5B4007F7FE402DC337E
:10B53F001266F264046011BF0514E05407FFBF04E4
:10B54F000D90F801E020E00612674FF080061267B9
:10B55F004F4408F090F80FE05418FF131313541FC3
:10B56F00700280361266CB6401703590F83BE0FCB8
:10B57F00A3E0FDA3E0F52AA3E0F52BE4FBFAFFFE21
:10B58F0012B3E490F83BE0FEA3E0FFA3E0FCA3E0DE
:10B59F00FD12C07E1266F2BF040302D58412DA0BCD
:01B5AF002279
:10B3E4008E248F258C268D278A288B29E5274526B0
:10B3F4006061E52B452A605B7B807D707F6012DC99
:10B4040033E5245407F50CAD258D0DE5252527E5F9
:10B414002435265407F50EED2527F50FE5285407A6
:10B42400F510AD298D11E529252BE528352A54077A
:10B43400F512ED252BF5137F2012D1421266FED2B0
:10B44400067D087C007F6112D8FEE4FB7D707F607E
:04B4540012DC3322B1
:10C07E008C248D25AB07AA06E4F9F8FFFE7DC07C63
:10C08E003F124751C006C007AE24AF25AB07AA0624
:10C09E00E4F9F8D007D0061266D78C0CE4FB7DFCD1
:10C0AE007FE412DC33E4FD7FE612ED00E50FFFE5E1
:10C0BE000EFEE50D543FFDE41266DAF50CFB7A0038
:0CC0CE00790DD2067D03FC7FE702D8FE4E
:10DCFC008F241266CBFFBF01037524807B867D7059
:10DD0C007F6412DC33AF2412660A7F6512D8FEE4FE
:06DD1C00FD7F6402ED0032
:10DD22008F241266CBFFBF01037524807B897D702F
:10DD32007F6412DC33AF2412660A7F6512D8FEE4D8
:06DD4200FD7F6402ED000C
:0485D6008D45A9071F
:1085DA00E9540F14603314605C14700302866C143F
:1085EA007003028696240460030286CAE954F0FFE7
:1085FA00700590F8118074BF10030286BAE954F02E
:10860A00642060030286CA800EE954F0FF70059068
:10861A00F81A8057BF100A90F81AE0FF90F81180F4
:10862A003BE954F0642060030286CA90F81AE0FF1E
:10863A0090F8138027E954F0FF700590F813802B07
:10864A00BF100A90F81AE0FF90F813800FE954F06F
:10865A006420706C90F81CE0FF90F813E02FC313AD
:10866A00800AE954F0FF700990F81CE07A00FB8058
:10867A004FBF100C90F81CE0C313FF90F813803A18
:10868A00E954F064207039126756802EE954F0706C
:10869A000C90F815E0C313FF90F81E801DE954F002
:1086AA00FFBF10051267568011E954F0FFBF201072
:1086BA0090F811E0C313FF90F81EE02FFBE433FAA1
:1086CA00EB25E0FBEA33FAC3EB9410EA648094806A
:1086DA00E545401D90EB2293FD7C00EB24F0FFEA78
:1086EA0034FF1267B47F0025E0FEEF2DFFEC3E80D9
:1086FA001A90EB2A93FD7C00C374109BFFE49A1234
:0F870A0067B425E0FEC3E49DFFEE9CFE126748B6
:01871900223D
:0A79F0008F378C388D398A3A8B3BB3
:1079FA00127B46E4FD7FE212ED00E537540F700971
:107A0A007D03127B2C7D8C804BE537540FFFBF0121
:107A1A00097D05127B2C7D88803AE537540FFFBF1C
:107A2A0003097D0B127B397DC88029E537540FFF86
:107A3A00BF04097D0F127B397DCC8018E537540FBE
:107A4A00FFBF02157D087FE312ED00E4FD7FE3121C
:107A5A00ED007DCC7FE312ED00127B46E53754F052
:107A6A002403FD7FE212ED00754001AD40AF3712ED
:107A7A0085D6E539253BFDE538353A126744AC38F9
:107A8A00AD39126679C3EB9FF542EA9EF541AD40E6
:107A9A00AF371285D6E53D253FFDE53C353E1267F9
:107AAA0044AC3CAD3D126679C3EB9FF544EA9EF5C2
:107ABA0043D3E542947FE541648094804008754150
:107ACA000075427F8013C3E5429480E54164809447
:107ADA007F50067541FF754280D3E544947FE543A4
:107AEA0064809480400875430075447F8013C3E521
:107AFA00449480E5436480947F50067543FF75443F
:107B0A0080AD427FE312ED00AD447FE312ED000544
:107B1A0040E540C394095003027A757DDF7FE00295
:027B2A00ED006C
:107B2C007FE312ED00E4FD7FE312ED00227FE31210
:107B3C00ED00E4FD7FE312ED0022E537540FFD7FED
:057B4C00E112ED002232
:06BBF5008F258D828C8378
:10BBFB00E525C394085024C374089FFFE49400FE0A
:10BC0B00AC2AAD2B1266818E338F34C37408952505
:10BC1B00FFE49400FEAC2CAD2D80151267D4AC2E36
:10BC2B00AD2F1266818E338F341267D4AC30AD31A9
:10BC3B001266818E358F36AD82AC838A3C8B3D8507
:0EBC4B00353E85363FAB34AA33AF320279F076
:104D66008F241266F264046011BF0514E05407FF35
:104D7600BF040D90F801E020E00612674FF08006B0
:104D860012674F4408F0E524703D90F810E0126772
:104D96001B752F907530FF7531D0E4F5327BFE7AA6
:104DA600017DFFFC124FDB12672C12506575322015
:104DB6007BFE7A01E4FDFC1250657532117BFE7AAA
:104DC60001E4FDFC024EFAE5246401705912661DE9
:104DD6007532217B547A017DAC7CFE12BBF590F8CE
:104DE60012E0FF752A00752B38752C00752D70752D
:104DF6002E00752F3812663C753202E4FBFA7D02EE
:104E06007CFE12BBF512661D7532127B547A0112B6
:104E16004F207532227BAC7AFE124F207532237BEF
:104E2600AC7AFE024E71E5246403704690F819E0F0
:104E3600FF752A00752B70752CFF752DD0126636FE
:104E46007532017BFE7D017CFF124FB07532111267
:104E56004F4D7532217B547DAC7CFE124FB07532BE
:104E660020124F4D7532127B547A017DAC7CFE02C6
:104E76004F03E5246404703A90F81BE0FF752AFF9F
:104E8600752BC8752C00752D7012665E7532037D04
:104E9600017CFF125004753213124F7D7532237D4B
:104EA600FF7C00125004753222124F7D12673802C1
:104EB6004F03E524640270181266437532231267A5
:104EC6003B12503112BBF5126643126738024F038C
:104ED600E5246405702A90F810E0C313FF90F81DCE
:104EE600E02F12671B752FC8753000753170126779
:104EF6002C125031124FDB75322412672F12BBF57C
:104F060090F801E030E0091266CB60047B808002F5
:104F1600E4FB7D7F7FE012DC33227DAC7CFE12BB9E
:104F2600F590F81BE0FF90F812E02FC313FF752AE7
:104F3600FF752BC8752C00752D70752E00752F38D2
:104F46007530FF753190227BFE7A01E4FDFC12BBC1
:104F5600F590F812E0FF90F819E02FC313FF752AB9
:104F660000752B38752C00752D70752EFF752FC8A2
:104F76007530FF753190227BAC7AFE7DAC7CFE12DB
:104F8600BBF590F81BE01313543FFF90F814E02F85
:104F9600FF752AFF752B90752C00752D30752E0028
:104FA600752F70753000753130227A0112BBF5907D
:104FB600F819E0FF90F810E02FC313FF752A00756B
:104FC6002B70752CFF752DD0752EFF752F907530B3
:104FD600FF7531D02212BBF590F810E0C313FF9095
:104FE600F81DE02FFF752A00752B38752CFF752DDF
:104FF60090752EFF752FC8753000753170227B02B3
:105006007AFE12BBF590F81BE0FF90F812E02FC372
:1050160013FF752AFF752BC8752C00752D70752E1C
:1050260000752F387530FF7531902212BBF590F858
:1050360014E0C313FF90F81DE02FFF752AFF752BB0
:10504600C8752CFF752D90752E00752F387530009C
:105056007531707532047B517AFF7DA67C01221270
:10506600BBF590F819E0FF90F810E02FC313FF7519
:105076002A00752B70752CFF752DD0752EFF752F98
:08508600907530FF7531D02256
:109CEC008F23E523C43354E0FF90F80FE0541F4F4B
:109CFC00F0E523B40403029D9FE5236405706B908B
:109D0C00F801E030E022E4FF124D667F01124D664F
:109D1C007F02124D667F03124D667F04124D667FE3
:109D2C0005124D667B808002E4FB7D7F7FE012DCB8
:109D3C003390F80FE05407FFBF04117D2C7FE41221
:109D4C00ED0090F801E020E04D029D9F12B53F120E
:109D5C0065F7C003C002C001126780126604126767
:109D6C00CDD001D002D003029F0A90F80FE054E04E
:109D7C00C4131265FBC003C002C0011267801266D7
:109D8C00041267CDD001D002D003129F0A1266F2E2
:079D9C0012AC8912B53F2251
:1069D800785EE6FE08E6FF7873A60608A6077866DE
:1069E800E6FE08E6FF786FA60608A6077868E6FEC2
:1069F80008E67871FFA60608A607227864E6FE086E
:106A0800E6FFE4FCFDFB7A0CF9F81246C6E47B02CB
:106A1800FAF9F8124751AB2AAA29A928A827C302CC
:106A280047E3786CA905AA06AB07E6FE08E6FFE48B
:106A380022E50C5407F526E50DF5277B007A007949
:106A48000C22742A2FF582E434F8F5832278B2E612
:106A58002401FF18E43678B9FEC3EF96FFEE1896C6
:106A680022742D2FF582E434F8F58322E6FC08E63B
:106A7800FDEC540FFBE7C4F854F0C809E7C4540F01
:106A880048547022786AE6FE08E6FBAA06E4F9F89C
:106A980022E47B02FAF9F8124751A804A905AA06CC
:106AA800AB0722E4F50FF510F511F512751301FB8C
:106AB8007A00790CC2067D08FC7F76221246C6E46D
:106AC8007BE87A03F9F8124751E47B127A02F9F865
:106AD800D30247E378B9E62402FF18E436FEEF5400
:106AE800FCFFEEF608EFF6E52922D3AB0FAA0EA9B4
:106AF8000DA80C0247E3C3E5279525FFE526952455
:106B0800FE221896FCE52925E0FFE52833FEC3EDB3
:106B18009FEC9E2212475178B8EEF608EFF6D39410
:106B280002EE940022FCE6FA08E62FFFEE3AFED3C6
:106B3800EF9DEE9C22AB29AA2AA92B0244F07B00E8
:106B48007A0079237D012278AEE65470C4540F226E
:106B5800FE7867C3EF96EE189622AB32AA31A930B9
:106B6800A82FD30247E3C3E69FFF18E69E22AB2F68
:106B7800AA2EA92DA82C0247E37B007A007914C21B
:106B8800067D0322EF26F618EE36F622E6FDD3EF51
:106B98009D7480F86E9822AB29AA2AA92B1244F07A
:106BA800FF22E51454F075F010A4FF2274FFFFFED5
:0A6BB800FDFC22785EE6FE08E622EE
:10A275007875E6F523E4FD7F7D12ED0012EC3B7F5A
:10A28500FA7E0012E8B0127E078F22E522703612A0
:10A2950053AA8F22E52270251263888F22E522605A
:10A2A5000464FE7013E522B4FE0312A302127E07B6
:10A2B5008F22E5226018800D12A30280111269D841
:10A2C50012A30C80031269E612EDF012AF15E52218
:10A2D5007006E522648060137858E6FF12D5F01207
:10A2E500A06D7858E6FF12DB62800C1269D812A3C4
:0CA2F5000C12EDF012AF1512EC3BAF2282
:10A30100227875A623AF231274152208E6FE08E60B
:05A31100FF12491822B3
:10EA1E00126BC28F22E522700512CA87800312D2B2
:03EA2E0072AF22A2
:01EA310022C2
:10A4ED0012EC3B7D037F7A12EA5ABF03047F9680FC
:10A4FD00027F328F447545197F017E0012E8B0123C
:10A50D006A43D2067D017F0312D400E50C30E00CC6
:10A51D00E4FD7F0312ED0075451980021545E545F3
:10A52D006006E50C54C060037FFF2212EBE278C792
:10A53D00E61350037FFF22126A43D2067D017F7D11
:10A54D0012D400E50C30E003D544AD126A43D206B7
:10A55D007D017F0212D400E4FD7F0212ED00E50CB7
:0EA56D0054637004E54470047FFF80027F0099
:01A57B0022BD
:02CB68008F44F8
:10CB6A00754519E4FD7F0312ED007F017E0012E88E
:10CB7A00B0126A43D2067D017F0312D400530CC15E
:10CB8A00E50C30E010E544600CE4FD7F0312ED0093
:10CB9A001544754519E544600C1545E5456006E5FB
:07CBAA000C54C060C5AF0C84
:01CBB1002261
:02940C008F3798
:10940E007873E6F53A08E6F53BAE3AFFE4FCFDC0AC
:10941E0004126A2AD0001246C6C006C007126A8C11
:10942E00D007D0061247518E388F397B507D0F7F73
:10943E001312DC33E53B2405F53BE4353AF53A747B
:10944E00E0253BF53B74FF353AF53AE539241BFF31
:10945E00E43538126B58500280047E007F018E383E
:10946E008F39D3E5399420E5389400400CE5392442
:10947E00E0FFE53834FFFE80047E007F018E388FDA
:10948E00395337FCE53A540FFDE538C4F854F0C8AB
:10949E00E539126A854DF50C85390D853B0E126A3C
:1094AE0043C2067D037C007F7012D8FE85370C8583
:1094BE00370D85370E126AAB12D8FE12A4ED8F0C43
:1094CE00E50C600122126B817F8112D400126BAA0F
:1094DE00AEF0EF4515242078B9F6E43E18F6E51403
:1094EE00540FFEE516242078B2F6E43E18F67F00FF
:0194FE00224B
:027F5B008F3065
:107F5D007873E6F53308E6F534AE33FFE4FCFDC087
:107F6D0004126A2AD0001246C6C006C007126A8CD7
:107F7D00D007D0061247518E318F327B507D0F7F47
:107F8D001312DC33E5342405F534E43533F533745D
:107F9D00E02534F53474FF3533F533E532241BFF1A
:107FAD00E43531126B58500280047E007F018E3112
:107FBD008F32D3E5329420E5319400400CE5322424
:107FCD00E0FFE53134FFFE80047E007F018E318FAE
:107FDD00325330FCE533540FFDE531C4F854F0C88D
:107FED00E532126A854DF50C85320D85340E7860BB
:107FFD00E6FC08E6FD2402E43C540FF50F75100273
:10800D00AF05EF2402F511126A43C2067D067C000E
:10801D007F7012D8FE85300C85300D85300E126ABA
:10802D00AB12D8FE12A4ED8F0CE50C600122126B81
:10803D00817F7E12D400126BAAEF45152403FFE455
:10804D0035F078B3F6FC08EFF6FDE514540FFEE5B8
:10805D00162403FFE43EFE08F608EFF6C39DFFEE7F
:10806D009C7865126A60FE12EADED3EF9405EE6429
:10807D0080948040037FFF2278B6E6184670037F18
:10808D008022E514547FF50C85150D85160E126AA8
:0E809D0043C2067D037C007F7312D8FE7F0075
:0180AB0022B2
:06848F008F378D388B3998
:10849500E4FD7F7D12ED00E5375403FB7DFC7F7A1B
:1084A50012DC33785A126A32FCFDC004785E126A17
:1084B5002CD000126AC440160538E53A25E0F53A95
:1084C500C3944040097B027DFD7FA812DC33E5396A
:1084D50014541F33333354F8FFE53854074FFD7FE9
:1084E5007B12ED00E53A543FFD7F7C12ED00AF387D
:1084F5007401A807088002C333D8FCF538E539852F
:1085050038F0A4253AF537853A42E4F541F540F5CA
:108515003FF53EF5437D7B7F7D12ED007F0112CB5C
:10852500687D037F7A12EA5ABF03047F0380027FC6
:108535000112CB68EF54C060051285C58047126AE9
:1085450043C2067D037F8412D400E4F50FAF41AE2C
:1085550040AD3FAC3E126AF2400F850F41850E409B
:10856500850D3F850C3E854243E5382542F542C3DE
:10857500953740AD1285C57F0112D14212A4ED8F0A
:108585000CE50C6004126BB422785A126A32FCFDB9
:10859500C004126AA4785E126A32D000126AC4401E
:1085A5000BE54313AB3BAA3CA93D8008AB3BAA3C7A
:0F85B500A93DE543124558AF41AE40AD3FAC3E46
:1085C40022E4FD7F7D12ED00E4FB7DFD7FA812DC3B
:0285D400332250
:10DA3600EF5403FB7DFC7F7A12DC337D3B7F7D1246
:10DA4600ED0012A4ED8F0CE50C600122126A43C2B0
:0BDA5600067D047F8412D4007F0022B4
:1053AA00126BBB78731269FCE654FCF6181256B1FC
:1053BA007F40127F5B8F24E5246001227862E6FE3B
:1053CA0008E67803C333CE33CED8F9FF7C007D0AD2
:1053DA0012459E785F126B6EC313F528EF13F529F9
:1053EA00E4F52AF52BF52675270A1256A76001223D
:1053FA00126A55FE78B1F608EFF67862E6FC08E61E
:10540A00FDC3EF9DEE9C505DC3ED78B296FDEC12A4
:10541A006B0A40030254BAAF05AE04E4FCFDC004B3
:10542A00126AA47873126A32D0001246C6C006C045
:10543A00077862126A8ED007D006126B1C500302DC
:10544A0054EA126ADC785F26FDE52818367873126A
:10545A006B2D40030254BA78B8E6FE08E678741257
:10546A006B8D0254CFC379B2E7786396FD19E712C0
:10547A006B0A4002803AAF05AE04E4FCFDC0041298
:10548A006AA47873126A32D0001246C6C006C007F0
:10549A007862126A8ED007D006126B1C4042126ADA
:1054AA00DC787426FDE5281836785E126B2D4008E4
:1054BA00752A00752B01800DC37874E679B997F6C1
:1054CA0018E61997F6E52B452A701578731256B126
:1054DA00E52715277002152614452660030253F4A2
:1054EA00E52745266008E52B6401452A70037F807D
:1054FA002278B1E6FE08E6FFC3786396EE18964076
:10550A00127974E7785F96FD19E71896FCED640442
:10551A004C601A7863126B5B5040C3795FE778740A
:10552A0096FF19E71896FEEF64044E702D126BBBB6
:10553A00FF7873EEF6FE08EFF6FF1249181256A727
:10554A0060012278B2E62401FF18E436FEC3EF7840
:10555A00B99679B2F7EE189619F77873E6F52A082C
:10556A00E6F52BC37963E778B29619E718967E00B9
:10557A0040047F0480027F027874126B8CE6FE0876
:10558A00E6FF1249187D187F7912ED00852A2685D3
:10559A002B27E4F52FF52EF52DF52CF52875290680
:1055AA007F5012940C8F24E524600122126A55FE62
:1055BA0078B1F608EFF67863E62402FD18E436FCC3
:1055CA00D3EF9DEE9C400BE4F50FF50EF50DF50CAF
:1055DA008028E4F53AF53B753C00753D257B087D4E
:1055EA00037F0312848F8F0F8E0E8D0D8C0C126B1E
:1055FA00B4C3126AF370037FFF22AF0FAE0EAD0D74
:10560A00AC0CC3126B765015850F2F850E2E850DA7
:10561A002D850C2C7873E6F52608E6F527E529454D
:10562A00287016126BBBFFD37874E69F18E69E406B
:10563A002AEEF6FE08EFF6801B74FE2529F529747A
:10564A00FF3528F528787474FE26F61874FF36F6A6
:10565A00E6FE08E6FF1249180255AAAF2FAE2EAD94
:10566A002DAC2CE47B03FAF9F81247518F2F8E2EBA
:10567A008D2D8C2C7862126A32FCFD780A1248074A
:10568A00D3126B764006AE26AF278004AE2AAF2B24
:0C569A007873EEF608EFF61249187F0056
:1056A600227F5012940C8F24E52422E6FE08E6FFA2
:0456B600124918225B
:106388007F4012940C8F24E5246001227D801265E1
:106398007170037FFF22E4FFFEFDFC126A1E70038A
:1063A8007F8022126A03501F7D4012657170037F3F
:1063B800FF22E4FFFEFDFC126A1E70037F8022129A
:1063C8006A0350037FFE22E52424F8543FF53A750A
:1063D8003B00753C00753D247B087D017F031284DA
:1063E8008F8F2A8E298D288C27126BB4126A1E7003
:1063F800037FFF22E4FFFEFDFC126A1E70037F800C
:1064080022E52424FD543FF525FF1274157F03125D
:10641800DA36EF60037FFF22850F2E850E2D850D5E
:106428002C850C2B1265A560037FFF22850F328512
:106438000E31850D30850C2FE5242403543FF524B7
:10644800E4F52AF529F528F5271265A560037FFFED
:1064580022850F36850E35850D34850C33AF2EAE6B
:106468002DAD2CAC2B126B624016E532952EFFE554
:1064780031952DFEE530952CFDE52F952BFC8015EB
:10648800C3E52E9532FFE52D9531FEE52C9530FDBF
:10649800E52B952FFC126A99E5362532FFE535354F
:1064A80031FEE5343530FDE533352FFCEF252EFF81
:1064B800EE352DFEED352CFDEC352BFC1246B8C023
:1064C80004C005C006C007AF36AE35AD34AC3312D4
:1064D8006B624016E5329536FFE5319535FEE530BD
:1064E8009534FDE52F9533FC8015C3E5369532FFCD
:1064F800E5359531FEE5349530FDE533952FFC12F1
:106508006A99D007D006D005D0041246B88F0F8EEE
:106518000E8D0D8C0CAF2AAE29AD28AC27126AF26D
:106528004013850F2A850E29850D28850C27E5251A
:1065380014543FF52685322E85312D85302C852F34
:106548002B85363285353185343085332FE5256501
:106558002460030264517875A626AF261274157D4F
:08656800407F7912ED007F0075
:10657000227F7912ED00E4F53AF53B753C00753D5C
:10658000247B087D037F0312848F8F2A8E298D2818
:106590008C2774FFFFFEFDFCAB2AAA29A928A82797
:1065A000C31247E322E52504543FF525FF12741575
:0765B0007F0312DA36EF222F
:107E07007F40127F5BEF6001227F4012940CEF608E
:107E17000122126A43C2067D027F0D12D400126A44
:107E270039C2067D017F1112D4007B007A00790DDB
:107E3700C2067D017F1312D400E50D5402F524E537
:107E47000CF52578B3E6FE08E6FFC39525F525EE84
:107E57009524F52478B6126B6ECF2401CF3400FE3B
:107E67007864E6FC08E6FDC39FF529EC9EF528D368
:107E7700E5299403E528648094804016EF9DFFEE82
:107E87009CFE12EADE7C007D021245F38E288F29C4
:107E97008005E4F528F529126AFEC37872126B6F24
:107EA700FEC3EF786996FFEE1896CFC39529CF9555
:107EB70028FE12EADE78AD126B94501DC3E52795B4
:107EC70025CFE5269524CF2529CF3528FEC37872FF
:107ED700E69FF618E69EF680031269F412AF1512B4
:107EE7006A43C2067D027F0912D400126A39C206AC
:107EF7007D027F1212D400E50D5401F524E50CF53F
:107F070025C378B9E69525FF18E69524CF24FEF515
:107F170025EF34FFF524126AFEEF787026FFEE187E
:107F270036FEC3EF786796FFEE1896FE12EADE7804
:107F3700AC126B94500A126AFE7870126B8C800E2A
:107F47007866E6FE08E6FF786FA60608A60712ED34
:037F5700F07F00B8
:017F5A002204
:106BC200D205E4F527742A2527126A4D7480F074E1
:106BD2002D2527126A6C7480F00527E527B403E59A
:106BE20012EE137F40127F5B8F23E5236001227F29
:106BF2004012940C8F23E523600122126B467F0220
:106C0200129B79EF60037F8022E523C394605003D7
:106C12007F8022126B467F01129B79EF60037F8097
:106C220022E523C3946050037F8022126B46E4FF67
:106C3200129B79EF60037F8022E523C394605003A7
:106C42007F802278B77605126D7F752602200503B4
:106C5200026D6B7527307B007A007924AF2612BA59
:106C6200C48F23E523B4800122E523644060737B53
:106C7200007A007925AF2612A4558F23E523B4802C
:106C82000122126B4FFFBF060BE5266401600575FA
:106C920023808003752302E524B4FA06E5256523E3
:106CA2006040E527D394084030E524D394FB502973
:106CB200E524C394F94022E5232401FFE433FED303
:106CC200E5259FEE6480F8748098500DE52314FF4B
:106CD200E525C39F40037527081527E527600302B2
:106CE2006C58742A2526126A4DE0D394F040267817
:106CF200B7E6B40718E526B402057526018047E514
:106D020026B40105E4F526803DC2058039752602C8
:106D120078B7068031742A2526126A4DE0C3941E84
:106D2200502C78B7E6B40418E526B402057526019E
:106D32008014E526B40105E4F526800AC205800622
:106D420075260278B71678B7126D7F026C4FE5266A
:106D5200B40206752601026C4FE526B40106E4F57D
:106D620026026C4FC205026C4F90F82AE06008A31D
:0C6D7200E06004A3E070037F80227F003B
:106D7E0022E6C45430F53B7BCFE4FD7FDC12D10319
:086D8E007F017E0012E8B02233
:109B79008D2E8B2F8A308931BF0304AB078005C333
:109B890074029FFB7DF87F7A12DC33E52E70307505
:109B99000C12750D80F50EF50F78B3E6FE08E6FF99
:109BA900D39409EE940040067E007F098008EF24D3
:109BB900FFFFEE34FFFE8F10E51004F511802278C7
:109BC900B179B8126A744BF50C78B9E6F50D8D0EBA
:109BD90078B579B3126A744BF50F78B4E6F5108D40
:109BE90011126A43C2067D067C007F7012D8FEE519
:109BF9002E5401C43354E04401FD7F7D12ED00125F
:109C0900A4ED8F0CE50C600122AB2FAA30A931C25B
:109C1900067D017F8712D400E52E700DAB2FAA3087
:0C9C2900A9311244F0F41245587F0022CB
:08BAC4008F288B298A2A892BA7
:10BACC007D01129B79EF60037F8022126B9FD394D0
:10BADC00FA4020EF2406F52CE4FBAD2CAF2812CC59
:10BAEC00D4EF6037E4FB7D04AF2812CD1AEF602B46
:10BAFC007F4022126B9FC394FA5020C374FA9FF5B7
:10BB0C002C7B01FDAF2812CCD4EF600F7B017D04A0
:0DBB1C00AF2812CD1AEF60037F40227F009A
:01BB290022F9
:08A455008F288B298A2A892B2C
:10A45D00126B4FFFBF060BE52864016005752D805B
:10A46D008003752D02AB29AA2AA92BE4FDAF281272
:10A47D009B79EF60037F8022126B3DFFD3952D40BA
:10A48D0016EF952DF52CD3940840047D088004AF6C
:10A49D002CAD07E4FB8041126B3DFFC3952D503D64
:10A4AD00C3E52D9FF52C126B4F64067019E52864DA
:10A4BD00016013E52CD3940840047D088004AF2C73
:10A4CD00AD077B018012126B3D7009E52C2404FD54
:0FA4DD007B0180047B01AD2CAF2812CD1A7F00CC
:01A4EC00224D
:10CCD400E4F52DEB601A126A4AE0FEC39D742A4003
:10CCE40009126A4CC3EE9DF08026126A4CE4801C43
:10CCF400126A4AE0FEC374FF9DC39E742A40081260
:10CD04006A4CE02DF08009126A4C74FFF0752D0115
:05CD140012D9E0AF2D73
:01CD190022F7
:10CD1A00E4F52EEB601A126A69E0FEC39D742D4099
:10CD2A0009126A6BC3EE9DF08026126A6BE4801CBE
:10CD3A00126A69E0FEC374FF9DC39E742D400812F7
:10CD4A006A6BE02DF08009126A6B74FFF0752E0190
:05CD5A0012D815AF2EF8
:01CD5F0022B1
:10B45800C0008004010F808000000000000032322C
:10B46800000A320000000002800200840808080870
:10B47800080896800008080808080891828A878EBC
:10B488008E7B808080808081808387817689816EB1
:10B4980080808080808061606367615669614E80CA
:10B4A8008080808080808080808080808080808094
:10B4B80080808080FFFFFFFFFFFFFFFFFFFFFFFF90
:04B4C800FFFFFFFF84
:1056BA0075F01390002712486FE40893FE74019363
:1056CA00A60608F622F0A3F0A3F0A3F07B017AF86D
:1056DA00799822E6FC08E6FDECA3F0AF05A3EFF00B
:1056EA0008E6FC08E6FDECA3F0AF05A3EFF008E638
:1056FA00FC08E6FDECA3F0AF05A3EFF022748C25BD
:10570A003DF582E434F8F583E07F0025E025E0FEEC
:10571A00EF22E52975F007A47B0124FFF974F73518
:10572A00F0FA7E00E92528F9EE3AFA1244F0FF74FD
:10573A00982528F582E434F8F5832275830012450A
:10574A0009FD748C2537F582E434F8F583E025E009
:10575A0025E022E0FDEEF6ED08F6A3E0FEA3E0FD6B
:10576A00EE08F6ED08F6A3E0FEA3E0FDEE08F6ED7E
:10577A0008F622AB28AA29A92A852E827583001247
:10578A004509FF90F881E0FD75F008A4252EF58201
:10579A00E435F0F583E5822290002775F01312486C
:1057AA006FE493FC740193FDEC22FA7879E675F0C4
:1057BA0003A4F58285F08302450975F008A4240044
:1057CA00F582E5F03EF583E58224F8F582E5833437
:1057DA003FF583E0547F2274922537F582E434F84A
:1057EA00F5832278AEE65470C4540FFF25E025E015
:1057FA002489F582E434B4F583E49390F831F0EF28
:10580A0025E025E0248AF582E434B4F583E4932282
:10581A0078767C007D007AB479587BFF7E007F061B
:10582A000244CA7A002FFFEA3EFE74F82FF582740A
:10583A003F3EF583E0222F7A00FFEA3EFE74002FF6
:10584A00F58274403EF583EDF02278AEE65470C4DA
:10585A00540F2275F008A42400FFE5F022E536541F
:10586A000375F004A42537F582E435F0F583AB33EC
:10587A00AA34A935227486253DF582E434F8F583E5
:10588A002224FEF58274433EF58322E6A3F008E65D
:10589A00A3F008E6A3F022E0F6A3E008F6A3E008E6
:1058AA00F622F090F88202481A78007CF87D017B93
:1058BA00FF7AB479647E007F1F2275F0139000216D
:1058CA00227F0790F89974FF22752B01752CF975C0
:1058DA002D007B017AF979802224FFF58274433EF8
:1058EA00F5832224FDF58274433EF5832224FCF5D8
:1058FA008274433EF5832224FBF58274433EF5838A
:10590A0022F582E434F8F58322FD74802EF582E4D0
:10591A0034F9F583EDF022AB38AA39A93A22E0FE30
:10592A00E53E5407FD7401A8050822E529241D90C7
:10593A00F898F0752801222400F582E583347BF576
:10594A0083E0222480F582E583347BF583E022E537
:10595A003E131313541F2290F89BF0A3EDF075F039
:10596A00132274002EF582E434F9F5832275F013BC
:0E597A0090002522AB2BAA2CA92D852E82226F
:10DA6100907FFFE06412600280051280AC400612D4
:10DA7100B10C0296C712DC0A12E56C12BDE412BFAA
:0BDA81000412DD6E12C64A12C4A4227B
:1096C70078C6E6A2E150277858E6FFC39410501EEB
:1096D700EF1313543FFF7B007A00790C12B77078B1
:1096E70058E6540325E025E0240CF8E6F52312EAB2
:1096F7003212B27D12D8A212B09112EE1912ED7485
:1097070012D27212ED4412CD6012EE5312E959785B
:10971700C6E6A2E150687858E6C394105060787B9B
:10972700E6C3940F4004E4F68003787B06785AE694
:10973700F52408E6F52508E6F52608E6F527783244
:109747007C007D007B007A0079237E007F05124430
:10975700CA12D002E4786EF6E5231259771256C082
:10976700E5231256BAE5231258C41256C0E408F688
:10977700787BE6FF12D5F0787BE67858F62278C634
:10978700E6A2E1400B7858E6FF9446500312C13633
:0197970022AF
:10D5F000786EE6FEC433333354804F90F898F008C9
:10D600001256DD08E6A3F078C6E6A2E140071256FE
:10D61000D6E4FF800C78C6E6A2E150081256D67F09
:05D62000031299F12244
:02C136008F2850
:10C1380078C6E6FFA2E14005E4F5298008EFA2E110
:10C1480050037529031256D6AD28AF2912B7DE5011
:10C158001A90F898E0C41313135401786EF6A3E00C
:10C16800FEA30812575DA3E008F622E4786EF6E510
:10C17800281259771256C0E5281256BAE5281258DF
:07C18800C41256C0E408F6E2
:01C18F00228D
:10B27D00E4F5281256D6AD28E4FF12B7DE50329011
:10B28D00F898E528F09000251257A590F899F0A3AD
:10B29D00EDF0E5281257A2125961E5289000211210
:10B2AD0057A890F89DF0A3EDF0E41256D4FF129933
:10B2BD00F10528E528C3944640B9E4F5281256D681
:10B2CD00AD287F0312B7DE501590F898E528F012DF
:10B2DD0058CBF0A3DFFC1256D67F031299F1052847
:07B2ED00E528C3941040D6D0
:01B2F4002237
:10D00200E535540FFEE4C4F8540FC868FFEEC4546B
:10D01200F048FEE533540F4EF533EF4534F53478DE
:10D022007BE690F898F0A3E532F0E533A3F0A3E5B0
:10D0320034F0A3E536F0A374FF1256D17F020299B1
:01D04200F1FC
:08B770008F328B338A348935D6
:10B77800E53225E025E0F536E53275F004A4240429
:10B78800FFE435F0FEC3E5369FEE6480F8748098D8
:10B7980050431256D6AD367F0212B7DE5020E4F57C
:10B7A8003774992537F582E434F8F583E0FF1258A9
:10B7B80067EF12456A0537E537B404E58012E4F50A
:10B7C8003712586774FF12456A0537E537B404F134
:05B7D800053602B780F8
:01B7DD002249
:10D8A200E4F5281256D6AD287F0212B7DE50159045
:10D8B200F898E528F01258CBF0A3DFFC1256D67F79
:0DD8C200021299F10528E528C3941040D604
:01D8CF002236
:10DB620078C6E6FEA2E140057524018008EEA2E136
:10DB7200500375240490F898EFF0787C1256DDA3D8
:0ADB820074FF1256D5AF240299F18A
:02C5A3008F24E3
:10C5A50078C6E6FFA2E140057525018008EFA2E106
:10C5B50050037525041256D6AD24AF2512B7DE50AB
:10C5C5000C90F899E0FEA3787C12575D2275F01364
:10C5D500E52490002512486FE4787C1256C575F065
:10C5E50013E5241256BD75F013E52490002112566B
:01C5F500C085
:01C5F6002222
:10B09100E4F5281256D6AD287F0112B7DE5035905F
:10B0A100F898E528F01259771257A890F899F0A36B
:10B0B100EDF0E5281257A2125961E52890002112FE
:10B0C10057A890F89DF0A3EDF0A374FF1256D57F19
:10B0D100011299F10528E528C3944640B6E4F52804
:10B0E1001256D6AD287F0412B7DE501590F898E5B8
:10B0F10028F01258CBF0A3DFFC1256D67F04129928
:0AB10100F10528E528C3941040D69C
:01B10B002221
:10E7C60090F8987401F0787612589508125895A327
:0AE7D60074FF1256D57F050299F179
:10E56C001256D67D017F0512B7DE500E90F89978C1
:0EE57C00761258A1A3081258A12212581A2292
:06EE190012581A02E7C6C0
:10C90C00E4F529F52912593512571CEFF00528E5E5
:10C91C0028B408F41256D67F051299F10529E52999
:10C92C00C3940440E012593512571CEFF00528E56A
:10C93C0028B403F475280312573974FFF00528E561
:0CC94C0028B408F31256D67F050299F1BA
:10BDE400E4F522E522241DFD1256D67F0512B7DEA6
:10BDF400503E752301E522B404047F0380027F08CA
:10BE0400E523C39F50307498252312573DE0FDE588
:10BE14002275F007A47B0124FFF974F735F0FA7E4C
:10BE240000E92523F9EE3AFAED124558052380C5B9
:0FBE34001258B30244CA0522E522C3940540A464
:01BE430022DC
:09ED74001258B31244CA02C90C82
:10CA870012585470047F0280027F0390F898EFF0E9
:10CA970090F82AE090F899F090F82BE090F89AF047
:10CAA70090F82CE090F89BF090F82DE090F89CF02F
:10CAB70090F82EE090F89DF090F82FE090F89EF017
:0BCAC70078B7E61256D47F050299F103
:10BF040012585470047D0280027D031256D67F05B8
:10BF140012B7DE503890F899E090F82AF090F89A29
:10BF2400E090F82BF090F89BE090F82CF090F89CBF
:10BF3400E090F82DF090F89DE090F82EF090F89EA7
:10BF4400E090F82FF090F89FE078B7F622782A7CFA
:0FBF5400F87D017AB4798312582478B7760522E4
:10D27200125854F528782A7CF87D017BFF7AB4791C
:10D282008312582678B7760578AEE6548FF612CA1E
:10D292008778AEE6548F4460F612CA87E528C454F4
:09D2A200F0FF78AEE6548F4FF660
:01D2AB002260
:10DD4800125854240490F898F090F831E090F8991B
:10DD5800F090F832E090F89AF0A374FFF0A312560E
:06DD6800CF7F050299F1D6
:10DD6E001258542404FD1256D67F0512B7DE500EFB
:10DD7E0090F899E090F831F090F89AE080031257FD
:06DD8E00ED90F832F022D6
:0AED44001257ED90F832F002DD489E
:10D4E00012585475F005A4FF7879E6540F24092FDB
:10D4F00090F898F090F835E090F899F090F836E0D0
:10D5000090F89AF090F837E090F89BF0A374FF122F
:07D5100056CF7F050299F1DF
:10C64A007879E6540F2409FD1256D67F0512B7DE13
:10C65A00501690F899E090F835F090F89AE090F832
:10C66A0036F090F89BE080257BFF7AB4798F787951
:10C67A00E6FF1257B890F835F07AB40975F003EF6F
:10C68A001257BB90F836F07AB4091257B590F837BA
:02C69A00F0228C
:10CD600012585475F00FA4FFAEF0248FF974B43E3E
:10CD7000FA7BFF1257B590F835F074902FF974B420
:10CD80003E1257B490F836F078AEE65470FFC454B3
:10CD90000F75F00FA42491F974B435F01257B490C4
:06CDA000F837F002D4E0B8
:10C4A40090F881E07002802590F881E0FF541F60CD
:10C4B4003EEFC3942050197420F0752BFF752C8324
:10C4C400752DD97BFF7A83795912A698E4FF8021D0
:10C4D40090F881E0C4135407C43354E0F07F011290
:10C4E400C19090F881E02420F01258D302A6987FDE
:05C4F4000112C19022BD
:10C1900090FF207406F0EF701AFEEE908359931210
:10C1A0005913EE9083D993FD12596CEDF00EBE80B9
:10C1B000E9802FEF6401702AFE90F881E0FF75F0AE
:10C1C00008A42E12579812594112591375F008EF0E
:10C1D000A42E12579812594DFF12596CEFF00EBE53
:08C1E00080D790FF207407F0E6
:01C1E8002234
:03EE530002C4A452
:06A698008B288A29892AA3
:10A69E00E4F52E12577D1259416F701D12597EF539
:10A6AE0083124509FF75F008ED12579512594DB5F5
:10A6BE000707052EE52EB480DAE52EC3948050569A
:10A6CE0090F881E0C3946040107F1F12E6B5907F32
:10A6DE00FF7412F0E490F881F0E4F52E12577D2409
:10A6EE0000F582E583347CF583EFF012597E758395
:10A6FE0000124509FF75F008ED1257952480F5827A
:10A70E00E583347CF583EFF0052EE52EB480CD90F5
:06A71E00F881E02420F0A8
:01A724002212
:06EE1F001258D302A69870
:10B10C007F1F12E6B5400122752210AF2212E6B560
:10B11C004001220522E522C3941640EFE4F522E516
:10B12C00221257131258E3E522F0EF12588BE4F079
:10B13C001258EDE4F01258F7E4F0125901E522F040
:10B14C002486125883E522F0248C12590BE522F048
:10B15C0024921257E5E4F00522E522B406C1907F53
:10B16C00FF7412F090F8807406F090F88212483E4A
:0AB17C0000000000E490F881F0D319
:01B1860022A6
:10E6B500EF33333354F8440190FF39F07BFF7AEDA3
:0CE6C50079187F2812E5C6400122D322FC
:1080AC00E4F527F526F525F524F52890F8821248F5
:1080BC003E00000000E4F52274862522125883E568
:1080CC0022F00522E522B406EFE4F523E4F522E5DF
:1080DC00221257131258E3E0FD748625231258839D
:1080EC00E0FFED6F60030281ADE522FB1257131226
:1080FC0058EDE0FCEF1258F7E06CFCEB1257151240
:10810C00588BE06CFFED6FFDE522125713125901ED
:10811C00E06D60030281AD748C252312590BE522AE
:10812C00F0FF12DE51749225231257E5EFF0E52291
:10813C007D0025E025E0FCED24FDF58274433CF543
:10814C0083E07B00FAED24FCF58274433CF583E07C
:10815C007E007810C333CE33CED8F9FFEE4AFCEF55
:10816C004BFDE52212571312588BE0FFECFEED4F3E
:10817C00FFE48F278E26F525F5241258ADAB27AAE0
:10818C0026A925A824D31247E34029AF27AE26AD54
:10819C0025AC2490F88212483290F880E522F080C9
:1081AC0013E522B40E02C3220522E522C3940F501C
:1081BC00030280DB0523E523C3940650030280D819
:1081CC007F0F12DE5190F881EFF0E4FFFEFDFCA36F
:1081DC00124826C31247E390F88070057406F080AD
:0C81EC000AE0FF12D6F290F880EFF0D30A
:0181F8002264
:02DE5100A9071F
:10DE53007D7FE4FCE925E025E0FAED12585D3AFE0A
:10DE6300EC12582DF46003AF05220CBC08E6DDE28A
:02DE73007F002E
:01DE7500228A
:10D6F200E4FEBF0E03FF80010FEEFD3395E0FC74E4
:10D702008C2DF58274F83CF583E0B5070ABF0E0450
:10D71200E4FF80010F7EFF0EC3EE6480948640D941
:01D7220022E4
:10EA3200E490F898F01258CBF0A3DFFC1256D67F80
:04EA4200050299F13F
:10E95900E490F898F07F0790F899E4F0A3DFFC12AF
:07E9690056D67F050299F16B
:10DC0A001256D6E4FD7F0512B7DE5019752201744B
:10DC1A0098252212573DE06002800A0522E522C3B8
:08DC2A00940840EB221296C79A
:01DC320022CF
:0899F1008F378B388A39893A5F
:1099F900D20674922F1257E5E004F53BE53BD39468
:109A090000404912574CFEE53B1257C4FF12592139
:109A19001244F0547F6F7028F53C125921853C821D
:109A2900125745FAE53B12585D3AFEE53C12582DAE
:109A39006D6004C2068015053CE53CB408DC800C69
:109A4900E53BB40102C206153B029A0520065D12E8
:109A590057E1E0B47F05AF370270F0753B01125949
:109A690021853B82125745FA1257E1E012585D3AB7
:109A7900FEE53B125840053BE53BB408E11259218C
:109A89001244F012574BFE1257E1E075F008A42476
:109A990000F582E5F03EF583E5822400F582E58351
:0C9AA9003440F583EDF01257E1E004F0CA
:019AB500228E
:0AB7DE008F388D398B3A8A3B893C85
:10B7E80074922F1257E5E004F53DE53DD3940040EF
:10B7F80050748C2538125750FEE53D1257C46539F0
:10B808007033F53E748C2538125750FCE53D1258BC
:10B818005D3CFE7C00EF253EFFEC125832AB3AAAA5
:10B828003BA93C853E8275830012456A053EE53E8C
:10B83800B408D1800CE53DB40102C322153D02B71E
:02B84800F2D339
:01B84A0022DB
:0270F0008F3DD2
:1070F200754001748C2F12590BE0F54190F880E035
:107102002410FF12E6B5400122E4F97498291257BF
:107112003DE0FD90F880E025E025E0FEE924001244
:10712200584109B908E590F898E0547FF53EE4F536
:107132003F7498253F12573DE4F0053FE53FB40800
:10714200F0125959FF249812573D1259288002C350
:1071520033D8FC4EFE74982F12573DEEF090F88013
:10716200E0FF748C253D12590BEFF012D6F290F825
:1071720080EF1258ACEF2401FFE43EFEE43DFDE453
:107182003CFC90F882124832797FE54125E025E007
:10719200FE75F008E91257C7F53E647F700302726C
:1071A20020125959249812573DE0FD7C00E53E54C7
:1071B20007FF74017E00A807088005C333CE33CED3
:1071C200D8F9FFEE5CFEEF5D4E7053F53FE54125C9
:1071D200E025E0FCE912585D3CFE7C00EF253FFF14
:1071E200EC125832FD748C253D125750FAE54012CC
:1071F200585D3AFEE53F125840053FE53FB408CDE1
:10720200125959FF249812573D1259288002C3334C
:10721200D8FC4EFE74982F12573DEEF0054019E946
:10722200600302718C7492253D1257E5E5401258B5
:10723200AC78101247F4AB071257071258F7EB124B
:1072420058AC78081247F4AA071257071258EDEA09
:107252001258ACAD0712570712588BEDF012587F37
:10726200E0FC1257071258E3ECF0EB6A6DFF12587C
:107272007FE06FFD125707125901EDF0E54124102E
:08728200FF12E6B5400122D322
:01728A0022E1
:10986500AE3AAF3B7C007D021245F3EF2BF53BEEA4
:109875003AF53AAB2BAA2CA92D0246291246C6E485
:109885007B02FAF9F81246C6AB31AA30A92FA82EE9
:1098950012CE748E3A8F3BD3E53B9400E53A648053
:1098A50094802290F839E0FEA3E0FBAA06E4F9F8DB
:1098B500AE36AF3722AB35AA34A933A832AF31AEB5
:1098C50030AD2FAC2E1246B8A80422A804A905AACB
:1098D50006AB07E0FEA3E0FFE4FCFD22AEF0FBE4EF
:1098E500C39BFF74809EFEE49400FDE49400FC227B
:1098F5007A00790C7B00D2067D0122E53B5401FFFD
:10990500C3E49FFFE49400FAAB072290F839E0FC2A
:10991500A3E0FDEC22AB05AA04E4F9F8E53722AB98
:069925002BAA2CA92D2243
:10DB8C007876E633501C78AEE6A2E250151298F582
:10DB9C007F0212D400E50C54037007E50C20E70259
:0ADBAC00C32278AEE654F7F6D32248
:066D96008B2B8A2C892DD5
:106D9C00E4FD7F1F12ED007D807F4412ED00129800
:106DAC0078FFAEF012CEB85002C322126F28F5361F
:106DBC00E50DF537E4FD7F4412ED00129878FFAE37
:106DCC00F012CEB85002C322126F28F538E50DF53B
:106DDC00391298A8FCFD1246C6A804A905AA06AB50
:106DEC0007AE38AF39E4FCFD1246AB8F318E308DD7
:106DFC002F8C2ED3E5399490E5389401402B1299C1
:106E0C001013FEED13FFE5392470FBE53834FEFA60
:106E1C00D3EB9FEA9E400D12991A2401FFE43536FC
:106E2C00FEE480311298A8802C129910C313FEED49
:106E3C0013FFC374909539FB74019538FAD3EB9F0B
:106E4C00EA9E400E12991A24FFFFE53634FFFEE449
:106E5C0080031298A8FCFD1246C6EF2490FFEE3476
:106E6C0001FEE43DFDE43C8F358E348D33F532125A
:106E7C0098BAC005C006C0071298781298E1D003E2
:106E8C00D002D0011298814009E53B54017A00FBF5
:106E9C008003129900129865126F3C5002C322E5D0
:106EAC000C606990F83930E1141298D8E5352FFF51
:106EBC00E5343EFEED3533FDEC35328017E0FEA3B4
:106ECC00E0FBC3E5359BFFE5349EFEE5339400FD06
:106EDC00E53294008F358E348D33F5321298BAC06A
:106EEC0005C006C0071298781298E1D003D002D0E2
:106EFC00011298814009E53B54017A00FB80031292
:106F0C009900129865126F3C5002C322AB2BAA2C2D
:0B6F1C00A92DE53A853BF012468CD30E
:106F2700227B007A00790CC2067D027F4412D400CE
:106F3700E50C540F22AEF0253BF53BEE353AF53A1A
:076F4700AF3BFE12CEB822A1
:10BE44008B2B8A2C892DE4FF12E9CA900A21E493F2
:10BE5400FF129924E48FF0124654129924124629B1
:10BE6400FFAEF012CEB850037F0222E50C602E1212
:10BE7400992430E10D12462924FFFFE5F034FFFE3A
:10BE8400800A1246292401FFE435F0FE12CEB85090
:10BE9400037F0222E50C540360037F01227F00220A
:108E1200E4F52EF52DF52CF52BFB7DFC7F4712DCBE
:108E2200337B107DEF7F5012DC3312ED627BFF7AD1
:108E3200EB79437F3C12E5C64003028F057B407D00
:108E4200BF7F5212DC33E4FD7F5912ED00E4F50CD2
:108E5200FB7A00790DD2067D037F5912D400850F6B
:108E62002E850E2D850D2C850C2BE4FB7D5F7F520C
:108E720012DC337A0079331298F97FAE12D40005EE
:108E82003305337B007A007934D2067D017FAF123D
:108E9200D400E5345430C4540FFF7401A80708808D
:108EA20002C333D8FCF534FFE4FCFDFEFBFA79087B
:108EB200F81246C690F8391298D01246C6AB2EAABE
:108EC2002DA92CA82B12475190F83D1298D012468A
:108ED200C6C007AF33AB07E4FAF9F8D0071247511F
:108EE2008F328E318D308C2FC3E49532FF74809592
:108EF20031FEE49530FDE4952F8F328E318D30F5C1
:108F02002F800BE47532FF7531FFF530F52FE4FB4E
:0B8F12007DEF7F5012DC33AE31AF3238
:018F1D002231
:10CEB8008E3C8F3DE4FB7DFE7F4712DC3312ED6232
:10CEC800AF3DAE3C12E1B1E4FD7F0212ED007F08F8
:10CED80012D1427F0812D14212AB7E500122129821
:10CEE800F57F0212D400E50C54606002D322530C83
:03CEF80003C3224F
:10728B00E4F528FB7A00790CC2067D027FB512D497
:10729B0000E50C540FF523E50DF524E4FB7DFD7F94
:1072AB00BB12DC33E4FF12E9CA128E128E258F2635
:1072BB0012CEB850037F0222E50C7053432801E530
:1072CB00262418FFE43525FE12CEB850037F022288
:1072DB00E50C7003432802E52624E8FFE52534FF7F
:1072EB00FE12CEB850037F0222E50C700343280434
:1072FB00E528B40309740C2526F526E4800DE52852
:10730B00B4050C74F42526F52674FF3525F525E513
:10731B002860030273EEAF24AE2312E1B1E4F5282B
:10732B00752718AF24AE2312CEB850037F0222E587
:10733B000C603CE50C30E11AE5287E0030E0047F60
:10734B000C80027F18C3E5249FF524E5239EF523CB
:10735B008017E5287E0030E1047F0C80027F18EF58
:10736B002524F524EE3523F523850C28D527B4E504
:10737B002770037F0122E528701CE5242418FFE405
:10738B003523FE12CEB850037F0222E50C6003FFBB
:0F739B0080027F018F28852325852426752704EE
:1073AA00E52830E00BE526240CFFE43525FE800AAB
:1073BA00E52624F4FFE52534FFFE8E298F2A12CE16
:1073CA00B850037F0222E50C7009852925852A26F3
:1073DA00D527CDE5242526FFE5233525C313F52535
:1073EA00EF13F5267B007A007925126D9640037F0C
:1073FA0002227B007A00792512BE448F28E5286094
:0A740A00012278AEE64408F67F0088
:017414002255
:10EA460012E7247827E475F001024884D29012EA8E
:04EA56006EC29022DA
:10EA6E000000000000000000000000000000000098
:03EA7E0000002273
:10E9DF00D29012EA6E3090FDD291C29112EA6EC2BD
:05E9EF009012DD9422EE
:0AED4E00C291D29012EA6ED2912217
:10EAF000D291D29012EA6EA291E433FFC290D291E9
:01EB000022F2
:06EE2500C29112EA522224
:06EE2B00D29112EA52220E
:10DD9400E4FEEF335004D2918002C29112EA52EFB2
:10DDA40025E0FF0EBE08EB12EAF0EF600612ED4E1E
:05DDB4007F00227F0149
:01DDB9002247
:10E72400E4FFD291FED29012EA6EEF25E0FFA291AF
:0AE73400E4334FFFC2900EBE08EB65
:01E73E0022B8
:02DEE5008D2A84
:10DEE700752BFF8F2CAF2C12E9DFEF64016005D58E
:10DEF7002BF3C322AF2A12DD94EF64016002C32221
:01DF0700D346
:01DF080022F6
:06C78B008F238A258B2696
:10C79100E52645257002C322AF2312DEE5400122C2
:10C7A100E5234401FF12E9DFEF64016002C322E5E2
:10C7B10026152670021525144525600C12EA46EF50
:10C7C10012455812EE2580E712EA46EF124558123B
:06C7D100EE2B12ED4ED329
:01C7D700223F
:08B013008F238D248A258B2672
:10B01B00E52645257002C322D3E5269400E5259449
:10B02B00004061AD24AF2312DEE5400122E524543C
:10B03B000FFFC374109FFDFF7E00D3E5269FE52510
:10B04B009E401CE5269FF526E5259EF525E524C3A8
:10B05B0094F0400405230523ED2524F5248007AD4A
:10B06B0026E4F525F526AF051DEF6013782712EAC8
:10B07B004B1244F0FF12DD94EF640160E9C322121E
:05B08B00ED4E8094D39E
:01B09000229D
:03000B0002B8B781
:10B8B700C0E0C0F0C083C082C0D075D000C000C057
:10B8C70001C002C003C004C005C006C007D28C7502
:10B8D7008A21758CF8D20A78A7E6FE08E6FFF4708D
:10B8E70002EEF4600AEF4E6006E61618700116E5E0
:10B8F7005760041557800920090612DF5175570A4A
:10B90700D007D006D005D004D003D002D001D00094
:0BB91700D0D0D082D083D0F0D0E0323E
:07EDF700C10000FD54FEFF06
:10ADA600019B1E01A60F02A401D201A100019E0073
:10ADB60001A000019F00019D0001A20001A3000166
:05ADC6009C0001560095
:1081F9007864E6FA08E6FBFF7C007D64AE0212456E
:108209009E7C007D0A12459EED243022FFC3ED9F1E
:10821900FFEC9ECF24FCAD26CF34FFFE7C00124537
:108229008CE4FD7B64FAF9F8024751E524FD7C00F2
:10823900FFC3E5239FFFE5229400FAA9077BFFD23C
:10824900067F922290845BE493FE74019390845F8D
:10825900FFC37401939FFFE4939EFEEF780222F51A
:108269000D7B007A00790CC2067D027C007F90228A
:10827900E50C24FDFDE434FFFC7B007A00790FD284
:10828900067F92227C007D0AE6FE08E6FF02459EF3
:10829900E4F52485238285228322FE7C007D6412F5
:1082A900458CAD03AC0202459EC207D2087F9222DB
:1082B900E47B0AFAF9F8AF25AE24AD23AC220247D4
:1082C900517B007A00790CD20622AB2DAA2EA92F58
:1082D9001244F025E025E02278ACE6C39FFFE49E36
:1082E900FE22EF2402FFE43EFEE43DFDE43CFCE413
:1082F9007B02222430F52FEF75F00A84E5F022C2C3
:1083090007C2087F90227C007D0AAF032290846710
:10831900E493FE740193227864E6FE08E6FF22FBEB
:108329007A00790CC206222523F523E43522F522A9
:0B83390022EF25E0FBEE33FAC3E62242
:10BB2A00789BEFF678A6A6052401F523E433F522DF
:10BB3A0078A4A60208A60312830812EA097FC01293
:10BB4A00D7547F0412D7541200031282B212EA09A0
:10BB5A00AF23E52312D754E522C4F854F0C8E523ED
:10BB6A00C4540F4854F0FF78A5E6540F4FFF12D77C
:10BB7A005479A4E7C4F854F0C809E7C4540F48FF3D
:06BB8A0012D75402000373
:10C44E008E248F258C268D278B2812830812EA09BD
:10C45E00E524540F4528FF12D754AF25E52512D7F2
:10C46E0054120003E528B4D00FAE26AF277C007D12
:10C47E000312458C8E268F271282B212EA09E52707
:10C48E004526600FAF2912D754E527152770EF15F3
:06C49E002680EB02000302
:10D358008F228D23EFFD7C007529807B10E4FFFE72
:10D3680012C44EE4FF12EB33E522FD7C00752988D8
:10D378007B50E4FFFE12C44EE522FD7C0085232984
:08D388007B90E4FFFE02C44E9D
:04CEFB008B33AC07C2
:10CEFF0078A6E6FFED8FF0A4FF789BE62401FBE414
:10CF0F0033CB2FFFEB35F0FEAD047C00EF2DF53565
:10CF1F00EC3EF53412830812EA09E534540F453319
:0ECF2F00FF12D754AF35E53512D75402000378
:10EB33008F2E1282B212EA09AF2E12D754020003AB
:10DE76008E268F271282B212EA098527828526838B
:10DE8600E493FF600D12D7540527E52770EC0526AD
:05DE960080E80200031A
:08D844008E228F238D248B2519
:10D84C0012EBD3EFC313FEC395244005E4F52480FB
:10D85C0006C3E5249EF5247B50AD25AF2412CEFBE8
:07D86C00AF23AE2202DE76BD
:08D8D0008E228F238D248B258D
:10D8D80012EBD3EFC313C395244005E4F524800667
:10D8E800C3E5249FF5247B50AD25AF2412CEFBAFB2
:06D8F80023AE2202DE76E1
:04C4F900AB07AA06DD
:10C4FD007C277D1012459EEF2430F5227C037DE8CC
:10C50D00AF03128205F523AF03128201F5241283C6
:10C51D000F128205F525AE02AF0312820AF526121F
:10C52D0082B212EA09AF2212D754AF2312D754AFF9
:10C53D002412D754AF2512D754AF2612D754020068
:01C54D0003EA
:10C69C00EF75F06484FED394004012EE2430F52E36
:10C6AC00EF75F00A841283011282FC8019EF75F089
:10C6BC000A84FED39400E44008F52EEE1282FC802E
:10C6CC0005F52EF52FEF2430F5301282B212EA095F
:10C6DC00AF2E12D754AF2F12D754AF3012D75402FB
:02C6EC00000349
:10D1BF00EF540FFEC3940AEE50062430F52380047B
:10D1CF002437F523EFC4540FFEC3940AEE50062400
:10D1DF0030F52280042437F5221282B212EA09AF09
:0CD1EF002212D754AF2312D754020003C1
:10E7E000750C81EF25E025E02403F50DE4F50E120C
:0AE7F00083287D03FC7F9002D8FE11
:107B51008E228F238C248D258B26E526D394644099
:107B610003752632E527D394644003752732E5284F
:107B710030E75C12824DCEC313CE13D8F9FDAC06AB
:107B8100E522C313FEE523131282151282EB128242
:107B91002E8E228F2312831690846B128259CEC3AC
:107BA10013CE13D8F9FDAC06E524C313FEE5251366
:107BB100FFC3ED9FFFEC9ECF24FDAD271282211262
:107BC10082EB12822E8E248F2543287F027C341271
:107BD100824DCEC313CE13D8F9FDAC06E523AE22F8
:107BE1007802CEC313CE13D8F9128215EF2406F50D
:107BF10023E43EF522128316FFC390846B12825B4D
:107C0100CEC313CE13D8F9FDAC06E525AE24780218
:107C1100CEC313CE13D8F9FFC3ED9FFFEC9ECF2443
:107C2100FACF34FFFEAD27128225EF2404F525E4B7
:107C31003EF5247B027DF87F9312DC337D017F6C5E
:107C410012EA5A8F0CE50C70047FC080027FE08F2E
:107C51000CE4F50D1283287D02FC7F9012D8FEE51D
:107C610024C313E52513F50CE523AE227802CEC318
:107C710013CE13D8F9F50DE5235403C4333354C09F
:107C8100FFE5255401FEC43354E04F4528F50E129B
:107C910082CA7D037C007F9212D8FE7F2012D142DE
:0E7CA1007F2012D1427B057DF87F9302DC33F9
:10D785008B30AE05AD07AF06AB3212CEFBE532B43A
:10D79500D008E53075F003A4F5301282B212EA091B
:10D7A500E5306009AF3112D754153080F30200031C
:10E4D1008F258D268B27E5266014852931852A32E3
:0FE4E100AB28AD27AF2512D7850525D526EC2210
:10A1CB0078627C037DE8128291EF4E6005750F314A
:10A1DB008003E4F50F78621281FBF51012830F12E6
:10A1EB008205F5117862E6FE08E6FFBE051ABF563A
:10A1FB00177865E6B4001118E6B4030C7C007D0AF1
:10A20B0012459EED24FA8006786212828DED243081
:10A21B00F5127513207514587515201283207C03C5
:10A22B007DE812459EEF4E60207516311281F9F5CF
:10A23B001712830F128205F51812832012820AF56A
:10A24B0019E4F51A750C0E801B1281F9F5161283A1
:10A25B000F128205F51712832012820AF518E4F506
:0AA26B0019750C0D12827902D8FE5D
:10D51700785C12828DEF75F00A8475F00A8485F0C5
:10D5270018EF75F00A8485F017750C07E518243095
:10D53700F50FE5172430F51075114875125AE4F503
:07D547001312827902D8FEE5
:10AA70007858E675F01390001B12486F128319FF87
:10AA8000E48F258E24F523F5227B64FAF9F81282EF
:10AA9000C3E47B0A12822EAF038F191282B9E47BC2
:10AAA0000A12822EAF038F181282B9AF038F17E5F7
:10AAB00019C3940A4011E51975F00A8404F51A7453
:10AAC000F62519F5198003E4F51A750C0B851A0F94
:10AAD000E5192430F510E5182430F51175122EE52E
:10AAE000172430F51375144B75154875165AE4F58F
:07AAF0001712827902D8FE63
:049318008E228F23EF
:10931C00AA06A9077BFF12827012D8FE0293B21222
:10932C00829CE49364FC704C12823412D8FE12823C
:10933C00990493FFD39403400302940BEF24FCF5A0
:10934C002512829C740293B4FD14740393FD7C006B
:10935C00D205AB257F9212DE0674040293EA7B00E1
:10936C007A007925D2067D017C007F9212D8FE749A
:10937C00020293EA12829CE49364FD7034128234EC
:10938C0012D8FE12829C74019324FFFDE434FFFC7E
:10939C00E58224FFF582E58334FFF583E493FBD269
:1093AC00057F9212DE067402128330E4F5240293D8
:1093BC002B12829CE49364FE702A12823412D8FE23
:1093CC000523E523700205221282990493F4602F81
:1093DC00AA22A9237BFF12827012D8FE7402128378
:1093EC003002932B12829CE493B4FF061282340257
:0F93FC00D8FE0523E52370020522052402932BDA
:01940B00223E
:0EEC2D007F2012D1427B017DFE7F6C02DC3322
:09ED7D00E4FB7DFE7F6C02DC3337
:0C8BE4008E258F268C278D288A298B2A4D
:108BF0007D017F6C12EA5A8F30E53070047FC180AE
:108C0000027FE18F0C1282D30412826812D8FE7E9A
:108C100000E526543F7802C333CE33CED8F9F50CA5
:108C2000E5255407FEE52654C07806CEC313CE13BF
:108C3000D8F9FFE5285407C43354E04FF50DE52873
:108C4000AE277803CEC313CE13D8F9F50E7E00E518
:108C50002A543F7802C333CE33CED8F9F50FE52935
:108C60005407FEE52A54C07806CEC313CE13D8F9B4
:108C7000FFE52C5407C43354E04FF510E52CAE2B20
:108C80007803CEC313CE13D8F9F5111282CA7D062C
:108C90007C007F9212D8FE7F287E0012E8B0E4F5B7
:108CA00031750CC11282D3FFE53175F003A42F1288
:108CB000826812D8FEE4F530E53175F003A47C003B
:108CC0002530FFEC35F0FEAB2DE52F2FF9E52E3EDC
:108CD000FA900001124509FF740C2530F8A607052B
:108CE00030E530B403D21282CA7D037C007F921239
:0B8CF000D8FE0531E531C3940240A618
:018CFB002256
:10D390008F228B238A248925750C411282D924037C
:10D3A00012826812D8FEAB23AA24A9259000051288
:10D3B000450954F0FFE522540F4FF50C1282CA7D47
:08D3C000017C007F9202D8FEFF
:02C021008F2767
:10C02300E527701912C0647881E640082432FF18AE
:10C03300E436FE222529FF18E63528FE22E527648B
:10C0430001701D12C064400C7881E624CEFF18E60F
:10C0530034FFFE22C37881E69529FF18E69528FE72
:10C06300227880E6FE08E6FF7B007A00792812AF8B
:0BC0730095D3E5299432E528940022C3
:10E73F00EFC4333354C0F50C750D018D0E7B0012F1
:0BE74F0083297D037C007F9002D8FE30
:04EBD3008F828E831C
:0AEBD700E4FFE49360040FA380F84C
:01EBE1002211
:10D0C400E52B601BC3EB9DEA9C4009E52C702FAF58
:10D0D40005AE0422EB2401F52EE43AF52D801BD392
:10D0E400EB9FEA9E500AE52C700122AE04AF0522A4
:0ED0F400EB24FFF52EEA34FFF52DAE2DAF2E06
:01D10200220A
:10DDBA007F0112C0218E258F26E4FF12C021C3EFF6
:10DDCA009526FBEE9525FAC37874E69526FF18E6A4
:05DDDA0095251282A353
:01DDDF002221
:10CF3D00C37967E7787D96FF19E71896FE12EADE4A
:10CF4D001282E1787CE6FC08E6FDC39FF526EC9E97
:10CF5D00F525C37867E69DFF18E69CFE12EADE1202
:10CF6D0082E1787012833A9526FF18E69525128294
:01CF7D00A310
:01CF7E002290
:10CDA600C37969E7787F96FF19E71896FE12EADEDF
:10CDB60078AD1282E3787EE6FC08E6FDC39FF52691
:10CDC600EC9EF525C37869E69DFF18E69CFE12EAFF
:10CDD600DE78AD1282E3787212833A9526FF18E662
:05CDE60095251282A357
:01CDEB002225
:10BC59007877E6F52290F835E0F519A3E0F51AA30F
:10BC6900E0F51B1296C790F835E519F0A3E51AF02F
:10BC7900A3E51BF012C90C12E7C612CC8D12C29BA8
:10BC890012EE5A12EE13E522640160177873E6FE8C
:10BC990008E6FF1249187875E6FF12741512EDF0DF
:10BCA90012AF157877A622786E760178C7E6440830
:04BCB900F602B2F5E8
:10E7FA008F2212830812EA097F4012D7547F03122C
:0AE80A00D754AF2212D754020003C6
:10E81400E4FFFEFDFCED1D70011C8D828C83E493EE
:09E824002FFFE43EFEED4C70EC08
:01E82D0022C8
:10E08900E50B450A700712E8148E0A8F0B7B50E4E2
:10E09900FD7F0912CEFBE50AFF12D1BFAF0B02D1FA
:01E0A900BFB7
:10E8FA00129E5778C7E6A2E1400312D31F78C7E6F3
:08E90A00A2E2400312ECF4222A
:10C73D00E4FFFDFBE55630E71530E0027FFFE556DF
:10C74D0030E1027DFFE55630E2197BFF8015E5569D
:10C75D0030E0027F7FE55630E1027D7FE55630E225
:10C76D00027B7F12D54E0556E55630E00790FF61EE
:0DC77D0074018004E490FF61F090FF60F013
:01C78A00228C
:10A8CC007D0112A9407EF67F0012DE767F2012EB0E
:10A8DC00337EF67F0712DE767D0212A9407EF67F6C
:10A8EC001C12DE767D0312A9487EF67F2312DE76DB
:10A8FC007D0412A9487EF67F3512DE767D0512A9FD
:10A90C00507EF67F3E12DE767D0612A9507EF67FD3
:10A91C004912DE767B507D07E4FF12CEFB7EF67F7C
:10A92C005512DE767B507D08E4FF12CEFB7EF67F5F
:10A93C006202DE767B50E4FF12CEFB227B50E4FFFA
:0CA94C0012CEFB227B50E4FF12CEFB2257
:10D7230030042A78BCE67028300105C20102ED7D81
:10D73300D20178C7E64408F612B70112BEA412E07C
:10D743008912A8CC7BFF7AED79E002D87312C6EE7A
:01D7530022B3
:10DBB60078BC760812D95A502078BAE608F612CD03
:10DBC600EC78BAA60712D3C8500678BAE6B40B09A1
:0ADBD6007876E633500312B4CC2237
:0FEBE20078BAE608F612CDEC78BAA60702D3C8C7
:0AED580078BDE654FEF654FDF622E5
:10D95A0078BDE6A2E1500B135008E654FDF654FEDA
:10D96A00F62278BDE6A2E140124402F67BFF7AED88
:0DD97A0079FE7F027E0012C825C322C32261
:07EDFE0078BDE64401F62296
:07EE050078BDE64404F6228B
:10DA8C0079BBE778BA665F600578BCA6052278BDDD
:10DA9C00E6A2E35015A2E2500418A605227BFF7AF9
:0BDAAC00EE79057F327E0012BD832260
:10D3C80078BAE6FF30E02F086630E02A12CDEC7814
:10D3D800BAA6077876E6335002C204C201E4F5081B
:10D3E800F50920040312E4F078C7E64401F678BD95
:08D3F800E654F7F6D322C3222C
:10CDEC00E4FF90FF5FE020E0027F0490FF5DE02015
:10CDFC00E00343070890FF5CE020E003430710903A
:10CE0C00FF5AE020E00343070290FF58E020E003C4
:10CE1C0043070190FF59E020E003430720209103D2
:03CE2C0043074079
:01CE2F0022E0
:10E4F0007876E633920678BAE624F5600A24FE7050
:0EE500000D20060AD20422300604E478BAF692
:01E50E0022EA
:10B4CC007876E633920578BAE61248A9B4F102B45C
:10B4DC00FD04B50308B51C0BB50910B50F20B51547
:10B4EC00400000B52F78BDE654F7F6E4FD7F0280EE
:10B4FC001C7D017F0480167D027F0880107D037FF8
:10B50C0010800A7D047F2080047D057F4002DA8C48
:10B51C0020051F78BDE654FBF61296C77876E654E4
:10B52C007FF62278BDE654FBF67BFF7AEE790512A6
:02B53C00D873C2
:01B53E0022EA
:10001600020280015E013B02BC0A0A032001C10004
:1000260090003E020280015E017A03520F0F0340E8
:1000360001BD00A0003F0D02D00190013B02BC0AA9
:100046000A038401C100A300230F02D00190017CA2
:1000560003520F0F03A801BE00B4002D0F0280014A
:10006600E0013B02580A0A0320020D009100220F0C
:10007600028001E0015E029A0A0A0360020D00A0F6
:10008600002A0F028001E0017A02D80A0A03400220
:100096000800A9001E0F028001E0017702EE0A0A9D
:1000A600034801F400B900120F028001E001B10318
:1000B600520A0A034001FE0088001C0F0320025862
:1000C600015F02320A0A0400027100C800180F0319
:1000D600200258017A025B0A0A0420027400D90041
:1000E6001A0F0320025801E002D00A0A0410029AED
:1000F60000B9001C0F0320025801D402EE0A0A04BC
:1001060020027100F100170F032002580218035253
:100116000A0A0418027700D8001E0F034002700175
:10012600F102E90A0A0480029B0120002A0B04005E
:10013600030001E302580A0A0540032601280022AB
:100146000B04000300023402BC0A0A053003260130
:100156001800220B04000300025802EE0A0A0520CA
:1001660003200110001E0F0400030002AA03520A16
:100176000A05600328013000270F04000320026CE3
:1001860002E40A0A05300345010800230F040003B0
:100196002002CB03520A0A05280345011800230F43
:1001A60004800360021902580A0A05E8037E012C3E
:1001B600001E0F04800360028202BE0A0A05C00305
:1001C60092012000310F0480036002A302EE0A0AA6
:1001D60006400384018000230F04800360030203AA
:1001E600520A0A0628038B0168002A0F0480036658
:1001F60002AE02EE0A0A05B003930110002A0F04AC
:10020600800384026A02940A0A05F803A9015000D1
:10021600230F0480038402CE02FE050505E003A930
:10022600014000230F050002D001BF02580A0A064A
:100236007802EA015300190F050002D0023402EEDB
:100246000A0A069802EF0154001F04050003000184
:10025600DD02580A0A0684031A0142001A02050042
:10026600030001DB025A0A0A05A0031500730012F7
:100276000405000300023002BC0A0A069C031F01A3
:1002860050001F0405000300025902EE0A0A06AADE
:100296000321015A0021080550030001DD02580A16
:1002A6000A0704031A01700017040500032001F46D
:1002B60002580A0A0690033F0148001C0405000381
:1002C60020024302BC0A0A0684033C00E0001F0425
:1002D60005000320026E02EE0A0A0684033E01446C
