:10E896003D403F3B33281C002C2D3C3D38301A00B0
:10ABCA0001C60041F8220041F81F0041F820064161
:05ABDA00F82100C10B91
:1062E200A81474FFFFFEFDFC124751E47B10FAF97B
:1062F200F81246C6A804A905AA06AB0722785EE6EC
:10630200FE08E6FFE4FCFD221246C6E47BE87A03BF
:10631200F9F8124751E47B127A02F9F8D30247E303
:1063220090F80FE05407900AA5FF75F00312486F2A
:1063320002489D8F0E8F0D8F0C7A00790C7B00D254
:10634200067D037C002290F812E0FF90F819E02FFE
:10635200C313FF752A00752B38752C00752D7075C7
:106362002EFF752FC87530FF7531902290F81BE013
:106372001313543FFF90F814E02FFF752AFF752B7B
:1063820090752C00752D30752E00752F70753000AC
:106392007531302290F839E0FEA3E0FBAA06E4F959
:1063A200F822AA06AB07AF407E0012458C7C007D26
:1063B200080245F3785FE62480FF18E63402FEE423
:1063C200FCFDE5132FFFE5123EFEED3511FDEC223B
:1063D2001246C6C3E50F9FFFE50E9EFEE50D9DFD2D
:1063E200E50C9C22ED9FFFEC9EFEE6FD7C00D3EFC8
:1063F2009DEE9C2290F80FE05418131313541F22A1
:106402001247518F0F8E0E8D0D22AE30AF31E4FC4C
:10641200FD0246C6785EE6FE08E62290F80FE054DA
:10642200E0C4135407FF227B007A00790C22124544
:106432008C7C007D7E1245F38F0D2235108F138EDA
:10644200128D1122FF752A00752B38752CFF752DC0
:1064520090752EFF227532107BAF7A007DA67C01EB
:10646200227532147B027AFE7DFF7C0022FC1245EB
:106472008C7C007D400245F390F80FE054E72290B7
:10648200F81CE01313543FFF90F81522AB3AAA3BD5
:10649200A93C124629FDC3227B1EFAF9F80246C620
:1064A200C308E69FFF18E69E2275F003EF900AB13B
:1064B20022FDFCAB28AA27A926A82522AF35E4FC99
:1064C200FDFE7B387A1822FFE6FC08E6FDD39FEC3E
:1064D2009E22E50D24FFFFE50C34FFFE22FE12454D
:1064E2008CAC06AD07E54522FFA60608A60722AB3F
:1064F20017AA16A915228B278A28892922E525247D
:07650200F8FFE434FFFE2264
:10E6B5008E3B8F3CE53B5401FB7DFE7F1312D986D3
:07E6C500AD3C7F1202EA7375
:10DEE4008E2A8F2BE52B7807CEC313CE13D8F95483
:10DEF40002FB7DFD7F1312D986AD2B7F1102EA73DD
:10DF04008E3E8F3FE53E540FFB7DF07FB512D986E0
:10DF1400AD3F7FB612EA737B047DFB7FB702D986DF
:10E73D00EFC454F0FB7D0F7FB712D9867B047DFBB0
:05E74D007FB702D98630
:09EAD5007B207DDF7F5202D9860F
:09EADE007BC07D3F7FD402D98684
:10DD32008F3B78AEE6A2E35018E4FD7FDA12EA7375
:10DD420012E9AEE53BF4FDE53B4406FB7FDA12D96E
:02DD5200862227
:10E47C00EFF4FDE4FB7FDA12D9867D387FDA12E700
:0AE48C00CDEF7006FD7FDA12EA738F
:01E496002263
:01EBCC002226
:087B75008F228B238A2489254D
:107B7D00E522600464017057E522127CB3E5227C96
:107B8D00017003FD80027D80AB23AA24A925127C00
:107B9D00C5E522127CBCE5227C017003FD80027DCF
:107BAD0080AB26AA27A928127CC5E52244A0FD7F1B
:107BBD006712EA73E5227C017003FD80027D80ABC4
:107BCD0029AA2AA92BD2067F6612D653027CABE5D1
:107BDD002264026009E52264036003027CB2E4F5CD
:107BED002EE4F555F551E52E7014E5225401127C65
:107BFD00B3E5252410F9E435248523528030E52E94
:107C0D00B40114E5225401127CBCE5282410F9E4DA
:107C1D0035278526528017E522540144A0FD7F6744
:107C2D0012EA73E52B2410F9E4352A852952F55310
:107C3D008954E4F52FAB527E00E554252FF9EE352E
:107C4D0053FA90FFF0124509FF740C252FF8A60783
:107C5D00052FE52FB410DEE4F52CF52DE5227E0180
:107C6D00B402047F0080027F80C3E52D9FE52C9E2A
:107C7D00502012A930EFC454F0F52F12A930EF4265
:107C8D002FAD2F7F6612EA73052DE52D70CE052CD5
:107C9D0080CA052EE52EC394035003027BEE7D4072
:057CAD007F6712EA737D
:107CB200224480FD7F6712EA73224490FD7F67129F
:0B7CC200EA7322D2067F6612D653221E
:10CD48008B228A2389247B807D3F7F6B12D986AB17
:10CD580022AA23A924D2067D187C007F6912D65303
:10CD68007B407D3F7F6B12D986AB25AA26A927D2A7
:10CD7800067D187C007F6A12D6537D387F6B02EAE5
:01CD88007337
:10D86200787AE6540F9008CA12632BC003C002C034
:10D872000175F003EF9008CA12632F8B288A298959
:0AD882002AD001D002D00302D06DBD
:10D06D008B258A2689277DB07F1C12EA73AB25AAF2
:10D07D0026A92712D09A7DC07F1C12EA73AB28AA6D
:10D08D0029A92A12D09AE4FD7F1C02EA73D2067DEB
:09D09D00807C007F1D12D6532295
:10DF240090F831E0F50EF50DF50C7D807F6412EA72
:10DF34007312633B7F6512D653E4FD7F6402EA7378
:10C06900E4FB74352BF582E434F8F583E0FF7E00B8
:10C0790090F832E0FD7C0012458CEF7807CEC313AF
:10C08900CE13D8F9FFD394FFEE940040087C007ECC
:10C09900007FFF80027E00740C2BF8A6070BBB0300
:10C0A900C17D837F6412EA7312633B7F6512D653A5
:07C0B900E4FD7F6402EA735D
:01EBCD002225
:10D7350090F82AE0F50CA3E0F50DA3E0F50E7D8049
:10D745007FDC12EA737D847FDC12EA7312633B7F10
:0BD75500DD12D653E4FD7FDC02EA7316
:10D56A0090F82DE0F50FA3E0F510A3E0F5117D800A
:10D57A007FDC12EA737D877FDC12EA737A00790F07
:0FD58A0012633F7FDD12D653E4FD7FDC02EA73AC
:06EB860012D73502D56A2A
:10D2D5008F228D238B24E4FB7DDF7F6C12D9867B27
:10D2E500207DDF7F6C12D986AD227F6D12EA73AD8A
:10D2F500237F6D12EA73AD247F6D12EA73E4FB7D23
:06D30500DF7F6C02D986F7
:10DB7F008B228A2389247D807F6E12EA73AB22AABF
:10DB8F0023A924D2067D307C007F6F12D653E4FD8B
:05DB9F007F6E02EA7335
:106E17008F2612639690F83FE0FEA3E0FFE4FCFDA7
:106E27001262F390808EE493FE740193FFE4FCFDFD
:106E37001246AB1264058C0C7864126301AB0FAA7F
:106E47000EA90DA80C1246C6C006C00790F83D1241
:106E57006399D007D006124751C0041262F8126234
:106E6700FFD0001246C6C006C007126396D007D0EF
:106E7700061264028C0C78ADE6FFC37869E69FFFC3
:106E870018E69400FEE4FCFDC0041262F8126416D2
:106E9700FFE4D0001246C6C0041262F87866126397
:106EA70001D0001246ABC006C00778ACE6240AFF43
:106EB700E433AB07FAE4F9F8D007D0061246B81264
:106EC700643F8C10E52630E0061263B6026F53E587
:106ED7002630E13D78641263017B807A02F9F8126B
:106EE70046C6C006C00790F83D126399D007D00682
:106EF700124751C0041262F81262FFD0001246AB6B
:106F0700E5132FFFE5123EFEE5113DFDE5103C8040
:106F1700051263B6351012643FF510D37863E69413
:106F27009018E6940650161262FF1263C412643D6D
:106F3700F5107B107DEF7F1912D9868014E5132495
:106F470080FFE5123402FEE43511FDE412643DF5DD
:106F570010C3E513950FFFE512950EFEE511950D8C
:106F6700FDE510950C126405F50C12641612639D6D
:106F7700AF0FAE0EAC0C1247518F1A126416126384
:106F87009DAF1AFCFDFE1263D2FCE47B10FAF9F800
:106F97001247518F1BE4FB7DFD7F4312D986AD1A43
:0F6FA7007F4012EA73AD1B7F4112EA73AF1A22CB
:0875E7008F288E278D268C25CC
:1075EF00E4FF7E041264B31246C67B007AA07905CD
:1075FF0078001247518E298F2AD3E52A94FFE52967
:10760F009400401C752B01E52A2402FFE43529FE66
:10761F00EF7802CEC313CE13D8F9F52A8E29801333
:10762F00752B02E52A2401FFE43529C313F529EF51
:10763F0013F52AAE29AF2A7C007D6412458C7C0E8F
:10764F007D5312459EEF14F511E4F512E511C39425
:10765F0008400974F82511F511431208E511C39478
:10766F0004400974FC2511F511431204E511C3946C
:10767F0002400715111511431202E511C394014081
:10768F00051511431201E52A24FEF50CE52BB40173
:10769F00047F0080027F10EF4406F50DE512448051
:1076AF00F50E750F17126429C2067D047C007FAE9C
:1076BF0012D6537B027DFD7FB212D9867D807FB1BA
:1076CF0012E7CDEF24FF50197B407DBF7FB112D958
:1076DF00867F027E0012E623E4FB7DBF7FB112D9C5
:1076EF0086E52B75F002A4AEF012639DFFFE7D7749
:1076FF007C011247511262F6AE29AF2A126410E4D0
:10770F007B08FAF9F81264028C0C780F1247F41206
:10771F00643F8C10E47FE87E031264B31263D2FCE3
:10772F00AB13AA12A911A8101247518E298F2A53F1
:10773F00290F7B017DFE7FBB12D986AF2AAE2902AE
:02774F00DF0455
:109DF800786FE6FE08E6787C1264EA7871E6FE0879
:109E0800E6787E1264EA7873E6FE08E6FF7B007A5D
:109E180000792412ADCEC3E5259432E52494005090
:109E280004785E806E126416FF7873E6FC08E6FD1F
:109E3800C39FEC9E5034C3ED9FFFEC9ECF2525CFEA
:109E48003524FEC3EF9432EE94005016C3785FE6D3
:109E58009525FF18E69524CF24327881F6E43F183B
:109E6800F6227880A60408A60522785FE62525FF55
:109E780018E63524FEC3EF9DFDEE9CFCC3ED94323D
:109E8800EC9400500CEF24CE7881F6EE34FF18F6EF
:0F9E9800227873E6FE08E6FF7880A60608A60784
:019EA7002298
:10ADCE008E388F398B3A8A3B893C7862E6FE08E6EC
:10ADDE007803C333CE33CED8F9FF7C007D0A1245FB
:10ADEE009EC3785F1264A4C313FEEF13FFAB3AAA9F
:10ADFE003BA93CEE8FF012468CE6FE08E6FFD3E54B
:10AE0E00399FE5389E401412648EE5399FFFE53870
:10AE1E009EFED3EF9DEE95F0400122126416FFD3F5
:10AE2E00E5399FE5389E501412648EEF9539FFEE8A
:0EAE3E009538FED3EF9DEE95F0400122D32211
:0448EB008E308F314B
:1048EF007F2012DD327B007A007936AF31AE301285
:1048FF00ADCE4009785EE6F53008E6F531750C046B
:10490F00750D4F750E24750F15126429C2067D049F
:10491F007C007F9812D653750C1CE4F50D750E377D
:10492F00FB7A00790CC2067D03FC7FA112D6537867
:10493F005A126301C0041262F8126416FFE4D00029
:10494F0012630A4013E531AE307802C333CE33CE53
:10495F00D8F9F5318E30800BE53125E0F531E530B2
:10496F0033F53075100075116475350BAF35E4FCF8
:10497F00FDFE7B3E1262F012640CC004C005C0063F
:10498F00C007786A1263017BC07A031262F1D00705
:10499F00D006D005D0041247518F34E4FCFDFE122F
:1049AF00649AC0041262F8786A126301D00012464A
:1049BF00C6C004C005C006C0071264BE1262F11261
:1049CF00640CD003D002D001D0001247518E0C8F4F
:1049DF000DD3E50D94A8E50C940C5003024AA07476
:1049EF0080250DF50D74F3350CF50CD3E50D9511F0
:1049FF00E50C9510500C850C10850D118534328502
:104A0F003533E5342401FFE433FEE4FCFD12649AF0
:104A1F00C0041262F8786A126301D0001246C6C051
:104A2F0004C005C006C0071264BE1262F112640C06
:104A3F00D003D002D001D0001247518E0E8F0FD36A
:104A4F007480950F740C950E400C7480950FFF7445
:104A5F000C950EFE800AE50F2480FFE50E34F3FE61
:104A6F008E0E8F0FC3E50F9428E50E94005007E5C7
:104A7F003404F532801ED3E50F9511E50E951050D5
:104A8F0018850E10850F11E53404F5328535338006
:104A9F0008853432853533800C0535E535C39430C0
:104AAF00500302497B785A126301C0041262F81254
:104ABF006416FFE4D00012630AE530400E13FEE5E2
:104ACF003113FFEEC313F530EF8006C313F530E556
:104ADF003113F53178C6E6134003024C107B007A90
:104AEF0000791AC2067D027FA512D187051A051A11
:104AFF00051B051B7B007A007918C2067D027FA972
:104B0F0012D187E518540FFEE5192401F519E43E7B
:104B1F00F518E4FD7F9F12EA737D077F9F12EA73FA
:104B2F00126429D2067D047FA012D187AF1BAB0779
:104B3F00E4FAF9F8AF32FCFDFE1262F3AE18AF19CA
:104B4F0012641012643F8C10AF33AB07E4FAF9F81C
:104B5F00AF1AFCFDFE1262F312640C8F178E168DC6
:104B6F00158C141264F1A814AF0FAE0EAD0DAC0C72
:104B7F00124751AB13AA12A911A8101246C61264FC
:104B8F00058C0CAF13AE12AD11AC101264F1A8145A
:104B9F00D31247E3402C1262E2C3E5179513FFE5EA
:104BAF00169512FEE5159511FDE5149510FC1246AC
:104BBF00C6E50F2FFFE50E3EFEE50D3DFDE50C3C76
:104BCF00801E1264F11262E2C3E5139517FFE5121E
:104BDF009516FEE5119515FDE5109514FC1263D29F
:104BEF00126405F50C7D207F9F12EA737D227F9F53
:104BFF0012EA73126429D2067D047C007FA012D6BC
:104C0F0053785A126301C0041262F8126416FFE45B
:104C1F00D00012630AE531400C24FFE53034FF5415
:104C2F000F4410800824FFE53034FF540FFB7DE064
:104C3F007FA912D986E53114FD7FAA12EA73E532F6
:104C4F0024FEFD7FA512EA73E53324FEFD7FA61235
:104C5F00EA73E53275F004A4FFAEF07C007D0A1212
:104C6F00459EC3EF9405EE940050087C007E007FB4
:104C7F00008008EF24FBFFEE34FFFE8F11E4F512E6
:104C8F00E511C3943C400974C42511F5114312106A
:104C9F00E511C39428400974D82511F51143120862
:104CAF00E511C39414400974EC2511F51143120456
:104CBF00E511C3940A400974F62511F51143120248
:104CCF00E511C39405400974FB2511F51143120139
:104CDF0005120512AB127DE07FA712D98678C6E6C2
:104CEF0013402112E2FD7D207F9A12EA737F011299
:104CFF00CEC97F0112CEC97D247F9A12EA7378C67E
:104D0F00E64401F678C6E61350077D687F9F12EAE6
:104D1F00737F0412CEC97F0412CEC9E4FD7F9F12A8
:0A4D2F00EA7312E9AE7F3802DD32AC
:0272DB008F37EB
:1072DD007F3012DD3253373F1262FFFB7A60F9F8CF
:1072ED001246C6C006C007786AE6FE08E612639D20
:1072FD00D007D006124751E47BA512649C7B407ADF
:10730D0042790F78001247518E398F3AD3E53A946E
:10731D0040E53994005005C374408003C3748095D3
:10732D003AFFE49539FE8E398F3AAF377E00C3EFC1
:10733D00953AEE95394006EF953AFF8006C3E53A4A
:10734D009537FF8F0CE50CD3940C400AE50C943463
:10735D0050047F0080027F018F387866E6FE08E6D4
:10736D00FFC3787096EE189650191264A2FE78AC91
:10737D001263EC400EED786726FFEC1836786FF649
:10738D0008A607786FE6FE08E678661264C9401510
:10739D0078AC1263E6400E7867E69DFF18E69C78A0
:1073AD006FF608A60778ACE6786726FFE41836FE78
:1073BD00C3EF787096FFEE1896CF240AF50DE43FD3
:1073CD00F50CD3E53A940CE5399400401CE53724CF
:1073DD000CFFE433FEC3EF953AEE95395005126478
:1073ED00D48020AE0CAF0D801AE53A2434FFE4357D
:1073FD0039FEC3E5379FE49E50051264D48004AE78
:10740D000CAF0D8E398F3A7B407DBF7FA912D98687
:10741D00785A126301C0041262F8126416FFE4D0A8
:10742D000012630A4007E53725E0FB8002AB377D8C
:10743D00807FAC12D986AF3AAE3912E6B5E5383356
:10744D00333354F8FB7DF77F0712D98612DDFD1219
:07745D00E9AE7F3802DD32C9
:07EB63007875E6FF0272DB8A
:10AD4E007F1012DD327868E6FE08E6FFC378729651
:10AD5E00EE189650191264A2FE78AD1263EC400EF6
:10AD6E00ED786926FFEC18367871F608A60778712B
:10AD7E00E6FE08E678681264C9401578AD1263E6FF
:10AD8E00400E7869E69DFF18E69C7871F608A607D6
:10AD9E007868E6FE08E6C3787296FFEE1896FE789F
:10ADAE00ADE6C39FFFE49EFE12DEE412DDFD7F20C2
:10ADBE0012CEC97F1012CEC912E9AE7F3802DD3233
:10C80A00EF540FFEC454F0F50CEDBF070C5407C4E7
:10C81A003354E04410F50D801D5407C454F0FFE56D
:10C82A00275401C433333354804FFFEB5403FE259E
:10C83A00E025E04FF50D126429C2067D027C007FD7
:0BC84A001712D653E4FD7F1702EA73BB
:10E655008F23129A6FE52390F8017005E054FDF0C1
:08E6650022E054FD4402F02202
:109A6F00AD07D3ED648094FE40027D7EC3ED64802C
:109A7F00948E5009ED6480948040027D0EEDFF338B
:109A8F0095E0FEEF2401FFE43EA2E713EF1325E07C
:109A9F00F50C78AEE65470C4540F14600824FA50D5
:109AAF00222407704DED13AF0C7E007CFF500A7D12
:109ABF00C1126430E4F50E80397DC0126430750E2A
:109ACF0002802FED13AF0C7E007CFF50047DB88019
:109ADF00027DB7126430EF75F002A47C00250CFFF5
:109AEF00EC35F0FEC3E49FFFE49EFE7D021245F3CA
:109AFF008F0E750F037510327511CE7D807F261274
:109B0F00EA73126429D2067D067C007F2712D65392
:079B1F007D407F2602EA737E
:02AAC2008F24DF
:10AAC400E4F525E52464027021F52512AB2C75F01C
:10AAD40003E525900E5012632FD2067D337C0012BD
:10AAE400AB3B940540E57DDF8038E4F52512AB2CC3
:10AAF400E52475F004A47C002525FFEC35F0FE90D8
:10AB04000E2075F003EF12486FEE75F003A4258351
:10AB1400F58312489DD2067D3312AB3B940440CD9D
:07AB24007DDE7FE012EA7301
:10AB2B0022AD257FE112EA73E4FD7FE212EA732284
:0BAB3B007FE312D6530525E525C32259
:069D46008B248A2589260A
:109D4C00129DDC532AFCAD2A7FE412EA737D037F5B
:109D5C00E612EA73E4F52AAB24AA25A926129DEC97
:109D6C002526F526E43525F525052AE52AC394098B
:109D7C0040E5129DDCE52A54FC4401F52AFD7FE404
:109D8C0012EA73E4FD7FE612EA73E4F52AAB27AA24
:109D9C0028A929129DEC2529F529E43528F5280553
:109DAC002AE52AC3941440E57F2012CEC990F80FFF
:109DBC00E0FF540764046006EF1263FA70047D2C14
:109DCC0080027DAC7FE412EA737D807FE502EA734A
:109DDC007B007A00792AD2067D017FE412D187229A
:0C9DEC001244F0FD7FE712EA73740122BC
:10D760007B407DBF7F6012D9867B807D7F7FE0120A
:10D77000D9867B807D7F7FE412D98690F816E0FF02
:0BD7800012DA4F90F817E0FF02DA7594
:10D30B00126322C003C002C0011264AB12632F125E
:10D31B0064F8D001D002D003129D46E4FB7DBF7FA1
:10D32B006012D986E4FB7D7F7FE012D986E4FB7D1A
:06D33B007F7FE402D986A9
:10B3780012641D64046011BF0514E05407FFBF0484
:10B388000D90F801E020E00612647AF0800612645D
:10B398007A4408F090F80FE05418FF131313541F61
:10B3A800700280361263F66401703590F83BE0FC59
:10B3B800A3E0FDA3E0F52AA3E0F52BE4FBFAFFFEEA
:10B3C80012B21D90F83BE0FEA3E0FFA3E0FCA3E06F
:10B3D800FD12BE4C12641DBF040302D30B12D760CA
:01B3E8002242
:10B21D008E248F258C268D278A288B29E527452678
:10B22D006061E52B452A605B7B807D707F6012D964
:10B23D0086E5245407F50CAD258D0DE5252527E56F
:10B24D002435265407F50EED2527F50FE52854076F
:10B25D00F510AD298D11E529252BE528352A540743
:10B26D00F512ED252BF5137F2012CEC9126429D2CC
:10B27D00067D087C007F6112D653E4FB7D707F60F4
:04B28D0012D986222A
:10BE4C008C248D25AB07AA06E4F9F8FFFE7DC07C97
:10BE5C003F124751C006C007AE24AF25AB07AA0658
:10BE6C00E4F9F8D007D0061264028C0CE4FB7DFCDC
:10BE7C007FE412D986E4FD7FE612EA73E50FFFE555
:10BE8C000EFEE50D543FFDE4126405F50CFB7A0043
:0CBE9C00790DD2067D03FC7FE702D6532F
:10DA4F008F241263F6FFBF01037524807B867D70E0
:10DA5F007F6412D986AF241263357F6512D653E4E3
:06DA6F00FD7F6402EA7372
:10DA75008F241263F6FFBF01037524807B897D70B7
:10DA85007F6412D986AF241263357F6512D653E4BD
:06DA9500FD7F6402EA734C
:0484A1008D45A90755
:1084A500E9540F14603314605C14700302853714AB
:1084B500700302856124046003028595E954F0FF89
:1084C500700590F8118074BF1003028585E954F09A
:1084D50064206003028595800EE954F0FF700590D5
:1084E500F81A8057BF100A90F81AE0FF90F811802B
:1084F5003BE954F06420600302859590F81AE0FF8B
:1085050090F8138027E954F0FF700590F813802B3D
:10851500BF100A90F81AE0FF90F813800FE954F0A5
:108525006420706C90F81CE0FF90F813E02FC313E3
:10853500800AE954F0FF700990F81CE07A00FB808E
:108545004FBF100C90F81CE0C313FF90F813803A4E
:10855500E954F064207039126481802EE954F0707A
:108565000C90F815E0C313FF90F81E801DE954F038
:10857500FFBF10051264818011E954F0FFBF201080
:1085850090F811E0C313FF90F81EE02FFBE433FAD7
:10859500EB25E0FBEA33FAC3EB9410EA64809480A0
:1085A500E545401D90E89593FD7C00EB24F0FFEA3E
:1085B50034FF1264DF7F0025E0FEEF2DFFEC3E80E7
:1085C5001A90E89D93FD7C00C374109BFFE49A12FA
:0F85D50064DF25E0FEC3E49DFFEE9CFE1264739D
:0185E4002274
:0A78B6008F378C388D398A3A8B3BEE
:1078C000127A0CE4FD7FE212EA73E537540F700977
:1078D0007D031279F27D8C804BE537540FFFBF0199
:1078E000097D051279F27D88803AE537540FFFBF94
:1078F00003097D0B1279FF7DC88029E537540FFFFE
:10790000BF04097D0F1279FF7DCC8018E537540F35
:10791000FFBF02157D087FE312EA73E4FD7FE312E7
:10792000EA737DCC7FE312EA73127A0CE53754F0E8
:107930002403FD7FE212EA73754001AD40AF3712B8
:1079400084A1E539253BFDE538353A12646FAC3842
:10795000AD391263A4C3EB9FF542EA9EF541AD40F9
:10796000AF371284A1E53D253FFDE53C353E12646D
:107970006FAC3CAD3D1263A4C3EB9FF544EA9EF5AA
:1079800043D3E542947FE54164809480400875418B
:107990000075427F8013C3E5429480E54164809482
:1079A0007F50067541FF754280D3E544947FE543DF
:1079B00064809480400875430075447F8013C3E55C
:1079C000449480E5436480947F50067543FF75447A
:1079D00080AD427FE312EA73AD447FE312EA7305A0
:1079E00040E540C39409500302793B7DDF7FE0020C
:0279F000EA7338
:1079F2007FE312EA73E4FD7FE312EA73227FE3126C
:107A0200EA73E4FD7FE312EA7322E537540FFD7F48
:057A1200E112EA7322FD
:06B9C3008F258D828C83AC
:10B9C900E525C394085024C374089FFFE49400FE3E
:10B9D900AC2AAD2B1263AC8E338F34C37408952512
:10B9E900FFE49400FEAC2CAD2D80151264FFAC2E43
:10B9F900AD2F1263AC8E338F341264FFAC30AD318E
:10BA09001263AC8E358F36AD82AC838A3C8B3D8513
:0EBA1900353E85363FAB34AA33AF320278B6E5
:104D39008F2412641D64046011BF0514E05407FF39
:104D4900BF040D90F801E020E00612647AF08006B5
:104D590012647A4408F0E524703D90F810E012647A
:104D690046752F907530FF7531D0E4F5327BFE7AA8
:104D7900017DFFFC124FAE12645712503875322074
:104D89007BFE7A01E4FDFC1250387532117BFE7A04
:104D990001E4FDFC024ECDE524640170591263481B
:104DA9007532217B547A017DAC7CFE12B9C390F82F
:104DB90012E0FF752A00752B38752C00752D70755A
:104DC9002E00752F38126367753202E4FBFA7D02F3
:104DD9007CFE12B9C31263487532127B547A0112F0
:104DE9004EF37532227BAC7AFE124EF37532237B79
:104DF900AC7AFE024E44E5246403704690F819E04B
:104E0900FF752A00752B70752CFF752DD012636103
:104E19007532017BFE7D017CFF124F8375321112C1
:104E29004F207532217B547DAC7CFE124F83753245
:104E390020124F207532127B547A017DAC7CFE0220
:104E49004ED6E5246404703A90F81BE0FF752AFFFA
:104E5900752BC8752C00752D701263897532037D09
:104E6900017CFF124FD7753213124F507532237DD3
:104E7900FF7C00124FD7753222124F501264630221
:104E89004ED6E5246402701812636E7532231264DB
:104E99006612500412B9C312636E126463024ED6CD
:104EA900E5246405702A90F810E0C313FF90F81DFB
:104EB900E02F126446752FC8753000753170126481
:104EC90057125004124FAE75322412645A12B9C3E4
:104ED90090F801E030E0091263F660047B808002FB
:104EE900E4FB7D7F7FE012D986227DAC7CFE12B97E
:104EF900C390F81BE0FF90F812E02FC313FF752A47
:104F0900FF752BC8752C00752D70752E00752F38FF
:104F19007530FF753190227BFE7A01E4FDFC12B9F0
:104F2900C390F812E0FF90F819E02FC313FF752A18
:104F390000752B38752C00752D70752EFF752FC8CF
:104F49007530FF753190227BAC7AFE7DAC7CFE1208
:104F5900B9C390F81BE01313543FFF90F814E02FE6
:104F6900FF752AFF752B90752C00752D30752E0055
:104F7900752F70753000753130227A0112B9C390DE
:104F8900F819E0FF90F810E02FC313FF752A007598
:104F99002B70752CFF752DD0752EFF752F907530E0
:104FA900FF7531D02212B9C390F810E0C313FF90F6
:104FB900F81DE02FFF752A00752B38752CFF752D0C
:104FC90090752EFF752FC8753000753170227B02E0
:104FD9007AFE12B9C390F81BE0FF90F812E02FC3D4
:104FE90013FF752AFF752BC8752C00752D70752E4A
:104FF90000752F387530FF7531902212B9C390F8BA
:1050090014E0C313FF90F81DE02FFF752AFF752BDD
:10501900C8752CFF752D90752E00752F38753000C9
:105029007531707532047B517AFF7DA67C0122129D
:10503900B9C390F819E0FF90F810E02FC313FF757A
:105049002A00752B70752CFF752DD0752EFF752FC5
:08505900907530FF7531D02283
:109B26008F23E523C43354E0FF90F80FE0541F4F12
:109B3600F0E523B40403029BD9E5236405706B901A
:109B4600F801E030E022E4FF124D397F01124D3971
:109B56007F02124D397F03124D397F04124D397F32
:109B660005124D397B808002E4FB7D7F7FE012D9B0
:109B76008690F80FE05407FFBF04117D2C7FE41296
:109B8600EA7390F801E020E04D029BD912B37812F7
:109B96006322C003C002C0011264AB12632F1264B9
:109BA600F8D001D002D003029D4690F80FE054E0B1
:109BB600C413126326C003C002C0011264AB126351
:109BC6002F1264F8D001D002D003129D4612641DF4
:079BD60012AAC212B37822AB
:10650900785EE6FE08E6FF7873A60608A6077866B1
:10651900E6FE08E6FF786FA60608A6077868E6FE95
:1065290008E67871FFA60608A607227864E6FE0841
:10653900E6FFE4FCFDFB7A0CF9F81246C6E47B029F
:10654900FAF9F8124751AB2AAA29A928A827C302A0
:1065590047E3786CA905AA06AB07E6FE08E6FFE45F
:1065690022E50C5407F526E50DF5277B007A00791D
:106579000C22742A2FF582E434F8F5832278B2E6E6
:106589002401FF18E43678B9FEC3EF96FFEE18969A
:1065990022742D2FF582E434F8F58322E6FC08E60F
:1065A900FDEC540FFBE7C4F854F0C809E7C4540FD5
:1065B90048547022786AE6FE08E6FBAA06E4F9F870
:1065C90022E47B02FAF9F8124751A804A905AA06A0
:1065D900AB0722E4F50FF510F511F512751301FB60
:1065E9007A00790CC2067D08FC7F76221246C6E441
:1065F9007BE87A03F9F8124751E47B127A02F9F839
:10660900D30247E378B9E62402FF18E436FEEF54D3
:10661900FCFFEEF608EFF6E52922D3AB0FAA0EA987
:106629000DA80C0247E3C3E5279525FFE526952428
:10663900FE221896FCE52925E0FFE52833FEC3ED87
:106649009FEC9E2212475178B8EEF608EFF6D394E4
:1066590002EE940022FCE6FA08E62FFFEE3AFED39A
:10666900EF9DEE9C22AB29AA2AA92B0244F07B00BC
:106679007A0079237D012278AEE65470C4540F2242
:10668900FE7867C3EF96EE189622AB32AA31A9308D
:10669900A82FD30247E3C3E69FFF18E69E22AB2F3C
:1066A900AA2EA92DA82C0247E37B007A007914C2EF
:1066B900067D0322EF26F618EE36F622E6FDD3EF25
:1066C9009D7480F86E9822AB29AA2AA92B1244F04E
:1066D900FF22E51454F075F010A4FF2274FFFFFEA9
:0A66E900FDFC22785EE6FE08E622C2
:10A0AE007875E6F523E4FD7F7D12EA7312E9AE7F43
:10A0BE00FA7E0012E623127CCD8F22E52270361234
:10A0CE00537D8F22E52270251260B38F22E5226028
:10A0DE000464FE7013E522B4FE0312A13B127CCD84
:10A0EE008F22E5226018800D12A13B8011126509A6
:10A0FE0012A145800312651712EB6312AD4EE522D5
:10A10E007006E522648060137858E6FF12D377124A
:10A11E009DF87858E6FF12D88C800C12650912A1B2
:0CA12E004512EB6312AD4E12E9AEAF22F9
:10A13A00227875A623AF231272DB2208E6FE08E610
:05A14A00FF1248EB22AA
:10E791001268CF8F22E522700512C855800312CF6F
:03E7A100F9AF22AB
:01E7A4002252
:10A3260012E9AE7D037F7A12E7CDBF03047F9680E4
:10A33600027F328F447545197F017E0012E6231293
:10A346006574D2067D017F0312D187E50C30E00CDF
:10A35600E4FD7F0312EA7375451980021545E5454C
:10A366006006E50C54C060037FFF2212E95578C7EA
:10A37600E61350037FFF22126574D2067D017F7DAE
:10A3860012D187E50C30E003D544AD126574D206D0
:10A396007D017F0212D187E4FD7F0212EA73E50C8C
:0EA3A60054637004E54470047FFF80027F0062
:01A3B4002286
:02C936008F442C
:10C93800754519E4FD7F0312EA737F017E0012E654
:10C9480023126574D2067D017F0312D187530CC16F
:10C95800E50C30E010E544600CE4FD7F0312EA7357
:10C968001544754519E544600C1545E5456006E52F
:07C978000C54C060C5AF0CB8
:01C97F002295
:0290A4008F3704
:1090A6007873E6F53A08E6F53BAE3AFFE4FCFDC018
:1090B6000412655BD0001246C6C006C0071265BD25
:1090C600D007D0061247518E388F397B507D0F7FDF
:1090D6001312D986E53B2405F53BE4353AF53A7497
:1090E600E0253BF53B74FF353AF53AE539241BFF9D
:1090F600E43538126689500280047E007F018E387E
:109106008F39D3E5399420E5389400400CE53924AD
:10911600E0FFE53834FFFE80047E007F018E388F45
:10912600395337FCE53A540FFDE538C4F854F0C816
:10913600E5391265B64DF50C85390D853B0E126580
:1091460074C2067D037C007F7012D65385370C856A
:10915600370D85370E1265DC12D65312A3268F0CF7
:10916600E50C6001221266B27F8112D1871266DB9E
:10917600AEF0EF4515242078B9F6E43E18F6E5146E
:10918600540FFEE516242078B2F6E43E18F67F006A
:0191960022B6
:027E21008F30A0
:107E23007873E6F53308E6F534AE33FFE4FCFDC0C2
:107E33000412655BD0001246C6C006C0071265BDBA
:107E4300D007D0061247518E318F327B507D0F7F82
:107E53001312D986E5342405F534E43533F5337448
:107E6300E02534F53474FF3533F533E532241BFF55
:107E7300E43531126689500280047E007F018E3121
:107E83008F32D3E5329420E5319400400CE532245F
:107E9300E0FFE53134FFFE80047E007F018E318FE9
:107EA300325330FCE533540FFDE531C4F854F0C8C8
:107EB300E5321265B64DF50C85320D85340E7860CA
:107EC300E6FC08E6FD2402E43C540FF50F751002AE
:107ED300AF05EF2402F511126574C2067D067C001E
:107EE3007F7012D65385300C85300D85300E1265A8
:107EF300DC12D65312A3268F0CE50C600122126606
:107F0300B27F7E12D1871266DBEF45152403FFE4AF
:107F130035F078B3F6FC08EFF6FDE514540FFEE5F3
:107F2300162403FFE43EFE08F608EFF6C39DFFEEBA
:107F33009C7865126591FE12E851D3EF9405EE64C7
:107F430080948040037FFF2278B6E6184670037F53
:107F53008022E514547FF50C85150D85160E1265E8
:0E7F630074C2067D037C007F7312D6537F002C
:017F710022ED
:06835A008F378D388B39CE
:10836000E4FD7F7D12EA73E5375403FB7DFC7F7AE1
:1083700012D986785A126563FCFDC004785E1265D6
:108380005DD0001265F540160538E53A25E0F53A6E
:10839000C3944040097B027DFD7FA812D986E53950
:1083A00014541F33333354F8FFE53854074FFD7F1F
:1083B0007B12EA73E53A543FFD7F7C12EA73AF38D3
:1083C0007401A807088002C333D8FCF538E5398565
:1083D00038F0A4253AF537853A42E4F541F540F501
:1083E0003FF53EF5437D7B7F7D12EA737F0112C925
:1083F000367D037F7A12E7CDBF03047F0380027FBF
:108400000112C936EF54C06005128490804712658E
:1084100074C2067D037F8412D187E4F50FAF41AEAD
:1084200040AD3FAC3E126623400F850F41850E40A4
:10843000850D3F850C3E854243E5382542F542C314
:10844000953740AD1284907F0112CEC912A3268FBA
:108450000CE50C60041266E522785A126563FCFD97
:10846000C0041265D5785E126563D0001265F540D0
:108470000BE54313AB3BAA3CA93D8008AB3BAA3CB0
:0F848000A93DE543124558AF41AE40AD3FAC3E7C
:10848F0022E4FD7F7D12EA73E4FB7DFD7FA812D904
:02849F00862233
:10D78B00EF5403FB7DFC7F7A12D9867D3B7F7D12A4
:10D79B00EA7312A3268F0CE50C600122126574C28A
:0BD7AB00067D047F8412D1877F0022DE
:10537D001266EC787312652DE654FCF618125684FD
:10538D007F40127E218F24E5246001227862E6FEA3
:10539D0008E67803C333CE33CED8F9FF7C007D0AFF
:1053AD0012459E785F12669FC313F528EF13F529FA
:1053BD00E4F52AF52BF52675270A12567A60012297
:1053CD00126586FE78B1F608EFF67862E6FC08E61F
:1053DD00FDC3EF9DEE9C505DC3ED78B296FDEC12D2
:1053ED00663B400302548DAF05AE04E4FCFDC004E2
:1053FD001265D57873126563D0001246C6C006C01B
:10540D000778621265BFD007D00612664D500302B1
:10541D0054BD12660D785F26FDE528183678731297
:10542D00665E400302548D78B8E6FE08E678741285
:10543D0066BE0254A2C379B2E7786396FD19E712EE
:10544D00663B4002803AAF05AE04E4FCFDC0041299
:10545D0065D57873126563D0001246C6C006C007C5
:10546D0078621265BFD007D00612664D40421266B3
:10547D000D787426FDE5281836785E12665E4008B4
:10548D00752A00752B01800DC37874E679B997F6EE
:10549D0018E61997F6E52B452A7015787312568480
:1054AD00E52715277002152614452660030253C7FC
:1054BD00E52745266008E52B6401452A70037F80AA
:1054CD002278B1E6FE08E6FFC3786396EE189640A3
:1054DD00127974E7785F96FD19E71896FCED640470
:1054ED004C601A786312668C5040C3795FE778740C
:1054FD0096FF19E71896FEEF64044E702D1266ECB8
:10550D00FF7873EEF6FE08EFF6FF1248EB12567AAF
:10551D0060012278B2E62401FF18E436FEC3EF786D
:10552D00B99679B2F7EE189619F77873E6F52A0859
:10553D00E6F52BC37963E778B29619E718967E00E6
:10554D0040047F0480027F0278741266BDE6FE0877
:10555D00E6FF1248EB7D187F7912EA73852A2685BE
:10556D002B27E4F52FF52EF52DF52CF528752906AD
:10557D007F501290A48F24E524600122126586FECF
:10558D0078B1F608EFF67863E62402FD18E436FCF0
:10559D00D3EF9DEE9C400BE4F50FF50EF50DF50CDC
:1055AD008028E4F53AF53B753C00753D257B087D7B
:1055BD00037F0312835A8F0F8E0E8D0D8C0C126686
:1055CD00E5C312662470037FFF22AF0FAE0EAD0D43
:1055DD00AC0CC31266A75015850F2F850E2E850DA9
:1055ED002D850C2C7873E6F52608E6F527E529457B
:1055FD002870161266ECFFD37874E69F18E69E406D
:10560D002AEEF6FE08EFF6801B74FE2529F52974A7
:10561D00FF3528F528787474FE26F61874FF36F6D3
:10562D00E6FE08E6FF1248EB02557DAF2FAE2EAD1C
:10563D002DAC2CE47B03FAF9F81247518F2F8E2EE7
:10564D008D2D8C2C7862126563FCFD780A1248074B
:10565D00D31266A74006AE26AF278004AE2AAF2B25
:0C566D007873EEF608EFF61248EB7F00B1
:10567900227F501290A48F24E52422E6FE08E6FF3B
:045689001248EB22B6
:1060B3007F401290A48F24E5246001227D80126228
:1060C3009C70037FFF22E4FFFEFDFC12654F70030B
:1060D3007F8022126534501F7D4012629C70037FC3
:1060E300FF22E4FFFEFDFC12654F70037F80221246
:1060F300653450037FFE22E52424F8543FF53A75B6
:106103003B00753C00753D247B087D017F031283B2
:106113005A8F2A8E298D288C271266E512654F70B7
:10612300037FFF22E4FFFEFDFC12654F70037F80B7
:1061330022E52424FD543FF525FF1272DB7F031271
:10614300D78BEF60037FFF22850F2E850E2D850DE4
:106153002C850C2B1262D060037FFF22850F3285C2
:106163000E31850D30850C2FE5242403543FF5248F
:10617300E4F52AF529F528F5271262D060037FFF9D
:1061830022850F36850E35850D34850C33AF2EAE43
:106193002DAD2CAC2B1266934016E532952EFFE500
:1061A30031952DFEE530952CFDE52F952BFC8015C3
:1061B300C3E52E9532FFE52D9531FEE52C9530FD97
:1061C300E52B952FFC1265CAE5362532FFE53535FB
:1061D30031FEE5343530FDE533352FFCEF252EFF59
:1061E300EE352DFEED352CFDEC352BFC1246B8C0FB
:1061F30004C005C006C007AF36AE35AD34AC3312AC
:1062030066934016E5329536FFE5319535FEE53068
:106213009534FDE52F9533FC8015C3E5369532FFA4
:10622300E5359531FEE5349530FDE533952FFC12C8
:1062330065CAD007D006D005D0041246B88F0F8E9A
:106243000E8D0D8C0CAF2AAE29AD28AC2712662318
:106253004013850F2A850E29850D28850C27E525F2
:1062630014543FF52685322E85312D85302C852F0C
:106273002B85363285353185343085332FE52565D9
:1062830024600302617C7875A626AF261272DB7D3B
:08629300407F7912EA737F00DD
:10629B00227F7912EA73E4F53AF53B753C00753DC4
:1062AB00247B087D037F0312835A8F2A8E298D2826
:1062BB008C2774FFFFFEFDFCAB2AAA29A928A8276F
:1062CB00C31247E322E52504543FF525FF1272DB89
:0762DB007F0312D78BEF22B5
:107CCD007F40127E21EF6001227F401290A4EF6071
:107CDD000122126574C2067D027F0D12D1871265D5
:107CED006AC2067D017F1112D1877B007A00790D62
:107CFD00C2067D017F1312D187E50D5402F524E5EF
:107D0D000CF52578B3E6FE08E6FFC39525F525EEBF
:107D1D009524F52478B612669FCF2401CF3400FE4A
:107D2D007864E6FC08E6FDC39FF529EC9EF528D3A3
:107D3D00E5299403E528648094804016EF9DFFEEBD
:107D4D009CFE12E8517C007D021245F38E288F298E
:107D5D008005E4F528F52912662FC378721266A006
:107D6D00FEC3EF786996FFEE1896CFC39529CF9590
:107D7D0028FE12E85178AD1266C5501DC3E5279552
:107D8D0025CFE5269524CF2529CF3528FEC378723A
:107D9D00E69FF618E69EF6800312652512AD4E128B
:107DAD006574C2067D027F0912D18712656AC2060B
:107DBD007D027F1212D187E50D5401F524E50CF5F6
:107DCD0025C378B9E69525FF18E69524CF24FEF551
:107DDD0025EF34FFF52412662FEF787026FFEE188D
:107DED0036FEC3EF786796FFEE1896FE12E85178CF
:107DFD00AC1266C5500A12662F78701266BD800EE1
:107E0D007866E6FE08E6FF786FA60608A60712EB71
:037E1D00637F0080
:017E2000223F
:1068CF00D205E4F527742A252712657E7480F074AB
:1068DF002D252712659D7480F00527E527B403E564
:1068EF0012EB867F40127E218F23E5236001227FEA
:1068FF00401290A48F23E5236001221266777F0256
:10690F001298FAEF60037F8022E523C3946050034F
:10691F007F80221266777F011298FAEF60037F80E3
:10692F0022E523C3946050037F8022126677E4FF31
:10693F001298FAEF60037F8022E523C3946050031F
:10694F007F802278B77605126A8C752602200503A0
:10695F00026A787527307B007A007924AF2612B847
:10696F00928F23E523B4800122E523644060737B7B
:10697F00007A007925AF2612A28E8F23E523B480EB
:10698F000122126680FFBF060BE5266401600575C4
:10699F0023808003752302E524B4FA06E5256523D9
:1069AF006040E527D394084030E524D394FB502969
:1069BF00E524C394F94022E5232401FFE433FED3F9
:1069CF00E5259FEE6480F8748098500DE52314FF41
:1069DF00E525C39F40037527081527E527600302A8
:1069EF006965742A252612657EE0D394F0402678D7
:1069FF00B7E6B40718E526B402057526018047E50A
:106A0F0026B40105E4F526803DC2058039752602BE
:106A1F0078B7068031742A252612657EE0C3941E4E
:106A2F00502C78B7E6B40418E526B4020575260194
:106A3F008014E526B40105E4F526800AC205800618
:106A4F0075260278B71678B7126A8C02695CE5264C
:106A5F00B4020675260102695CE526B40106E4F569
:106A6F002602695CC20502695C90F82AE06008A3FF
:0C6A7F00E06004A3E070037F80227F0031
:106A8B0022E6C45430F53B7BCFE4FD7FDC12CE8A8B
:086A9B007F017E0012E62322B8
:1098FA008D2E8B2F8A308931BF0304AB078005C3B5
:10990A0074029FFB7DF87F7A12D986E52E70307536
:10991A000C12750D80F50EF50F78B3E6FE08E6FF1A
:10992A00D39409EE940040067E007F098008EF2454
:10993A00FFFFEE34FFFE8F10E51004F51180227848
:10994A00B179B81265A54BF50C78B9E6F50D8D0E0F
:10995A0078B579B31265A54BF50F78B4E6F5108D95
:10996A0011126574C2067D067C007F7012D653E51B
:10997A002E5401C43354E04401FD7F7D12EA731270
:10998A00A3268F0CE50C600122AB2FAA30A931C2A5
:10999A00067D017F8712D187E52E700DAB2FAA3085
:0C99AA00A9311244F0F41245587F00224D
:08B892008F288B298A2A892BDB
:10B89A007D011298FAEF60037F80221266D0D3945A
:10B8AA00FA4020EF2406F52CE4FBAD2CAF2812CA8F
:10B8BA005BEF6037E4FB7D04AF2812CAA1EF602B6F
:10B8CA007F40221266D0C394FA5020C374FA9FF5BF
:10B8DA002C7B01FDAF2812CA5BEF600F7B017D0450
:0DB8EA00AF2812CAA1EF60037F40227F004B
:01B8F700222E
:08A28E008F288B298A2A892BF5
:10A29600126680FFBF060BE52864016005752D80F8
:10A2A6008003752D02AB29AA2AA92BE4FDAF28123B
:10A2B60098FAEF60037F802212666EFFD3952D40D9
:10A2C60016EF952DF52CD3940840047D088004AF35
:10A2D6002CAD07E4FB804112666EFFC3952D503D01
:10A2E600C3E52D9FF52C12668064067019E5286477
:10A2F600016013E52CD3940840047D088004AF2C3C
:10A30600AD077B01801212666E7009E52C2404FDF0
:0FA316007B0180047B01AD2CAF2812CAA17F0010
:01A325002215
:10CA5B00E4F52DEB601A12657BE0FEC39D742A4052
:10CA6B000912657DC3EE9DF0802612657DE4801C66
:10CA7B0012657BE0FEC374FF9DC39E742A400812AF
:10CA8B00657DE02DF0800912657D74FFF0752D0139
:05CA9B0012D735AF2D9C
:01CAA0002273
:10CAA100E4F52EEB601A12659AE0FEC39D742D40E9
:10CAB1000912659CC3EE9DF0802612659CE4801CE2
:10CAC10012659AE0FEC374FF9DC39E742D40081247
:10CAD100659CE02DF0800912659C74FFF0752E01B4
:05CAE10012D56AAF2E22
:01CAE600222D
:10B29100C0008004010F80800000000000003232F5
:10B2A100000A320000000002800200840808080839
:10B2B100080896800008080808080891828A878E85
:10B2C1008E7B80808080807480837A817689816E94
:10B2D10080808080808061606367615669614E8093
:10B2E100808080808080808080808080808080805D
:10B2F10080808080FFFFFFFFFFFFFFFFFFFFFFFF59
:04B30100FFFFFFFF4C
:10568D0075F01390002712486FE40893FE74019390
:10569D00A60608F622F0A3F0A3F0A3F07B017AF89A
:1056AD00799822E6FC08E6FDECA3F0AF05A3EFF038
:1056BD0008E6FC08E6FDECA3F0AF05A3EFF008E665
:1056CD00FC08E6FDECA3F0AF05A3EFF022748C25EA
:1056DD003DF582E434F8F583E07F0025E025E0FE1A
:1056ED00EF22E52975F007A47B0124FFF974F73546
:1056FD00F0FA7E00E92528F9EE3AFA1244F0FF742B
:10570D00982528F582E434F8F58322758300124537
:10571D0009FD748C2537F582E434F8F583E025E036
:10572D0025E022E0FDEEF6ED08F6A3E0FEA3E0FD98
:10573D00EE08F6ED08F6A3E0FEA3E0FDEE08F6EDAB
:10574D0008F622AB28AA29A92A852E827583001274
:10575D004509FF90F881E0FD75F008A4252EF5822E
:10576D00E435F0F583E5822290002775F013124899
:10577D006FE493FC740193FDEC22FA7879E675F0F1
:10578D0003A4F58285F08302450975F008A4240071
:10579D00F582E5F03EF583E58224F8F582E5833464
:1057AD003FF583E0547F2274922537F582E434F877
:1057BD00F5832278AEE65470C4540FFF25E025E042
:1057CD0024C2F582E434B2F583E49390F831F0EF1E
:1057DD0025E025E024C3F582E434B2F583E4932279
:1057ED0078767C007D007AB279917BFF7E007F0612
:1057FD000244CA7A002FFFEA3EFE74F82FF5827438
:10580D003F3EF583E0222F7A00FFEA3EFE74002F23
:10581D00F58274403EF583EDF02278AEE65470C407
:10582D00540F2275F008A42400FFE5F022E536544C
:10583D000375F004A42537F582E435F0F583AB3319
:10584D00AA34A935227486253DF582E434F8F58312
:10585D002224FEF58274433EF58322E6A3F008E68A
:10586D00A3F008E6A3F022E0F6A3E008F6A3E00813
:10587D00F622F090F88202481A78007CF87D017BC0
:10588D00FF7AB2799D7E007F1F2275F01390002163
:10589D00227F0790F89974FF22752B01752CF975ED
:1058AD002D007B017AF979802224FFF58274433E25
:1058BD00F5832224FDF58274433EF5832224FCF505
:1058CD008274433EF5832224FBF58274433EF583B7
:1058DD0022F582E434F8F58322FD74802EF582E4FE
:1058ED0034F9F583EDF022AB38AA39A93A22E0FE5E
:1058FD00E53E5407FD7401A8050822E529241D90F5
:10590D00F898F0752801222400F582E583347BF5A3
:10591D0083E0222480F582E583347BF583E022E564
:10592D003E131313541F2290F89BF0A3EDF075F066
:10593D00132274002EF582E434F9F5832275F013E9
:0E594D0090002522AB2BAA2CA92D852E82229C
:10D7B600907FFFE06412600280051280C24006126C
:10D7C600AF4502944812D93412E2DF12BBB212BC42
:0BD7D600D212DAC112C41812C2722273
:1094480078C6E6A2E150277858E6FFC39410501E6C
:10945800EF1313543FFF7B007A00790C12B53A786A
:1094680058E6540325E025E0240CF8E6F52312E736
:10947800A512B0B612D5F712AECA12EB8C12EAE7F3
:1094880012CFF912EAB712CAE712EBC612E6CC7885
:10949800C6E6A2E150687858E6C394105060787B1D
:1094A800E6C3940F4004E4F68003787B06785AE616
:1094B800F52408E6F52508E6F52608E6F5277832C6
:1094C8007C007D007B007A0079237E007F051244B2
:1094D800CA12CD89E4786EF6E52312594A125693DA
:1094E800E52312568DE523125897125693E408F691
:1094F800787BE6FF12D377787BE67858F62278C631
:10950800E6A2E1400B7858E6FF9446500312BF04E8
:019518002230
:10D37700786EE6FEC433333354804F90F898F00844
:10D387001256B008E6A3F078C6E6A2E140071256A7
:10D39700A9E4FF800C78C6E6A2E150081256A97FDF
:05D3A700031297722241
:02BF04008F2884
:10BF060078C6E6FFA2E14005E4F5298008EFA2E144
:10BF160050037529031256A9AD28AF2912B5A850AA
:10BF26001A90F898E0C41313135401786EF6A3E040
:10BF3600FEA308125730A3E008F622E4786EF6E571
:10BF46002812594A125693E52812568DE52812589A
:07BF560097125693E408F670
:01BF5D0022C1
:10B0B600E4F5281256A9AD28E4FF12B5A85032903F
:10B0C600F898E528F090002512577890F899F0A3A3
:10B0D600EDF0E528125775125934E5289000211233
:10B0E600577B90F89DF0A3EDF0E41256A7FF129758
:10B0F600720528E528C3944640B9E4F5281256A9F6
:10B10600AD287F0312B5A8501590F898E528F012DF
:10B11600589EF0A3DFFC1256A97F031297720528EA
:07B12600E528C3941040D698
:01B12D0022FF
:10CD8900E535540FFEE4C4F8540FC868FFEEC454E7
:10CD9900F048FEE533540F4EF533EF4534F534785A
:10CDA9007BE690F898F0A3E532F0E533A3F0A3E52C
:10CDB90034F0A3E536F0A374FF1256A47F0202975C
:01CDC90072F7
:08B53A008F328B338A3489350E
:10B54200E53225E025E0F536E53275F004A4240461
:10B55200FFE435F0FEC3E5369FEE6480F874809810
:10B5620050431256A9AD367F0212B5A85020E4F519
:10B572003774992537F582E434F8F583E0FF1258E1
:10B582003AEF12456A0537E537B404E58012E4F56F
:10B592003712583A74FF12456A0537E537B404F199
:05B5A200053602B54A68
:01B5A7002281
:10D5F700E4F5281256A9AD287F0212B5A850159058
:10D60700F898E528F012589EF0A3DFFC1256A97F80
:0DD61700021297720528E528C3941040D632
:01D6240022E3
:10D88C0078C6E6FEA2E140057524018008EEA2E10F
:10D89C00500375240490F898EFF0787C1256B0A3DE
:0AD8AC0074FF1256A8AF2402977211
:02C371008F2417
:10C3730078C6E6FFA2E140057525018008EFA2E13A
:10C3830050037525041256A9AD24AF2512B5A85044
:10C393000C90F899E0FEA3787C1257302275F013C5
:10C3A300E52490002512486FE4787C12569875F0C6
:10C3B30013E52412569075F013E5249000211256CC
:01C3C30093E6
:01C3C4002256
:10AECA00E4F5281256A9AD287F0112B5A85035908D
:10AEDA00F898E528F012594A12577B90F899F0A38E
:10AEEA00EDF0E528125775125934E5289000211221
:10AEFA00577B90F89DF0A3EDF0A374FF1256A87F3C
:10AF0A00011297720528E528C3944640B6E4F5284D
:10AF1A001256A9AD287F0412B5A8501590F898E5E5
:10AF2A0028F012589EF0A3DFFC1256A97F0412974C
:0AAF3A00720528E528C3941040D6E4
:01AF440022EA
:10E5390090F8987401F0787612586808125868A310
:0AE5490074FF1256A87F05029772B6
:10E2DF001256A97D017F0512B5A8500E90F89978B6
:0EE2EF0076125874A308125874221257ED22AA
:06EB8C001257ED02E5390D
:10C6DA00E4F529F5291259081256EFEFF00528E575
:10C6EA0028B408F41256A97F051297720529E5297C
:10C6FA00C3940440E01259081256EFEFF00528E5FA
:10C70A0028B403F475280312570C74FFF00528E5C2
:0CC71A0028B408F31256A97F050297729C
:10BBB200E4F522E522241DFD1256A97F0512B5A83F
:10BBC200503E752301E522B404047F0380027F08FE
:10BBD200E523C39F503074982523125710E0FDE5EA
:10BBE2002275F007A47B0124FFF974F735F0FA7E81
:10BBF20000E92523F9EE3AFAED124558052380C5EE
:0FBC02001258860244CA0522E522C3940540A4C5
:01BC11002210
:09EAE7001258861244CA02C6DA74
:10C8550012582770047F0280027F0390F898EFF04A
:10C8650090F82AE090F899F090F82BE090F89AF07B
:10C8750090F82CE090F89BF090F82DE090F89CF063
:10C8850090F82EE090F89DF090F82FE090F89EF04B
:0BC8950078B7E61256A77F05029772E5
:10BCD20012582770047D0280027D031256A97F0547
:10BCE20012B5A8503890F899E090F82AF090F89A96
:10BCF200E090F82BF090F89BE090F82CF090F89CF4
:10BD0200E090F82DF090F89DE090F82EF090F89EDB
:10BD1200E090F82FF090F89FE078B7F622782A7C2E
:0FBD2200F87D017AB279BC1257F778B77605220F
:10CFF900125827F528782A7CF87D017BFF7AB279C7
:10D00900BC1257F978B7760578AEE6548FF612C890
:10D019005578AEE6548F4460F612C855E528C454D5
:09D02900F0FF78AEE6548F4FF6DB
:01D0320022DB
:10DA9B00125827240490F898F090F831E090F899F8
:10DAAB00F090F832E090F89AF0A374FFF0A31256BE
:06DABB00A27F0502977234
:10DAC1001258272404FD1256A97F0512B5A8500E3D
:10DAD10090F899E090F831F090F89AE080031257AD
:06DAE100C090F832F022B3
:0AEAB7001257C090F832F002DA9B0B
:10D2670012582775F005A4FF7879E6540F24092F83
:10D2770090F898F090F835E090F899F090F836E04B
:10D2870090F89AF090F837E090F89BF0A374FF12AB
:07D2970056A27F0502977209
:10C418007879E6540F2409FD1256A97F0512B5A8AC
:10C42800501690F899E090F835F090F89AE090F866
:10C4380036F090F89BE080257BFF7AB279C878794E
:10C44800E6FF12578B90F835F07AB20975F003EFD2
:10C4580012578E90F836F07AB20912578890F8374A
:02C46800F022C0
:10CAE70012582775F00FA4FFAEF024C8F974B23EB0
:10CAF700FA7BFF12578890F835F074C92FF974B292
:10CB07003E12578790F836F078AEE65470FFC4545B
:10CB17000F75F00FA424CAF974B235F01257879035
:06CB2700F837F002D267AE
:10C2720090F881E07002802590F881E0FF541F6001
:10C282003EEFC3942050197420F0752BFF752C805B
:10C29200752D0C7BFF7A7F798C12A4D1E4FF80216B
:10C2A20090F881E0C4135407C43354E0F07F0112C4
:10C2B200BF5E90F881E02420F01258A602A4D17F3C
:05C2C2000112BF5E2225
:10BF5E0090FF207406F0EF701AFEEE907F8C931215
:10BF6E0058E6EE90800C93FD12593FEDF00EBE8018
:10BF7E00E9802FEF6401702AFE90F881E0FF75F0E2
:10BF8E0008A42E12576B1259141258E675F008EFCA
:10BF9E00A42E12576B125920FF12593FEFF00EBE0E
:08BFAE0080D790FF207407F01A
:01BFB6002268
:03EBC60002C27216
:06A4D1008B288A29892A6C
:10A4D700E4F52E1257501259146F701D125951F589
:10A4E70083124509FF75F008ED125768125920B518
:10A4F7000707052EE52EB480DAE52EC39480505663
:10A5070090F881E0C3946040107F1F12E428907F89
:10A51700FF7412F0E490F881F0E4F52E12575024FE
:10A5270000F582E583347CF583EFF012595175838A
:10A5370000124509FF75F008ED1257682480F5826F
:10A54700E583347CF583EFF0052EE52EB480CD90BE
:06A55700F881E02420F071
:01A55D0022DB
:06EB92001258A602A4D1F6
:10AF45007F1F12E428400122752210AF2212E42847
:10AF55004001220522E522C3941640EFE4F522E5DF
:10AF6500221256E61258B6E522F0EF12585EE4F0CA
:10AF75001258C0E4F01258CAE4F01258D4E522F091
:10AF85002486125856E522F0248C1258DEE522F06C
:10AF950024921257B8E4F00522E522B406C1907F49
:10AFA500FF7412F090F8807406F090F88212483E13
:0AAFB50000000000E490F881F0D3E2
:01AFBF00226F
:10E42800EF33333354F8440190FF39F07BFF7AEA35
:0CE43800798B7F2812E339400122D322A7
:1080C200E4F527F526F525F524F52890F8821248DF
:1080D2003E00000000E4F52274862522125856E57F
:1080E20022F00522E522B406EFE4F523E4F522E5C9
:1080F200221256E61258B6E0FD748625231258560F
:10810200E0FFED6F60030281C3E522FB1256E61227
:1081120058C0E0FCEF1258CAE06CFCEB1256E812B1
:10812200585EE06CFFED6FFDE5221256E61258D460
:10813200E06D60030281C3748C25231258DEE522B0
:10814200F0FF12DBA4749225231257B8EFF0E52258
:108152007D0025E025E0FCED24FDF58274433CF52D
:1081620083E07B00FAED24FCF58274433CF583E066
:108172007E007810C333CE33CED8F9FFEE4AFCEF3F
:108182004BFDE5221256E612585EE0FFECFEED4F83
:10819200FFE48F278E26F525F524125880AB27AAF7
:1081A20026A925A824D31247E34029AF27AE26AD3E
:1081B20025AC2490F88212483290F880E522F080B3
:1081C20013E522B40E02C3220522E522C3940F5006
:1081D200030280F10523E523C3940650030280EED7
:1081E2007F0F12DBA490F881EFF0E4FFFEFDFCA309
:1081F200124826C31247E390F88070057406F08097
:0C8202000AE0FF12D44790F880EFF0D3A0
:01820E00224D
:02DBA400A907CF
:10DBA6007D7FE4FCE925E025E0FAED1258303AFEE7
:10DBB600EC125800F46003AF05220CBC08E6DDE267
:02DBC6007F00DE
:01DBC800223A
:10D44700E4FEBF0E03FF80010FEEFD3395E0FC7491
:10D457008C2DF58274F83CF583E0B5070ABF0E04FE
:10D46700E4FF80010F7EFF0EC3EE6480948640D9EF
:01D477002292
:10E7A500E490F898F012589EF0A3DFFC1256A97F6A
:04E7B5000502977250
:10E6CC00E490F898F07F0790F899E4F0A3DFFC123F
:07E6DC0056A97F05029772A9
:10D934001256A9E4FD7F0512B5A850197522017489
:10D94400982522125710E06002800A0522E522C3BE
:08D95400940840EB22129448F4
:01D95C0022A8
:089772008F378B388A39893AE0
:10977A00D20674922F1257B8E004F53BE53BD39416
:10978A0000404912571FFEE53B125797FF1258F443
:10979A001244F0547F6F7028F53C1258F4853C82CD
:1097AA00125718FAE53B1258303AFEE53C125800B7
:1097BA006D6004C2068015053CE53CB408DC800CEB
:1097CA00E53BB40102C206153B02978620065D12EC
:1097DA0057B4E0B47F05AF37026FB6753B01125834
:1097EA00F4853B82125718FA1257B4E01258303AED
:1097FA00FEE53B125813053BE53BB408E11258F469
:10980A001244F012571EFE1257B4E075F008A42451
:10981A0000F582E5F03EF583E5822400F582E583D2
:0C982A003440F583EDF01257B4E004F078
:01983600220F
:0AB5A8008F388D398B3A8A3B893CBD
:10B5B20074922F1257B8E004F53DE53DD394004054
:10B5C20050748C2538125723FEE53D125797653982
:10B5D2007033F53E748C2538125723FCE53D125822
:10B5E200303CFE7C00EF253EFFEC125805AB3AAA38
:10B5F2003BA93C853E8275830012456A053EE53EC5
:10B60200B408D1800CE53DB40102C322153D02B558
:02B61200BCD3A7
:01B614002213
:026FB6008F3D0D
:106FB800754001748C2F1258DEE0F54190F880E09E
:106FC8002410FF12E428400122E4F974982912578A
:106FD80010E0FD90F880E025E025E0FEE9240012AD
:106FE800581409B908E590F898E0547FF53EE4F59F
:106FF8003F7498253F125710E4F0053FE53FB40869
:10700800F012592CFF24981257101258FB8002C313
:1070180033D8FC4EFE74982F125710EEF090F8807B
:10702800E0FF748C253D1258DEEFF012D44790F83B
:1070380080EF12587FEF2401FFE43EFEE43DFDE4BB
:107048003CFC90F882124832797FE54125E025E042
:10705800FE75F008E912579AF53E647F70030270D6
:10706800E612592C2498125710E0FD7C00E53E5496
:1070780007FF74017E00A807088005C333CE33CE0E
:10708800D8F9FFEE5CFEEF5D4E7053F53FE5412504
:10709800E025E0FCE91258303CFE7C00EF253FFF7C
:1070A800EC125805FD748C253D125723FAE5401261
:1070B80058303AFEE53F125813053FE53FB408CD76
:1070C80012592CFF24981257101258FB8002C33310
:1070D800D8FC4EFE74982F125710EEF0054019E9AF
:1070E80060030270527492253D1257B8E540125859
:1070F8007F78101247F4AB071256DA1258CAEB120F
:10710800587F78081247F4AA071256DA1258C0EACC
:1071180012587FAD071256DA12585EEDF012585227
:10712800E0FC1256DA1258B6ECF0EB6A6DFF125812
:1071380052E06FFD1256DA1258D4EDF0E5412410F2
:08714800FF12E428400122D3EC
:01715000221C
:1095E600AE3AAF3B7C007D021245F3EF2BF53BEE26
:1095F6003AF53AAB2BAA2CA92D0246291246C6E407
:109606007B02FAF9F81246C6AB31AA30A92FA82E6A
:1096160012CBFB8E3A8F3BD3E53B9400E53A648050
:1096260094802290F839E0FEA3E0FBAA06E4F9F85C
:10963600AE36AF3722AB35AA34A933A832AF31AE36
:1096460030AD2FAC2E1246B8A80422A804A905AA4C
:1096560006AB07E0FEA3E0FFE4FCFD22AEF0FBE470
:10966600C39BFF74809EFEE49400FDE49400FC22FC
:109676007A00790C7B00D2067D0122E53B5401FF7E
:10968600C3E49FFFE49400FAAB072290F839E0FCAC
:10969600A3E0FDEC22AB05AA04E4F9F8E53722AB1A
:0696A6002BAA2CA92D22C5
:10D8B6007876E633501C78AEE6A2E25015129676DC
:10D8C6007F0212D187E50C54037007E50C20E702AE
:0AD8D600C32278AEE654F7F6D32221
:066C5F008B2B8A2C892D0D
:106C6500E4FD7F1F12EA737D807F4412EA7312955B
:106C7500F9FFAEF012CC3F5002C322126DF1F5368A
:106C8500E50DF537E4FD7F4412EA731295F9FFAE81
:106C9500F012CC3F5002C322126DF1F538E50DF527
:106CA50039129629FCFD1246C6A804A905AA06AB09
:106CB50007AE38AF39E4FCFD1246AB8F318E308D0F
:106CC5002F8C2ED3E5399490E5389401402B1296FC
:106CD5009113FEED13FFE5392470FBE53834FEFA18
:106CE500D3EB9FEA9E400D12969B2401FFE43536B7
:106CF500FEE48031129629802C129691C313FEED85
:106D050013FFC374909539FB74019538FAD3EB9F43
:106D1500EA9E400E12969B24FFFFE53634FFFEE403
:106D25008003129629FCFD1246C6EF2490FFEE342F
:106D350001FEE43DFDE43C8F358E348D33F5321292
:106D4500963BC005C006C0071295F9129662D0039E
:106D5500D002D0011296024009E53B54017A00FBAE
:106D650080031296811295E6126E055002C322E544
:106D75000C606990F83930E114129659E5352FFF0A
:106D8500E5343EFEED3533FDEC35328017E0FEA3EC
:106D9500E0FBC3E5359BFFE5349EFEE5339400FD3E
:106DA500E53294008F358E348D33F53212963BC023
:106DB50005C006C0071295F9129662D003D002D01D
:106DC500011296024009E53B54017A00FB8003124B
:106DD50096811295E6126E055002C322AB2BAA2CA2
:0B6DE500A92DE53A853BF012468CD347
:106DF000227B007A00790CC2067D027F4412D18783
:106E0000E50C540F22AEF0253BF53BEE353AF53A52
:076E1000AF3BFE12CC3F2254
:10BC12008B2B8A2C892DE4FF12E73D900A21E493B5
:10BC2200FF1296A5E48FF01246541296A5124629E9
:10BC3200FFAEF012CC3F50037F0222E50C602E12C1
:10BC420096A530E10D12462924FFFFE5F034FFFEF0
:10BC5200800A1246292401FFE435F0FE12CC3F503F
:10BC6200037F0222E50C540360037F01227F00223E
:108BA200E4F52EF52DF52CF52BFB7DFC7F4712D934
:108BB200867B107DEF7F5012D98612EAD57BFF7A31
:108BC200E879B67F3C12E3394003028C957B407D05
:108BD200BF7F5212D986E4FD7F5912EA73E4F50C85
:108BE200FB7A00790DD2067D037F5912D187850F5A
:108BF2002E850E2D850D2C850C2BE4FB7D5F7F527F
:108C020012D9867A00793312967A7FAE12D187050D
:108C12003305337B007A007934D2067D017FAF12AF
:108C2200D187E5345430C4540FFF7401A80708807B
:108C320002C333D8FCF534FFE4FCFDFEFBFA7908ED
:108C4200F81246C690F8391296511246C6AB2EAAB1
:108C52002DA92CA82B12475190F83D12965112467D
:108C6200C6C007AF33AB07E4FAF9F8D00712475191
:108C72008F328E318D308C2FC3E49532FF74809504
:108C820031FEE49530FDE4952F8F328E318D30F533
:108C92002F800BE47532FF7531FFF530F52FE4FBC1
:0B8CA2007DEF7F5012D986AE31AF325B
:018CAD0022A4
:10CC3F008E3C8F3DE4FB7DFE7F4712D98612EAD5ED
:10CC4F00AF3DAE3C12DF04E4FD7F0212EA737F08B2
:10CC5F0012CEC97F0812CEC912A9B750012212965F
:10CC6F00767F0212D187E50C54606002D322530CF9
:03CC7F0003C322CA
:10715100E4F528FB7A00790CC2067D027FB512D1D5
:1071610087E50C540FF523E50DF524E4FB7DFD7F48
:10717100BB12D986E4FF12E73D128BA28E258F2622
:1071810012CC3F50037F0222E50C7053432801E5E6
:10719100262418FFE43525FE12CC3F50037F02223E
:1071A100E50C7003432802E52624E8FFE52534FFBA
:1071B100FE12CC3F50037F0222E50C7003432804EA
:1071C100E528B40309740C2526F526E4800DE5288D
:1071D100B4050C74F42526F52674FF3525F525E54F
:1071E1002860030272B4AF24AE2312DF04E4F52851
:1071F100752718AF24AE2312CC3F50037F0222E53E
:107201000C603CE50C30E11AE5287E0030E0047F9B
:107211000C80027F18C3E5249FF524E5239EF52306
:107221008017E5287E0030E1047F0C80027F18EF93
:107231002524F524EE3523F523850C28D527B4E53F
:107241002770037F0122E528701CE5242418FFE440
:107251003523FE12CC3F50037F0222E50C6003FF71
:0F72610080027F018F2885232585242675270429
:10727000E52830E00BE526240CFFE43525FE800AE6
:10728000E52624F4FFE52534FFFE8E298F2A12CC53
:107290003F50037F0222E50C7009852925852A26A7
:1072A000D527CDE5242526FFE5233525C313F52570
:1072B000EF13F5267B007A007925126C5F40037F7F
:1072C00002227B007A00792512BC128F28E5286003
:0A72D000012278AEE64408F67F00C4
:0172DA002291
:10E7B90012E4977827E475F001024884D29012E7B1
:04E7C900E1C29022F7
:10E7E1000000000000000000000000000000000028
:03E7F10000002203
:10E75200D29012E7E13090FDD291C29112E7E1C26C
:05E762009012DAE7222D
:0AEAC100C291D29012E7E1D2912237
:10E86300D291D29012E7E1A291E433FFC290D29108
:01E873002282
:06EB9800C29112E7C52244
:06EB9E00D29112E7C5222E
:10DAE700E4FEEF335004D2918002C29112E7C5EFF2
:10DAF70025E0FF0EBE08EB12E863EF600612EAC1ED
:05DB07007F00227F01F8
:01DB0C0022F6
:10E49700E4FFD291FED29012E7E1EF25E0FFA291CF
:0AE4A700E4334FFFC2900EBE08EBF5
:01E4B1002248
:02DC38008D2A33
:10DC3A00752BFF8F2CAF2C12E752EF64016005D5CC
:10DC4A002BF3C322AF2A12DAE7EF64016002C32280
:01DC5A00D3F6
:01DC5B0022A6
:06C559008F238A258B26CA
:10C55F00E52645257002C322AF2312DC38400122A5
:10C56F00E5234401FF12E752EF64016002C322E5A5
:10C57F0026152670021525144525600C12E7B9EF14
:10C58F0012455812EB9880E712E7B9EF124558128F
:06C59F00EB9E12EAC1D37D
:01C5A5002273
:08AE4C008F238D248A258B263B
:10AE5400E52645257002C322D3E5269400E5259412
:10AE6400004061AD24AF2312DC38400122E52454B4
:10AE74000FFFC374109FFDFF7E00D3E5269FE525D9
:10AE84009E401CE5269FF526E5259EF525E524C371
:10AE940094F0400405230523ED2524F5248007AD13
:10AEA40026E4F525F526AF051DEF6013782712E794
:10AEB400BE1244F0FF12DAE7EF640160E9C3221224
:05AEC400EAC18094D3F7
:01AEC9002266
:03000B0002B6ED4D
:10B6ED00C0E0C0F0C083C082C0D075D000C000C023
:10B6FD0001C002C003C004C005C006C007D28C75CE
:10B70D008A21758CF8D20A78A7E6FE08E6FFF47058
:10B71D0002EEF4600AEF4E6006E61618700116E5AB
:10B72D005760041557800920090612DCA475570AC5
:10B73D00D007D006D005D004D003D002D001D00060
:0BB74D00D0D0D082D083D0F0D0E0320A
:07EB6A00C10000FD54FEFF95
:10ABDF00019B1E01A60F02A401D201A100019E003C
:10ABEF0001A000019F00019D0001A20001A300012F
:05ABFF009C000156005E
:10820F007864E6FA08E6FBFF7C007D64AE02124557
:10821F009E7C007D0A12459EED243022FFC3ED9F08
:10822F00FFEC9ECF24FCAD26CF34FFFE7C00124521
:10823F008CE4FD7B64FAF9F8024751E524FD7C00DC
:10824F00FFC3E5239FFFE5229400FAA9077BFFD226
:10825F00067F922290808EE493FE74019390809219
:10826F00FFC37401939FFFE4939EFEEF780222F504
:10827F000D7B007A00790CC2067D027C007F902274
:10828F00E50C24FDFDE434FFFC7B007A00790FD26E
:10829F00067F92227C007D0AE6FE08E6FF02459EDD
:1082AF00E4F52485238285228322FE7C007D6412DF
:1082BF00458CAD03AC0202459EC207D2087F9222C5
:1082CF00E47B0AFAF9F8AF25AE24AD23AC220247BE
:1082DF00517B007A00790CD20622AB2DAA2EA92F42
:1082EF001244F025E025E02278ACE6C39FFFE49E20
:1082FF00FE22EF2402FFE43EFEE43DFDE43CFCE4FD
:10830F007B02222430F52FEF75F00A84E5F022C2AC
:10831F0007C2087F90227C007D0AAF032290809ACB
:10832F00E493FE740193227864E6FE08E6FF22FBD5
:10833F007A00790CC206222523F523E43522F52293
:0B834F0022EF25E0FBEE33FAC3E6222C
:10B8F800789BEFF678A6A6052401F523E433F52214
:10B9080078A4A60208A60312831E12E77C7FC01241
:10B91800D4A97F0412D4A91200031282C812E77CAA
:10B92800AF23E52312D4A9E522C4F854F0C8E523CF
:10B93800C4540F4854F0FF78A5E6540F4FFF12D4B3
:10B94800A979A4E7C4F854F0C809E7C4540F48FF1C
:06B9580012D4A902000355
:10C21C008E248F258C268D278B2812831E12E77C6B
:10C22C00E524540F4528FF12D4A9AF25E52512D4D7
:10C23C00A9120003E528B4D00FAE26AF277C007DF1
:10C24C000312458C8E268F271282C812E77CE527B5
:10C25C004526600FAF2912D4A9E527152770EF15D5
:06C26C002680EB02000336
:10D0DF008F228D23EFFD7C007529807B10E4FFFEEE
:10D0EF0012C21CE4FF12E8A6E522FD7C0075298818
:10D0FF007B50E4FFFE12C21CE522FD7C0085232934
:08D10F007B90E4FFFE02C21C4C
:04CC82008B33AC073D
:10CC860078A6E6FFED8FF0A4FF789BE62401FBE48F
:10CC960033CB2FFFEB35F0FEAD047C00EF2DF535E1
:10CCA600EC3EF53412831E12E77CE534540F45330F
:0ECCB600FF12D4A9AF35E53512D4A902000350
:10E8A6008F2E1282C812E77CAF2E12D4A902000363
:10DBC9008E268F271282C812E77C852782852683B5
:10DBD900E493FF600D12D4A90527E52770EC05260B
:05DBE90080E8020003CA
:08D599008E228F238D248B25C7
:10D5A10012E946EFC313FEC395244005E4F5248038
:10D5B10006C3E5249EF5247B50AD25AF2412CC8211
:07D5C100AF23AE2202DBC91B
:08D625008E228F238D248B253A
:10D62D0012E946EFC313C395244005E4F5248006A3
:10D63D00C3E5249FF5247B50AD25AF2412CC82AFDA
:06D64D0023AE2202DBC93E
:04C2C700AB07AA0611
:10C2CB007C277D1012459EEF2430F5227C037DE800
:10C2DB00AF0312821BF523AF03128217F5241283CF
:10C2EB002512821BF525AE02AF03128220F5261212
:10C2FB0082C812E77CAF2212D4A9AF2312D4A9AF04
:10C30B002412D4A9AF2512D4A9AF2612D4A90200A6
:01C31B00031E
:10C46A00EF75F06484FED394004012EE2430F52E6A
:10C47A00EF75F00A841283171283128019EF75F090
:10C48A000A84FED39400E44008F52EEE128312804B
:10C49A0005F52EF52FEF2430F5301282C812E77C0D
:10C4AA00AF2E12D4A9AF2F12D4A9AF3012D4A90239
:02C4BA0000037D
:10CF4600EF540FFEC3940AEE50062430F5238004F6
:10CF56002437F523EFC4540FFEC3940AEE5006247B
:10CF660030F52280042437F5221282C812E77CAFFE
:0CCF76002212D4A9AF2312D4A902000398
:10E55300750C81EF25E025E02403F50DE4F50E129B
:0AE56300833E7D03FC7F9002D65337
:107A17008E228F238C248D258B26E526D3946440D4
:107A270003752632E527D394644003752732E5288A
:107A370030E75C128263CEC313CE13D8F9FDAC06D0
:107A4700E522C313FEE5231312822B128301128250
:107A5700448E228F2312832C90809E12826FCEC376
:107A670013CE13D8F9FDAC06E524C313FEE52513A1
:107A7700FFC3ED9FFFEC9ECF24FDAD271282371287
:107A870083011282448E248F2543287F027AFA12BB
:107A97008263CEC313CE13D8F9FDAC06E523AE221D
:107AA7007802CEC313CE13D8F912822BEF2406F532
:107AB70023E43EF52212832CFFC390809E1282712D
:107AC700CEC313CE13D8F9FDAC06E525AE24780254
:107AD700CEC313CE13D8F9FFC3ED9FFFEC9ECF247F
:107AE700FACF34FFFEAD2712823BEF2404F525E4DD
:107AF7003EF5247B027DF87F9312D9867D017F6C4A
:107B070012E7CD8F0CE50C70047FC080027FE08FF9
:107B17000CE4F50D12833E7D02FC7F9012D653E5EF
:107B270024C313E52513F50CE523AE227802CEC353
:107B370013CE13D8F9F50DE5235403C4333354C0DA
:107B4700FFE5255401FEC43354E04F4528F50E12D6
:107B570082E07D037C007F9212D6537F2012CEC92C
:0E7B67007F2012CEC97B057DF87F9302D98660
:10D4DA008B30AE05AD07AF06AB3212CC82E532B463
:10D4EA00D008E53075F003A4F5301282C812E77C43
:10D4FA00E5306009AF3112D4A9153080F302000378
:10E244008F258D268B27E5266014852931852A3272
:0FE25400AB28AD27AF2512D4DA0525D526EC224D
:10A0040078627C037DE81282A7EF4E6005750F31FC
:10A014008003E4F50F7862128211F5101283251281
:10A02400821BF5117862E6FE08E6FFBE051ABF56EC
:10A03400177865E6B4001118E6B4030C7C007D0AB9
:10A0440012459EED24FA800678621282A3ED243034
:10A05400F5127513207514587515201283367C0378
:10A064007DE812459EEF4E602075163112820FF581
:10A074001712832512821BF518128336128220F5DB
:10A0840019E4F51A750C0E801B12820FF516128353
:10A094002512821BF517128336128220F518E4F577
:0AA0A40019750C0D12828F02D653BD
:10D29E00785C1282A3EF75F00A8475F00A8485F02B
:10D2AE0018EF75F00A8485F017750C07E518243011
:10D2BE00F50FE5172430F51075114875125AE4F57F
:07D2CE001312828F02D653F8
:10A8A9007858E675F01390001B12486F12832FFF3A
:10A8B900E48F258E24F523F5227B64FAF9F81282B8
:10A8C900D9E47B0A128244AF038F191282CFE47B49
:10A8D9000A128244AF038F181282CFAF038F17E594
:10A8E90019C3940A4011E51975F00A8404F51A741C
:10A8F900F62519F5198003E4F51A750C0B851A0F5D
:10A90900E5192430F510E5182430F51175122EE5F6
:10A91900172430F51375144B75154875165AE4F557
:07A929001712828F02D653C2
:048FB0008E228F235B
:108FB400AA06A9077BFF12828612D65302904A1290
:108FC40082B2E49364FC704C12824A12D653128229
:108FD400AF0493FFD3940340030290A3EF24FCF562
:108FE400251282B2740293B4FD14740393FD7C00C1
:108FF400D205AB257F9212DB5974040290827B0068
:109004007A007925D2067D017C007F9212D65374B2
:10901400020290821282B2E49364FD703412824A96
:1090240012D6531282B274019324FFFDE434FFFC80
:10903400E58224FFF582E58334FFF583E493FBD2D4
:10904400057F9212DB597402128346E4F524028FE1
:10905400C31282B2E49364FE702A12824A12D65377
:109064000523E523700205221282AF0493F4602FD6
:10907400AA22A9237BFF12828612D653740212837A
:1090840046028FC31282B2E493B4FF0612824A02EC
:0F909400D6530523E523700205220524028FC35E
:0190A30022AA
:0EE9A0007F2012CEC97B017DFE7F6C02D986DE
:09EAF000E4FB7DFE7F6C02D98677
:0C8A8A008E258F268C278D288A298B2AA8
:108A96007D017F6C12E7CD8F30E53070047FC18099
:108AA600027FE18F0C1282E90412827E12D6537E77
:108AB60000E526543F7802C333CE33CED8F9F50C01
:108AC600E5255407FEE52654C07806CEC313CE131B
:108AD600D8F9FFE5285407C43354E04FF50DE528CF
:108AE600AE277803CEC313CE13D8F9F50E7E00E574
:108AF6002A543F7802C333CE33CED8F9F50FE52991
:108B06005407FEE52A54C07806CEC313CE13D8F90F
:108B1600FFE52C5407C43354E04FF510E52CAE2B7B
:108B26007803CEC313CE13D8F9F5111282E07D0671
:108B36007C007F9212D6537F287E0012E623E4F54E
:108B460031750CC11282E9FFE53175F003A42F12CD
:108B5600827E12D653E4F530E53175F003A47C002D
:108B66002530FFEC35F0FEAB2DE52F2FF9E52E3E37
:108B7600FA900001124509FF740C2530F8A6070586
:108B860030E530B403D21282E07D037C007F92127E
:0B8B9600D6530531E531C3940240A620
:018BA10022B1
:10D117008F228B238A248925750C411282EF2403E1
:10D1270012827E12D653AB23AA24A925900005129A
:10D13700450954F0FFE522540F4FF50C1282E07DAC
:08D14700017C007F9202D65327
:02BDEF008F279C
:10BDF100E527701912BE327881E640082432FF1817
:10BE0100E436FE222529FF18E63528FE22E52764BF
:10BE110001701D12BE32400C7881E624CEFF18E677
:10BE210034FFFE22C37881E69529FF18E69528FEA6
:10BE3100227880E6FE08E6FF7B007A00792812ADC1
:0BBE4100CED3E5299432E528940022BE
:10E4B200EFC4333354C0F50C750D018D0E7B001281
:0BE4C200833F7D037C007F9002D65357
:04E946008F828E83AB
:0AE94A00E4FFE49360040FA380F8DB
:01E9540022A0
:10CE4B00E52B601BC3EB9DEA9C4009E52C702FAFD3
:10CE5B0005AE0422EB2401F52EE43AF52D801BD30D
:10CE6B00EB9FEA9E500AE52C700122AE04AF05221F
:0ECE7B00EB24FFF52EEA34FFF52DAE2DAF2E81
:01CE89002286
:10DB0D007F0112BDEF8E258F26E4FF12BDEFC3EF0F
:10DB1D009526FBEE9525FAC37874E69526FF18E653
:05DB2D0095251282B9EC
:01DB320022D0
:10CCC400C37967E7787D96FF19E71896FE12E85155
:10CCD4001282F7787CE6FC08E6FDC39FF526EC9EFD
:10CCE400F525C37867E69DFF18E69CFE12E851120D
:10CCF40082F778701283509526FF18E695251282E4
:01CD0400B975
:01CD0500220B
:10CB2D00C37969E7787F96FF19E71896FE12E851E9
:10CB3D0078AD1282F9787EE6FC08E6FDC39FF526F6
:10CB4D00EC9EF525C37869E69DFF18E69CFE12E87C
:10CB5D005178AD1282F978721283509526FF18E63E
:05CB6D0095251282B9BC
:01CB720022A0
:10BA27007877E6F52290F835E0F519A3E0F51AA343
:10BA3700E0F51B12944890F835E519F0A3E51AF0E4
:10BA4700A3E51BF012C6DA12E53912DF2412C0692A
:10BA570012EBCD12EB86E522640160177873E6FEE0
:10BA670008E6FF1248EB7875E6FF1272DB12EB630C
:10BA770012AD4E7877A622786E760178C7E644082D
:04BA8700F602B12EE4
:10E56D008F2212831E12E77C7F4012D4A97F0312E3
:0AE57D00D4A9AF2212D4A9020003B2
:10E58700E4FFFEFDFCED1D70011C8D828C83E4937E
:09E597002FFFE43EFEED4C70EC98
:01E5A0002258
:10DDDC00E50B450A700712E5878E0A8F0B7B50E422
:10DDEC00FD7F0912CC82E50AFF12CF46AF0B02CFA2
:01DDFC0046E0
:10E66D001299B678C7E6A2E1400312D0A678C7E6A4
:08E67D00A2E2400312EA672249
:10C50B00E4FFFDFBE55630E71530E0027FFFE55613
:10C51B0030E1027DFFE55630E2197BFF8015E556D1
:10C52B0030E0027F7FE55630E1027D7FE55630E259
:10C53B00027B7F12D2D50556E55630E00790FF619E
:0DC54B0074018004E490FF61F090FF60F047
:01C5580022C0
:10A705007D0112A7797EF67F0012DBC97F2012E852
:10A71500A67EF67F0712DBC97D0212A7797EF67F3A
:10A725001C12DBC97D0312A7817EF67F2312DBC9CC
:10A735007D0412A7817EF67F3512DBC97D0512A740
:10A74500897EF67F3E12DBC97D0612A7897EF67FDC
:10A755004912DBC97B507D07E4FF12CC827EF67F70
:10A765005412DBC97B507D08E4FF12CC827EF67F54
:10A775005D02DBC97B50E4FF12CC82227B50E4FFF3
:0CA7850012CC82227B50E4FF12CC822216
:10D4780030042A78BCE67028300105C20102EAF0BF
:10D48800D20178C7E64408F612B4CB12BC7212DD9A
:10D49800DC12A7057BFF7AEB795302D5C812C4BC0E
:01D4A8002261
:10D8E00078BC760812D6AF502078BAE608F612CB8C
:10D8F0007378BAA60712D14F500678BAE6B40B096E
:0AD900007876E633500312B30522D7
:0FE9550078BAE608F612CB7378BAA60702D14F4C
:0AEACB0078BDE654FEF654FDF62275
:10D6AF0078BDE6A2E1500B135008E654FDF654FE88
:10D6BF00F62278BDE6A2E140124402F67BFF7AEB38
:0DD6CF0079717F027E0012C5F3C322C322D1
:07EB710078BDE64401F62225
:07EB780078BDE64404F6221B
:10D7E10079BBE778BA665F600578BCA6052278BD8B
:10D7F100E6A2E35015A2E2500418A605227BFF7AA7
:0BD80100EB79787F327E0012BB5122D1
:10D14F0078BAE6FF30E02F086630E02A12CB73780A
:10D15F00BAA6077876E6335002C204C201E4F50896
:10D16F00F50920040312E26378C7E64401F678BD9F
:08D17F00E654F7F6D322C322A7
:10CB7300E4FF90FF5FE020E0027F0490FF5DE02090
:10CB8300E00343070890FF5CE020E00343071090B5
:10CB9300FF5AE020E00343070290FF58E020E00340
:10CBA30043070190FF59E020E0034307202091034E
:03CBB300430740F5
:01CBB600225C
:10E263007876E633920678BAE624F5600A24FE70DF
:0EE273000D20060AD20422300604E478BAF622
:01E28100227A
:10B305007876E633920578BAE61248A9B32A02B3ED
:10B315003604B33C08B3550BB34210B34820B34EC3
:10B32500400000B36878BDE654F7F6E4FD7F02807F
:10B335001C7D017F0480167D027F0880107D037FC0
:10B3450010800A7D047F2080047D057F4002D7E1BF
:10B3550020051F78BDE654FBF61294487876E6542E
:10B365007FF62278BDE654FBF67BFF7AEB797812FF
:02B37500D5C839
:01B3770022B3
:10001600020280015E013B02BC0A0A032001C10004
:1000260090003E020280015E017A03520F0F0340E8
:1000360001BD00A0003F0D02D00190013B02BC0AA9
:100046000A038401C100A300230F02D00190017CA2
:1000560003520F0F03A801BE00B4002D0F0280014A
:10006600E0013B02580A0A0320020D009100220F0C
:10007600028001E0015E029A0A0A0360020D00A0F6
:10008600002A0F028001E0017A02D80A0A03400220
:100096000800A9001E0F028001E0017702EE0A0A9D
:1000A600034801F400B900120F028001E001B10318
:1000B600520A0A034001FE0088001C0F0320025862
:1000C600015F02320A0A0400027100C800180F0319
:1000D600200258017A025B0A0A0420027400D90041
:1000E6001A0F0320025801E002D00A0A0410029AED
:1000F60000B9001C0F0320025801D402EE0A0A04BC
:1001060020027100F100170F032002580218035253
:100116000A0A0418027700D8001E0F034002700175
:10012600F102E90A0A0480029B0120002A0B04005E
:10013600030001E302580A0A0540032601280022AB
:100146000B04000300023402BC0A0A053003260130
:100156001800220B04000300025802EE0A0A0520CA
:1001660003200110001E0F0400030002AA03520A16
:100176000A05600328013000270F04000320026CE3
:1001860002E40A0A05300345010800230F040003B0
:100196002002CB03520A0A05280345011800230F43
:1001A60004800360021902580A0A05E8037E012C3E
:1001B600001E0F04800360028202BE0A0A05C00305
:1001C60092012000310F0480036002A302EE0A0AA6
:1001D60006400384018000230F04800360030203AA
:1001E600520A0A0628038B0168002A0F0480036658
:1001F60002AE02EE0A0A05B003930110002A0F04AC
:10020600800384026A02940A0A05F803A9015000D1
:10021600230F0480038402CE02FE050505E003A930
:10022600014000230F050002D001BF02580A0A064A
:100236007802EA015300190F050002D0023402EEDB
:100246000A0A069802EF0154001F04050003000184
:10025600DD02580A0A0684031A0142001A02050042
:10026600030001DB025A0A0A05A0031500730012F7
:100276000405000300023002BC0A0A069C031F01A3
:1002860050001F0405000300025902EE0A0A06AADE
:100296000321015A0021080550030001DD02580A16
:1002A6000A0704031A01700017040500032001F46D
:1002B60002580A0A0690033F0148001C0405000381
:1002C60020024302BC0A0A0684033C00E0001F0425
:1002D60005000320026E02EE0A0A0684033E01446C
:1002E60000210F050003C0025802580A0A07080336
:1002F600E801A800270F050003C002EE02EE0A0A75
:10030600069003E8017000270F050003C0035C0395
